{
  "address": "0x16141fa5E89Bfa2Df2cf4A0033E49cD20C4dCF86",
  "abi": [
    {
      "anonymous": false,
      "inputs": [
        {
          "indexed": true,
          "internalType": "address",
          "name": "owner",
          "type": "address"
        },
        {
          "indexed": true,
          "internalType": "address",
          "name": "approved",
          "type": "address"
        },
        {
          "indexed": true,
          "internalType": "uint256",
          "name": "tokenId",
          "type": "uint256"
        }
      ],
      "name": "Approval",
      "type": "event"
    },
    {
      "anonymous": false,
      "inputs": [
        {
          "indexed": true,
          "internalType": "address",
          "name": "owner",
          "type": "address"
        },
        {
          "indexed": true,
          "internalType": "address",
          "name": "operator",
          "type": "address"
        },
        {
          "indexed": false,
          "internalType": "bool",
          "name": "approved",
          "type": "bool"
        }
      ],
      "name": "ApprovalForAll",
      "type": "event"
    },
    {
      "anonymous": false,
      "inputs": [
        {
          "indexed": false,
          "internalType": "uint8",
          "name": "version",
          "type": "uint8"
        }
      ],
      "name": "Initialized",
      "type": "event"
    },
    {
      "anonymous": false,
      "inputs": [
        {
          "indexed": true,
          "internalType": "address",
          "name": "from",
          "type": "address"
        },
        {
          "indexed": true,
          "internalType": "address",
          "name": "to",
          "type": "address"
        },
        {
          "indexed": true,
          "internalType": "uint256",
          "name": "tokenId",
          "type": "uint256"
        }
      ],
      "name": "Transfer",
      "type": "event"
    },
    {
      "inputs": [
        {
          "internalType": "uint256",
          "name": "",
          "type": "uint256"
        }
      ],
      "name": "_dao_uris",
      "outputs": [
        {
          "internalType": "string",
          "name": "dao_wallet",
          "type": "string"
        },
        {
          "internalType": "string",
          "name": "dao_uri",
          "type": "string"
        },
        {
          "internalType": "string",
          "name": "finished",
          "type": "string"
        }
      ],
      "stateMutability": "view",
      "type": "function"
    },
    {
      "inputs": [
        {
          "internalType": "uint256",
          "name": "",
          "type": "uint256"
        }
      ],
      "name": "_ideas_uris",
      "outputs": [
        {
          "internalType": "uint256",
          "name": "goal_id",
          "type": "uint256"
        },
        {
          "internalType": "string",
          "name": "ideas_uri",
          "type": "string"
        },
        {
          "internalType": "uint256",
          "name": "donation",
          "type": "uint256"
        }
      ],
      "stateMutability": "view",
      "type": "function"
    },
    {
      "inputs": [
        {
          "internalType": "uint256",
          "name": "",
          "type": "uint256"
        }
      ],
      "name": "_smart_contracts_uris",
      "outputs": [
        {
          "internalType": "uint256",
          "name": "smart_contract_id",
          "type": "uint256"
        },
        {
          "internalType": "uint256",
          "name": "ideas_id",
          "type": "uint256"
        },
        {
          "internalType": "string",
          "name": "smart_contract_uri",
          "type": "string"
        }
      ],
      "stateMutability": "view",
      "type": "function"
    },
    {
      "inputs": [
        {
          "internalType": "uint256",
          "name": "_ideas_id",
          "type": "uint256"
        },
        {
          "internalType": "uint256",
          "name": "_doantion",
          "type": "uint256"
        }
      ],
      "name": "add_donation",
      "outputs": [],
      "stateMutability": "nonpayable",
      "type": "function"
    },
    {
      "inputs": [
        {
          "internalType": "uint256",
          "name": "",
          "type": "uint256"
        }
      ],
      "name": "all_goal_ideas_votes",
      "outputs": [
        {
          "internalType": "uint256",
          "name": "goal_id",
          "type": "uint256"
        },
        {
          "internalType": "uint256",
          "name": "ideas_id",
          "type": "uint256"
        },
        {
          "internalType": "string",
          "name": "wallet",
          "type": "string"
        }
      ],
      "stateMutability": "view",
      "type": "function"
    },
    {
      "inputs": [
        {
          "internalType": "address",
          "name": "to",
          "type": "address"
        },
        {
          "internalType": "uint256",
          "name": "tokenId",
          "type": "uint256"
        }
      ],
      "name": "approve",
      "outputs": [],
      "stateMutability": "nonpayable",
      "type": "function"
    },
    {
      "inputs": [
        {
          "internalType": "address",
          "name": "owner",
          "type": "address"
        }
      ],
      "name": "balanceOf",
      "outputs": [
        {
          "internalType": "uint256",
          "name": "",
          "type": "uint256"
        }
      ],
      "stateMutability": "view",
      "type": "function"
    },
    {
      "inputs": [
        {
          "internalType": "string",
          "name": "_dao_wallet",
          "type": "string"
        },
        {
          "internalType": "string",
          "name": "_dao_uri",
          "type": "string"
        }
      ],
      "name": "create_dao",
      "outputs": [
        {
          "internalType": "uint256",
          "name": "",
          "type": "uint256"
        }
      ],
      "stateMutability": "nonpayable",
      "type": "function"
    },
    {
      "inputs": [
        {
          "internalType": "string",
          "name": "_goal_uri",
          "type": "string"
        },
        {
          "internalType": "uint256",
          "name": "_dao_id",
          "type": "uint256"
        }
      ],
      "name": "create_goal",
      "outputs": [
        {
          "internalType": "uint256",
          "name": "",
          "type": "uint256"
        }
      ],
      "stateMutability": "nonpayable",
      "type": "function"
    },
    {
      "inputs": [
        {
          "internalType": "uint256",
          "name": "_goal_id",
          "type": "uint256"
        },
        {
          "internalType": "uint256",
          "name": "_ideas_id",
          "type": "uint256"
        },
        {
          "internalType": "string",
          "name": "_wallet",
          "type": "string"
        }
      ],
      "name": "create_goal_ideas_vote",
      "outputs": [
        {
          "internalType": "uint256",
          "name": "",
          "type": "uint256"
        }
      ],
      "stateMutability": "nonpayable",
      "type": "function"
    },
    {
      "inputs": [
        {
          "internalType": "string",
          "name": "_ideas_uri",
          "type": "string"
        },
        {
          "internalType": "uint256",
          "name": "_goal_id",
          "type": "uint256"
        },
        {
          "internalType": "string[]",
          "name": "_smart_contracts",
          "type": "string[]"
        }
      ],
      "name": "create_ideas",
      "outputs": [
        {
          "internalType": "uint256",
          "name": "",
          "type": "uint256"
        }
      ],
      "stateMutability": "nonpayable",
      "type": "function"
    },
    {
      "inputs": [
        {
          "internalType": "uint256",
          "name": "_dao_id",
          "type": "uint256"
        }
      ],
      "name": "dao_uri",
      "outputs": [
        {
          "internalType": "string",
          "name": "",
          "type": "string"
        }
      ],
      "stateMutability": "view",
      "type": "function"
    },
    {
      "inputs": [
        {
          "internalType": "uint256",
          "name": "tokenId",
          "type": "uint256"
        }
      ],
      "name": "getApproved",
      "outputs": [
        {
          "internalType": "address",
          "name": "",
          "type": "address"
        }
      ],
      "stateMutability": "view",
      "type": "function"
    },
    {
      "inputs": [],
      "name": "get_all_daos",
      "outputs": [
        {
          "internalType": "string[]",
          "name": "",
          "type": "string[]"
        }
      ],
      "stateMutability": "view",
      "type": "function"
    },
    {
      "inputs": [],
      "name": "get_all_goals",
      "outputs": [
        {
          "internalType": "string[]",
          "name": "",
          "type": "string[]"
        }
      ],
      "stateMutability": "view",
      "type": "function"
    },
    {
      "inputs": [
        {
          "internalType": "uint256",
          "name": "_dao_id",
          "type": "uint256"
        }
      ],
      "name": "get_all_goals_by_dao_id",
      "outputs": [
        {
          "internalType": "string[]",
          "name": "",
          "type": "string[]"
        }
      ],
      "stateMutability": "view",
      "type": "function"
    },
    {
      "inputs": [],
      "name": "get_all_ideas",
      "outputs": [
        {
          "internalType": "string[]",
          "name": "",
          "type": "string[]"
        }
      ],
      "stateMutability": "view",
      "type": "function"
    },
    {
      "inputs": [
        {
          "internalType": "uint256",
          "name": "_goal_id",
          "type": "uint256"
        }
      ],
      "name": "get_all_ideas_by_goal_id",
      "outputs": [
        {
          "internalType": "string[]",
          "name": "",
          "type": "string[]"
        }
      ],
      "stateMutability": "view",
      "type": "function"
    },
    {
      "inputs": [
        {
          "internalType": "string",
          "name": "_goal_uri",
          "type": "string"
        }
      ],
      "name": "get_goal_id_by_goal_uri",
      "outputs": [
        {
          "internalType": "uint256",
          "name": "",
          "type": "uint256"
        }
      ],
      "stateMutability": "view",
      "type": "function"
    },
    {
      "inputs": [
        {
          "internalType": "string",
          "name": "_ideas_uri",
          "type": "string"
        }
      ],
      "name": "get_goal_id_from_ideas_uri",
      "outputs": [
        {
          "internalType": "uint256",
          "name": "",
          "type": "uint256"
        }
      ],
      "stateMutability": "view",
      "type": "function"
    },
    {
      "inputs": [
        {
          "internalType": "string",
          "name": "_ideas_uri",
          "type": "string"
        }
      ],
      "name": "get_ideas_id_by_ideas_uri",
      "outputs": [
        {
          "internalType": "uint256",
          "name": "",
          "type": "uint256"
        }
      ],
      "stateMutability": "view",
      "type": "function"
    },
    {
      "inputs": [
        {
          "internalType": "uint256",
          "name": "_goal_id",
          "type": "uint256"
        },
        {
          "internalType": "uint256",
          "name": "_ideas_id",
          "type": "uint256"
        }
      ],
      "name": "get_ideas_votes_from_goal",
      "outputs": [
        {
          "internalType": "string[]",
          "name": "",
          "type": "string[]"
        }
      ],
      "stateMutability": "view",
      "type": "function"
    },
    {
      "inputs": [
        {
          "internalType": "uint256",
          "name": "_goal_id",
          "type": "uint256"
        }
      ],
      "name": "goal_uri",
      "outputs": [
        {
          "internalType": "string",
          "name": "",
          "type": "string"
        }
      ],
      "stateMutability": "view",
      "type": "function"
    },
    {
      "inputs": [
        {
          "internalType": "uint256",
          "name": "_ideas_id",
          "type": "uint256"
        }
      ],
      "name": "ideas_uri",
      "outputs": [
        {
          "internalType": "string",
          "name": "",
          "type": "string"
        }
      ],
      "stateMutability": "view",
      "type": "function"
    },
    {
      "inputs": [
        {
          "internalType": "address",
          "name": "owner",
          "type": "address"
        },
        {
          "internalType": "address",
          "name": "operator",
          "type": "address"
        }
      ],
      "name": "isApprovedForAll",
      "outputs": [
        {
          "internalType": "bool",
          "name": "",
          "type": "bool"
        }
      ],
      "stateMutability": "view",
      "type": "function"
    },
    {
      "inputs": [],
      "name": "name",
      "outputs": [
        {
          "internalType": "string",
          "name": "",
          "type": "string"
        }
      ],
      "stateMutability": "view",
      "type": "function"
    },
    {
      "inputs": [
        {
          "internalType": "uint256",
          "name": "tokenId",
          "type": "uint256"
        }
      ],
      "name": "ownerOf",
      "outputs": [
        {
          "internalType": "address",
          "name": "",
          "type": "address"
        }
      ],
      "stateMutability": "view",
      "type": "function"
    },
    {
      "inputs": [],
      "name": "reset_all",
      "outputs": [],
      "stateMutability": "nonpayable",
      "type": "function"
    },
    {
      "inputs": [
        {
          "internalType": "address",
          "name": "from",
          "type": "address"
        },
        {
          "internalType": "address",
          "name": "to",
          "type": "address"
        },
        {
          "internalType": "uint256",
          "name": "tokenId",
          "type": "uint256"
        }
      ],
      "name": "safeTransferFrom",
      "outputs": [],
      "stateMutability": "nonpayable",
      "type": "function"
    },
    {
      "inputs": [
        {
          "internalType": "address",
          "name": "from",
          "type": "address"
        },
        {
          "internalType": "address",
          "name": "to",
          "type": "address"
        },
        {
          "internalType": "uint256",
          "name": "tokenId",
          "type": "uint256"
        },
        {
          "internalType": "bytes",
          "name": "data",
          "type": "bytes"
        }
      ],
      "name": "safeTransferFrom",
      "outputs": [],
      "stateMutability": "nonpayable",
      "type": "function"
    },
    {
      "inputs": [
        {
          "internalType": "address",
          "name": "operator",
          "type": "address"
        },
        {
          "internalType": "bool",
          "name": "approved",
          "type": "bool"
        }
      ],
      "name": "setApprovalForAll",
      "outputs": [],
      "stateMutability": "nonpayable",
      "type": "function"
    },
    {
      "inputs": [
        {
          "internalType": "uint256",
          "name": "_dao_id",
          "type": "uint256"
        },
        {
          "internalType": "string",
          "name": "_dao_wallet",
          "type": "string"
        },
        {
          "internalType": "string",
          "name": "_dao_uri",
          "type": "string"
        }
      ],
      "name": "set_dao",
      "outputs": [],
      "stateMutability": "nonpayable",
      "type": "function"
    },
    {
      "inputs": [
        {
          "internalType": "uint256",
          "name": "_goal_id",
          "type": "uint256"
        },
        {
          "internalType": "string",
          "name": "_goal_uri",
          "type": "string"
        }
      ],
      "name": "set_goal",
      "outputs": [],
      "stateMutability": "nonpayable",
      "type": "function"
    },
    {
      "inputs": [
        {
          "internalType": "uint256",
          "name": "_ideas_id",
          "type": "uint256"
        },
        {
          "internalType": "string",
          "name": "_ideas_uri",
          "type": "string"
        }
      ],
      "name": "set_ideas",
      "outputs": [],
      "stateMutability": "nonpayable",
      "type": "function"
    },
    {
      "inputs": [
        {
          "internalType": "bytes4",
          "name": "interfaceId",
          "type": "bytes4"
        }
      ],
      "name": "supportsInterface",
      "outputs": [
        {
          "internalType": "bool",
          "name": "",
          "type": "bool"
        }
      ],
      "stateMutability": "view",
      "type": "function"
    },
    {
      "inputs": [],
      "name": "symbol",
      "outputs": [
        {
          "internalType": "string",
          "name": "",
          "type": "string"
        }
      ],
      "stateMutability": "view",
      "type": "function"
    },
    {
      "inputs": [
        {
          "internalType": "uint256",
          "name": "index",
          "type": "uint256"
        }
      ],
      "name": "tokenByIndex",
      "outputs": [
        {
          "internalType": "uint256",
          "name": "",
          "type": "uint256"
        }
      ],
      "stateMutability": "view",
      "type": "function"
    },
    {
      "inputs": [
        {
          "internalType": "address",
          "name": "owner",
          "type": "address"
        },
        {
          "internalType": "uint256",
          "name": "index",
          "type": "uint256"
        }
      ],
      "name": "tokenOfOwnerByIndex",
      "outputs": [
        {
          "internalType": "uint256",
          "name": "",
          "type": "uint256"
        }
      ],
      "stateMutability": "view",
      "type": "function"
    },
    {
      "inputs": [
        {
          "internalType": "uint256",
          "name": "tokenId",
          "type": "uint256"
        }
      ],
      "name": "tokenURI",
      "outputs": [
        {
          "internalType": "string",
          "name": "",
          "type": "string"
        }
      ],
      "stateMutability": "view",
      "type": "function"
    },
    {
      "inputs": [],
      "name": "totalSupply",
      "outputs": [
        {
          "internalType": "uint256",
          "name": "",
          "type": "uint256"
        }
      ],
      "stateMutability": "view",
      "type": "function"
    },
    {
      "inputs": [
        {
          "internalType": "address",
          "name": "from",
          "type": "address"
        },
        {
          "internalType": "address",
          "name": "to",
          "type": "address"
        },
        {
          "internalType": "uint256",
          "name": "tokenId",
          "type": "uint256"
        }
      ],
      "name": "transferFrom",
      "outputs": [],
      "stateMutability": "nonpayable",
      "type": "function"
    }
  ],
  "transactionHash": "0x6af316332599ada446ef3a991346328e56a7e8f1fa4cd871bb81ce02ae868d4d",
  "args": [],
  "numDeployments": 1,
  "solcInputHash": "3c6e58be825638601320a40cbdc8d72f",
  "bytecode": "0x608060405234801561001057600080fd5b506151f4806100206000396000f3fe608060405234801561001057600080fd5b50600436106102535760003560e01c806371085cab11610146578063b16060a6116100c3578063c4c2e36411610087578063c4c2e364146107a8578063c87b56dd146107d8578063e3280c9614610808578063e32acc1a14610838578063e985e9c514610868578063ff4a37ef1461089857610253565b8063b16060a61461072c578063b88d4fde14610736578063c04e743014610752578063c04fe9781461076e578063c29595c51461078c57610253565b806397ee76061161010a57806397ee760614610676578063a1ca917814610694578063a22cb465146106c4578063a2cdb3a9146106e0578063aa4cdf2a146106fc57610253565b806371085cab146105ac57806382fcc732146105dc578063881de8581461060c5780638d3d25951461062857806395d89b411461065857610253565b806327a568b9116101d45780634be7adb5116101985780634be7adb5146104bc5780634f6ccce7146104ec5780635d907da11461051c5780636352211e1461054c57806370a082311461057c57610253565b806327a568b9146103ee57806329b56f60146104205780632f745c591461043e57806342842e0e1461046e578063468d0c801461048a57610253565b8063131d44f21161021b578063131d44f21461032257806318160ddd146103525780631ba44c4c146103705780631e9ac9f5146103a257806323b872dd146103d257610253565b806301ffc9a71461025857806306fdde0314610288578063081812fc146102a6578063095ea7b3146102d6578063109ac970146102f2575b600080fd5b610272600480360381019061026d9190613db4565b6108ca565b60405161027f9190614638565b60405180910390f35b610290610944565b60405161029d9190614653565b60405180910390f35b6102c060048036038101906102bb9190613fb6565b6109d6565b6040516102cd91906145af565b60405180910390f35b6102f060048036038101906102eb9190613d74565b610a1c565b005b61030c60048036038101906103079190613fb6565b610b34565b6040516103199190614616565b60405180910390f35b61033c60048036038101906103379190613fb6565b610ca4565b6040516103499190614616565b60405180910390f35b61035a610e14565b6040516103679190614881565b60405180910390f35b61038a60048036038101906103859190613fb6565b610e21565b604051610399939291906148da565b60405180910390f35b6103bc60048036038101906103b79190613e0e565b610ed3565b6040516103c99190614881565b60405180910390f35b6103ec60048036038101906103e79190613c5e565b610f45565b005b61040860048036038101906104039190613fb6565b610fa5565b60405161041793929190614675565b60405180910390f35b610428611167565b6040516104359190614616565b60405180910390f35b61045860048036038101906104539190613d74565b6112a2565b6040516104659190614881565b60405180910390f35b61048860048036038101906104839190613c5e565b611347565b005b6104a4600480360381019061049f9190613fb6565b611367565b6040516104b39392919061489c565b60405180910390f35b6104d660048036038101906104d191906140ca565b611419565b6040516104e39190614616565b60405180910390f35b61050660048036038101906105019190613fb6565b6115ab565b6040516105139190614881565b60405180910390f35b61053660048036038101906105319190613fb6565b61161c565b6040516105439190614653565b60405180910390f35b61056660048036038101906105619190613fb6565b6116c4565b60405161057391906145af565b60405180910390f35b61059660048036038101906105919190613bf1565b61174b565b6040516105a39190614881565b60405180910390f35b6105c660048036038101906105c19190613ecf565b611803565b6040516105d39190614881565b60405180910390f35b6105f660048036038101906105f1919061410a565b61187c565b6040516106039190614881565b60405180910390f35b6106266004803603810190610621919061403f565b611906565b005b610642600480360381019061063d9190613fb6565b611961565b60405161064f9190614653565b60405180910390f35b610660611a09565b60405161066d9190614653565b60405180910390f35b61067e611a9b565b60405161068b9190614616565b60405180910390f35b6106ae60048036038101906106a99190613e0e565b611bd6565b6040516106bb9190614881565b60405180910390f35b6106de60048036038101906106d99190613d34565b611c48565b005b6106fa60048036038101906106f591906140ca565b611c5e565b005b61071660048036038101906107119190613e0e565b611c8f565b6040516107239190614881565b60405180910390f35b610734611d17565b005b610750600480360381019061074b9190613cb1565b611e9d565b005b61076c60048036038101906107679190613fe3565b611eff565b005b610776611f2e565b6040516107839190614616565b60405180910390f35b6107a660048036038101906107a19190613fe3565b612069565b005b6107c260048036038101906107bd9190613e57565b612098565b6040516107cf9190614881565b60405180910390f35b6107f260048036038101906107ed9190613fb6565b61217c565b6040516107ff9190614653565b60405180910390f35b610822600480360381019061081d9190613f2b565b6121e4565b60405161082f9190614881565b60405180910390f35b610852600480360381019061084d9190613fb6565b6122d0565b60405161085f9190614653565b60405180910390f35b610882600480360381019061087d9190613c1e565b612378565b60405161088f9190614638565b60405180910390f35b6108b260048036038101906108ad9190613fb6565b61240c565b6040516108c1939291906148da565b60405180910390f35b60007f780e9d63000000000000000000000000000000000000000000000000000000007bffffffffffffffffffffffffffffffffffffffffffffffffffffffff1916827bffffffffffffffffffffffffffffffffffffffffffffffffffffffff1916148061093d575061093c826124be565b5b9050919050565b60606065805461095390614bb8565b80601f016020809104026020016040519081016040528092919081815260200182805461097f90614bb8565b80156109cc5780601f106109a1576101008083540402835291602001916109cc565b820191906000526020600020905b8154815290600101906020018083116109af57829003601f168201915b5050505050905090565b60006109e1826125a0565b6069600083815260200190815260200160002060009054906101000a900473ffffffffffffffffffffffffffffffffffffffff169050919050565b6000610a27826116c4565b90508073ffffffffffffffffffffffffffffffffffffffff168373ffffffffffffffffffffffffffffffffffffffff161415610a98576040517f08c379a0000000000000000000000000000000000000000000000000000000008152600401610a8f90614801565b60405180910390fd5b8073ffffffffffffffffffffffffffffffffffffffff16610ab76125eb565b73ffffffffffffffffffffffffffffffffffffffff161480610ae65750610ae581610ae06125eb565b612378565b5b610b25576040517f08c379a0000000000000000000000000000000000000000000000000000000008152600401610b1c90614821565b60405180910390fd5b610b2f83836125f3565b505050565b6060600060ca5467ffffffffffffffff811115610b5457610b53614d4f565b5b604051908082528060200260200182016040528015610b8757816020015b6060815260200190600190039081610b725790505b509050600080600090505b60ca54811015610c99578460cf6000838152602001908152602001600020600001541415610c865760cf60008281526020019081526020016000206001018054610bdb90614bb8565b80601f0160208091040260200160405190810160405280929190818152602001828054610c0790614bb8565b8015610c545780601f10610c2957610100808354040283529160200191610c54565b820191906000526020600020905b815481529060010190602001808311610c3757829003601f168201915b5050505050838381518110610c6c57610c6b614d20565b5b60200260200101819052508180610c8290614c1b565b9250505b8080610c9190614c1b565b915050610b92565b508192505050919050565b6060600060cb5467ffffffffffffffff811115610cc457610cc3614d4f565b5b604051908082528060200260200182016040528015610cf757816020015b6060815260200190600190039081610ce25790505b509050600080600090505b60cb54811015610e09578460d06000838152602001908152602001600020600001541415610de85760d060008281526020019081526020016000206001018054610d4b90614bb8565b80601f0160208091040260200160405190810160405280929190818152602001828054610d7790614bb8565b8015610dc45780601f10610d9957610100808354040283529160200191610dc4565b820191906000526020600020905b815481529060010190602001808311610da757829003601f168201915b5050505050838381518110610ddc57610ddb614d20565b5b60200260200101819052505b8180610df390614c1b565b9250508080610e0190614c1b565b915050610d02565b508192505050919050565b6000609980549050905090565b60d2602052806000526040600020600091509050806000015490806001015490806002018054610e5090614bb8565b80601f0160208091040260200160405190810160405280929190818152602001828054610e7c90614bb8565b8015610ec95780601f10610e9e57610100808354040283529160200191610ec9565b820191906000526020600020905b815481529060010190602001808311610eac57829003601f168201915b5050505050905083565b600080600090505b60ca54811015610f3a57828051906020012060cf6000838152602001908152602001600020600101604051610f109190614574565b60405180910390201415610f275780915050610f40565b8080610f3290614c1b565b915050610edb565b50600090505b919050565b610f56610f506125eb565b826126ac565b610f95576040517f08c379a0000000000000000000000000000000000000000000000000000000008152600401610f8c906146c1565b60405180910390fd5b610fa0838383612741565b505050565b60ce602052806000526040600020600091509050806000018054610fc890614bb8565b80601f0160208091040260200160405190810160405280929190818152602001828054610ff490614bb8565b80156110415780601f1061101657610100808354040283529160200191611041565b820191906000526020600020905b81548152906001019060200180831161102457829003601f168201915b50505050509080600101805461105690614bb8565b80601f016020809104026020016040519081016040528092919081815260200182805461108290614bb8565b80156110cf5780601f106110a4576101008083540402835291602001916110cf565b820191906000526020600020905b8154815290600101906020018083116110b257829003601f168201915b5050505050908060020180546110e490614bb8565b80601f016020809104026020016040519081016040528092919081815260200182805461111090614bb8565b801561115d5780601f106111325761010080835404028352916020019161115d565b820191906000526020600020905b81548152906001019060200180831161114057829003601f168201915b5050505050905083565b6060600060ca5467ffffffffffffffff81111561118757611186614d4f565b5b6040519080825280602002602001820160405280156111ba57816020015b60608152602001906001900390816111a55790505b50905060005b60ca5481101561129a5760cf600082815260200190815260200160002060010180546111eb90614bb8565b80601f016020809104026020016040519081016040528092919081815260200182805461121790614bb8565b80156112645780601f1061123957610100808354040283529160200191611264565b820191906000526020600020905b81548152906001019060200180831161124757829003601f168201915b505050505082828151811061127c5761127b614d20565b5b6020026020010181905250808061129290614c1b565b9150506111c0565b508091505090565b60006112ad8361174b565b82106112ee576040517f08c379a00000000000000000000000000000000000000000000000000000000081526004016112e5906146e1565b60405180910390fd5b609760008473ffffffffffffffffffffffffffffffffffffffff1673ffffffffffffffffffffffffffffffffffffffff168152602001908152602001600020600083815260200190815260200160002054905092915050565b61136283838360405180602001604052806000815250611e9d565b505050565b60d060205280600052604060002060009150905080600001549080600101805461139090614bb8565b80601f01602080910402602001604051908101604052809291908181526020018280546113bc90614bb8565b80156114095780601f106113de57610100808354040283529160200191611409565b820191906000526020600020905b8154815290600101906020018083116113ec57829003601f168201915b5050505050908060020154905083565b6060600060cd5467ffffffffffffffff81111561143957611438614d4f565b5b60405190808252806020026020018201604052801561146c57816020015b60608152602001906001900390816114575790505b509050600080600090505b60cd5481101561159f578560d26000838152602001908152602001600020600001541480156114bb57508460d2600083815260200190815260200160002060010154145b1561157e5760d2600082815260200190815260200160002060020180546114e190614bb8565b80601f016020809104026020016040519081016040528092919081815260200182805461150d90614bb8565b801561155a5780601f1061152f5761010080835404028352916020019161155a565b820191906000526020600020905b81548152906001019060200180831161153d57829003601f168201915b505050505083838151811061157257611571614d20565b5b60200260200101819052505b818061158990614c1b565b925050808061159790614c1b565b915050611477565b50819250505092915050565b60006115b5610e14565b82106115f6576040517f08c379a00000000000000000000000000000000000000000000000000000000081526004016115ed90614841565b60405180910390fd5b6099828154811061160a57611609614d20565b5b90600052602060002001549050919050565b606060ce6000838152602001908152602001600020600101805461163f90614bb8565b80601f016020809104026020016040519081016040528092919081815260200182805461166b90614bb8565b80156116b85780601f1061168d576101008083540402835291602001916116b8565b820191906000526020600020905b81548152906001019060200180831161169b57829003601f168201915b50505050509050919050565b6000806116d083612a3b565b9050600073ffffffffffffffffffffffffffffffffffffffff168173ffffffffffffffffffffffffffffffffffffffff161415611742576040517f08c379a0000000000000000000000000000000000000000000000000000000008152600401611739906147e1565b60405180910390fd5b80915050919050565b60008073ffffffffffffffffffffffffffffffffffffffff168273ffffffffffffffffffffffffffffffffffffffff1614156117bc576040517f08c379a00000000000000000000000000000000000000000000000000000000081526004016117b3906147a1565b60405180910390fd5b606860008373ffffffffffffffffffffffffffffffffffffffff1673ffffffffffffffffffffffffffffffffffffffff168152602001908152602001600020549050919050565b600060405180604001604052808381526020018481525060cf600060ca548152602001908152602001600020600082015181600001556020820151816001019080519060200190611855929190613909565b5090505060ca600081548092919061186c90614c1b565b919050555060ca54905092915050565b600060405180606001604052808581526020018481526020018381525060d2600060cd548152602001908152602001600020600082015181600001556020820151816001015560408201518160020190805190602001906118de929190613909565b5090505060cd60008154809291906118f590614c1b565b919050555060cd5490509392505050565b8160ce60008581526020019081526020016000206000019080519060200190611930929190613909565b508060ce6000858152602001908152602001600020600101908051906020019061195b929190613909565b50505050565b606060d06000838152602001908152602001600020600101805461198490614bb8565b80601f01602080910402602001604051908101604052809291908181526020018280546119b090614bb8565b80156119fd5780601f106119d2576101008083540402835291602001916119fd565b820191906000526020600020905b8154815290600101906020018083116119e057829003601f168201915b50505050509050919050565b606060668054611a1890614bb8565b80601f0160208091040260200160405190810160405280929190818152602001828054611a4490614bb8565b8015611a915780601f10611a6657610100808354040283529160200191611a91565b820191906000526020600020905b815481529060010190602001808311611a7457829003601f168201915b5050505050905090565b6060600060cb5467ffffffffffffffff811115611abb57611aba614d4f565b5b604051908082528060200260200182016040528015611aee57816020015b6060815260200190600190039081611ad95790505b50905060005b60cb54811015611bce5760d060008281526020019081526020016000206001018054611b1f90614bb8565b80601f0160208091040260200160405190810160405280929190818152602001828054611b4b90614bb8565b8015611b985780601f10611b6d57610100808354040283529160200191611b98565b820191906000526020600020905b815481529060010190602001808311611b7b57829003601f168201915b5050505050828281518110611bb057611baf614d20565b5b60200260200101819052508080611bc690614c1b565b915050611af4565b508091505090565b600080600090505b60cb54811015611c3d57828051906020012060d06000838152602001908152602001600020600101604051611c139190614574565b60405180910390201415611c2a5780915050611c43565b8080611c3590614c1b565b915050611bde565b50600090505b919050565b611c5a611c536125eb565b8383612a78565b5050565b8060d060008481526020019081526020016000206002016000828254611c849190614a78565b925050819055505050565b600080600090505b60cb54811015611d0c57828051906020012060d06000838152602001908152602001600020600101604051611ccc9190614574565b60405180910390201415611cf95760d0600082815260200190815260200160002060000154915050611d12565b8080611d0490614c1b565b915050611c97565b50600090505b919050565b600060c981905550600060ca81905550600060cb81905550600060cd8190555060005b60c954811015611d9d5760ce600082815260200190815260200160002060008082016000611d68919061398f565b600182016000611d78919061398f565b600282016000611d88919061398f565b50508080611d9590614c1b565b915050611d3a565b5060005b60ca54811015611dec5760cf6000828152602001908152602001600020600080820160009055600182016000611dd7919061398f565b50508080611de490614c1b565b915050611da1565b5060005b60cb54811015611e435760d06000828152602001908152602001600020600080820160009055600182016000611e26919061398f565b600282016000905550508080611e3b90614c1b565b915050611df0565b5060005b60cd54811015611e9a5760d260008281526020019081526020016000206000808201600090556001820160009055600282016000611e85919061398f565b50508080611e9290614c1b565b915050611e47565b50565b611eae611ea86125eb565b836126ac565b611eed576040517f08c379a0000000000000000000000000000000000000000000000000000000008152600401611ee4906146c1565b60405180910390fd5b611ef984848484612be5565b50505050565b8060d060008481526020019081526020016000206001019080519060200190611f29929190613909565b505050565b6060600060c95467ffffffffffffffff811115611f4e57611f4d614d4f565b5b604051908082528060200260200182016040528015611f8157816020015b6060815260200190600190039081611f6c5790505b50905060005b60c9548110156120615760ce60008281526020019081526020016000206001018054611fb290614bb8565b80601f0160208091040260200160405190810160405280929190818152602001828054611fde90614bb8565b801561202b5780601f106120005761010080835404028352916020019161202b565b820191906000526020600020905b81548152906001019060200180831161200e57829003601f168201915b505050505082828151811061204357612042614d20565b5b6020026020010181905250808061205990614c1b565b915050611f87565b508091505090565b8060cf60008481526020019081526020016000206001019080519060200190612093929190613909565b505050565b600060405180606001604052808481526020018381526020016040518060400160405280600581526020017f46616c736500000000000000000000000000000000000000000000000000000081525081525060ce600060c9548152602001908152602001600020600082015181600001908051906020019061211b929190613909565b506020820151816001019080519060200190612138929190613909565b506040820151816002019080519060200190612155929190613909565b5090505060c9600081548092919061216c90614c1b565b919050555060c954905092915050565b6060612187826125a0565b6000612191612c41565b905060008151116121b157604051806020016040528060008152506121dc565b806121bb84612c58565b6040516020016121cc92919061458b565b6040516020818303038152906040525b915050919050565b60006040518060600160405280848152602001858152602001600081525060d0600060cb54815260200190815260200160002060008201518160000155602082015181600101908051906020019061223d929190613909565b506040820151816002015590505060cb600081548092919061225e90614c1b565b919050555060005b82518110156122c35761229860cb5460cc5485848151811061228b5761228a614d20565b5b6020026020010151612d30565b60cc60008154809291906122ab90614c1b565b919050555080806122bb90614c1b565b915050612266565b5060cb5490509392505050565b606060cf600083815260200190815260200160002060010180546122f390614bb8565b80601f016020809104026020016040519081016040528092919081815260200182805461231f90614bb8565b801561236c5780601f106123415761010080835404028352916020019161236c565b820191906000526020600020905b81548152906001019060200180831161234f57829003601f168201915b50505050509050919050565b6000606a60008473ffffffffffffffffffffffffffffffffffffffff1673ffffffffffffffffffffffffffffffffffffffff16815260200190815260200160002060008373ffffffffffffffffffffffffffffffffffffffff1673ffffffffffffffffffffffffffffffffffffffff16815260200190815260200160002060009054906101000a900460ff16905092915050565b60d160205280600052604060002060009150905080600001549080600101549080600201805461243b90614bb8565b80601f016020809104026020016040519081016040528092919081815260200182805461246790614bb8565b80156124b45780601f10612489576101008083540402835291602001916124b4565b820191906000526020600020905b81548152906001019060200180831161249757829003601f168201915b5050505050905083565b60007f80ac58cd000000000000000000000000000000000000000000000000000000007bffffffffffffffffffffffffffffffffffffffffffffffffffffffff1916827bffffffffffffffffffffffffffffffffffffffffffffffffffffffff1916148061258957507f5b5e139f000000000000000000000000000000000000000000000000000000007bffffffffffffffffffffffffffffffffffffffffffffffffffffffff1916827bffffffffffffffffffffffffffffffffffffffffffffffffffffffff1916145b80612599575061259882612da1565b5b9050919050565b6125a981612e0b565b6125e8576040517f08c379a00000000000000000000000000000000000000000000000000000000081526004016125df906147e1565b60405180910390fd5b50565b600033905090565b816069600083815260200190815260200160002060006101000a81548173ffffffffffffffffffffffffffffffffffffffff021916908373ffffffffffffffffffffffffffffffffffffffff160217905550808273ffffffffffffffffffffffffffffffffffffffff16612666836116c4565b73ffffffffffffffffffffffffffffffffffffffff167f8c5be1e5ebec7d5bd14f71427d1e84f3dd0314c0f7b2291e5b200ac8c7c3b92560405160405180910390a45050565b6000806126b8836116c4565b90508073ffffffffffffffffffffffffffffffffffffffff168473ffffffffffffffffffffffffffffffffffffffff1614806126fa57506126f98185612378565b5b8061273857508373ffffffffffffffffffffffffffffffffffffffff16612720846109d6565b73ffffffffffffffffffffffffffffffffffffffff16145b91505092915050565b8273ffffffffffffffffffffffffffffffffffffffff16612761826116c4565b73ffffffffffffffffffffffffffffffffffffffff16146127b7576040517f08c379a00000000000000000000000000000000000000000000000000000000081526004016127ae90614721565b60405180910390fd5b600073ffffffffffffffffffffffffffffffffffffffff168273ffffffffffffffffffffffffffffffffffffffff161415612827576040517f08c379a000000000000000000000000000000000000000000000000000000000815260040161281e90614761565b60405180910390fd5b6128348383836001612e4c565b8273ffffffffffffffffffffffffffffffffffffffff16612854826116c4565b73ffffffffffffffffffffffffffffffffffffffff16146128aa576040517f08c379a00000000000000000000000000000000000000000000000000000000081526004016128a190614721565b60405180910390fd5b6069600082815260200190815260200160002060006101000a81549073ffffffffffffffffffffffffffffffffffffffff02191690556001606860008573ffffffffffffffffffffffffffffffffffffffff1673ffffffffffffffffffffffffffffffffffffffff168152602001908152602001600020600082825403925050819055506001606860008473ffffffffffffffffffffffffffffffffffffffff1673ffffffffffffffffffffffffffffffffffffffff16815260200190815260200160002060008282540192505081905550816067600083815260200190815260200160002060006101000a81548173ffffffffffffffffffffffffffffffffffffffff021916908373ffffffffffffffffffffffffffffffffffffffff160217905550808273ffffffffffffffffffffffffffffffffffffffff168473ffffffffffffffffffffffffffffffffffffffff167fddf252ad1be2c89b69c2b068fc378daa952ba7f163c4a11628f55a4df523b3ef60405160405180910390a4612a368383836001612fac565b505050565b60006067600083815260200190815260200160002060009054906101000a900473ffffffffffffffffffffffffffffffffffffffff169050919050565b8173ffffffffffffffffffffffffffffffffffffffff168373ffffffffffffffffffffffffffffffffffffffff161415612ae7576040517f08c379a0000000000000000000000000000000000000000000000000000000008152600401612ade90614781565b60405180910390fd5b80606a60008573ffffffffffffffffffffffffffffffffffffffff1673ffffffffffffffffffffffffffffffffffffffff16815260200190815260200160002060008473ffffffffffffffffffffffffffffffffffffffff1673ffffffffffffffffffffffffffffffffffffffff16815260200190815260200160002060006101000a81548160ff0219169083151502179055508173ffffffffffffffffffffffffffffffffffffffff168373ffffffffffffffffffffffffffffffffffffffff167f17307eab39ab6107e8899845ad3d59bd9653f200f220920489ca2b5937696c3183604051612bd89190614638565b60405180910390a3505050565b612bf0848484612741565b612bfc84848484612fb2565b612c3b576040517f08c379a0000000000000000000000000000000000000000000000000000000008152600401612c3290614701565b60405180910390fd5b50505050565b606060405180602001604052806000815250905090565b606060006001612c6784613149565b01905060008167ffffffffffffffff811115612c8657612c85614d4f565b5b6040519080825280601f01601f191660200182016040528015612cb85781602001600182028036833780820191505090505b509050600082602001820190505b600115612d25578080600190039150507f3031323334353637383961626364656600000000000000000000000000000000600a86061a8153600a8581612d0f57612d0e614c93565b5b0494506000851415612d2057612d25565b612cc6565b819350505050919050565b60405180606001604052808481526020018381526020018281525060d1600084815260200190815260200160002060008201518160000155602082015181600101556040820151816002019080519060200190612d8e929190613909565b50905050612d9c338361329c565b505050565b60007f01ffc9a7000000000000000000000000000000000000000000000000000000007bffffffffffffffffffffffffffffffffffffffffffffffffffffffff1916827bffffffffffffffffffffffffffffffffffffffffffffffffffffffff1916149050919050565b60008073ffffffffffffffffffffffffffffffffffffffff16612e2d83612a3b565b73ffffffffffffffffffffffffffffffffffffffff1614159050919050565b612e58848484846134ba565b6001811115612e9c576040517f08c379a0000000000000000000000000000000000000000000000000000000008152600401612e9390614861565b60405180910390fd5b6000829050600073ffffffffffffffffffffffffffffffffffffffff168573ffffffffffffffffffffffffffffffffffffffff161415612ee457612edf816135e0565b612f23565b8373ffffffffffffffffffffffffffffffffffffffff168573ffffffffffffffffffffffffffffffffffffffff1614612f2257612f218582613629565b5b5b600073ffffffffffffffffffffffffffffffffffffffff168473ffffffffffffffffffffffffffffffffffffffff161415612f6657612f6181613796565b612fa5565b8473ffffffffffffffffffffffffffffffffffffffff168473ffffffffffffffffffffffffffffffffffffffff1614612fa457612fa38482613867565b5b5b5050505050565b50505050565b6000612fd38473ffffffffffffffffffffffffffffffffffffffff166138e6565b1561313c578373ffffffffffffffffffffffffffffffffffffffff1663150b7a02612ffc6125eb565b8786866040518563ffffffff1660e01b815260040161301e94939291906145ca565b602060405180830381600087803b15801561303857600080fd5b505af192505050801561306957506040513d601f19601f820116820180604052508101906130669190613de1565b60015b6130ec573d8060008114613099576040519150601f19603f3d011682016040523d82523d6000602084013e61309e565b606091505b506000815114156130e4576040517f08c379a00000000000000000000000000000000000000000000000000000000081526004016130db90614701565b60405180910390fd5b805181602001fd5b63150b7a0260e01b7bffffffffffffffffffffffffffffffffffffffffffffffffffffffff1916817bffffffffffffffffffffffffffffffffffffffffffffffffffffffff191614915050613141565b600190505b949350505050565b600080600090507a184f03e93ff9f4daa797ed6e38ed64bf6a1f01000000000000000083106131a7577a184f03e93ff9f4daa797ed6e38ed64bf6a1f010000000000000000838161319d5761319c614c93565b5b0492506040810190505b6d04ee2d6d415b85acef810000000083106131e4576d04ee2d6d415b85acef810000000083816131da576131d9614c93565b5b0492506020810190505b662386f26fc10000831061321357662386f26fc10000838161320957613208614c93565b5b0492506010810190505b6305f5e100831061323c576305f5e100838161323257613231614c93565b5b0492506008810190505b612710831061326157612710838161325757613256614c93565b5b0492506004810190505b60648310613284576064838161327a57613279614c93565b5b0492506002810190505b600a8310613293576001810190505b80915050919050565b600073ffffffffffffffffffffffffffffffffffffffff168273ffffffffffffffffffffffffffffffffffffffff16141561330c576040517f08c379a0000000000000000000000000000000000000000000000000000000008152600401613303906147c1565b60405180910390fd5b61331581612e0b565b15613355576040517f08c379a000000000000000000000000000000000000000000000000000000000815260040161334c90614741565b60405180910390fd5b613363600083836001612e4c565b61336c81612e0b565b156133ac576040517f08c379a00000000000000000000000000000000000000000000000000000000081526004016133a390614741565b60405180910390fd5b6001606860008473ffffffffffffffffffffffffffffffffffffffff1673ffffffffffffffffffffffffffffffffffffffff16815260200190815260200160002060008282540192505081905550816067600083815260200190815260200160002060006101000a81548173ffffffffffffffffffffffffffffffffffffffff021916908373ffffffffffffffffffffffffffffffffffffffff160217905550808273ffffffffffffffffffffffffffffffffffffffff16600073ffffffffffffffffffffffffffffffffffffffff167fddf252ad1be2c89b69c2b068fc378daa952ba7f163c4a11628f55a4df523b3ef60405160405180910390a46134b6600083836001612fac565b5050565b60018111156135da57600073ffffffffffffffffffffffffffffffffffffffff168473ffffffffffffffffffffffffffffffffffffffff161461354e5780606860008673ffffffffffffffffffffffffffffffffffffffff1673ffffffffffffffffffffffffffffffffffffffff16815260200190815260200160002060008282546135469190614ace565b925050819055505b600073ffffffffffffffffffffffffffffffffffffffff168373ffffffffffffffffffffffffffffffffffffffff16146135d95780606860008573ffffffffffffffffffffffffffffffffffffffff1673ffffffffffffffffffffffffffffffffffffffff16815260200190815260200160002060008282546135d19190614a78565b925050819055505b5b50505050565b609980549050609a600083815260200190815260200160002081905550609981908060018154018082558091505060019003906000526020600020016000909190919091505550565b600060016136368461174b565b6136409190614ace565b9050600060986000848152602001908152602001600020549050818114613725576000609760008673ffffffffffffffffffffffffffffffffffffffff1673ffffffffffffffffffffffffffffffffffffffff168152602001908152602001600020600084815260200190815260200160002054905080609760008773ffffffffffffffffffffffffffffffffffffffff1673ffffffffffffffffffffffffffffffffffffffff168152602001908152602001600020600084815260200190815260200160002081905550816098600083815260200190815260200160002081905550505b6098600084815260200190815260200160002060009055609760008573ffffffffffffffffffffffffffffffffffffffff1673ffffffffffffffffffffffffffffffffffffffff16815260200190815260200160002060008381526020019081526020016000206000905550505050565b600060016099805490506137aa9190614ace565b90506000609a60008481526020019081526020016000205490506000609983815481106137da576137d9614d20565b5b9060005260206000200154905080609983815481106137fc576137fb614d20565b5b906000526020600020018190555081609a600083815260200190815260200160002081905550609a600085815260200190815260200160002060009055609980548061384b5761384a614cf1565b5b6001900381819060005260206000200160009055905550505050565b60006138728361174b565b905081609760008573ffffffffffffffffffffffffffffffffffffffff1673ffffffffffffffffffffffffffffffffffffffff168152602001908152602001600020600083815260200190815260200160002081905550806098600084815260200190815260200160002081905550505050565b6000808273ffffffffffffffffffffffffffffffffffffffff163b119050919050565b82805461391590614bb8565b90600052602060002090601f016020900481019282613937576000855561397e565b82601f1061395057805160ff191683800117855561397e565b8280016001018555821561397e579182015b8281111561397d578251825591602001919060010190613962565b5b50905061398b91906139cf565b5090565b50805461399b90614bb8565b6000825580601f106139ad57506139cc565b601f0160209004906000526020600020908101906139cb91906139cf565b5b50565b5b808211156139e85760008160009055506001016139d0565b5090565b60006139ff6139fa8461493d565b614918565b90508083825260208201905082856020860282011115613a2257613a21614d83565b5b60005b85811015613a7057813567ffffffffffffffff811115613a4857613a47614d7e565b5b808601613a558982613bae565b85526020850194506020840193505050600181019050613a25565b5050509392505050565b6000613a8d613a8884614969565b614918565b905082815260208101848484011115613aa957613aa8614d88565b5b613ab4848285614b76565b509392505050565b6000613acf613aca8461499a565b614918565b905082815260208101848484011115613aeb57613aea614d88565b5b613af6848285614b76565b509392505050565b600081359050613b0d81615162565b92915050565b600082601f830112613b2857613b27614d7e565b5b8135613b388482602086016139ec565b91505092915050565b600081359050613b5081615179565b92915050565b600081359050613b6581615190565b92915050565b600081519050613b7a81615190565b92915050565b600082601f830112613b9557613b94614d7e565b5b8135613ba5848260208601613a7a565b91505092915050565b600082601f830112613bc357613bc2614d7e565b5b8135613bd3848260208601613abc565b91505092915050565b600081359050613beb816151a7565b92915050565b600060208284031215613c0757613c06614d92565b5b6000613c1584828501613afe565b91505092915050565b60008060408385031215613c3557613c34614d92565b5b6000613c4385828601613afe565b9250506020613c5485828601613afe565b9150509250929050565b600080600060608486031215613c7757613c76614d92565b5b6000613c8586828701613afe565b9350506020613c9686828701613afe565b9250506040613ca786828701613bdc565b9150509250925092565b60008060008060808587031215613ccb57613cca614d92565b5b6000613cd987828801613afe565b9450506020613cea87828801613afe565b9350506040613cfb87828801613bdc565b925050606085013567ffffffffffffffff811115613d1c57613d1b614d8d565b5b613d2887828801613b80565b91505092959194509250565b60008060408385031215613d4b57613d4a614d92565b5b6000613d5985828601613afe565b9250506020613d6a85828601613b41565b9150509250929050565b60008060408385031215613d8b57613d8a614d92565b5b6000613d9985828601613afe565b9250506020613daa85828601613bdc565b9150509250929050565b600060208284031215613dca57613dc9614d92565b5b6000613dd884828501613b56565b91505092915050565b600060208284031215613df757613df6614d92565b5b6000613e0584828501613b6b565b91505092915050565b600060208284031215613e2457613e23614d92565b5b600082013567ffffffffffffffff811115613e4257613e41614d8d565b5b613e4e84828501613bae565b91505092915050565b60008060408385031215613e6e57613e6d614d92565b5b600083013567ffffffffffffffff811115613e8c57613e8b614d8d565b5b613e9885828601613bae565b925050602083013567ffffffffffffffff811115613eb957613eb8614d8d565b5b613ec585828601613bae565b9150509250929050565b60008060408385031215613ee657613ee5614d92565b5b600083013567ffffffffffffffff811115613f0457613f03614d8d565b5b613f1085828601613bae565b9250506020613f2185828601613bdc565b9150509250929050565b600080600060608486031215613f4457613f43614d92565b5b600084013567ffffffffffffffff811115613f6257613f61614d8d565b5b613f6e86828701613bae565b9350506020613f7f86828701613bdc565b925050604084013567ffffffffffffffff811115613fa057613f9f614d8d565b5b613fac86828701613b13565b9150509250925092565b600060208284031215613fcc57613fcb614d92565b5b6000613fda84828501613bdc565b91505092915050565b60008060408385031215613ffa57613ff9614d92565b5b600061400885828601613bdc565b925050602083013567ffffffffffffffff81111561402957614028614d8d565b5b61403585828601613bae565b9150509250929050565b60008060006060848603121561405857614057614d92565b5b600061406686828701613bdc565b935050602084013567ffffffffffffffff81111561408757614086614d8d565b5b61409386828701613bae565b925050604084013567ffffffffffffffff8111156140b4576140b3614d8d565b5b6140c086828701613bae565b9150509250925092565b600080604083850312156140e1576140e0614d92565b5b60006140ef85828601613bdc565b925050602061410085828601613bdc565b9150509250929050565b60008060006060848603121561412357614122614d92565b5b600061413186828701613bdc565b935050602061414286828701613bdc565b925050604084013567ffffffffffffffff81111561416357614162614d8d565b5b61416f86828701613bae565b9150509250925092565b600061418583836142d8565b905092915050565b61419681614b02565b82525050565b60006141a7826149f0565b6141b18185614a1e565b9350836020820285016141c3856149cb565b8060005b858110156141ff57848403895281516141e08582614179565b94506141eb83614a11565b925060208a019950506001810190506141c7565b50829750879550505050505092915050565b61421a81614b14565b82525050565b600061422b826149fb565b6142358185614a2f565b9350614245818560208601614b85565b61424e81614d97565b840191505092915050565b6000815461426681614bb8565b6142708186614a40565b9450600182166000811461428b576001811461429c576142cf565b60ff198316865281860193506142cf565b6142a5856149db565b60005b838110156142c7578154818901526001820191506020810190506142a8565b838801955050505b50505092915050565b60006142e382614a06565b6142ed8185614a4b565b93506142fd818560208601614b85565b61430681614d97565b840191505092915050565b600061431c82614a06565b6143268185614a5c565b9350614336818560208601614b85565b61433f81614d97565b840191505092915050565b600061435582614a06565b61435f8185614a6d565b935061436f818560208601614b85565b80840191505092915050565b6000614388602d83614a5c565b915061439382614da8565b604082019050919050565b60006143ab602b83614a5c565b91506143b682614df7565b604082019050919050565b60006143ce603283614a5c565b91506143d982614e46565b604082019050919050565b60006143f1602583614a5c565b91506143fc82614e95565b604082019050919050565b6000614414601c83614a5c565b915061441f82614ee4565b602082019050919050565b6000614437602483614a5c565b915061444282614f0d565b604082019050919050565b600061445a601983614a5c565b915061446582614f5c565b602082019050919050565b600061447d602983614a5c565b915061448882614f85565b604082019050919050565b60006144a0602083614a5c565b91506144ab82614fd4565b602082019050919050565b60006144c3601883614a5c565b91506144ce82614ffd565b602082019050919050565b60006144e6602183614a5c565b91506144f182615026565b604082019050919050565b6000614509603d83614a5c565b915061451482615075565b604082019050919050565b600061452c602c83614a5c565b9150614537826150c4565b604082019050919050565b600061454f603583614a5c565b915061455a82615113565b604082019050919050565b61456e81614b6c565b82525050565b60006145808284614259565b915081905092915050565b6000614597828561434a565b91506145a3828461434a565b91508190509392505050565b60006020820190506145c4600083018461418d565b92915050565b60006080820190506145df600083018761418d565b6145ec602083018661418d565b6145f96040830185614565565b818103606083015261460b8184614220565b905095945050505050565b60006020820190508181036000830152614630818461419c565b905092915050565b600060208201905061464d6000830184614211565b92915050565b6000602082019050818103600083015261466d8184614311565b905092915050565b6000606082019050818103600083015261468f8186614311565b905081810360208301526146a38185614311565b905081810360408301526146b78184614311565b9050949350505050565b600060208201905081810360008301526146da8161437b565b9050919050565b600060208201905081810360008301526146fa8161439e565b9050919050565b6000602082019050818103600083015261471a816143c1565b9050919050565b6000602082019050818103600083015261473a816143e4565b9050919050565b6000602082019050818103600083015261475a81614407565b9050919050565b6000602082019050818103600083015261477a8161442a565b9050919050565b6000602082019050818103600083015261479a8161444d565b9050919050565b600060208201905081810360008301526147ba81614470565b9050919050565b600060208201905081810360008301526147da81614493565b9050919050565b600060208201905081810360008301526147fa816144b6565b9050919050565b6000602082019050818103600083015261481a816144d9565b9050919050565b6000602082019050818103600083015261483a816144fc565b9050919050565b6000602082019050818103600083015261485a8161451f565b9050919050565b6000602082019050818103600083015261487a81614542565b9050919050565b60006020820190506148966000830184614565565b92915050565b60006060820190506148b16000830186614565565b81810360208301526148c38185614311565b90506148d26040830184614565565b949350505050565b60006060820190506148ef6000830186614565565b6148fc6020830185614565565b818103604083015261490e8184614311565b9050949350505050565b6000614922614933565b905061492e8282614bea565b919050565b6000604051905090565b600067ffffffffffffffff82111561495857614957614d4f565b5b602082029050602081019050919050565b600067ffffffffffffffff82111561498457614983614d4f565b5b61498d82614d97565b9050602081019050919050565b600067ffffffffffffffff8211156149b5576149b4614d4f565b5b6149be82614d97565b9050602081019050919050565b6000819050602082019050919050565b60008190508160005260206000209050919050565b600081519050919050565b600081519050919050565b600081519050919050565b6000602082019050919050565b600082825260208201905092915050565b600082825260208201905092915050565b600081905092915050565b600082825260208201905092915050565b600082825260208201905092915050565b600081905092915050565b6000614a8382614b6c565b9150614a8e83614b6c565b9250827fffffffffffffffffffffffffffffffffffffffffffffffffffffffffffffffff03821115614ac357614ac2614c64565b5b828201905092915050565b6000614ad982614b6c565b9150614ae483614b6c565b925082821015614af757614af6614c64565b5b828203905092915050565b6000614b0d82614b4c565b9050919050565b60008115159050919050565b60007fffffffff0000000000000000000000000000000000000000000000000000000082169050919050565b600073ffffffffffffffffffffffffffffffffffffffff82169050919050565b6000819050919050565b82818337600083830152505050565b60005b83811015614ba3578082015181840152602081019050614b88565b83811115614bb2576000848401525b50505050565b60006002820490506001821680614bd057607f821691505b60208210811415614be457614be3614cc2565b5b50919050565b614bf382614d97565b810181811067ffffffffffffffff82111715614c1257614c11614d4f565b5b80604052505050565b6000614c2682614b6c565b91507fffffffffffffffffffffffffffffffffffffffffffffffffffffffffffffffff821415614c5957614c58614c64565b5b600182019050919050565b7f4e487b7100000000000000000000000000000000000000000000000000000000600052601160045260246000fd5b7f4e487b7100000000000000000000000000000000000000000000000000000000600052601260045260246000fd5b7f4e487b7100000000000000000000000000000000000000000000000000000000600052602260045260246000fd5b7f4e487b7100000000000000000000000000000000000000000000000000000000600052603160045260246000fd5b7f4e487b7100000000000000000000000000000000000000000000000000000000600052603260045260246000fd5b7f4e487b7100000000000000000000000000000000000000000000000000000000600052604160045260246000fd5b600080fd5b600080fd5b600080fd5b600080fd5b600080fd5b6000601f19601f8301169050919050565b7f4552433732313a2063616c6c6572206973206e6f7420746f6b656e206f776e6560008201527f72206f7220617070726f76656400000000000000000000000000000000000000602082015250565b7f455243373231456e756d657261626c653a206f776e657220696e646578206f7560008201527f74206f6620626f756e6473000000000000000000000000000000000000000000602082015250565b7f4552433732313a207472616e7366657220746f206e6f6e20455243373231526560008201527f63656976657220696d706c656d656e7465720000000000000000000000000000602082015250565b7f4552433732313a207472616e736665722066726f6d20696e636f72726563742060008201527f6f776e6572000000000000000000000000000000000000000000000000000000602082015250565b7f4552433732313a20746f6b656e20616c7265616479206d696e74656400000000600082015250565b7f4552433732313a207472616e7366657220746f20746865207a65726f2061646460008201527f7265737300000000000000000000000000000000000000000000000000000000602082015250565b7f4552433732313a20617070726f766520746f2063616c6c657200000000000000600082015250565b7f4552433732313a2061646472657373207a65726f206973206e6f74206120766160008201527f6c6964206f776e65720000000000000000000000000000000000000000000000602082015250565b7f4552433732313a206d696e7420746f20746865207a65726f2061646472657373600082015250565b7f4552433732313a20696e76616c696420746f6b656e2049440000000000000000600082015250565b7f4552433732313a20617070726f76616c20746f2063757272656e74206f776e6560008201527f7200000000000000000000000000000000000000000000000000000000000000602082015250565b7f4552433732313a20617070726f76652063616c6c6572206973206e6f7420746f60008201527f6b656e206f776e6572206f7220617070726f76656420666f7220616c6c000000602082015250565b7f455243373231456e756d657261626c653a20676c6f62616c20696e646578206f60008201527f7574206f6620626f756e64730000000000000000000000000000000000000000602082015250565b7f455243373231456e756d657261626c653a20636f6e736563757469766520747260008201527f616e7366657273206e6f7420737570706f727465640000000000000000000000602082015250565b61516b81614b02565b811461517657600080fd5b50565b61518281614b14565b811461518d57600080fd5b50565b61519981614b20565b81146151a457600080fd5b50565b6151b081614b6c565b81146151bb57600080fd5b5056fea264697066735822122035844669f37d9eb8bec71d7483a496d4816c1bb6726ccb7c6d5f94708b36092c64736f6c63430008060033",
  "devdoc": {
    "kind": "dev",
    "methods": {
      "approve(address,uint256)": {
        "details": "See {IERC721-approve}."
      },
      "balanceOf(address)": {
        "details": "See {IERC721-balanceOf}."
      },
      "getApproved(uint256)": {
        "details": "See {IERC721-getApproved}."
      },
      "isApprovedForAll(address,address)": {
        "details": "See {IERC721-isApprovedForAll}."
      },
      "name()": {
        "details": "See {IERC721Metadata-name}."
      },
      "ownerOf(uint256)": {
        "details": "See {IERC721-ownerOf}."
      },
      "safeTransferFrom(address,address,uint256)": {
        "details": "See {IERC721-safeTransferFrom}."
      },
      "safeTransferFrom(address,address,uint256,bytes)": {
        "details": "See {IERC721-safeTransferFrom}."
      },
      "setApprovalForAll(address,bool)": {
        "details": "See {IERC721-setApprovalForAll}."
      },
      "supportsInterface(bytes4)": {
        "details": "See {IERC165-supportsInterface}."
      },
      "symbol()": {
        "details": "See {IERC721Metadata-symbol}."
      },
      "tokenByIndex(uint256)": {
        "details": "See {IERC721Enumerable-tokenByIndex}."
      },
      "tokenOfOwnerByIndex(address,uint256)": {
        "details": "See {IERC721Enumerable-tokenOfOwnerByIndex}."
      },
      "tokenURI(uint256)": {
        "details": "See {IERC721Metadata-tokenURI}."
      },
      "totalSupply()": {
        "details": "See {IERC721Enumerable-totalSupply}."
      },
      "transferFrom(address,address,uint256)": {
        "details": "See {IERC721-transferFrom}."
      }
    },
    "version": 1
  },
  "userdoc": {
    "kind": "user",
    "methods": {},
    "version": 1
  },
  "storageLayout": {
    "storage": [
      {
        "astId": 6,
        "contract": "contracts/GreenDAO.sol:GreenDAO",
        "label": "_initialized",
        "offset": 0,
        "slot": "0",
        "type": "t_uint8"
      },
      {
        "astId": 9,
        "contract": "contracts/GreenDAO.sol:GreenDAO",
        "label": "_initializing",
        "offset": 1,
        "slot": "0",
        "type": "t_bool"
      },
      {
        "astId": 2029,
        "contract": "contracts/GreenDAO.sol:GreenDAO",
        "label": "__gap",
        "offset": 0,
        "slot": "1",
        "type": "t_array(t_uint256)50_storage"
      },
      {
        "astId": 2248,
        "contract": "contracts/GreenDAO.sol:GreenDAO",
        "label": "__gap",
        "offset": 0,
        "slot": "51",
        "type": "t_array(t_uint256)50_storage"
      },
      {
        "astId": 197,
        "contract": "contracts/GreenDAO.sol:GreenDAO",
        "label": "_name",
        "offset": 0,
        "slot": "101",
        "type": "t_string_storage"
      },
      {
        "astId": 199,
        "contract": "contracts/GreenDAO.sol:GreenDAO",
        "label": "_symbol",
        "offset": 0,
        "slot": "102",
        "type": "t_string_storage"
      },
      {
        "astId": 203,
        "contract": "contracts/GreenDAO.sol:GreenDAO",
        "label": "_owners",
        "offset": 0,
        "slot": "103",
        "type": "t_mapping(t_uint256,t_address)"
      },
      {
        "astId": 207,
        "contract": "contracts/GreenDAO.sol:GreenDAO",
        "label": "_balances",
        "offset": 0,
        "slot": "104",
        "type": "t_mapping(t_address,t_uint256)"
      },
      {
        "astId": 211,
        "contract": "contracts/GreenDAO.sol:GreenDAO",
        "label": "_tokenApprovals",
        "offset": 0,
        "slot": "105",
        "type": "t_mapping(t_uint256,t_address)"
      },
      {
        "astId": 217,
        "contract": "contracts/GreenDAO.sol:GreenDAO",
        "label": "_operatorApprovals",
        "offset": 0,
        "slot": "106",
        "type": "t_mapping(t_address,t_mapping(t_address,t_bool))"
      },
      {
        "astId": 1137,
        "contract": "contracts/GreenDAO.sol:GreenDAO",
        "label": "__gap",
        "offset": 0,
        "slot": "107",
        "type": "t_array(t_uint256)44_storage"
      },
      {
        "astId": 1302,
        "contract": "contracts/GreenDAO.sol:GreenDAO",
        "label": "_ownedTokens",
        "offset": 0,
        "slot": "151",
        "type": "t_mapping(t_address,t_mapping(t_uint256,t_uint256))"
      },
      {
        "astId": 1306,
        "contract": "contracts/GreenDAO.sol:GreenDAO",
        "label": "_ownedTokensIndex",
        "offset": 0,
        "slot": "152",
        "type": "t_mapping(t_uint256,t_uint256)"
      },
      {
        "astId": 1309,
        "contract": "contracts/GreenDAO.sol:GreenDAO",
        "label": "_allTokens",
        "offset": 0,
        "slot": "153",
        "type": "t_array(t_uint256)dyn_storage"
      },
      {
        "astId": 1313,
        "contract": "contracts/GreenDAO.sol:GreenDAO",
        "label": "_allTokensIndex",
        "offset": 0,
        "slot": "154",
        "type": "t_mapping(t_uint256,t_uint256)"
      },
      {
        "astId": 1645,
        "contract": "contracts/GreenDAO.sol:GreenDAO",
        "label": "__gap",
        "offset": 0,
        "slot": "155",
        "type": "t_array(t_uint256)46_storage"
      },
      {
        "astId": 4208,
        "contract": "contracts/GreenDAO.sol:GreenDAO",
        "label": "_dao_ids",
        "offset": 0,
        "slot": "201",
        "type": "t_uint256"
      },
      {
        "astId": 4210,
        "contract": "contracts/GreenDAO.sol:GreenDAO",
        "label": "_goal_ids",
        "offset": 0,
        "slot": "202",
        "type": "t_uint256"
      },
      {
        "astId": 4212,
        "contract": "contracts/GreenDAO.sol:GreenDAO",
        "label": "_ideas_ids",
        "offset": 0,
        "slot": "203",
        "type": "t_uint256"
      },
      {
        "astId": 4214,
        "contract": "contracts/GreenDAO.sol:GreenDAO",
        "label": "_smart_contract_ids",
        "offset": 0,
        "slot": "204",
        "type": "t_uint256"
      },
      {
        "astId": 4216,
        "contract": "contracts/GreenDAO.sol:GreenDAO",
        "label": "_ideas_vote_ids",
        "offset": 0,
        "slot": "205",
        "type": "t_uint256"
      },
      {
        "astId": 4221,
        "contract": "contracts/GreenDAO.sol:GreenDAO",
        "label": "_dao_uris",
        "offset": 0,
        "slot": "206",
        "type": "t_mapping(t_uint256,t_struct(dao_uri_struct)4180_storage)"
      },
      {
        "astId": 4226,
        "contract": "contracts/GreenDAO.sol:GreenDAO",
        "label": "_goal_uris",
        "offset": 0,
        "slot": "207",
        "type": "t_mapping(t_uint256,t_struct(goal_uri_struct)4185_storage)"
      },
      {
        "astId": 4231,
        "contract": "contracts/GreenDAO.sol:GreenDAO",
        "label": "_ideas_uris",
        "offset": 0,
        "slot": "208",
        "type": "t_mapping(t_uint256,t_struct(ideas_uri_struct)4192_storage)"
      },
      {
        "astId": 4236,
        "contract": "contracts/GreenDAO.sol:GreenDAO",
        "label": "_smart_contracts_uris",
        "offset": 0,
        "slot": "209",
        "type": "t_mapping(t_uint256,t_struct(smart_contract_uri_struct)4199_storage)"
      },
      {
        "astId": 4241,
        "contract": "contracts/GreenDAO.sol:GreenDAO",
        "label": "all_goal_ideas_votes",
        "offset": 0,
        "slot": "210",
        "type": "t_mapping(t_uint256,t_struct(goal_ideas_votes_struct)4206_storage)"
      }
    ],
    "types": {
      "t_address": {
        "encoding": "inplace",
        "label": "address",
        "numberOfBytes": "20"
      },
      "t_array(t_uint256)44_storage": {
        "base": "t_uint256",
        "encoding": "inplace",
        "label": "uint256[44]",
        "numberOfBytes": "1408"
      },
      "t_array(t_uint256)46_storage": {
        "base": "t_uint256",
        "encoding": "inplace",
        "label": "uint256[46]",
        "numberOfBytes": "1472"
      },
      "t_array(t_uint256)50_storage": {
        "base": "t_uint256",
        "encoding": "inplace",
        "label": "uint256[50]",
        "numberOfBytes": "1600"
      },
      "t_array(t_uint256)dyn_storage": {
        "base": "t_uint256",
        "encoding": "dynamic_array",
        "label": "uint256[]",
        "numberOfBytes": "32"
      },
      "t_bool": {
        "encoding": "inplace",
        "label": "bool",
        "numberOfBytes": "1"
      },
      "t_mapping(t_address,t_bool)": {
        "encoding": "mapping",
        "key": "t_address",
        "label": "mapping(address => bool)",
        "numberOfBytes": "32",
        "value": "t_bool"
      },
      "t_mapping(t_address,t_mapping(t_address,t_bool))": {
        "encoding": "mapping",
        "key": "t_address",
        "label": "mapping(address => mapping(address => bool))",
        "numberOfBytes": "32",
        "value": "t_mapping(t_address,t_bool)"
      },
      "t_mapping(t_address,t_mapping(t_uint256,t_uint256))": {
        "encoding": "mapping",
        "key": "t_address",
        "label": "mapping(address => mapping(uint256 => uint256))",
        "numberOfBytes": "32",
        "value": "t_mapping(t_uint256,t_uint256)"
      },
      "t_mapping(t_address,t_uint256)": {
        "encoding": "mapping",
        "key": "t_address",
        "label": "mapping(address => uint256)",
        "numberOfBytes": "32",
        "value": "t_uint256"
      },
      "t_mapping(t_uint256,t_address)": {
        "encoding": "mapping",
        "key": "t_uint256",
        "label": "mapping(uint256 => address)",
        "numberOfBytes": "32",
        "value": "t_address"
      },
      "t_mapping(t_uint256,t_struct(dao_uri_struct)4180_storage)": {
        "encoding": "mapping",
        "key": "t_uint256",
        "label": "mapping(uint256 => struct GreenDAO.dao_uri_struct)",
        "numberOfBytes": "32",
        "value": "t_struct(dao_uri_struct)4180_storage"
      },
      "t_mapping(t_uint256,t_struct(goal_ideas_votes_struct)4206_storage)": {
        "encoding": "mapping",
        "key": "t_uint256",
        "label": "mapping(uint256 => struct GreenDAO.goal_ideas_votes_struct)",
        "numberOfBytes": "32",
        "value": "t_struct(goal_ideas_votes_struct)4206_storage"
      },
      "t_mapping(t_uint256,t_struct(goal_uri_struct)4185_storage)": {
        "encoding": "mapping",
        "key": "t_uint256",
        "label": "mapping(uint256 => struct GreenDAO.goal_uri_struct)",
        "numberOfBytes": "32",
        "value": "t_struct(goal_uri_struct)4185_storage"
      },
      "t_mapping(t_uint256,t_struct(ideas_uri_struct)4192_storage)": {
        "encoding": "mapping",
        "key": "t_uint256",
        "label": "mapping(uint256 => struct GreenDAO.ideas_uri_struct)",
        "numberOfBytes": "32",
        "value": "t_struct(ideas_uri_struct)4192_storage"
      },
      "t_mapping(t_uint256,t_struct(smart_contract_uri_struct)4199_storage)": {
        "encoding": "mapping",
        "key": "t_uint256",
        "label": "mapping(uint256 => struct GreenDAO.smart_contract_uri_struct)",
        "numberOfBytes": "32",
        "value": "t_struct(smart_contract_uri_struct)4199_storage"
      },
      "t_mapping(t_uint256,t_uint256)": {
        "encoding": "mapping",
        "key": "t_uint256",
        "label": "mapping(uint256 => uint256)",
        "numberOfBytes": "32",
        "value": "t_uint256"
      },
      "t_string_storage": {
        "encoding": "bytes",
        "label": "string",
        "numberOfBytes": "32"
      },
      "t_struct(dao_uri_struct)4180_storage": {
        "encoding": "inplace",
        "label": "struct GreenDAO.dao_uri_struct",
        "members": [
          {
            "astId": 4175,
            "contract": "contracts/GreenDAO.sol:GreenDAO",
            "label": "dao_wallet",
            "offset": 0,
            "slot": "0",
            "type": "t_string_storage"
          },
          {
            "astId": 4177,
            "contract": "contracts/GreenDAO.sol:GreenDAO",
            "label": "dao_uri",
            "offset": 0,
            "slot": "1",
            "type": "t_string_storage"
          },
          {
            "astId": 4179,
            "contract": "contracts/GreenDAO.sol:GreenDAO",
            "label": "finished",
            "offset": 0,
            "slot": "2",
            "type": "t_string_storage"
          }
        ],
        "numberOfBytes": "96"
      },
      "t_struct(goal_ideas_votes_struct)4206_storage": {
        "encoding": "inplace",
        "label": "struct GreenDAO.goal_ideas_votes_struct",
        "members": [
          {
            "astId": 4201,
            "contract": "contracts/GreenDAO.sol:GreenDAO",
            "label": "goal_id",
            "offset": 0,
            "slot": "0",
            "type": "t_uint256"
          },
          {
            "astId": 4203,
            "contract": "contracts/GreenDAO.sol:GreenDAO",
            "label": "ideas_id",
            "offset": 0,
            "slot": "1",
            "type": "t_uint256"
          },
          {
            "astId": 4205,
            "contract": "contracts/GreenDAO.sol:GreenDAO",
            "label": "wallet",
            "offset": 0,
            "slot": "2",
            "type": "t_string_storage"
          }
        ],
        "numberOfBytes": "96"
      },
      "t_struct(goal_uri_struct)4185_storage": {
        "encoding": "inplace",
        "label": "struct GreenDAO.goal_uri_struct",
        "members": [
          {
            "astId": 4182,
            "contract": "contracts/GreenDAO.sol:GreenDAO",
            "label": "dao_id",
            "offset": 0,
            "slot": "0",
            "type": "t_uint256"
          },
          {
            "astId": 4184,
            "contract": "contracts/GreenDAO.sol:GreenDAO",
            "label": "goal_uri",
            "offset": 0,
            "slot": "1",
            "type": "t_string_storage"
          }
        ],
        "numberOfBytes": "64"
      },
      "t_struct(ideas_uri_struct)4192_storage": {
        "encoding": "inplace",
        "label": "struct GreenDAO.ideas_uri_struct",
        "members": [
          {
            "astId": 4187,
            "contract": "contracts/GreenDAO.sol:GreenDAO",
            "label": "goal_id",
            "offset": 0,
            "slot": "0",
            "type": "t_uint256"
          },
          {
            "astId": 4189,
            "contract": "contracts/GreenDAO.sol:GreenDAO",
            "label": "ideas_uri",
            "offset": 0,
            "slot": "1",
            "type": "t_string_storage"
          },
          {
            "astId": 4191,
            "contract": "contracts/GreenDAO.sol:GreenDAO",
            "label": "donation",
            "offset": 0,
            "slot": "2",
            "type": "t_uint256"
          }
        ],
        "numberOfBytes": "96"
      },
      "t_struct(smart_contract_uri_struct)4199_storage": {
        "encoding": "inplace",
        "label": "struct GreenDAO.smart_contract_uri_struct",
        "members": [
          {
            "astId": 4194,
            "contract": "contracts/GreenDAO.sol:GreenDAO",
            "label": "smart_contract_id",
            "offset": 0,
            "slot": "0",
            "type": "t_uint256"
          },
          {
            "astId": 4196,
            "contract": "contracts/GreenDAO.sol:GreenDAO",
            "label": "ideas_id",
            "offset": 0,
            "slot": "1",
            "type": "t_uint256"
          },
          {
            "astId": 4198,
            "contract": "contracts/GreenDAO.sol:GreenDAO",
            "label": "smart_contract_uri",
            "offset": 0,
            "slot": "2",
            "type": "t_string_storage"
          }
        ],
        "numberOfBytes": "96"
      },
      "t_uint256": {
        "encoding": "inplace",
        "label": "uint256",
        "numberOfBytes": "32"
      },
      "t_uint8": {
        "encoding": "inplace",
        "label": "uint8",
        "numberOfBytes": "1"
      }
    }
  }
}