{"contracts/GreenDAO.sol":{"GreenDAO":{"abi":[{"anonymous":false,"inputs":[{"indexed":true,"internalType":"address","name":"owner","type":"address"},{"indexed":true,"internalType":"address","name":"approved","type":"address"},{"indexed":true,"internalType":"uint256","name":"tokenId","type":"uint256"}],"name":"Approval","type":"event"},{"anonymous":false,"inputs":[{"indexed":true,"internalType":"address","name":"owner","type":"address"},{"indexed":true,"internalType":"address","name":"operator","type":"address"},{"indexed":false,"internalType":"bool","name":"approved","type":"bool"}],"name":"ApprovalForAll","type":"event"},{"anonymous":false,"inputs":[{"indexed":false,"internalType":"uint8","name":"version","type":"uint8"}],"name":"Initialized","type":"event"},{"anonymous":false,"inputs":[{"indexed":true,"internalType":"address","name":"from","type":"address"},{"indexed":true,"internalType":"address","name":"to","type":"address"},{"indexed":true,"internalType":"uint256","name":"tokenId","type":"uint256"}],"name":"Transfer","type":"event"},{"inputs":[{"internalType":"uint256","name":"","type":"uint256"}],"name":"_dao_uris","outputs":[{"internalType":"string","name":"dao_wallet","type":"string"},{"internalType":"string","name":"dao_uri","type":"string"},{"internalType":"string","name":"finished","type":"string"}],"stateMutability":"view","type":"function"},{"inputs":[{"internalType":"uint256","name":"","type":"uint256"}],"name":"_ideas_uris","outputs":[{"internalType":"uint256","name":"goal_id","type":"uint256"},{"internalType":"string","name":"ideas_uri","type":"string"}],"stateMutability":"view","type":"function"},{"inputs":[{"internalType":"uint256","name":"","type":"uint256"}],"name":"_smart_contracts_uris","outputs":[{"internalType":"uint256","name":"smart_contract_id","type":"uint256"},{"internalType":"uint256","name":"ideas_id","type":"uint256"},{"internalType":"string","name":"smart_contract_uri","type":"string"}],"stateMutability":"view","type":"function"},{"inputs":[{"internalType":"uint256","name":"","type":"uint256"}],"name":"all_goal_ideas_votes","outputs":[{"internalType":"uint256","name":"goal_id","type":"uint256"},{"internalType":"uint256","name":"ideas_id","type":"uint256"},{"internalType":"string","name":"wallet","type":"string"}],"stateMutability":"view","type":"function"},{"inputs":[{"internalType":"address","name":"to","type":"address"},{"internalType":"uint256","name":"tokenId","type":"uint256"}],"name":"approve","outputs":[],"stateMutability":"nonpayable","type":"function"},{"inputs":[{"internalType":"address","name":"owner","type":"address"}],"name":"balanceOf","outputs":[{"internalType":"uint256","name":"","type":"uint256"}],"stateMutability":"view","type":"function"},{"inputs":[{"internalType":"string","name":"_dao_wallet","type":"string"},{"internalType":"string","name":"_dao_uri","type":"string"}],"name":"create_dao","outputs":[{"internalType":"uint256","name":"","type":"uint256"}],"stateMutability":"nonpayable","type":"function"},{"inputs":[{"internalType":"string","name":"_goal_uri","type":"string"},{"internalType":"uint256","name":"_dao_id","type":"uint256"}],"name":"create_goal","outputs":[{"internalType":"uint256","name":"","type":"uint256"}],"stateMutability":"nonpayable","type":"function"},{"inputs":[{"internalType":"uint256","name":"_goal_id","type":"uint256"},{"internalType":"uint256","name":"_ideas_id","type":"uint256"},{"internalType":"string","name":"_wallet","type":"string"}],"name":"create_goal_ideas_vote","outputs":[{"internalType":"uint256","name":"","type":"uint256"}],"stateMutability":"nonpayable","type":"function"},{"inputs":[{"internalType":"string","name":"_ideas_uri","type":"string"},{"internalType":"uint256","name":"_goal_id","type":"uint256"},{"internalType":"string[]","name":"_smart_contracts","type":"string[]"}],"name":"create_ideas","outputs":[{"internalType":"uint256","name":"","type":"uint256"}],"stateMutability":"nonpayable","type":"function"},{"inputs":[{"internalType":"uint256","name":"_dao_id","type":"uint256"}],"name":"dao_uri","outputs":[{"internalType":"string","name":"","type":"string"}],"stateMutability":"view","type":"function"},{"inputs":[{"internalType":"uint256","name":"tokenId","type":"uint256"}],"name":"getApproved","outputs":[{"internalType":"address","name":"","type":"address"}],"stateMutability":"view","type":"function"},{"inputs":[],"name":"get_all_daos","outputs":[{"internalType":"string[]","name":"","type":"string[]"}],"stateMutability":"view","type":"function"},{"inputs":[],"name":"get_all_goals","outputs":[{"internalType":"string[]","name":"","type":"string[]"}],"stateMutability":"view","type":"function"},{"inputs":[{"internalType":"uint256","name":"_dao_id","type":"uint256"}],"name":"get_all_goals_by_dao_id","outputs":[{"internalType":"string[]","name":"","type":"string[]"}],"stateMutability":"view","type":"function"},{"inputs":[],"name":"get_all_ideas","outputs":[{"internalType":"string[]","name":"","type":"string[]"}],"stateMutability":"view","type":"function"},{"inputs":[{"internalType":"uint256","name":"_goal_id","type":"uint256"}],"name":"get_all_ideas_by_goal_id","outputs":[{"internalType":"string[]","name":"","type":"string[]"}],"stateMutability":"view","type":"function"},{"inputs":[{"internalType":"string","name":"_goal_uri","type":"string"}],"name":"get_goal_id_by_goal_uri","outputs":[{"internalType":"uint256","name":"","type":"uint256"}],"stateMutability":"view","type":"function"},{"inputs":[{"internalType":"string","name":"_ideas_uri","type":"string"}],"name":"get_goal_id_from_ideas_uri","outputs":[{"internalType":"uint256","name":"","type":"uint256"}],"stateMutability":"view","type":"function"},{"inputs":[{"internalType":"string","name":"_ideas_uri","type":"string"}],"name":"get_ideas_id_by_ideas_uri","outputs":[{"internalType":"uint256","name":"","type":"uint256"}],"stateMutability":"view","type":"function"},{"inputs":[{"internalType":"uint256","name":"_goal_id","type":"uint256"},{"internalType":"uint256","name":"_ideas_id","type":"uint256"}],"name":"get_ideas_votes_from_goal","outputs":[{"internalType":"string[]","name":"","type":"string[]"}],"stateMutability":"view","type":"function"},{"inputs":[{"internalType":"uint256","name":"_goal_id","type":"uint256"}],"name":"goal_uri","outputs":[{"internalType":"string","name":"","type":"string"}],"stateMutability":"view","type":"function"},{"inputs":[{"internalType":"uint256","name":"_ideas_id","type":"uint256"}],"name":"ideas_uri","outputs":[{"internalType":"string","name":"","type":"string"}],"stateMutability":"view","type":"function"},{"inputs":[{"internalType":"address","name":"owner","type":"address"},{"internalType":"address","name":"operator","type":"address"}],"name":"isApprovedForAll","outputs":[{"internalType":"bool","name":"","type":"bool"}],"stateMutability":"view","type":"function"},{"inputs":[],"name":"name","outputs":[{"internalType":"string","name":"","type":"string"}],"stateMutability":"view","type":"function"},{"inputs":[{"internalType":"uint256","name":"tokenId","type":"uint256"}],"name":"ownerOf","outputs":[{"internalType":"address","name":"","type":"address"}],"stateMutability":"view","type":"function"},{"inputs":[],"name":"reset_all","outputs":[],"stateMutability":"nonpayable","type":"function"},{"inputs":[{"internalType":"address","name":"from","type":"address"},{"internalType":"address","name":"to","type":"address"},{"internalType":"uint256","name":"tokenId","type":"uint256"}],"name":"safeTransferFrom","outputs":[],"stateMutability":"nonpayable","type":"function"},{"inputs":[{"internalType":"address","name":"from","type":"address"},{"internalType":"address","name":"to","type":"address"},{"internalType":"uint256","name":"tokenId","type":"uint256"},{"internalType":"bytes","name":"data","type":"bytes"}],"name":"safeTransferFrom","outputs":[],"stateMutability":"nonpayable","type":"function"},{"inputs":[{"internalType":"address","name":"operator","type":"address"},{"internalType":"bool","name":"approved","type":"bool"}],"name":"setApprovalForAll","outputs":[],"stateMutability":"nonpayable","type":"function"},{"inputs":[{"internalType":"uint256","name":"_dao_id","type":"uint256"},{"internalType":"string","name":"_dao_wallet","type":"string"},{"internalType":"string","name":"_dao_uri","type":"string"}],"name":"set_dao","outputs":[],"stateMutability":"nonpayable","type":"function"},{"inputs":[{"internalType":"uint256","name":"_goal_id","type":"uint256"},{"internalType":"string","name":"_goal_uri","type":"string"}],"name":"set_goal","outputs":[],"stateMutability":"nonpayable","type":"function"},{"inputs":[{"internalType":"uint256","name":"_ideas_id","type":"uint256"},{"internalType":"string","name":"_ideas_uri","type":"string"}],"name":"set_ideas","outputs":[],"stateMutability":"nonpayable","type":"function"},{"inputs":[{"internalType":"bytes4","name":"interfaceId","type":"bytes4"}],"name":"supportsInterface","outputs":[{"internalType":"bool","name":"","type":"bool"}],"stateMutability":"view","type":"function"},{"inputs":[],"name":"symbol","outputs":[{"internalType":"string","name":"","type":"string"}],"stateMutability":"view","type":"function"},{"inputs":[{"internalType":"uint256","name":"index","type":"uint256"}],"name":"tokenByIndex","outputs":[{"internalType":"uint256","name":"","type":"uint256"}],"stateMutability":"view","type":"function"},{"inputs":[{"internalType":"address","name":"owner","type":"address"},{"internalType":"uint256","name":"index","type":"uint256"}],"name":"tokenOfOwnerByIndex","outputs":[{"internalType":"uint256","name":"","type":"uint256"}],"stateMutability":"view","type":"function"},{"inputs":[{"internalType":"uint256","name":"tokenId","type":"uint256"}],"name":"tokenURI","outputs":[{"internalType":"string","name":"","type":"string"}],"stateMutability":"view","type":"function"},{"inputs":[],"name":"totalSupply","outputs":[{"internalType":"uint256","name":"","type":"uint256"}],"stateMutability":"view","type":"function"},{"inputs":[{"internalType":"address","name":"from","type":"address"},{"internalType":"address","name":"to","type":"address"},{"internalType":"uint256","name":"tokenId","type":"uint256"}],"name":"transferFrom","outputs":[],"stateMutability":"nonpayable","type":"function"}],"devdoc":{"kind":"dev","methods":{"approve(address,uint256)":{"details":"See {IERC721-approve}."},"balanceOf(address)":{"details":"See {IERC721-balanceOf}."},"getApproved(uint256)":{"details":"See {IERC721-getApproved}."},"isApprovedForAll(address,address)":{"details":"See {IERC721-isApprovedForAll}."},"name()":{"details":"See {IERC721Metadata-name}."},"ownerOf(uint256)":{"details":"See {IERC721-ownerOf}."},"safeTransferFrom(address,address,uint256)":{"details":"See {IERC721-safeTransferFrom}."},"safeTransferFrom(address,address,uint256,bytes)":{"details":"See {IERC721-safeTransferFrom}."},"setApprovalForAll(address,bool)":{"details":"See {IERC721-setApprovalForAll}."},"supportsInterface(bytes4)":{"details":"See {IERC165-supportsInterface}."},"symbol()":{"details":"See {IERC721Metadata-symbol}."},"tokenByIndex(uint256)":{"details":"See {IERC721Enumerable-tokenByIndex}."},"tokenOfOwnerByIndex(address,uint256)":{"details":"See {IERC721Enumerable-tokenOfOwnerByIndex}."},"tokenURI(uint256)":{"details":"See {IERC721Metadata-tokenURI}."},"totalSupply()":{"details":"See {IERC721Enumerable-totalSupply}."},"transferFrom(address,address,uint256)":{"details":"See {IERC721-transferFrom}."}},"version":1},"evm":{"bytecode":{"linkReferences":{},"object":"608060405234801561001057600080fd5b5061516e806100206000396000f3fe608060405234801561001057600080fd5b50600436106102485760003560e01c806371085cab1161013b578063b88d4fde116100b8578063c87b56dd1161007c578063c87b56dd146107b0578063e3280c96146107e0578063e32acc1a14610810578063e985e9c514610840578063ff4a37ef1461087057610248565b8063b88d4fde1461070e578063c04e74301461072a578063c04fe97814610746578063c29595c514610764578063c4c2e3641461078057610248565b806397ee7606116100ff57806397ee76061461066a578063a1ca917814610688578063a22cb465146106b8578063aa4cdf2a146106d4578063b16060a61461070457610248565b806371085cab146105a057806382fcc732146105d0578063881de858146106005780638d3d25951461061c57806395d89b411461064c57610248565b806327a568b9116101c95780634be7adb51161018d5780634be7adb5146104b05780634f6ccce7146104e05780635d907da1146105105780636352211e1461054057806370a082311461057057610248565b806327a568b9146103e357806329b56f60146104155780632f745c591461043357806342842e0e14610463578063468d0c801461047f57610248565b8063131d44f211610210578063131d44f21461031757806318160ddd146103475780631ba44c4c146103655780631e9ac9f51461039757806323b872dd146103c757610248565b806301ffc9a71461024d57806306fdde031461027d578063081812fc1461029b578063095ea7b3146102cb578063109ac970146102e7575b600080fd5b61026760048036038101906102629190613d3c565b6108a2565b60405161027491906145c0565b60405180910390f35b61028561091c565b60405161029291906145db565b60405180910390f35b6102b560048036038101906102b09190613f3e565b6109ae565b6040516102c29190614537565b60405180910390f35b6102e560048036038101906102e09190613cfc565b6109f4565b005b61030160048036038101906102fc9190613f3e565b610b0c565b60405161030e919061459e565b60405180910390f35b610331600480360381019061032c9190613f3e565b610c7c565b60405161033e919061459e565b60405180910390f35b61034f610dec565b60405161035c9190614809565b60405180910390f35b61037f600480360381019061037a9190613f3e565b610df9565b60405161038e93929190614854565b60405180910390f35b6103b160048036038101906103ac9190613d96565b610eab565b6040516103be9190614809565b60405180910390f35b6103e160048036038101906103dc9190613be6565b610f1d565b005b6103fd60048036038101906103f89190613f3e565b610f7d565b60405161040c939291906145fd565b60405180910390f35b61041d61113f565b60405161042a919061459e565b60405180910390f35b61044d60048036038101906104489190613cfc565b61127a565b60405161045a9190614809565b60405180910390f35b61047d60048036038101906104789190613be6565b61131f565b005b61049960048036038101906104949190613f3e565b61133f565b6040516104a7929190614824565b60405180910390f35b6104ca60048036038101906104c59190614052565b6113eb565b6040516104d7919061459e565b60405180910390f35b6104fa60048036038101906104f59190613f3e565b61157d565b6040516105079190614809565b60405180910390f35b61052a60048036038101906105259190613f3e565b6115ee565b60405161053791906145db565b60405180910390f35b61055a60048036038101906105559190613f3e565b611696565b6040516105679190614537565b60405180910390f35b61058a60048036038101906105859190613b79565b61171d565b6040516105979190614809565b60405180910390f35b6105ba60048036038101906105b59190613e57565b6117d5565b6040516105c79190614809565b60405180910390f35b6105ea60048036038101906105e59190614092565b61184e565b6040516105f79190614809565b60405180910390f35b61061a60048036038101906106159190613fc7565b6118d8565b005b61063660048036038101906106319190613f3e565b611933565b60405161064391906145db565b60405180910390f35b6106546119db565b60405161066191906145db565b60405180910390f35b610672611a6d565b60405161067f919061459e565b60405180910390f35b6106a2600480360381019061069d9190613d96565b611ba8565b6040516106af9190614809565b60405180910390f35b6106d260048036038101906106cd9190613cbc565b611c1a565b005b6106ee60048036038101906106e99190613d96565b611c30565b6040516106fb9190614809565b60405180910390f35b61070c611cb8565b005b61072860048036038101906107239190613c39565b611e36565b005b610744600480360381019061073f9190613f6b565b611e98565b005b61074e611ec7565b60405161075b919061459e565b60405180910390f35b61077e60048036038101906107799190613f6b565b612002565b005b61079a60048036038101906107959190613ddf565b612031565b6040516107a79190614809565b60405180910390f35b6107ca60048036038101906107c59190613f3e565b612115565b6040516107d791906145db565b60405180910390f35b6107fa60048036038101906107f59190613eb3565b61217d565b6040516108079190614809565b60405180910390f35b61082a60048036038101906108259190613f3e565b612258565b60405161083791906145db565b60405180910390f35b61085a60048036038101906108559190613ba6565b612300565b60405161086791906145c0565b60405180910390f35b61088a60048036038101906108859190613f3e565b612394565b60405161089993929190614854565b60405180910390f35b60007f780e9d63000000000000000000000000000000000000000000000000000000007bffffffffffffffffffffffffffffffffffffffffffffffffffffffff1916827bffffffffffffffffffffffffffffffffffffffffffffffffffffffff19161480610915575061091482612446565b5b9050919050565b60606065805461092b90614b32565b80601f016020809104026020016040519081016040528092919081815260200182805461095790614b32565b80156109a45780601f10610979576101008083540402835291602001916109a4565b820191906000526020600020905b81548152906001019060200180831161098757829003601f168201915b5050505050905090565b60006109b982612528565b6069600083815260200190815260200160002060009054906101000a900473ffffffffffffffffffffffffffffffffffffffff169050919050565b60006109ff82611696565b90508073ffffffffffffffffffffffffffffffffffffffff168373ffffffffffffffffffffffffffffffffffffffff161415610a70576040517f08c379a0000000000000000000000000000000000000000000000000000000008152600401610a6790614789565b60405180910390fd5b8073ffffffffffffffffffffffffffffffffffffffff16610a8f612573565b73ffffffffffffffffffffffffffffffffffffffff161480610abe5750610abd81610ab8612573565b612300565b5b610afd576040517f08c379a0000000000000000000000000000000000000000000000000000000008152600401610af4906147a9565b60405180910390fd5b610b07838361257b565b505050565b6060600060ca5467ffffffffffffffff811115610b2c57610b2b614cc9565b5b604051908082528060200260200182016040528015610b5f57816020015b6060815260200190600190039081610b4a5790505b509050600080600090505b60ca54811015610c71578460cf6000838152602001908152602001600020600001541415610c5e5760cf60008281526020019081526020016000206001018054610bb390614b32565b80601f0160208091040260200160405190810160405280929190818152602001828054610bdf90614b32565b8015610c2c5780601f10610c0157610100808354040283529160200191610c2c565b820191906000526020600020905b815481529060010190602001808311610c0f57829003601f168201915b5050505050838381518110610c4457610c43614c9a565b5b60200260200101819052508180610c5a90614b95565b9250505b8080610c6990614b95565b915050610b6a565b508192505050919050565b6060600060cb5467ffffffffffffffff811115610c9c57610c9b614cc9565b5b604051908082528060200260200182016040528015610ccf57816020015b6060815260200190600190039081610cba5790505b509050600080600090505b60cb54811015610de1578460d06000838152602001908152602001600020600001541415610dc05760d060008281526020019081526020016000206001018054610d2390614b32565b80601f0160208091040260200160405190810160405280929190818152602001828054610d4f90614b32565b8015610d9c5780601f10610d7157610100808354040283529160200191610d9c565b820191906000526020600020905b815481529060010190602001808311610d7f57829003601f168201915b5050505050838381518110610db457610db3614c9a565b5b60200260200101819052505b8180610dcb90614b95565b9250508080610dd990614b95565b915050610cda565b508192505050919050565b6000609980549050905090565b60d2602052806000526040600020600091509050806000015490806001015490806002018054610e2890614b32565b80601f0160208091040260200160405190810160405280929190818152602001828054610e5490614b32565b8015610ea15780601f10610e7657610100808354040283529160200191610ea1565b820191906000526020600020905b815481529060010190602001808311610e8457829003601f168201915b5050505050905083565b600080600090505b60ca54811015610f1257828051906020012060cf6000838152602001908152602001600020600101604051610ee891906144fc565b60405180910390201415610eff5780915050610f18565b8080610f0a90614b95565b915050610eb3565b50600090505b919050565b610f2e610f28612573565b82612634565b610f6d576040517f08c379a0000000000000000000000000000000000000000000000000000000008152600401610f6490614649565b60405180910390fd5b610f788383836126c9565b505050565b60ce602052806000526040600020600091509050806000018054610fa090614b32565b80601f0160208091040260200160405190810160405280929190818152602001828054610fcc90614b32565b80156110195780601f10610fee57610100808354040283529160200191611019565b820191906000526020600020905b815481529060010190602001808311610ffc57829003601f168201915b50505050509080600101805461102e90614b32565b80601f016020809104026020016040519081016040528092919081815260200182805461105a90614b32565b80156110a75780601f1061107c576101008083540402835291602001916110a7565b820191906000526020600020905b81548152906001019060200180831161108a57829003601f168201915b5050505050908060020180546110bc90614b32565b80601f01602080910402602001604051908101604052809291908181526020018280546110e890614b32565b80156111355780601f1061110a57610100808354040283529160200191611135565b820191906000526020600020905b81548152906001019060200180831161111857829003601f168201915b5050505050905083565b6060600060ca5467ffffffffffffffff81111561115f5761115e614cc9565b5b60405190808252806020026020018201604052801561119257816020015b606081526020019060019003908161117d5790505b50905060005b60ca548110156112725760cf600082815260200190815260200160002060010180546111c390614b32565b80601f01602080910402602001604051908101604052809291908181526020018280546111ef90614b32565b801561123c5780601f106112115761010080835404028352916020019161123c565b820191906000526020600020905b81548152906001019060200180831161121f57829003601f168201915b505050505082828151811061125457611253614c9a565b5b6020026020010181905250808061126a90614b95565b915050611198565b508091505090565b60006112858361171d565b82106112c6576040517f08c379a00000000000000000000000000000000000000000000000000000000081526004016112bd90614669565b60405180910390fd5b609760008473ffffffffffffffffffffffffffffffffffffffff1673ffffffffffffffffffffffffffffffffffffffff168152602001908152602001600020600083815260200190815260200160002054905092915050565b61133a83838360405180602001604052806000815250611e36565b505050565b60d060205280600052604060002060009150905080600001549080600101805461136890614b32565b80601f016020809104026020016040519081016040528092919081815260200182805461139490614b32565b80156113e15780601f106113b6576101008083540402835291602001916113e1565b820191906000526020600020905b8154815290600101906020018083116113c457829003601f168201915b5050505050905082565b6060600060cd5467ffffffffffffffff81111561140b5761140a614cc9565b5b60405190808252806020026020018201604052801561143e57816020015b60608152602001906001900390816114295790505b509050600080600090505b60cd54811015611571578560d260008381526020019081526020016000206000015414801561148d57508460d2600083815260200190815260200160002060010154145b156115505760d2600082815260200190815260200160002060020180546114b390614b32565b80601f01602080910402602001604051908101604052809291908181526020018280546114df90614b32565b801561152c5780601f106115015761010080835404028352916020019161152c565b820191906000526020600020905b81548152906001019060200180831161150f57829003601f168201915b505050505083838151811061154457611543614c9a565b5b60200260200101819052505b818061155b90614b95565b925050808061156990614b95565b915050611449565b50819250505092915050565b6000611587610dec565b82106115c8576040517f08c379a00000000000000000000000000000000000000000000000000000000081526004016115bf906147c9565b60405180910390fd5b609982815481106115dc576115db614c9a565b5b90600052602060002001549050919050565b606060ce6000838152602001908152602001600020600101805461161190614b32565b80601f016020809104026020016040519081016040528092919081815260200182805461163d90614b32565b801561168a5780601f1061165f5761010080835404028352916020019161168a565b820191906000526020600020905b81548152906001019060200180831161166d57829003601f168201915b50505050509050919050565b6000806116a2836129c3565b9050600073ffffffffffffffffffffffffffffffffffffffff168173ffffffffffffffffffffffffffffffffffffffff161415611714576040517f08c379a000000000000000000000000000000000000000000000000000000000815260040161170b90614769565b60405180910390fd5b80915050919050565b60008073ffffffffffffffffffffffffffffffffffffffff168273ffffffffffffffffffffffffffffffffffffffff16141561178e576040517f08c379a000000000000000000000000000000000000000000000000000000000815260040161178590614729565b60405180910390fd5b606860008373ffffffffffffffffffffffffffffffffffffffff1673ffffffffffffffffffffffffffffffffffffffff168152602001908152602001600020549050919050565b600060405180604001604052808381526020018481525060cf600060ca548152602001908152602001600020600082015181600001556020820151816001019080519060200190611827929190613891565b5090505060ca600081548092919061183e90614b95565b919050555060ca54905092915050565b600060405180606001604052808581526020018481526020018381525060d2600060cd548152602001908152602001600020600082015181600001556020820151816001015560408201518160020190805190602001906118b0929190613891565b5090505060cd60008154809291906118c790614b95565b919050555060cd5490509392505050565b8160ce60008581526020019081526020016000206000019080519060200190611902929190613891565b508060ce6000858152602001908152602001600020600101908051906020019061192d929190613891565b50505050565b606060d06000838152602001908152602001600020600101805461195690614b32565b80601f016020809104026020016040519081016040528092919081815260200182805461198290614b32565b80156119cf5780601f106119a4576101008083540402835291602001916119cf565b820191906000526020600020905b8154815290600101906020018083116119b257829003601f168201915b50505050509050919050565b6060606680546119ea90614b32565b80601f0160208091040260200160405190810160405280929190818152602001828054611a1690614b32565b8015611a635780601f10611a3857610100808354040283529160200191611a63565b820191906000526020600020905b815481529060010190602001808311611a4657829003601f168201915b5050505050905090565b6060600060cb5467ffffffffffffffff811115611a8d57611a8c614cc9565b5b604051908082528060200260200182016040528015611ac057816020015b6060815260200190600190039081611aab5790505b50905060005b60cb54811015611ba05760d060008281526020019081526020016000206001018054611af190614b32565b80601f0160208091040260200160405190810160405280929190818152602001828054611b1d90614b32565b8015611b6a5780601f10611b3f57610100808354040283529160200191611b6a565b820191906000526020600020905b815481529060010190602001808311611b4d57829003601f168201915b5050505050828281518110611b8257611b81614c9a565b5b60200260200101819052508080611b9890614b95565b915050611ac6565b508091505090565b600080600090505b60cb54811015611c0f57828051906020012060d06000838152602001908152602001600020600101604051611be591906144fc565b60405180910390201415611bfc5780915050611c15565b8080611c0790614b95565b915050611bb0565b50600090505b919050565b611c2c611c25612573565b8383612a00565b5050565b600080600090505b60cb54811015611cad57828051906020012060d06000838152602001908152602001600020600101604051611c6d91906144fc565b60405180910390201415611c9a5760d0600082815260200190815260200160002060000154915050611cb3565b8080611ca590614b95565b915050611c38565b50600090505b919050565b600060c981905550600060ca81905550600060cb81905550600060cd8190555060005b60c954811015611d3e5760ce600082815260200190815260200160002060008082016000611d099190613917565b600182016000611d199190613917565b600282016000611d299190613917565b50508080611d3690614b95565b915050611cdb565b5060005b60ca54811015611d8d5760cf6000828152602001908152602001600020600080820160009055600182016000611d789190613917565b50508080611d8590614b95565b915050611d42565b5060005b60cb54811015611ddc5760d06000828152602001908152602001600020600080820160009055600182016000611dc79190613917565b50508080611dd490614b95565b915050611d91565b5060005b60cd54811015611e335760d260008281526020019081526020016000206000808201600090556001820160009055600282016000611e1e9190613917565b50508080611e2b90614b95565b915050611de0565b50565b611e47611e41612573565b83612634565b611e86576040517f08c379a0000000000000000000000000000000000000000000000000000000008152600401611e7d90614649565b60405180910390fd5b611e9284848484612b6d565b50505050565b8060d060008481526020019081526020016000206001019080519060200190611ec2929190613891565b505050565b6060600060c95467ffffffffffffffff811115611ee757611ee6614cc9565b5b604051908082528060200260200182016040528015611f1a57816020015b6060815260200190600190039081611f055790505b50905060005b60c954811015611ffa5760ce60008281526020019081526020016000206001018054611f4b90614b32565b80601f0160208091040260200160405190810160405280929190818152602001828054611f7790614b32565b8015611fc45780601f10611f9957610100808354040283529160200191611fc4565b820191906000526020600020905b815481529060010190602001808311611fa757829003601f168201915b5050505050828281518110611fdc57611fdb614c9a565b5b60200260200101819052508080611ff290614b95565b915050611f20565b508091505090565b8060cf6000848152602001908152602001600020600101908051906020019061202c929190613891565b505050565b600060405180606001604052808481526020018381526020016040518060400160405280600581526020017f46616c736500000000000000000000000000000000000000000000000000000081525081525060ce600060c954815260200190815260200160002060008201518160000190805190602001906120b4929190613891565b5060208201518160010190805190602001906120d1929190613891565b5060408201518160020190805190602001906120ee929190613891565b5090505060c9600081548092919061210590614b95565b919050555060c954905092915050565b606061212082612528565b600061212a612bc9565b9050600081511161214a5760405180602001604052806000815250612175565b8061215484612be0565b604051602001612165929190614513565b6040516020818303038152906040525b915050919050565b600060405180604001604052808481526020018581525060d0600060cb5481526020019081526020016000206000820151816000015560208201518160010190805190602001906121cf929190613891565b5090505060cb60008154809291906121e690614b95565b919050555060005b825181101561224b5761222060cb5460cc5485848151811061221357612212614c9a565b5b6020026020010151612cb8565b60cc600081548092919061223390614b95565b9190505550808061224390614b95565b9150506121ee565b5060cb5490509392505050565b606060cf6000838152602001908152602001600020600101805461227b90614b32565b80601f01602080910402602001604051908101604052809291908181526020018280546122a790614b32565b80156122f45780601f106122c9576101008083540402835291602001916122f4565b820191906000526020600020905b8154815290600101906020018083116122d757829003601f168201915b50505050509050919050565b6000606a60008473ffffffffffffffffffffffffffffffffffffffff1673ffffffffffffffffffffffffffffffffffffffff16815260200190815260200160002060008373ffffffffffffffffffffffffffffffffffffffff1673ffffffffffffffffffffffffffffffffffffffff16815260200190815260200160002060009054906101000a900460ff16905092915050565b60d16020528060005260406000206000915090508060000154908060010154908060020180546123c390614b32565b80601f01602080910402602001604051908101604052809291908181526020018280546123ef90614b32565b801561243c5780601f106124115761010080835404028352916020019161243c565b820191906000526020600020905b81548152906001019060200180831161241f57829003601f168201915b5050505050905083565b60007f80ac58cd000000000000000000000000000000000000000000000000000000007bffffffffffffffffffffffffffffffffffffffffffffffffffffffff1916827bffffffffffffffffffffffffffffffffffffffffffffffffffffffff1916148061251157507f5b5e139f000000000000000000000000000000000000000000000000000000007bffffffffffffffffffffffffffffffffffffffffffffffffffffffff1916827bffffffffffffffffffffffffffffffffffffffffffffffffffffffff1916145b80612521575061252082612d29565b5b9050919050565b61253181612d93565b612570576040517f08c379a000000000000000000000000000000000000000000000000000000000815260040161256790614769565b60405180910390fd5b50565b600033905090565b816069600083815260200190815260200160002060006101000a81548173ffffffffffffffffffffffffffffffffffffffff021916908373ffffffffffffffffffffffffffffffffffffffff160217905550808273ffffffffffffffffffffffffffffffffffffffff166125ee83611696565b73ffffffffffffffffffffffffffffffffffffffff167f8c5be1e5ebec7d5bd14f71427d1e84f3dd0314c0f7b2291e5b200ac8c7c3b92560405160405180910390a45050565b60008061264083611696565b90508073ffffffffffffffffffffffffffffffffffffffff168473ffffffffffffffffffffffffffffffffffffffff16148061268257506126818185612300565b5b806126c057508373ffffffffffffffffffffffffffffffffffffffff166126a8846109ae565b73ffffffffffffffffffffffffffffffffffffffff16145b91505092915050565b8273ffffffffffffffffffffffffffffffffffffffff166126e982611696565b73ffffffffffffffffffffffffffffffffffffffff161461273f576040517f08c379a0000000000000000000000000000000000000000000000000000000008152600401612736906146a9565b60405180910390fd5b600073ffffffffffffffffffffffffffffffffffffffff168273ffffffffffffffffffffffffffffffffffffffff1614156127af576040517f08c379a00000000000000000000000000000000000000000000000000000000081526004016127a6906146e9565b60405180910390fd5b6127bc8383836001612dd4565b8273ffffffffffffffffffffffffffffffffffffffff166127dc82611696565b73ffffffffffffffffffffffffffffffffffffffff1614612832576040517f08c379a0000000000000000000000000000000000000000000000000000000008152600401612829906146a9565b60405180910390fd5b6069600082815260200190815260200160002060006101000a81549073ffffffffffffffffffffffffffffffffffffffff02191690556001606860008573ffffffffffffffffffffffffffffffffffffffff1673ffffffffffffffffffffffffffffffffffffffff168152602001908152602001600020600082825403925050819055506001606860008473ffffffffffffffffffffffffffffffffffffffff1673ffffffffffffffffffffffffffffffffffffffff16815260200190815260200160002060008282540192505081905550816067600083815260200190815260200160002060006101000a81548173ffffffffffffffffffffffffffffffffffffffff021916908373ffffffffffffffffffffffffffffffffffffffff160217905550808273ffffffffffffffffffffffffffffffffffffffff168473ffffffffffffffffffffffffffffffffffffffff167fddf252ad1be2c89b69c2b068fc378daa952ba7f163c4a11628f55a4df523b3ef60405160405180910390a46129be8383836001612f34565b505050565b60006067600083815260200190815260200160002060009054906101000a900473ffffffffffffffffffffffffffffffffffffffff169050919050565b8173ffffffffffffffffffffffffffffffffffffffff168373ffffffffffffffffffffffffffffffffffffffff161415612a6f576040517f08c379a0000000000000000000000000000000000000000000000000000000008152600401612a6690614709565b60405180910390fd5b80606a60008573ffffffffffffffffffffffffffffffffffffffff1673ffffffffffffffffffffffffffffffffffffffff16815260200190815260200160002060008473ffffffffffffffffffffffffffffffffffffffff1673ffffffffffffffffffffffffffffffffffffffff16815260200190815260200160002060006101000a81548160ff0219169083151502179055508173ffffffffffffffffffffffffffffffffffffffff168373ffffffffffffffffffffffffffffffffffffffff167f17307eab39ab6107e8899845ad3d59bd9653f200f220920489ca2b5937696c3183604051612b6091906145c0565b60405180910390a3505050565b612b788484846126c9565b612b8484848484612f3a565b612bc3576040517f08c379a0000000000000000000000000000000000000000000000000000000008152600401612bba90614689565b60405180910390fd5b50505050565b606060405180602001604052806000815250905090565b606060006001612bef846130d1565b01905060008167ffffffffffffffff811115612c0e57612c0d614cc9565b5b6040519080825280601f01601f191660200182016040528015612c405781602001600182028036833780820191505090505b509050600082602001820190505b600115612cad578080600190039150507f3031323334353637383961626364656600000000000000000000000000000000600a86061a8153600a8581612c9757612c96614c0d565b5b0494506000851415612ca857612cad565b612c4e565b819350505050919050565b60405180606001604052808481526020018381526020018281525060d1600084815260200190815260200160002060008201518160000155602082015181600101556040820151816002019080519060200190612d16929190613891565b50905050612d243383613224565b505050565b60007f01ffc9a7000000000000000000000000000000000000000000000000000000007bffffffffffffffffffffffffffffffffffffffffffffffffffffffff1916827bffffffffffffffffffffffffffffffffffffffffffffffffffffffff1916149050919050565b60008073ffffffffffffffffffffffffffffffffffffffff16612db5836129c3565b73ffffffffffffffffffffffffffffffffffffffff1614159050919050565b612de084848484613442565b6001811115612e24576040517f08c379a0000000000000000000000000000000000000000000000000000000008152600401612e1b906147e9565b60405180910390fd5b6000829050600073ffffffffffffffffffffffffffffffffffffffff168573ffffffffffffffffffffffffffffffffffffffff161415612e6c57612e6781613568565b612eab565b8373ffffffffffffffffffffffffffffffffffffffff168573ffffffffffffffffffffffffffffffffffffffff1614612eaa57612ea985826135b1565b5b5b600073ffffffffffffffffffffffffffffffffffffffff168473ffffffffffffffffffffffffffffffffffffffff161415612eee57612ee98161371e565b612f2d565b8473ffffffffffffffffffffffffffffffffffffffff168473ffffffffffffffffffffffffffffffffffffffff1614612f2c57612f2b84826137ef565b5b5b5050505050565b50505050565b6000612f5b8473ffffffffffffffffffffffffffffffffffffffff1661386e565b156130c4578373ffffffffffffffffffffffffffffffffffffffff1663150b7a02612f84612573565b8786866040518563ffffffff1660e01b8152600401612fa69493929190614552565b602060405180830381600087803b158015612fc057600080fd5b505af1925050508015612ff157506040513d601f19601f82011682018060405250810190612fee9190613d69565b60015b613074573d8060008114613021576040519150601f19603f3d011682016040523d82523d6000602084013e613026565b606091505b5060008151141561306c576040517f08c379a000000000000000000000000000000000000000000000000000000000815260040161306390614689565b60405180910390fd5b805181602001fd5b63150b7a0260e01b7bffffffffffffffffffffffffffffffffffffffffffffffffffffffff1916817bffffffffffffffffffffffffffffffffffffffffffffffffffffffff1916149150506130c9565b600190505b949350505050565b600080600090507a184f03e93ff9f4daa797ed6e38ed64bf6a1f010000000000000000831061312f577a184f03e93ff9f4daa797ed6e38ed64bf6a1f010000000000000000838161312557613124614c0d565b5b0492506040810190505b6d04ee2d6d415b85acef8100000000831061316c576d04ee2d6d415b85acef8100000000838161316257613161614c0d565b5b0492506020810190505b662386f26fc10000831061319b57662386f26fc10000838161319157613190614c0d565b5b0492506010810190505b6305f5e10083106131c4576305f5e10083816131ba576131b9614c0d565b5b0492506008810190505b61271083106131e95761271083816131df576131de614c0d565b5b0492506004810190505b6064831061320c576064838161320257613201614c0d565b5b0492506002810190505b600a831061321b576001810190505b80915050919050565b600073ffffffffffffffffffffffffffffffffffffffff168273ffffffffffffffffffffffffffffffffffffffff161415613294576040517f08c379a000000000000000000000000000000000000000000000000000000000815260040161328b90614749565b60405180910390fd5b61329d81612d93565b156132dd576040517f08c379a00000000000000000000000000000000000000000000000000000000081526004016132d4906146c9565b60405180910390fd5b6132eb600083836001612dd4565b6132f481612d93565b15613334576040517f08c379a000000000000000000000000000000000000000000000000000000000815260040161332b906146c9565b60405180910390fd5b6001606860008473ffffffffffffffffffffffffffffffffffffffff1673ffffffffffffffffffffffffffffffffffffffff16815260200190815260200160002060008282540192505081905550816067600083815260200190815260200160002060006101000a81548173ffffffffffffffffffffffffffffffffffffffff021916908373ffffffffffffffffffffffffffffffffffffffff160217905550808273ffffffffffffffffffffffffffffffffffffffff16600073ffffffffffffffffffffffffffffffffffffffff167fddf252ad1be2c89b69c2b068fc378daa952ba7f163c4a11628f55a4df523b3ef60405160405180910390a461343e600083836001612f34565b5050565b600181111561356257600073ffffffffffffffffffffffffffffffffffffffff168473ffffffffffffffffffffffffffffffffffffffff16146134d65780606860008673ffffffffffffffffffffffffffffffffffffffff1673ffffffffffffffffffffffffffffffffffffffff16815260200190815260200160002060008282546134ce9190614a48565b925050819055505b600073ffffffffffffffffffffffffffffffffffffffff168373ffffffffffffffffffffffffffffffffffffffff16146135615780606860008573ffffffffffffffffffffffffffffffffffffffff1673ffffffffffffffffffffffffffffffffffffffff168152602001908152602001600020600082825461355991906149f2565b925050819055505b5b50505050565b609980549050609a600083815260200190815260200160002081905550609981908060018154018082558091505060019003906000526020600020016000909190919091505550565b600060016135be8461171d565b6135c89190614a48565b90506000609860008481526020019081526020016000205490508181146136ad576000609760008673ffffffffffffffffffffffffffffffffffffffff1673ffffffffffffffffffffffffffffffffffffffff168152602001908152602001600020600084815260200190815260200160002054905080609760008773ffffffffffffffffffffffffffffffffffffffff1673ffffffffffffffffffffffffffffffffffffffff168152602001908152602001600020600084815260200190815260200160002081905550816098600083815260200190815260200160002081905550505b6098600084815260200190815260200160002060009055609760008573ffffffffffffffffffffffffffffffffffffffff1673ffffffffffffffffffffffffffffffffffffffff16815260200190815260200160002060008381526020019081526020016000206000905550505050565b600060016099805490506137329190614a48565b90506000609a600084815260200190815260200160002054905060006099838154811061376257613761614c9a565b5b90600052602060002001549050806099838154811061378457613783614c9a565b5b906000526020600020018190555081609a600083815260200190815260200160002081905550609a60008581526020019081526020016000206000905560998054806137d3576137d2614c6b565b5b6001900381819060005260206000200160009055905550505050565b60006137fa8361171d565b905081609760008573ffffffffffffffffffffffffffffffffffffffff1673ffffffffffffffffffffffffffffffffffffffff168152602001908152602001600020600083815260200190815260200160002081905550806098600084815260200190815260200160002081905550505050565b6000808273ffffffffffffffffffffffffffffffffffffffff163b119050919050565b82805461389d90614b32565b90600052602060002090601f0160209004810192826138bf5760008555613906565b82601f106138d857805160ff1916838001178555613906565b82800160010185558215613906579182015b828111156139055782518255916020019190600101906138ea565b5b5090506139139190613957565b5090565b50805461392390614b32565b6000825580601f106139355750613954565b601f0160209004906000526020600020908101906139539190613957565b5b50565b5b80821115613970576000816000905550600101613958565b5090565b6000613987613982846148b7565b614892565b905080838252602082019050828560208602820111156139aa576139a9614cfd565b5b60005b858110156139f857813567ffffffffffffffff8111156139d0576139cf614cf8565b5b8086016139dd8982613b36565b855260208501945060208401935050506001810190506139ad565b5050509392505050565b6000613a15613a10846148e3565b614892565b905082815260208101848484011115613a3157613a30614d02565b5b613a3c848285614af0565b509392505050565b6000613a57613a5284614914565b614892565b905082815260208101848484011115613a7357613a72614d02565b5b613a7e848285614af0565b509392505050565b600081359050613a95816150dc565b92915050565b600082601f830112613ab057613aaf614cf8565b5b8135613ac0848260208601613974565b91505092915050565b600081359050613ad8816150f3565b92915050565b600081359050613aed8161510a565b92915050565b600081519050613b028161510a565b92915050565b600082601f830112613b1d57613b1c614cf8565b5b8135613b2d848260208601613a02565b91505092915050565b600082601f830112613b4b57613b4a614cf8565b5b8135613b5b848260208601613a44565b91505092915050565b600081359050613b7381615121565b92915050565b600060208284031215613b8f57613b8e614d0c565b5b6000613b9d84828501613a86565b91505092915050565b60008060408385031215613bbd57613bbc614d0c565b5b6000613bcb85828601613a86565b9250506020613bdc85828601613a86565b9150509250929050565b600080600060608486031215613bff57613bfe614d0c565b5b6000613c0d86828701613a86565b9350506020613c1e86828701613a86565b9250506040613c2f86828701613b64565b9150509250925092565b60008060008060808587031215613c5357613c52614d0c565b5b6000613c6187828801613a86565b9450506020613c7287828801613a86565b9350506040613c8387828801613b64565b925050606085013567ffffffffffffffff811115613ca457613ca3614d07565b5b613cb087828801613b08565b91505092959194509250565b60008060408385031215613cd357613cd2614d0c565b5b6000613ce185828601613a86565b9250506020613cf285828601613ac9565b9150509250929050565b60008060408385031215613d1357613d12614d0c565b5b6000613d2185828601613a86565b9250506020613d3285828601613b64565b9150509250929050565b600060208284031215613d5257613d51614d0c565b5b6000613d6084828501613ade565b91505092915050565b600060208284031215613d7f57613d7e614d0c565b5b6000613d8d84828501613af3565b91505092915050565b600060208284031215613dac57613dab614d0c565b5b600082013567ffffffffffffffff811115613dca57613dc9614d07565b5b613dd684828501613b36565b91505092915050565b60008060408385031215613df657613df5614d0c565b5b600083013567ffffffffffffffff811115613e1457613e13614d07565b5b613e2085828601613b36565b925050602083013567ffffffffffffffff811115613e4157613e40614d07565b5b613e4d85828601613b36565b9150509250929050565b60008060408385031215613e6e57613e6d614d0c565b5b600083013567ffffffffffffffff811115613e8c57613e8b614d07565b5b613e9885828601613b36565b9250506020613ea985828601613b64565b9150509250929050565b600080600060608486031215613ecc57613ecb614d0c565b5b600084013567ffffffffffffffff811115613eea57613ee9614d07565b5b613ef686828701613b36565b9350506020613f0786828701613b64565b925050604084013567ffffffffffffffff811115613f2857613f27614d07565b5b613f3486828701613a9b565b9150509250925092565b600060208284031215613f5457613f53614d0c565b5b6000613f6284828501613b64565b91505092915050565b60008060408385031215613f8257613f81614d0c565b5b6000613f9085828601613b64565b925050602083013567ffffffffffffffff811115613fb157613fb0614d07565b5b613fbd85828601613b36565b9150509250929050565b600080600060608486031215613fe057613fdf614d0c565b5b6000613fee86828701613b64565b935050602084013567ffffffffffffffff81111561400f5761400e614d07565b5b61401b86828701613b36565b925050604084013567ffffffffffffffff81111561403c5761403b614d07565b5b61404886828701613b36565b9150509250925092565b6000806040838503121561406957614068614d0c565b5b600061407785828601613b64565b925050602061408885828601613b64565b9150509250929050565b6000806000606084860312156140ab576140aa614d0c565b5b60006140b986828701613b64565b93505060206140ca86828701613b64565b925050604084013567ffffffffffffffff8111156140eb576140ea614d07565b5b6140f786828701613b36565b9150509250925092565b600061410d8383614260565b905092915050565b61411e81614a7c565b82525050565b600061412f8261496a565b6141398185614998565b93508360208202850161414b85614945565b8060005b8581101561418757848403895281516141688582614101565b94506141738361498b565b925060208a0199505060018101905061414f565b50829750879550505050505092915050565b6141a281614a8e565b82525050565b60006141b382614975565b6141bd81856149a9565b93506141cd818560208601614aff565b6141d681614d11565b840191505092915050565b600081546141ee81614b32565b6141f881866149ba565b94506001821660008114614213576001811461422457614257565b60ff19831686528186019350614257565b61422d85614955565b60005b8381101561424f57815481890152600182019150602081019050614230565b838801955050505b50505092915050565b600061426b82614980565b61427581856149c5565b9350614285818560208601614aff565b61428e81614d11565b840191505092915050565b60006142a482614980565b6142ae81856149d6565b93506142be818560208601614aff565b6142c781614d11565b840191505092915050565b60006142dd82614980565b6142e781856149e7565b93506142f7818560208601614aff565b80840191505092915050565b6000614310602d836149d6565b915061431b82614d22565b604082019050919050565b6000614333602b836149d6565b915061433e82614d71565b604082019050919050565b60006143566032836149d6565b915061436182614dc0565b604082019050919050565b60006143796025836149d6565b915061438482614e0f565b604082019050919050565b600061439c601c836149d6565b91506143a782614e5e565b602082019050919050565b60006143bf6024836149d6565b91506143ca82614e87565b604082019050919050565b60006143e26019836149d6565b91506143ed82614ed6565b602082019050919050565b60006144056029836149d6565b915061441082614eff565b604082019050919050565b60006144286020836149d6565b915061443382614f4e565b602082019050919050565b600061444b6018836149d6565b915061445682614f77565b602082019050919050565b600061446e6021836149d6565b915061447982614fa0565b604082019050919050565b6000614491603d836149d6565b915061449c82614fef565b604082019050919050565b60006144b4602c836149d6565b91506144bf8261503e565b604082019050919050565b60006144d76035836149d6565b91506144e28261508d565b604082019050919050565b6144f681614ae6565b82525050565b600061450882846141e1565b915081905092915050565b600061451f82856142d2565b915061452b82846142d2565b91508190509392505050565b600060208201905061454c6000830184614115565b92915050565b60006080820190506145676000830187614115565b6145746020830186614115565b61458160408301856144ed565b818103606083015261459381846141a8565b905095945050505050565b600060208201905081810360008301526145b88184614124565b905092915050565b60006020820190506145d56000830184614199565b92915050565b600060208201905081810360008301526145f58184614299565b905092915050565b600060608201905081810360008301526146178186614299565b9050818103602083015261462b8185614299565b9050818103604083015261463f8184614299565b9050949350505050565b6000602082019050818103600083015261466281614303565b9050919050565b6000602082019050818103600083015261468281614326565b9050919050565b600060208201905081810360008301526146a281614349565b9050919050565b600060208201905081810360008301526146c28161436c565b9050919050565b600060208201905081810360008301526146e28161438f565b9050919050565b60006020820190508181036000830152614702816143b2565b9050919050565b60006020820190508181036000830152614722816143d5565b9050919050565b60006020820190508181036000830152614742816143f8565b9050919050565b600060208201905081810360008301526147628161441b565b9050919050565b600060208201905081810360008301526147828161443e565b9050919050565b600060208201905081810360008301526147a281614461565b9050919050565b600060208201905081810360008301526147c281614484565b9050919050565b600060208201905081810360008301526147e2816144a7565b9050919050565b60006020820190508181036000830152614802816144ca565b9050919050565b600060208201905061481e60008301846144ed565b92915050565b600060408201905061483960008301856144ed565b818103602083015261484b8184614299565b90509392505050565b600060608201905061486960008301866144ed565b61487660208301856144ed565b81810360408301526148888184614299565b9050949350505050565b600061489c6148ad565b90506148a88282614b64565b919050565b6000604051905090565b600067ffffffffffffffff8211156148d2576148d1614cc9565b5b602082029050602081019050919050565b600067ffffffffffffffff8211156148fe576148fd614cc9565b5b61490782614d11565b9050602081019050919050565b600067ffffffffffffffff82111561492f5761492e614cc9565b5b61493882614d11565b9050602081019050919050565b6000819050602082019050919050565b60008190508160005260206000209050919050565b600081519050919050565b600081519050919050565b600081519050919050565b6000602082019050919050565b600082825260208201905092915050565b600082825260208201905092915050565b600081905092915050565b600082825260208201905092915050565b600082825260208201905092915050565b600081905092915050565b60006149fd82614ae6565b9150614a0883614ae6565b9250827fffffffffffffffffffffffffffffffffffffffffffffffffffffffffffffffff03821115614a3d57614a3c614bde565b5b828201905092915050565b6000614a5382614ae6565b9150614a5e83614ae6565b925082821015614a7157614a70614bde565b5b828203905092915050565b6000614a8782614ac6565b9050919050565b60008115159050919050565b60007fffffffff0000000000000000000000000000000000000000000000000000000082169050919050565b600073ffffffffffffffffffffffffffffffffffffffff82169050919050565b6000819050919050565b82818337600083830152505050565b60005b83811015614b1d578082015181840152602081019050614b02565b83811115614b2c576000848401525b50505050565b60006002820490506001821680614b4a57607f821691505b60208210811415614b5e57614b5d614c3c565b5b50919050565b614b6d82614d11565b810181811067ffffffffffffffff82111715614b8c57614b8b614cc9565b5b80604052505050565b6000614ba082614ae6565b91507fffffffffffffffffffffffffffffffffffffffffffffffffffffffffffffffff821415614bd357614bd2614bde565b5b600182019050919050565b7f4e487b7100000000000000000000000000000000000000000000000000000000600052601160045260246000fd5b7f4e487b7100000000000000000000000000000000000000000000000000000000600052601260045260246000fd5b7f4e487b7100000000000000000000000000000000000000000000000000000000600052602260045260246000fd5b7f4e487b7100000000000000000000000000000000000000000000000000000000600052603160045260246000fd5b7f4e487b7100000000000000000000000000000000000000000000000000000000600052603260045260246000fd5b7f4e487b7100000000000000000000000000000000000000000000000000000000600052604160045260246000fd5b600080fd5b600080fd5b600080fd5b600080fd5b600080fd5b6000601f19601f8301169050919050565b7f4552433732313a2063616c6c6572206973206e6f7420746f6b656e206f776e6560008201527f72206f7220617070726f76656400000000000000000000000000000000000000602082015250565b7f455243373231456e756d657261626c653a206f776e657220696e646578206f7560008201527f74206f6620626f756e6473000000000000000000000000000000000000000000602082015250565b7f4552433732313a207472616e7366657220746f206e6f6e20455243373231526560008201527f63656976657220696d706c656d656e7465720000000000000000000000000000602082015250565b7f4552433732313a207472616e736665722066726f6d20696e636f72726563742060008201527f6f776e6572000000000000000000000000000000000000000000000000000000602082015250565b7f4552433732313a20746f6b656e20616c7265616479206d696e74656400000000600082015250565b7f4552433732313a207472616e7366657220746f20746865207a65726f2061646460008201527f7265737300000000000000000000000000000000000000000000000000000000602082015250565b7f4552433732313a20617070726f766520746f2063616c6c657200000000000000600082015250565b7f4552433732313a2061646472657373207a65726f206973206e6f74206120766160008201527f6c6964206f776e65720000000000000000000000000000000000000000000000602082015250565b7f4552433732313a206d696e7420746f20746865207a65726f2061646472657373600082015250565b7f4552433732313a20696e76616c696420746f6b656e2049440000000000000000600082015250565b7f4552433732313a20617070726f76616c20746f2063757272656e74206f776e6560008201527f7200000000000000000000000000000000000000000000000000000000000000602082015250565b7f4552433732313a20617070726f76652063616c6c6572206973206e6f7420746f60008201527f6b656e206f776e6572206f7220617070726f76656420666f7220616c6c000000602082015250565b7f455243373231456e756d657261626c653a20676c6f62616c20696e646578206f60008201527f7574206f6620626f756e64730000000000000000000000000000000000000000602082015250565b7f455243373231456e756d657261626c653a20636f6e736563757469766520747260008201527f616e7366657273206e6f7420737570706f727465640000000000000000000000602082015250565b6150e581614a7c565b81146150f057600080fd5b50565b6150fc81614a8e565b811461510757600080fd5b50565b61511381614a9a565b811461511e57600080fd5b50565b61512a81614ae6565b811461513557600080fd5b5056fea26469706673582212204150b7952353b39a045028c7f46b92c06e0b69e1057276fcdc9ceba94937eb9d64736f6c63430008060033","opcodes":"PUSH1 0x80 PUSH1 0x40 MSTORE CALLVALUE DUP1 ISZERO PUSH2 0x10 JUMPI PUSH1 0x0 DUP1 REVERT JUMPDEST POP PUSH2 0x516E DUP1 PUSH2 0x20 PUSH1 0x0 CODECOPY PUSH1 0x0 RETURN INVALID PUSH1 0x80 PUSH1 0x40 MSTORE CALLVALUE DUP1 ISZERO PUSH2 0x10 JUMPI PUSH1 0x0 DUP1 REVERT JUMPDEST POP PUSH1 0x4 CALLDATASIZE LT PUSH2 0x248 JUMPI PUSH1 0x0 CALLDATALOAD PUSH1 0xE0 SHR DUP1 PUSH4 0x71085CAB GT PUSH2 0x13B JUMPI DUP1 PUSH4 0xB88D4FDE GT PUSH2 0xB8 JUMPI DUP1 PUSH4 0xC87B56DD GT PUSH2 0x7C JUMPI DUP1 PUSH4 0xC87B56DD EQ PUSH2 0x7B0 JUMPI DUP1 PUSH4 0xE3280C96 EQ PUSH2 0x7E0 JUMPI DUP1 PUSH4 0xE32ACC1A EQ PUSH2 0x810 JUMPI DUP1 PUSH4 0xE985E9C5 EQ PUSH2 0x840 JUMPI DUP1 PUSH4 0xFF4A37EF EQ PUSH2 0x870 JUMPI PUSH2 0x248 JUMP JUMPDEST DUP1 PUSH4 0xB88D4FDE EQ PUSH2 0x70E JUMPI DUP1 PUSH4 0xC04E7430 EQ PUSH2 0x72A JUMPI DUP1 PUSH4 0xC04FE978 EQ PUSH2 0x746 JUMPI DUP1 PUSH4 0xC29595C5 EQ PUSH2 0x764 JUMPI DUP1 PUSH4 0xC4C2E364 EQ PUSH2 0x780 JUMPI PUSH2 0x248 JUMP JUMPDEST DUP1 PUSH4 0x97EE7606 GT PUSH2 0xFF JUMPI DUP1 PUSH4 0x97EE7606 EQ PUSH2 0x66A JUMPI DUP1 PUSH4 0xA1CA9178 EQ PUSH2 0x688 JUMPI DUP1 PUSH4 0xA22CB465 EQ PUSH2 0x6B8 JUMPI DUP1 PUSH4 0xAA4CDF2A EQ PUSH2 0x6D4 JUMPI DUP1 PUSH4 0xB16060A6 EQ PUSH2 0x704 JUMPI PUSH2 0x248 JUMP JUMPDEST DUP1 PUSH4 0x71085CAB EQ PUSH2 0x5A0 JUMPI DUP1 PUSH4 0x82FCC732 EQ PUSH2 0x5D0 JUMPI DUP1 PUSH4 0x881DE858 EQ PUSH2 0x600 JUMPI DUP1 PUSH4 0x8D3D2595 EQ PUSH2 0x61C JUMPI DUP1 PUSH4 0x95D89B41 EQ PUSH2 0x64C JUMPI PUSH2 0x248 JUMP JUMPDEST DUP1 PUSH4 0x27A568B9 GT PUSH2 0x1C9 JUMPI DUP1 PUSH4 0x4BE7ADB5 GT PUSH2 0x18D JUMPI DUP1 PUSH4 0x4BE7ADB5 EQ PUSH2 0x4B0 JUMPI DUP1 PUSH4 0x4F6CCCE7 EQ PUSH2 0x4E0 JUMPI DUP1 PUSH4 0x5D907DA1 EQ PUSH2 0x510 JUMPI DUP1 PUSH4 0x6352211E EQ PUSH2 0x540 JUMPI DUP1 PUSH4 0x70A08231 EQ PUSH2 0x570 JUMPI PUSH2 0x248 JUMP JUMPDEST DUP1 PUSH4 0x27A568B9 EQ PUSH2 0x3E3 JUMPI DUP1 PUSH4 0x29B56F60 EQ PUSH2 0x415 JUMPI DUP1 PUSH4 0x2F745C59 EQ PUSH2 0x433 JUMPI DUP1 PUSH4 0x42842E0E EQ PUSH2 0x463 JUMPI DUP1 PUSH4 0x468D0C80 EQ PUSH2 0x47F JUMPI PUSH2 0x248 JUMP JUMPDEST DUP1 PUSH4 0x131D44F2 GT PUSH2 0x210 JUMPI DUP1 PUSH4 0x131D44F2 EQ PUSH2 0x317 JUMPI DUP1 PUSH4 0x18160DDD EQ PUSH2 0x347 JUMPI DUP1 PUSH4 0x1BA44C4C EQ PUSH2 0x365 JUMPI DUP1 PUSH4 0x1E9AC9F5 EQ PUSH2 0x397 JUMPI DUP1 PUSH4 0x23B872DD EQ PUSH2 0x3C7 JUMPI PUSH2 0x248 JUMP JUMPDEST DUP1 PUSH4 0x1FFC9A7 EQ PUSH2 0x24D JUMPI DUP1 PUSH4 0x6FDDE03 EQ PUSH2 0x27D JUMPI DUP1 PUSH4 0x81812FC EQ PUSH2 0x29B JUMPI DUP1 PUSH4 0x95EA7B3 EQ PUSH2 0x2CB JUMPI DUP1 PUSH4 0x109AC970 EQ PUSH2 0x2E7 JUMPI JUMPDEST PUSH1 0x0 DUP1 REVERT JUMPDEST PUSH2 0x267 PUSH1 0x4 DUP1 CALLDATASIZE SUB DUP2 ADD SWAP1 PUSH2 0x262 SWAP2 SWAP1 PUSH2 0x3D3C JUMP JUMPDEST PUSH2 0x8A2 JUMP JUMPDEST PUSH1 0x40 MLOAD PUSH2 0x274 SWAP2 SWAP1 PUSH2 0x45C0 JUMP JUMPDEST PUSH1 0x40 MLOAD DUP1 SWAP2 SUB SWAP1 RETURN JUMPDEST PUSH2 0x285 PUSH2 0x91C JUMP JUMPDEST PUSH1 0x40 MLOAD PUSH2 0x292 SWAP2 SWAP1 PUSH2 0x45DB JUMP JUMPDEST PUSH1 0x40 MLOAD DUP1 SWAP2 SUB SWAP1 RETURN JUMPDEST PUSH2 0x2B5 PUSH1 0x4 DUP1 CALLDATASIZE SUB DUP2 ADD SWAP1 PUSH2 0x2B0 SWAP2 SWAP1 PUSH2 0x3F3E JUMP JUMPDEST PUSH2 0x9AE JUMP JUMPDEST PUSH1 0x40 MLOAD PUSH2 0x2C2 SWAP2 SWAP1 PUSH2 0x4537 JUMP JUMPDEST PUSH1 0x40 MLOAD DUP1 SWAP2 SUB SWAP1 RETURN JUMPDEST PUSH2 0x2E5 PUSH1 0x4 DUP1 CALLDATASIZE SUB DUP2 ADD SWAP1 PUSH2 0x2E0 SWAP2 SWAP1 PUSH2 0x3CFC JUMP JUMPDEST PUSH2 0x9F4 JUMP JUMPDEST STOP JUMPDEST PUSH2 0x301 PUSH1 0x4 DUP1 CALLDATASIZE SUB DUP2 ADD SWAP1 PUSH2 0x2FC SWAP2 SWAP1 PUSH2 0x3F3E JUMP JUMPDEST PUSH2 0xB0C JUMP JUMPDEST PUSH1 0x40 MLOAD PUSH2 0x30E SWAP2 SWAP1 PUSH2 0x459E JUMP JUMPDEST PUSH1 0x40 MLOAD DUP1 SWAP2 SUB SWAP1 RETURN JUMPDEST PUSH2 0x331 PUSH1 0x4 DUP1 CALLDATASIZE SUB DUP2 ADD SWAP1 PUSH2 0x32C SWAP2 SWAP1 PUSH2 0x3F3E JUMP JUMPDEST PUSH2 0xC7C JUMP JUMPDEST PUSH1 0x40 MLOAD PUSH2 0x33E SWAP2 SWAP1 PUSH2 0x459E JUMP JUMPDEST PUSH1 0x40 MLOAD DUP1 SWAP2 SUB SWAP1 RETURN JUMPDEST PUSH2 0x34F PUSH2 0xDEC JUMP JUMPDEST PUSH1 0x40 MLOAD PUSH2 0x35C SWAP2 SWAP1 PUSH2 0x4809 JUMP JUMPDEST PUSH1 0x40 MLOAD DUP1 SWAP2 SUB SWAP1 RETURN JUMPDEST PUSH2 0x37F PUSH1 0x4 DUP1 CALLDATASIZE SUB DUP2 ADD SWAP1 PUSH2 0x37A SWAP2 SWAP1 PUSH2 0x3F3E JUMP JUMPDEST PUSH2 0xDF9 JUMP JUMPDEST PUSH1 0x40 MLOAD PUSH2 0x38E SWAP4 SWAP3 SWAP2 SWAP1 PUSH2 0x4854 JUMP JUMPDEST PUSH1 0x40 MLOAD DUP1 SWAP2 SUB SWAP1 RETURN JUMPDEST PUSH2 0x3B1 PUSH1 0x4 DUP1 CALLDATASIZE SUB DUP2 ADD SWAP1 PUSH2 0x3AC SWAP2 SWAP1 PUSH2 0x3D96 JUMP JUMPDEST PUSH2 0xEAB JUMP JUMPDEST PUSH1 0x40 MLOAD PUSH2 0x3BE SWAP2 SWAP1 PUSH2 0x4809 JUMP JUMPDEST PUSH1 0x40 MLOAD DUP1 SWAP2 SUB SWAP1 RETURN JUMPDEST PUSH2 0x3E1 PUSH1 0x4 DUP1 CALLDATASIZE SUB DUP2 ADD SWAP1 PUSH2 0x3DC SWAP2 SWAP1 PUSH2 0x3BE6 JUMP JUMPDEST PUSH2 0xF1D JUMP JUMPDEST STOP JUMPDEST PUSH2 0x3FD PUSH1 0x4 DUP1 CALLDATASIZE SUB DUP2 ADD SWAP1 PUSH2 0x3F8 SWAP2 SWAP1 PUSH2 0x3F3E JUMP JUMPDEST PUSH2 0xF7D JUMP JUMPDEST PUSH1 0x40 MLOAD PUSH2 0x40C SWAP4 SWAP3 SWAP2 SWAP1 PUSH2 0x45FD JUMP JUMPDEST PUSH1 0x40 MLOAD DUP1 SWAP2 SUB SWAP1 RETURN JUMPDEST PUSH2 0x41D PUSH2 0x113F JUMP JUMPDEST PUSH1 0x40 MLOAD PUSH2 0x42A SWAP2 SWAP1 PUSH2 0x459E JUMP JUMPDEST PUSH1 0x40 MLOAD DUP1 SWAP2 SUB SWAP1 RETURN JUMPDEST PUSH2 0x44D PUSH1 0x4 DUP1 CALLDATASIZE SUB DUP2 ADD SWAP1 PUSH2 0x448 SWAP2 SWAP1 PUSH2 0x3CFC JUMP JUMPDEST PUSH2 0x127A JUMP JUMPDEST PUSH1 0x40 MLOAD PUSH2 0x45A SWAP2 SWAP1 PUSH2 0x4809 JUMP JUMPDEST PUSH1 0x40 MLOAD DUP1 SWAP2 SUB SWAP1 RETURN JUMPDEST PUSH2 0x47D PUSH1 0x4 DUP1 CALLDATASIZE SUB DUP2 ADD SWAP1 PUSH2 0x478 SWAP2 SWAP1 PUSH2 0x3BE6 JUMP JUMPDEST PUSH2 0x131F JUMP JUMPDEST STOP JUMPDEST PUSH2 0x499 PUSH1 0x4 DUP1 CALLDATASIZE SUB DUP2 ADD SWAP1 PUSH2 0x494 SWAP2 SWAP1 PUSH2 0x3F3E JUMP JUMPDEST PUSH2 0x133F JUMP JUMPDEST PUSH1 0x40 MLOAD PUSH2 0x4A7 SWAP3 SWAP2 SWAP1 PUSH2 0x4824 JUMP JUMPDEST PUSH1 0x40 MLOAD DUP1 SWAP2 SUB SWAP1 RETURN JUMPDEST PUSH2 0x4CA PUSH1 0x4 DUP1 CALLDATASIZE SUB DUP2 ADD SWAP1 PUSH2 0x4C5 SWAP2 SWAP1 PUSH2 0x4052 JUMP JUMPDEST PUSH2 0x13EB JUMP JUMPDEST PUSH1 0x40 MLOAD PUSH2 0x4D7 SWAP2 SWAP1 PUSH2 0x459E JUMP JUMPDEST PUSH1 0x40 MLOAD DUP1 SWAP2 SUB SWAP1 RETURN JUMPDEST PUSH2 0x4FA PUSH1 0x4 DUP1 CALLDATASIZE SUB DUP2 ADD SWAP1 PUSH2 0x4F5 SWAP2 SWAP1 PUSH2 0x3F3E JUMP JUMPDEST PUSH2 0x157D JUMP JUMPDEST PUSH1 0x40 MLOAD PUSH2 0x507 SWAP2 SWAP1 PUSH2 0x4809 JUMP JUMPDEST PUSH1 0x40 MLOAD DUP1 SWAP2 SUB SWAP1 RETURN JUMPDEST PUSH2 0x52A PUSH1 0x4 DUP1 CALLDATASIZE SUB DUP2 ADD SWAP1 PUSH2 0x525 SWAP2 SWAP1 PUSH2 0x3F3E JUMP JUMPDEST PUSH2 0x15EE JUMP JUMPDEST PUSH1 0x40 MLOAD PUSH2 0x537 SWAP2 SWAP1 PUSH2 0x45DB JUMP JUMPDEST PUSH1 0x40 MLOAD DUP1 SWAP2 SUB SWAP1 RETURN JUMPDEST PUSH2 0x55A PUSH1 0x4 DUP1 CALLDATASIZE SUB DUP2 ADD SWAP1 PUSH2 0x555 SWAP2 SWAP1 PUSH2 0x3F3E JUMP JUMPDEST PUSH2 0x1696 JUMP JUMPDEST PUSH1 0x40 MLOAD PUSH2 0x567 SWAP2 SWAP1 PUSH2 0x4537 JUMP JUMPDEST PUSH1 0x40 MLOAD DUP1 SWAP2 SUB SWAP1 RETURN JUMPDEST PUSH2 0x58A PUSH1 0x4 DUP1 CALLDATASIZE SUB DUP2 ADD SWAP1 PUSH2 0x585 SWAP2 SWAP1 PUSH2 0x3B79 JUMP JUMPDEST PUSH2 0x171D JUMP JUMPDEST PUSH1 0x40 MLOAD PUSH2 0x597 SWAP2 SWAP1 PUSH2 0x4809 JUMP JUMPDEST PUSH1 0x40 MLOAD DUP1 SWAP2 SUB SWAP1 RETURN JUMPDEST PUSH2 0x5BA PUSH1 0x4 DUP1 CALLDATASIZE SUB DUP2 ADD SWAP1 PUSH2 0x5B5 SWAP2 SWAP1 PUSH2 0x3E57 JUMP JUMPDEST PUSH2 0x17D5 JUMP JUMPDEST PUSH1 0x40 MLOAD PUSH2 0x5C7 SWAP2 SWAP1 PUSH2 0x4809 JUMP JUMPDEST PUSH1 0x40 MLOAD DUP1 SWAP2 SUB SWAP1 RETURN JUMPDEST PUSH2 0x5EA PUSH1 0x4 DUP1 CALLDATASIZE SUB DUP2 ADD SWAP1 PUSH2 0x5E5 SWAP2 SWAP1 PUSH2 0x4092 JUMP JUMPDEST PUSH2 0x184E JUMP JUMPDEST PUSH1 0x40 MLOAD PUSH2 0x5F7 SWAP2 SWAP1 PUSH2 0x4809 JUMP JUMPDEST PUSH1 0x40 MLOAD DUP1 SWAP2 SUB SWAP1 RETURN JUMPDEST PUSH2 0x61A PUSH1 0x4 DUP1 CALLDATASIZE SUB DUP2 ADD SWAP1 PUSH2 0x615 SWAP2 SWAP1 PUSH2 0x3FC7 JUMP JUMPDEST PUSH2 0x18D8 JUMP JUMPDEST STOP JUMPDEST PUSH2 0x636 PUSH1 0x4 DUP1 CALLDATASIZE SUB DUP2 ADD SWAP1 PUSH2 0x631 SWAP2 SWAP1 PUSH2 0x3F3E JUMP JUMPDEST PUSH2 0x1933 JUMP JUMPDEST PUSH1 0x40 MLOAD PUSH2 0x643 SWAP2 SWAP1 PUSH2 0x45DB JUMP JUMPDEST PUSH1 0x40 MLOAD DUP1 SWAP2 SUB SWAP1 RETURN JUMPDEST PUSH2 0x654 PUSH2 0x19DB JUMP JUMPDEST PUSH1 0x40 MLOAD PUSH2 0x661 SWAP2 SWAP1 PUSH2 0x45DB JUMP JUMPDEST PUSH1 0x40 MLOAD DUP1 SWAP2 SUB SWAP1 RETURN JUMPDEST PUSH2 0x672 PUSH2 0x1A6D JUMP JUMPDEST PUSH1 0x40 MLOAD PUSH2 0x67F SWAP2 SWAP1 PUSH2 0x459E JUMP JUMPDEST PUSH1 0x40 MLOAD DUP1 SWAP2 SUB SWAP1 RETURN JUMPDEST PUSH2 0x6A2 PUSH1 0x4 DUP1 CALLDATASIZE SUB DUP2 ADD SWAP1 PUSH2 0x69D SWAP2 SWAP1 PUSH2 0x3D96 JUMP JUMPDEST PUSH2 0x1BA8 JUMP JUMPDEST PUSH1 0x40 MLOAD PUSH2 0x6AF SWAP2 SWAP1 PUSH2 0x4809 JUMP JUMPDEST PUSH1 0x40 MLOAD DUP1 SWAP2 SUB SWAP1 RETURN JUMPDEST PUSH2 0x6D2 PUSH1 0x4 DUP1 CALLDATASIZE SUB DUP2 ADD SWAP1 PUSH2 0x6CD SWAP2 SWAP1 PUSH2 0x3CBC JUMP JUMPDEST PUSH2 0x1C1A JUMP JUMPDEST STOP JUMPDEST PUSH2 0x6EE PUSH1 0x4 DUP1 CALLDATASIZE SUB DUP2 ADD SWAP1 PUSH2 0x6E9 SWAP2 SWAP1 PUSH2 0x3D96 JUMP JUMPDEST PUSH2 0x1C30 JUMP JUMPDEST PUSH1 0x40 MLOAD PUSH2 0x6FB SWAP2 SWAP1 PUSH2 0x4809 JUMP JUMPDEST PUSH1 0x40 MLOAD DUP1 SWAP2 SUB SWAP1 RETURN JUMPDEST PUSH2 0x70C PUSH2 0x1CB8 JUMP JUMPDEST STOP JUMPDEST PUSH2 0x728 PUSH1 0x4 DUP1 CALLDATASIZE SUB DUP2 ADD SWAP1 PUSH2 0x723 SWAP2 SWAP1 PUSH2 0x3C39 JUMP JUMPDEST PUSH2 0x1E36 JUMP JUMPDEST STOP JUMPDEST PUSH2 0x744 PUSH1 0x4 DUP1 CALLDATASIZE SUB DUP2 ADD SWAP1 PUSH2 0x73F SWAP2 SWAP1 PUSH2 0x3F6B JUMP JUMPDEST PUSH2 0x1E98 JUMP JUMPDEST STOP JUMPDEST PUSH2 0x74E PUSH2 0x1EC7 JUMP JUMPDEST PUSH1 0x40 MLOAD PUSH2 0x75B SWAP2 SWAP1 PUSH2 0x459E JUMP JUMPDEST PUSH1 0x40 MLOAD DUP1 SWAP2 SUB SWAP1 RETURN JUMPDEST PUSH2 0x77E PUSH1 0x4 DUP1 CALLDATASIZE SUB DUP2 ADD SWAP1 PUSH2 0x779 SWAP2 SWAP1 PUSH2 0x3F6B JUMP JUMPDEST PUSH2 0x2002 JUMP JUMPDEST STOP JUMPDEST PUSH2 0x79A PUSH1 0x4 DUP1 CALLDATASIZE SUB DUP2 ADD SWAP1 PUSH2 0x795 SWAP2 SWAP1 PUSH2 0x3DDF JUMP JUMPDEST PUSH2 0x2031 JUMP JUMPDEST PUSH1 0x40 MLOAD PUSH2 0x7A7 SWAP2 SWAP1 PUSH2 0x4809 JUMP JUMPDEST PUSH1 0x40 MLOAD DUP1 SWAP2 SUB SWAP1 RETURN JUMPDEST PUSH2 0x7CA PUSH1 0x4 DUP1 CALLDATASIZE SUB DUP2 ADD SWAP1 PUSH2 0x7C5 SWAP2 SWAP1 PUSH2 0x3F3E JUMP JUMPDEST PUSH2 0x2115 JUMP JUMPDEST PUSH1 0x40 MLOAD PUSH2 0x7D7 SWAP2 SWAP1 PUSH2 0x45DB JUMP JUMPDEST PUSH1 0x40 MLOAD DUP1 SWAP2 SUB SWAP1 RETURN JUMPDEST PUSH2 0x7FA PUSH1 0x4 DUP1 CALLDATASIZE SUB DUP2 ADD SWAP1 PUSH2 0x7F5 SWAP2 SWAP1 PUSH2 0x3EB3 JUMP JUMPDEST PUSH2 0x217D JUMP JUMPDEST PUSH1 0x40 MLOAD PUSH2 0x807 SWAP2 SWAP1 PUSH2 0x4809 JUMP JUMPDEST PUSH1 0x40 MLOAD DUP1 SWAP2 SUB SWAP1 RETURN JUMPDEST PUSH2 0x82A PUSH1 0x4 DUP1 CALLDATASIZE SUB DUP2 ADD SWAP1 PUSH2 0x825 SWAP2 SWAP1 PUSH2 0x3F3E JUMP JUMPDEST PUSH2 0x2258 JUMP JUMPDEST PUSH1 0x40 MLOAD PUSH2 0x837 SWAP2 SWAP1 PUSH2 0x45DB JUMP JUMPDEST PUSH1 0x40 MLOAD DUP1 SWAP2 SUB SWAP1 RETURN JUMPDEST PUSH2 0x85A PUSH1 0x4 DUP1 CALLDATASIZE SUB DUP2 ADD SWAP1 PUSH2 0x855 SWAP2 SWAP1 PUSH2 0x3BA6 JUMP JUMPDEST PUSH2 0x2300 JUMP JUMPDEST PUSH1 0x40 MLOAD PUSH2 0x867 SWAP2 SWAP1 PUSH2 0x45C0 JUMP JUMPDEST PUSH1 0x40 MLOAD DUP1 SWAP2 SUB SWAP1 RETURN JUMPDEST PUSH2 0x88A PUSH1 0x4 DUP1 CALLDATASIZE SUB DUP2 ADD SWAP1 PUSH2 0x885 SWAP2 SWAP1 PUSH2 0x3F3E JUMP JUMPDEST PUSH2 0x2394 JUMP JUMPDEST PUSH1 0x40 MLOAD PUSH2 0x899 SWAP4 SWAP3 SWAP2 SWAP1 PUSH2 0x4854 JUMP JUMPDEST PUSH1 0x40 MLOAD DUP1 SWAP2 SUB SWAP1 RETURN JUMPDEST PUSH1 0x0 PUSH32 0x780E9D6300000000000000000000000000000000000000000000000000000000 PUSH28 0xFFFFFFFFFFFFFFFFFFFFFFFFFFFFFFFFFFFFFFFFFFFFFFFFFFFFFFFF NOT AND DUP3 PUSH28 0xFFFFFFFFFFFFFFFFFFFFFFFFFFFFFFFFFFFFFFFFFFFFFFFFFFFFFFFF NOT AND EQ DUP1 PUSH2 0x915 JUMPI POP PUSH2 0x914 DUP3 PUSH2 0x2446 JUMP JUMPDEST JUMPDEST SWAP1 POP SWAP2 SWAP1 POP JUMP JUMPDEST PUSH1 0x60 PUSH1 0x65 DUP1 SLOAD PUSH2 0x92B SWAP1 PUSH2 0x4B32 JUMP JUMPDEST DUP1 PUSH1 0x1F ADD PUSH1 0x20 DUP1 SWAP2 DIV MUL PUSH1 0x20 ADD PUSH1 0x40 MLOAD SWAP1 DUP2 ADD PUSH1 0x40 MSTORE DUP1 SWAP3 SWAP2 SWAP1 DUP2 DUP2 MSTORE PUSH1 0x20 ADD DUP3 DUP1 SLOAD PUSH2 0x957 SWAP1 PUSH2 0x4B32 JUMP JUMPDEST DUP1 ISZERO PUSH2 0x9A4 JUMPI DUP1 PUSH1 0x1F LT PUSH2 0x979 JUMPI PUSH2 0x100 DUP1 DUP4 SLOAD DIV MUL DUP4 MSTORE SWAP2 PUSH1 0x20 ADD SWAP2 PUSH2 0x9A4 JUMP JUMPDEST DUP3 ADD SWAP2 SWAP1 PUSH1 0x0 MSTORE PUSH1 0x20 PUSH1 0x0 KECCAK256 SWAP1 JUMPDEST DUP2 SLOAD DUP2 MSTORE SWAP1 PUSH1 0x1 ADD SWAP1 PUSH1 0x20 ADD DUP1 DUP4 GT PUSH2 0x987 JUMPI DUP3 SWAP1 SUB PUSH1 0x1F AND DUP3 ADD SWAP2 JUMPDEST POP POP POP POP POP SWAP1 POP SWAP1 JUMP JUMPDEST PUSH1 0x0 PUSH2 0x9B9 DUP3 PUSH2 0x2528 JUMP JUMPDEST PUSH1 0x69 PUSH1 0x0 DUP4 DUP2 MSTORE PUSH1 0x20 ADD SWAP1 DUP2 MSTORE PUSH1 0x20 ADD PUSH1 0x0 KECCAK256 PUSH1 0x0 SWAP1 SLOAD SWAP1 PUSH2 0x100 EXP SWAP1 DIV PUSH20 0xFFFFFFFFFFFFFFFFFFFFFFFFFFFFFFFFFFFFFFFF AND SWAP1 POP SWAP2 SWAP1 POP JUMP JUMPDEST PUSH1 0x0 PUSH2 0x9FF DUP3 PUSH2 0x1696 JUMP JUMPDEST SWAP1 POP DUP1 PUSH20 0xFFFFFFFFFFFFFFFFFFFFFFFFFFFFFFFFFFFFFFFF AND DUP4 PUSH20 0xFFFFFFFFFFFFFFFFFFFFFFFFFFFFFFFFFFFFFFFF AND EQ ISZERO PUSH2 0xA70 JUMPI PUSH1 0x40 MLOAD PUSH32 0x8C379A000000000000000000000000000000000000000000000000000000000 DUP2 MSTORE PUSH1 0x4 ADD PUSH2 0xA67 SWAP1 PUSH2 0x4789 JUMP JUMPDEST PUSH1 0x40 MLOAD DUP1 SWAP2 SUB SWAP1 REVERT JUMPDEST DUP1 PUSH20 0xFFFFFFFFFFFFFFFFFFFFFFFFFFFFFFFFFFFFFFFF AND PUSH2 0xA8F PUSH2 0x2573 JUMP JUMPDEST PUSH20 0xFFFFFFFFFFFFFFFFFFFFFFFFFFFFFFFFFFFFFFFF AND EQ DUP1 PUSH2 0xABE JUMPI POP PUSH2 0xABD DUP2 PUSH2 0xAB8 PUSH2 0x2573 JUMP JUMPDEST PUSH2 0x2300 JUMP JUMPDEST JUMPDEST PUSH2 0xAFD JUMPI PUSH1 0x40 MLOAD PUSH32 0x8C379A000000000000000000000000000000000000000000000000000000000 DUP2 MSTORE PUSH1 0x4 ADD PUSH2 0xAF4 SWAP1 PUSH2 0x47A9 JUMP JUMPDEST PUSH1 0x40 MLOAD DUP1 SWAP2 SUB SWAP1 REVERT JUMPDEST PUSH2 0xB07 DUP4 DUP4 PUSH2 0x257B JUMP JUMPDEST POP POP POP JUMP JUMPDEST PUSH1 0x60 PUSH1 0x0 PUSH1 0xCA SLOAD PUSH8 0xFFFFFFFFFFFFFFFF DUP2 GT ISZERO PUSH2 0xB2C JUMPI PUSH2 0xB2B PUSH2 0x4CC9 JUMP JUMPDEST JUMPDEST PUSH1 0x40 MLOAD SWAP1 DUP1 DUP3 MSTORE DUP1 PUSH1 0x20 MUL PUSH1 0x20 ADD DUP3 ADD PUSH1 0x40 MSTORE DUP1 ISZERO PUSH2 0xB5F JUMPI DUP2 PUSH1 0x20 ADD JUMPDEST PUSH1 0x60 DUP2 MSTORE PUSH1 0x20 ADD SWAP1 PUSH1 0x1 SWAP1 SUB SWAP1 DUP2 PUSH2 0xB4A JUMPI SWAP1 POP JUMPDEST POP SWAP1 POP PUSH1 0x0 DUP1 PUSH1 0x0 SWAP1 POP JUMPDEST PUSH1 0xCA SLOAD DUP2 LT ISZERO PUSH2 0xC71 JUMPI DUP5 PUSH1 0xCF PUSH1 0x0 DUP4 DUP2 MSTORE PUSH1 0x20 ADD SWAP1 DUP2 MSTORE PUSH1 0x20 ADD PUSH1 0x0 KECCAK256 PUSH1 0x0 ADD SLOAD EQ ISZERO PUSH2 0xC5E JUMPI PUSH1 0xCF PUSH1 0x0 DUP3 DUP2 MSTORE PUSH1 0x20 ADD SWAP1 DUP2 MSTORE PUSH1 0x20 ADD PUSH1 0x0 KECCAK256 PUSH1 0x1 ADD DUP1 SLOAD PUSH2 0xBB3 SWAP1 PUSH2 0x4B32 JUMP JUMPDEST DUP1 PUSH1 0x1F ADD PUSH1 0x20 DUP1 SWAP2 DIV MUL PUSH1 0x20 ADD PUSH1 0x40 MLOAD SWAP1 DUP2 ADD PUSH1 0x40 MSTORE DUP1 SWAP3 SWAP2 SWAP1 DUP2 DUP2 MSTORE PUSH1 0x20 ADD DUP3 DUP1 SLOAD PUSH2 0xBDF SWAP1 PUSH2 0x4B32 JUMP JUMPDEST DUP1 ISZERO PUSH2 0xC2C JUMPI DUP1 PUSH1 0x1F LT PUSH2 0xC01 JUMPI PUSH2 0x100 DUP1 DUP4 SLOAD DIV MUL DUP4 MSTORE SWAP2 PUSH1 0x20 ADD SWAP2 PUSH2 0xC2C JUMP JUMPDEST DUP3 ADD SWAP2 SWAP1 PUSH1 0x0 MSTORE PUSH1 0x20 PUSH1 0x0 KECCAK256 SWAP1 JUMPDEST DUP2 SLOAD DUP2 MSTORE SWAP1 PUSH1 0x1 ADD SWAP1 PUSH1 0x20 ADD DUP1 DUP4 GT PUSH2 0xC0F JUMPI DUP3 SWAP1 SUB PUSH1 0x1F AND DUP3 ADD SWAP2 JUMPDEST POP POP POP POP POP DUP4 DUP4 DUP2 MLOAD DUP2 LT PUSH2 0xC44 JUMPI PUSH2 0xC43 PUSH2 0x4C9A JUMP JUMPDEST JUMPDEST PUSH1 0x20 MUL PUSH1 0x20 ADD ADD DUP2 SWAP1 MSTORE POP DUP2 DUP1 PUSH2 0xC5A SWAP1 PUSH2 0x4B95 JUMP JUMPDEST SWAP3 POP POP JUMPDEST DUP1 DUP1 PUSH2 0xC69 SWAP1 PUSH2 0x4B95 JUMP JUMPDEST SWAP2 POP POP PUSH2 0xB6A JUMP JUMPDEST POP DUP2 SWAP3 POP POP POP SWAP2 SWAP1 POP JUMP JUMPDEST PUSH1 0x60 PUSH1 0x0 PUSH1 0xCB SLOAD PUSH8 0xFFFFFFFFFFFFFFFF DUP2 GT ISZERO PUSH2 0xC9C JUMPI PUSH2 0xC9B PUSH2 0x4CC9 JUMP JUMPDEST JUMPDEST PUSH1 0x40 MLOAD SWAP1 DUP1 DUP3 MSTORE DUP1 PUSH1 0x20 MUL PUSH1 0x20 ADD DUP3 ADD PUSH1 0x40 MSTORE DUP1 ISZERO PUSH2 0xCCF JUMPI DUP2 PUSH1 0x20 ADD JUMPDEST PUSH1 0x60 DUP2 MSTORE PUSH1 0x20 ADD SWAP1 PUSH1 0x1 SWAP1 SUB SWAP1 DUP2 PUSH2 0xCBA JUMPI SWAP1 POP JUMPDEST POP SWAP1 POP PUSH1 0x0 DUP1 PUSH1 0x0 SWAP1 POP JUMPDEST PUSH1 0xCB SLOAD DUP2 LT ISZERO PUSH2 0xDE1 JUMPI DUP5 PUSH1 0xD0 PUSH1 0x0 DUP4 DUP2 MSTORE PUSH1 0x20 ADD SWAP1 DUP2 MSTORE PUSH1 0x20 ADD PUSH1 0x0 KECCAK256 PUSH1 0x0 ADD SLOAD EQ ISZERO PUSH2 0xDC0 JUMPI PUSH1 0xD0 PUSH1 0x0 DUP3 DUP2 MSTORE PUSH1 0x20 ADD SWAP1 DUP2 MSTORE PUSH1 0x20 ADD PUSH1 0x0 KECCAK256 PUSH1 0x1 ADD DUP1 SLOAD PUSH2 0xD23 SWAP1 PUSH2 0x4B32 JUMP JUMPDEST DUP1 PUSH1 0x1F ADD PUSH1 0x20 DUP1 SWAP2 DIV MUL PUSH1 0x20 ADD PUSH1 0x40 MLOAD SWAP1 DUP2 ADD PUSH1 0x40 MSTORE DUP1 SWAP3 SWAP2 SWAP1 DUP2 DUP2 MSTORE PUSH1 0x20 ADD DUP3 DUP1 SLOAD PUSH2 0xD4F SWAP1 PUSH2 0x4B32 JUMP JUMPDEST DUP1 ISZERO PUSH2 0xD9C JUMPI DUP1 PUSH1 0x1F LT PUSH2 0xD71 JUMPI PUSH2 0x100 DUP1 DUP4 SLOAD DIV MUL DUP4 MSTORE SWAP2 PUSH1 0x20 ADD SWAP2 PUSH2 0xD9C JUMP JUMPDEST DUP3 ADD SWAP2 SWAP1 PUSH1 0x0 MSTORE PUSH1 0x20 PUSH1 0x0 KECCAK256 SWAP1 JUMPDEST DUP2 SLOAD DUP2 MSTORE SWAP1 PUSH1 0x1 ADD SWAP1 PUSH1 0x20 ADD DUP1 DUP4 GT PUSH2 0xD7F JUMPI DUP3 SWAP1 SUB PUSH1 0x1F AND DUP3 ADD SWAP2 JUMPDEST POP POP POP POP POP DUP4 DUP4 DUP2 MLOAD DUP2 LT PUSH2 0xDB4 JUMPI PUSH2 0xDB3 PUSH2 0x4C9A JUMP JUMPDEST JUMPDEST PUSH1 0x20 MUL PUSH1 0x20 ADD ADD DUP2 SWAP1 MSTORE POP JUMPDEST DUP2 DUP1 PUSH2 0xDCB SWAP1 PUSH2 0x4B95 JUMP JUMPDEST SWAP3 POP POP DUP1 DUP1 PUSH2 0xDD9 SWAP1 PUSH2 0x4B95 JUMP JUMPDEST SWAP2 POP POP PUSH2 0xCDA JUMP JUMPDEST POP DUP2 SWAP3 POP POP POP SWAP2 SWAP1 POP JUMP JUMPDEST PUSH1 0x0 PUSH1 0x99 DUP1 SLOAD SWAP1 POP SWAP1 POP SWAP1 JUMP JUMPDEST PUSH1 0xD2 PUSH1 0x20 MSTORE DUP1 PUSH1 0x0 MSTORE PUSH1 0x40 PUSH1 0x0 KECCAK256 PUSH1 0x0 SWAP2 POP SWAP1 POP DUP1 PUSH1 0x0 ADD SLOAD SWAP1 DUP1 PUSH1 0x1 ADD SLOAD SWAP1 DUP1 PUSH1 0x2 ADD DUP1 SLOAD PUSH2 0xE28 SWAP1 PUSH2 0x4B32 JUMP JUMPDEST DUP1 PUSH1 0x1F ADD PUSH1 0x20 DUP1 SWAP2 DIV MUL PUSH1 0x20 ADD PUSH1 0x40 MLOAD SWAP1 DUP2 ADD PUSH1 0x40 MSTORE DUP1 SWAP3 SWAP2 SWAP1 DUP2 DUP2 MSTORE PUSH1 0x20 ADD DUP3 DUP1 SLOAD PUSH2 0xE54 SWAP1 PUSH2 0x4B32 JUMP JUMPDEST DUP1 ISZERO PUSH2 0xEA1 JUMPI DUP1 PUSH1 0x1F LT PUSH2 0xE76 JUMPI PUSH2 0x100 DUP1 DUP4 SLOAD DIV MUL DUP4 MSTORE SWAP2 PUSH1 0x20 ADD SWAP2 PUSH2 0xEA1 JUMP JUMPDEST DUP3 ADD SWAP2 SWAP1 PUSH1 0x0 MSTORE PUSH1 0x20 PUSH1 0x0 KECCAK256 SWAP1 JUMPDEST DUP2 SLOAD DUP2 MSTORE SWAP1 PUSH1 0x1 ADD SWAP1 PUSH1 0x20 ADD DUP1 DUP4 GT PUSH2 0xE84 JUMPI DUP3 SWAP1 SUB PUSH1 0x1F AND DUP3 ADD SWAP2 JUMPDEST POP POP POP POP POP SWAP1 POP DUP4 JUMP JUMPDEST PUSH1 0x0 DUP1 PUSH1 0x0 SWAP1 POP JUMPDEST PUSH1 0xCA SLOAD DUP2 LT ISZERO PUSH2 0xF12 JUMPI DUP3 DUP1 MLOAD SWAP1 PUSH1 0x20 ADD KECCAK256 PUSH1 0xCF PUSH1 0x0 DUP4 DUP2 MSTORE PUSH1 0x20 ADD SWAP1 DUP2 MSTORE PUSH1 0x20 ADD PUSH1 0x0 KECCAK256 PUSH1 0x1 ADD PUSH1 0x40 MLOAD PUSH2 0xEE8 SWAP2 SWAP1 PUSH2 0x44FC JUMP JUMPDEST PUSH1 0x40 MLOAD DUP1 SWAP2 SUB SWAP1 KECCAK256 EQ ISZERO PUSH2 0xEFF JUMPI DUP1 SWAP2 POP POP PUSH2 0xF18 JUMP JUMPDEST DUP1 DUP1 PUSH2 0xF0A SWAP1 PUSH2 0x4B95 JUMP JUMPDEST SWAP2 POP POP PUSH2 0xEB3 JUMP JUMPDEST POP PUSH1 0x0 SWAP1 POP JUMPDEST SWAP2 SWAP1 POP JUMP JUMPDEST PUSH2 0xF2E PUSH2 0xF28 PUSH2 0x2573 JUMP JUMPDEST DUP3 PUSH2 0x2634 JUMP JUMPDEST PUSH2 0xF6D JUMPI PUSH1 0x40 MLOAD PUSH32 0x8C379A000000000000000000000000000000000000000000000000000000000 DUP2 MSTORE PUSH1 0x4 ADD PUSH2 0xF64 SWAP1 PUSH2 0x4649 JUMP JUMPDEST PUSH1 0x40 MLOAD DUP1 SWAP2 SUB SWAP1 REVERT JUMPDEST PUSH2 0xF78 DUP4 DUP4 DUP4 PUSH2 0x26C9 JUMP JUMPDEST POP POP POP JUMP JUMPDEST PUSH1 0xCE PUSH1 0x20 MSTORE DUP1 PUSH1 0x0 MSTORE PUSH1 0x40 PUSH1 0x0 KECCAK256 PUSH1 0x0 SWAP2 POP SWAP1 POP DUP1 PUSH1 0x0 ADD DUP1 SLOAD PUSH2 0xFA0 SWAP1 PUSH2 0x4B32 JUMP JUMPDEST DUP1 PUSH1 0x1F ADD PUSH1 0x20 DUP1 SWAP2 DIV MUL PUSH1 0x20 ADD PUSH1 0x40 MLOAD SWAP1 DUP2 ADD PUSH1 0x40 MSTORE DUP1 SWAP3 SWAP2 SWAP1 DUP2 DUP2 MSTORE PUSH1 0x20 ADD DUP3 DUP1 SLOAD PUSH2 0xFCC SWAP1 PUSH2 0x4B32 JUMP JUMPDEST DUP1 ISZERO PUSH2 0x1019 JUMPI DUP1 PUSH1 0x1F LT PUSH2 0xFEE JUMPI PUSH2 0x100 DUP1 DUP4 SLOAD DIV MUL DUP4 MSTORE SWAP2 PUSH1 0x20 ADD SWAP2 PUSH2 0x1019 JUMP JUMPDEST DUP3 ADD SWAP2 SWAP1 PUSH1 0x0 MSTORE PUSH1 0x20 PUSH1 0x0 KECCAK256 SWAP1 JUMPDEST DUP2 SLOAD DUP2 MSTORE SWAP1 PUSH1 0x1 ADD SWAP1 PUSH1 0x20 ADD DUP1 DUP4 GT PUSH2 0xFFC JUMPI DUP3 SWAP1 SUB PUSH1 0x1F AND DUP3 ADD SWAP2 JUMPDEST POP POP POP POP POP SWAP1 DUP1 PUSH1 0x1 ADD DUP1 SLOAD PUSH2 0x102E SWAP1 PUSH2 0x4B32 JUMP JUMPDEST DUP1 PUSH1 0x1F ADD PUSH1 0x20 DUP1 SWAP2 DIV MUL PUSH1 0x20 ADD PUSH1 0x40 MLOAD SWAP1 DUP2 ADD PUSH1 0x40 MSTORE DUP1 SWAP3 SWAP2 SWAP1 DUP2 DUP2 MSTORE PUSH1 0x20 ADD DUP3 DUP1 SLOAD PUSH2 0x105A SWAP1 PUSH2 0x4B32 JUMP JUMPDEST DUP1 ISZERO PUSH2 0x10A7 JUMPI DUP1 PUSH1 0x1F LT PUSH2 0x107C JUMPI PUSH2 0x100 DUP1 DUP4 SLOAD DIV MUL DUP4 MSTORE SWAP2 PUSH1 0x20 ADD SWAP2 PUSH2 0x10A7 JUMP JUMPDEST DUP3 ADD SWAP2 SWAP1 PUSH1 0x0 MSTORE PUSH1 0x20 PUSH1 0x0 KECCAK256 SWAP1 JUMPDEST DUP2 SLOAD DUP2 MSTORE SWAP1 PUSH1 0x1 ADD SWAP1 PUSH1 0x20 ADD DUP1 DUP4 GT PUSH2 0x108A JUMPI DUP3 SWAP1 SUB PUSH1 0x1F AND DUP3 ADD SWAP2 JUMPDEST POP POP POP POP POP SWAP1 DUP1 PUSH1 0x2 ADD DUP1 SLOAD PUSH2 0x10BC SWAP1 PUSH2 0x4B32 JUMP JUMPDEST DUP1 PUSH1 0x1F ADD PUSH1 0x20 DUP1 SWAP2 DIV MUL PUSH1 0x20 ADD PUSH1 0x40 MLOAD SWAP1 DUP2 ADD PUSH1 0x40 MSTORE DUP1 SWAP3 SWAP2 SWAP1 DUP2 DUP2 MSTORE PUSH1 0x20 ADD DUP3 DUP1 SLOAD PUSH2 0x10E8 SWAP1 PUSH2 0x4B32 JUMP JUMPDEST DUP1 ISZERO PUSH2 0x1135 JUMPI DUP1 PUSH1 0x1F LT PUSH2 0x110A JUMPI PUSH2 0x100 DUP1 DUP4 SLOAD DIV MUL DUP4 MSTORE SWAP2 PUSH1 0x20 ADD SWAP2 PUSH2 0x1135 JUMP JUMPDEST DUP3 ADD SWAP2 SWAP1 PUSH1 0x0 MSTORE PUSH1 0x20 PUSH1 0x0 KECCAK256 SWAP1 JUMPDEST DUP2 SLOAD DUP2 MSTORE SWAP1 PUSH1 0x1 ADD SWAP1 PUSH1 0x20 ADD DUP1 DUP4 GT PUSH2 0x1118 JUMPI DUP3 SWAP1 SUB PUSH1 0x1F AND DUP3 ADD SWAP2 JUMPDEST POP POP POP POP POP SWAP1 POP DUP4 JUMP JUMPDEST PUSH1 0x60 PUSH1 0x0 PUSH1 0xCA SLOAD PUSH8 0xFFFFFFFFFFFFFFFF DUP2 GT ISZERO PUSH2 0x115F JUMPI PUSH2 0x115E PUSH2 0x4CC9 JUMP JUMPDEST JUMPDEST PUSH1 0x40 MLOAD SWAP1 DUP1 DUP3 MSTORE DUP1 PUSH1 0x20 MUL PUSH1 0x20 ADD DUP3 ADD PUSH1 0x40 MSTORE DUP1 ISZERO PUSH2 0x1192 JUMPI DUP2 PUSH1 0x20 ADD JUMPDEST PUSH1 0x60 DUP2 MSTORE PUSH1 0x20 ADD SWAP1 PUSH1 0x1 SWAP1 SUB SWAP1 DUP2 PUSH2 0x117D JUMPI SWAP1 POP JUMPDEST POP SWAP1 POP PUSH1 0x0 JUMPDEST PUSH1 0xCA SLOAD DUP2 LT ISZERO PUSH2 0x1272 JUMPI PUSH1 0xCF PUSH1 0x0 DUP3 DUP2 MSTORE PUSH1 0x20 ADD SWAP1 DUP2 MSTORE PUSH1 0x20 ADD PUSH1 0x0 KECCAK256 PUSH1 0x1 ADD DUP1 SLOAD PUSH2 0x11C3 SWAP1 PUSH2 0x4B32 JUMP JUMPDEST DUP1 PUSH1 0x1F ADD PUSH1 0x20 DUP1 SWAP2 DIV MUL PUSH1 0x20 ADD PUSH1 0x40 MLOAD SWAP1 DUP2 ADD PUSH1 0x40 MSTORE DUP1 SWAP3 SWAP2 SWAP1 DUP2 DUP2 MSTORE PUSH1 0x20 ADD DUP3 DUP1 SLOAD PUSH2 0x11EF SWAP1 PUSH2 0x4B32 JUMP JUMPDEST DUP1 ISZERO PUSH2 0x123C JUMPI DUP1 PUSH1 0x1F LT PUSH2 0x1211 JUMPI PUSH2 0x100 DUP1 DUP4 SLOAD DIV MUL DUP4 MSTORE SWAP2 PUSH1 0x20 ADD SWAP2 PUSH2 0x123C JUMP JUMPDEST DUP3 ADD SWAP2 SWAP1 PUSH1 0x0 MSTORE PUSH1 0x20 PUSH1 0x0 KECCAK256 SWAP1 JUMPDEST DUP2 SLOAD DUP2 MSTORE SWAP1 PUSH1 0x1 ADD SWAP1 PUSH1 0x20 ADD DUP1 DUP4 GT PUSH2 0x121F JUMPI DUP3 SWAP1 SUB PUSH1 0x1F AND DUP3 ADD SWAP2 JUMPDEST POP POP POP POP POP DUP3 DUP3 DUP2 MLOAD DUP2 LT PUSH2 0x1254 JUMPI PUSH2 0x1253 PUSH2 0x4C9A JUMP JUMPDEST JUMPDEST PUSH1 0x20 MUL PUSH1 0x20 ADD ADD DUP2 SWAP1 MSTORE POP DUP1 DUP1 PUSH2 0x126A SWAP1 PUSH2 0x4B95 JUMP JUMPDEST SWAP2 POP POP PUSH2 0x1198 JUMP JUMPDEST POP DUP1 SWAP2 POP POP SWAP1 JUMP JUMPDEST PUSH1 0x0 PUSH2 0x1285 DUP4 PUSH2 0x171D JUMP JUMPDEST DUP3 LT PUSH2 0x12C6 JUMPI PUSH1 0x40 MLOAD PUSH32 0x8C379A000000000000000000000000000000000000000000000000000000000 DUP2 MSTORE PUSH1 0x4 ADD PUSH2 0x12BD SWAP1 PUSH2 0x4669 JUMP JUMPDEST PUSH1 0x40 MLOAD DUP1 SWAP2 SUB SWAP1 REVERT JUMPDEST PUSH1 0x97 PUSH1 0x0 DUP5 PUSH20 0xFFFFFFFFFFFFFFFFFFFFFFFFFFFFFFFFFFFFFFFF AND PUSH20 0xFFFFFFFFFFFFFFFFFFFFFFFFFFFFFFFFFFFFFFFF AND DUP2 MSTORE PUSH1 0x20 ADD SWAP1 DUP2 MSTORE PUSH1 0x20 ADD PUSH1 0x0 KECCAK256 PUSH1 0x0 DUP4 DUP2 MSTORE PUSH1 0x20 ADD SWAP1 DUP2 MSTORE PUSH1 0x20 ADD PUSH1 0x0 KECCAK256 SLOAD SWAP1 POP SWAP3 SWAP2 POP POP JUMP JUMPDEST PUSH2 0x133A DUP4 DUP4 DUP4 PUSH1 0x40 MLOAD DUP1 PUSH1 0x20 ADD PUSH1 0x40 MSTORE DUP1 PUSH1 0x0 DUP2 MSTORE POP PUSH2 0x1E36 JUMP JUMPDEST POP POP POP JUMP JUMPDEST PUSH1 0xD0 PUSH1 0x20 MSTORE DUP1 PUSH1 0x0 MSTORE PUSH1 0x40 PUSH1 0x0 KECCAK256 PUSH1 0x0 SWAP2 POP SWAP1 POP DUP1 PUSH1 0x0 ADD SLOAD SWAP1 DUP1 PUSH1 0x1 ADD DUP1 SLOAD PUSH2 0x1368 SWAP1 PUSH2 0x4B32 JUMP JUMPDEST DUP1 PUSH1 0x1F ADD PUSH1 0x20 DUP1 SWAP2 DIV MUL PUSH1 0x20 ADD PUSH1 0x40 MLOAD SWAP1 DUP2 ADD PUSH1 0x40 MSTORE DUP1 SWAP3 SWAP2 SWAP1 DUP2 DUP2 MSTORE PUSH1 0x20 ADD DUP3 DUP1 SLOAD PUSH2 0x1394 SWAP1 PUSH2 0x4B32 JUMP JUMPDEST DUP1 ISZERO PUSH2 0x13E1 JUMPI DUP1 PUSH1 0x1F LT PUSH2 0x13B6 JUMPI PUSH2 0x100 DUP1 DUP4 SLOAD DIV MUL DUP4 MSTORE SWAP2 PUSH1 0x20 ADD SWAP2 PUSH2 0x13E1 JUMP JUMPDEST DUP3 ADD SWAP2 SWAP1 PUSH1 0x0 MSTORE PUSH1 0x20 PUSH1 0x0 KECCAK256 SWAP1 JUMPDEST DUP2 SLOAD DUP2 MSTORE SWAP1 PUSH1 0x1 ADD SWAP1 PUSH1 0x20 ADD DUP1 DUP4 GT PUSH2 0x13C4 JUMPI DUP3 SWAP1 SUB PUSH1 0x1F AND DUP3 ADD SWAP2 JUMPDEST POP POP POP POP POP SWAP1 POP DUP3 JUMP JUMPDEST PUSH1 0x60 PUSH1 0x0 PUSH1 0xCD SLOAD PUSH8 0xFFFFFFFFFFFFFFFF DUP2 GT ISZERO PUSH2 0x140B JUMPI PUSH2 0x140A PUSH2 0x4CC9 JUMP JUMPDEST JUMPDEST PUSH1 0x40 MLOAD SWAP1 DUP1 DUP3 MSTORE DUP1 PUSH1 0x20 MUL PUSH1 0x20 ADD DUP3 ADD PUSH1 0x40 MSTORE DUP1 ISZERO PUSH2 0x143E JUMPI DUP2 PUSH1 0x20 ADD JUMPDEST PUSH1 0x60 DUP2 MSTORE PUSH1 0x20 ADD SWAP1 PUSH1 0x1 SWAP1 SUB SWAP1 DUP2 PUSH2 0x1429 JUMPI SWAP1 POP JUMPDEST POP SWAP1 POP PUSH1 0x0 DUP1 PUSH1 0x0 SWAP1 POP JUMPDEST PUSH1 0xCD SLOAD DUP2 LT ISZERO PUSH2 0x1571 JUMPI DUP6 PUSH1 0xD2 PUSH1 0x0 DUP4 DUP2 MSTORE PUSH1 0x20 ADD SWAP1 DUP2 MSTORE PUSH1 0x20 ADD PUSH1 0x0 KECCAK256 PUSH1 0x0 ADD SLOAD EQ DUP1 ISZERO PUSH2 0x148D JUMPI POP DUP5 PUSH1 0xD2 PUSH1 0x0 DUP4 DUP2 MSTORE PUSH1 0x20 ADD SWAP1 DUP2 MSTORE PUSH1 0x20 ADD PUSH1 0x0 KECCAK256 PUSH1 0x1 ADD SLOAD EQ JUMPDEST ISZERO PUSH2 0x1550 JUMPI PUSH1 0xD2 PUSH1 0x0 DUP3 DUP2 MSTORE PUSH1 0x20 ADD SWAP1 DUP2 MSTORE PUSH1 0x20 ADD PUSH1 0x0 KECCAK256 PUSH1 0x2 ADD DUP1 SLOAD PUSH2 0x14B3 SWAP1 PUSH2 0x4B32 JUMP JUMPDEST DUP1 PUSH1 0x1F ADD PUSH1 0x20 DUP1 SWAP2 DIV MUL PUSH1 0x20 ADD PUSH1 0x40 MLOAD SWAP1 DUP2 ADD PUSH1 0x40 MSTORE DUP1 SWAP3 SWAP2 SWAP1 DUP2 DUP2 MSTORE PUSH1 0x20 ADD DUP3 DUP1 SLOAD PUSH2 0x14DF SWAP1 PUSH2 0x4B32 JUMP JUMPDEST DUP1 ISZERO PUSH2 0x152C JUMPI DUP1 PUSH1 0x1F LT PUSH2 0x1501 JUMPI PUSH2 0x100 DUP1 DUP4 SLOAD DIV MUL DUP4 MSTORE SWAP2 PUSH1 0x20 ADD SWAP2 PUSH2 0x152C JUMP JUMPDEST DUP3 ADD SWAP2 SWAP1 PUSH1 0x0 MSTORE PUSH1 0x20 PUSH1 0x0 KECCAK256 SWAP1 JUMPDEST DUP2 SLOAD DUP2 MSTORE SWAP1 PUSH1 0x1 ADD SWAP1 PUSH1 0x20 ADD DUP1 DUP4 GT PUSH2 0x150F JUMPI DUP3 SWAP1 SUB PUSH1 0x1F AND DUP3 ADD SWAP2 JUMPDEST POP POP POP POP POP DUP4 DUP4 DUP2 MLOAD DUP2 LT PUSH2 0x1544 JUMPI PUSH2 0x1543 PUSH2 0x4C9A JUMP JUMPDEST JUMPDEST PUSH1 0x20 MUL PUSH1 0x20 ADD ADD DUP2 SWAP1 MSTORE POP JUMPDEST DUP2 DUP1 PUSH2 0x155B SWAP1 PUSH2 0x4B95 JUMP JUMPDEST SWAP3 POP POP DUP1 DUP1 PUSH2 0x1569 SWAP1 PUSH2 0x4B95 JUMP JUMPDEST SWAP2 POP POP PUSH2 0x1449 JUMP JUMPDEST POP DUP2 SWAP3 POP POP POP SWAP3 SWAP2 POP POP JUMP JUMPDEST PUSH1 0x0 PUSH2 0x1587 PUSH2 0xDEC JUMP JUMPDEST DUP3 LT PUSH2 0x15C8 JUMPI PUSH1 0x40 MLOAD PUSH32 0x8C379A000000000000000000000000000000000000000000000000000000000 DUP2 MSTORE PUSH1 0x4 ADD PUSH2 0x15BF SWAP1 PUSH2 0x47C9 JUMP JUMPDEST PUSH1 0x40 MLOAD DUP1 SWAP2 SUB SWAP1 REVERT JUMPDEST PUSH1 0x99 DUP3 DUP2 SLOAD DUP2 LT PUSH2 0x15DC JUMPI PUSH2 0x15DB PUSH2 0x4C9A JUMP JUMPDEST JUMPDEST SWAP1 PUSH1 0x0 MSTORE PUSH1 0x20 PUSH1 0x0 KECCAK256 ADD SLOAD SWAP1 POP SWAP2 SWAP1 POP JUMP JUMPDEST PUSH1 0x60 PUSH1 0xCE PUSH1 0x0 DUP4 DUP2 MSTORE PUSH1 0x20 ADD SWAP1 DUP2 MSTORE PUSH1 0x20 ADD PUSH1 0x0 KECCAK256 PUSH1 0x1 ADD DUP1 SLOAD PUSH2 0x1611 SWAP1 PUSH2 0x4B32 JUMP JUMPDEST DUP1 PUSH1 0x1F ADD PUSH1 0x20 DUP1 SWAP2 DIV MUL PUSH1 0x20 ADD PUSH1 0x40 MLOAD SWAP1 DUP2 ADD PUSH1 0x40 MSTORE DUP1 SWAP3 SWAP2 SWAP1 DUP2 DUP2 MSTORE PUSH1 0x20 ADD DUP3 DUP1 SLOAD PUSH2 0x163D SWAP1 PUSH2 0x4B32 JUMP JUMPDEST DUP1 ISZERO PUSH2 0x168A JUMPI DUP1 PUSH1 0x1F LT PUSH2 0x165F JUMPI PUSH2 0x100 DUP1 DUP4 SLOAD DIV MUL DUP4 MSTORE SWAP2 PUSH1 0x20 ADD SWAP2 PUSH2 0x168A JUMP JUMPDEST DUP3 ADD SWAP2 SWAP1 PUSH1 0x0 MSTORE PUSH1 0x20 PUSH1 0x0 KECCAK256 SWAP1 JUMPDEST DUP2 SLOAD DUP2 MSTORE SWAP1 PUSH1 0x1 ADD SWAP1 PUSH1 0x20 ADD DUP1 DUP4 GT PUSH2 0x166D JUMPI DUP3 SWAP1 SUB PUSH1 0x1F AND DUP3 ADD SWAP2 JUMPDEST POP POP POP POP POP SWAP1 POP SWAP2 SWAP1 POP JUMP JUMPDEST PUSH1 0x0 DUP1 PUSH2 0x16A2 DUP4 PUSH2 0x29C3 JUMP JUMPDEST SWAP1 POP PUSH1 0x0 PUSH20 0xFFFFFFFFFFFFFFFFFFFFFFFFFFFFFFFFFFFFFFFF AND DUP2 PUSH20 0xFFFFFFFFFFFFFFFFFFFFFFFFFFFFFFFFFFFFFFFF AND EQ ISZERO PUSH2 0x1714 JUMPI PUSH1 0x40 MLOAD PUSH32 0x8C379A000000000000000000000000000000000000000000000000000000000 DUP2 MSTORE PUSH1 0x4 ADD PUSH2 0x170B SWAP1 PUSH2 0x4769 JUMP JUMPDEST PUSH1 0x40 MLOAD DUP1 SWAP2 SUB SWAP1 REVERT JUMPDEST DUP1 SWAP2 POP POP SWAP2 SWAP1 POP JUMP JUMPDEST PUSH1 0x0 DUP1 PUSH20 0xFFFFFFFFFFFFFFFFFFFFFFFFFFFFFFFFFFFFFFFF AND DUP3 PUSH20 0xFFFFFFFFFFFFFFFFFFFFFFFFFFFFFFFFFFFFFFFF AND EQ ISZERO PUSH2 0x178E JUMPI PUSH1 0x40 MLOAD PUSH32 0x8C379A000000000000000000000000000000000000000000000000000000000 DUP2 MSTORE PUSH1 0x4 ADD PUSH2 0x1785 SWAP1 PUSH2 0x4729 JUMP JUMPDEST PUSH1 0x40 MLOAD DUP1 SWAP2 SUB SWAP1 REVERT JUMPDEST PUSH1 0x68 PUSH1 0x0 DUP4 PUSH20 0xFFFFFFFFFFFFFFFFFFFFFFFFFFFFFFFFFFFFFFFF AND PUSH20 0xFFFFFFFFFFFFFFFFFFFFFFFFFFFFFFFFFFFFFFFF AND DUP2 MSTORE PUSH1 0x20 ADD SWAP1 DUP2 MSTORE PUSH1 0x20 ADD PUSH1 0x0 KECCAK256 SLOAD SWAP1 POP SWAP2 SWAP1 POP JUMP JUMPDEST PUSH1 0x0 PUSH1 0x40 MLOAD DUP1 PUSH1 0x40 ADD PUSH1 0x40 MSTORE DUP1 DUP4 DUP2 MSTORE PUSH1 0x20 ADD DUP5 DUP2 MSTORE POP PUSH1 0xCF PUSH1 0x0 PUSH1 0xCA SLOAD DUP2 MSTORE PUSH1 0x20 ADD SWAP1 DUP2 MSTORE PUSH1 0x20 ADD PUSH1 0x0 KECCAK256 PUSH1 0x0 DUP3 ADD MLOAD DUP2 PUSH1 0x0 ADD SSTORE PUSH1 0x20 DUP3 ADD MLOAD DUP2 PUSH1 0x1 ADD SWAP1 DUP1 MLOAD SWAP1 PUSH1 0x20 ADD SWAP1 PUSH2 0x1827 SWAP3 SWAP2 SWAP1 PUSH2 0x3891 JUMP JUMPDEST POP SWAP1 POP POP PUSH1 0xCA PUSH1 0x0 DUP2 SLOAD DUP1 SWAP3 SWAP2 SWAP1 PUSH2 0x183E SWAP1 PUSH2 0x4B95 JUMP JUMPDEST SWAP2 SWAP1 POP SSTORE POP PUSH1 0xCA SLOAD SWAP1 POP SWAP3 SWAP2 POP POP JUMP JUMPDEST PUSH1 0x0 PUSH1 0x40 MLOAD DUP1 PUSH1 0x60 ADD PUSH1 0x40 MSTORE DUP1 DUP6 DUP2 MSTORE PUSH1 0x20 ADD DUP5 DUP2 MSTORE PUSH1 0x20 ADD DUP4 DUP2 MSTORE POP PUSH1 0xD2 PUSH1 0x0 PUSH1 0xCD SLOAD DUP2 MSTORE PUSH1 0x20 ADD SWAP1 DUP2 MSTORE PUSH1 0x20 ADD PUSH1 0x0 KECCAK256 PUSH1 0x0 DUP3 ADD MLOAD DUP2 PUSH1 0x0 ADD SSTORE PUSH1 0x20 DUP3 ADD MLOAD DUP2 PUSH1 0x1 ADD SSTORE PUSH1 0x40 DUP3 ADD MLOAD DUP2 PUSH1 0x2 ADD SWAP1 DUP1 MLOAD SWAP1 PUSH1 0x20 ADD SWAP1 PUSH2 0x18B0 SWAP3 SWAP2 SWAP1 PUSH2 0x3891 JUMP JUMPDEST POP SWAP1 POP POP PUSH1 0xCD PUSH1 0x0 DUP2 SLOAD DUP1 SWAP3 SWAP2 SWAP1 PUSH2 0x18C7 SWAP1 PUSH2 0x4B95 JUMP JUMPDEST SWAP2 SWAP1 POP SSTORE POP PUSH1 0xCD SLOAD SWAP1 POP SWAP4 SWAP3 POP POP POP JUMP JUMPDEST DUP2 PUSH1 0xCE PUSH1 0x0 DUP6 DUP2 MSTORE PUSH1 0x20 ADD SWAP1 DUP2 MSTORE PUSH1 0x20 ADD PUSH1 0x0 KECCAK256 PUSH1 0x0 ADD SWAP1 DUP1 MLOAD SWAP1 PUSH1 0x20 ADD SWAP1 PUSH2 0x1902 SWAP3 SWAP2 SWAP1 PUSH2 0x3891 JUMP JUMPDEST POP DUP1 PUSH1 0xCE PUSH1 0x0 DUP6 DUP2 MSTORE PUSH1 0x20 ADD SWAP1 DUP2 MSTORE PUSH1 0x20 ADD PUSH1 0x0 KECCAK256 PUSH1 0x1 ADD SWAP1 DUP1 MLOAD SWAP1 PUSH1 0x20 ADD SWAP1 PUSH2 0x192D SWAP3 SWAP2 SWAP1 PUSH2 0x3891 JUMP JUMPDEST POP POP POP POP JUMP JUMPDEST PUSH1 0x60 PUSH1 0xD0 PUSH1 0x0 DUP4 DUP2 MSTORE PUSH1 0x20 ADD SWAP1 DUP2 MSTORE PUSH1 0x20 ADD PUSH1 0x0 KECCAK256 PUSH1 0x1 ADD DUP1 SLOAD PUSH2 0x1956 SWAP1 PUSH2 0x4B32 JUMP JUMPDEST DUP1 PUSH1 0x1F ADD PUSH1 0x20 DUP1 SWAP2 DIV MUL PUSH1 0x20 ADD PUSH1 0x40 MLOAD SWAP1 DUP2 ADD PUSH1 0x40 MSTORE DUP1 SWAP3 SWAP2 SWAP1 DUP2 DUP2 MSTORE PUSH1 0x20 ADD DUP3 DUP1 SLOAD PUSH2 0x1982 SWAP1 PUSH2 0x4B32 JUMP JUMPDEST DUP1 ISZERO PUSH2 0x19CF JUMPI DUP1 PUSH1 0x1F LT PUSH2 0x19A4 JUMPI PUSH2 0x100 DUP1 DUP4 SLOAD DIV MUL DUP4 MSTORE SWAP2 PUSH1 0x20 ADD SWAP2 PUSH2 0x19CF JUMP JUMPDEST DUP3 ADD SWAP2 SWAP1 PUSH1 0x0 MSTORE PUSH1 0x20 PUSH1 0x0 KECCAK256 SWAP1 JUMPDEST DUP2 SLOAD DUP2 MSTORE SWAP1 PUSH1 0x1 ADD SWAP1 PUSH1 0x20 ADD DUP1 DUP4 GT PUSH2 0x19B2 JUMPI DUP3 SWAP1 SUB PUSH1 0x1F AND DUP3 ADD SWAP2 JUMPDEST POP POP POP POP POP SWAP1 POP SWAP2 SWAP1 POP JUMP JUMPDEST PUSH1 0x60 PUSH1 0x66 DUP1 SLOAD PUSH2 0x19EA SWAP1 PUSH2 0x4B32 JUMP JUMPDEST DUP1 PUSH1 0x1F ADD PUSH1 0x20 DUP1 SWAP2 DIV MUL PUSH1 0x20 ADD PUSH1 0x40 MLOAD SWAP1 DUP2 ADD PUSH1 0x40 MSTORE DUP1 SWAP3 SWAP2 SWAP1 DUP2 DUP2 MSTORE PUSH1 0x20 ADD DUP3 DUP1 SLOAD PUSH2 0x1A16 SWAP1 PUSH2 0x4B32 JUMP JUMPDEST DUP1 ISZERO PUSH2 0x1A63 JUMPI DUP1 PUSH1 0x1F LT PUSH2 0x1A38 JUMPI PUSH2 0x100 DUP1 DUP4 SLOAD DIV MUL DUP4 MSTORE SWAP2 PUSH1 0x20 ADD SWAP2 PUSH2 0x1A63 JUMP JUMPDEST DUP3 ADD SWAP2 SWAP1 PUSH1 0x0 MSTORE PUSH1 0x20 PUSH1 0x0 KECCAK256 SWAP1 JUMPDEST DUP2 SLOAD DUP2 MSTORE SWAP1 PUSH1 0x1 ADD SWAP1 PUSH1 0x20 ADD DUP1 DUP4 GT PUSH2 0x1A46 JUMPI DUP3 SWAP1 SUB PUSH1 0x1F AND DUP3 ADD SWAP2 JUMPDEST POP POP POP POP POP SWAP1 POP SWAP1 JUMP JUMPDEST PUSH1 0x60 PUSH1 0x0 PUSH1 0xCB SLOAD PUSH8 0xFFFFFFFFFFFFFFFF DUP2 GT ISZERO PUSH2 0x1A8D JUMPI PUSH2 0x1A8C PUSH2 0x4CC9 JUMP JUMPDEST JUMPDEST PUSH1 0x40 MLOAD SWAP1 DUP1 DUP3 MSTORE DUP1 PUSH1 0x20 MUL PUSH1 0x20 ADD DUP3 ADD PUSH1 0x40 MSTORE DUP1 ISZERO PUSH2 0x1AC0 JUMPI DUP2 PUSH1 0x20 ADD JUMPDEST PUSH1 0x60 DUP2 MSTORE PUSH1 0x20 ADD SWAP1 PUSH1 0x1 SWAP1 SUB SWAP1 DUP2 PUSH2 0x1AAB JUMPI SWAP1 POP JUMPDEST POP SWAP1 POP PUSH1 0x0 JUMPDEST PUSH1 0xCB SLOAD DUP2 LT ISZERO PUSH2 0x1BA0 JUMPI PUSH1 0xD0 PUSH1 0x0 DUP3 DUP2 MSTORE PUSH1 0x20 ADD SWAP1 DUP2 MSTORE PUSH1 0x20 ADD PUSH1 0x0 KECCAK256 PUSH1 0x1 ADD DUP1 SLOAD PUSH2 0x1AF1 SWAP1 PUSH2 0x4B32 JUMP JUMPDEST DUP1 PUSH1 0x1F ADD PUSH1 0x20 DUP1 SWAP2 DIV MUL PUSH1 0x20 ADD PUSH1 0x40 MLOAD SWAP1 DUP2 ADD PUSH1 0x40 MSTORE DUP1 SWAP3 SWAP2 SWAP1 DUP2 DUP2 MSTORE PUSH1 0x20 ADD DUP3 DUP1 SLOAD PUSH2 0x1B1D SWAP1 PUSH2 0x4B32 JUMP JUMPDEST DUP1 ISZERO PUSH2 0x1B6A JUMPI DUP1 PUSH1 0x1F LT PUSH2 0x1B3F JUMPI PUSH2 0x100 DUP1 DUP4 SLOAD DIV MUL DUP4 MSTORE SWAP2 PUSH1 0x20 ADD SWAP2 PUSH2 0x1B6A JUMP JUMPDEST DUP3 ADD SWAP2 SWAP1 PUSH1 0x0 MSTORE PUSH1 0x20 PUSH1 0x0 KECCAK256 SWAP1 JUMPDEST DUP2 SLOAD DUP2 MSTORE SWAP1 PUSH1 0x1 ADD SWAP1 PUSH1 0x20 ADD DUP1 DUP4 GT PUSH2 0x1B4D JUMPI DUP3 SWAP1 SUB PUSH1 0x1F AND DUP3 ADD SWAP2 JUMPDEST POP POP POP POP POP DUP3 DUP3 DUP2 MLOAD DUP2 LT PUSH2 0x1B82 JUMPI PUSH2 0x1B81 PUSH2 0x4C9A JUMP JUMPDEST JUMPDEST PUSH1 0x20 MUL PUSH1 0x20 ADD ADD DUP2 SWAP1 MSTORE POP DUP1 DUP1 PUSH2 0x1B98 SWAP1 PUSH2 0x4B95 JUMP JUMPDEST SWAP2 POP POP PUSH2 0x1AC6 JUMP JUMPDEST POP DUP1 SWAP2 POP POP SWAP1 JUMP JUMPDEST PUSH1 0x0 DUP1 PUSH1 0x0 SWAP1 POP JUMPDEST PUSH1 0xCB SLOAD DUP2 LT ISZERO PUSH2 0x1C0F JUMPI DUP3 DUP1 MLOAD SWAP1 PUSH1 0x20 ADD KECCAK256 PUSH1 0xD0 PUSH1 0x0 DUP4 DUP2 MSTORE PUSH1 0x20 ADD SWAP1 DUP2 MSTORE PUSH1 0x20 ADD PUSH1 0x0 KECCAK256 PUSH1 0x1 ADD PUSH1 0x40 MLOAD PUSH2 0x1BE5 SWAP2 SWAP1 PUSH2 0x44FC JUMP JUMPDEST PUSH1 0x40 MLOAD DUP1 SWAP2 SUB SWAP1 KECCAK256 EQ ISZERO PUSH2 0x1BFC JUMPI DUP1 SWAP2 POP POP PUSH2 0x1C15 JUMP JUMPDEST DUP1 DUP1 PUSH2 0x1C07 SWAP1 PUSH2 0x4B95 JUMP JUMPDEST SWAP2 POP POP PUSH2 0x1BB0 JUMP JUMPDEST POP PUSH1 0x0 SWAP1 POP JUMPDEST SWAP2 SWAP1 POP JUMP JUMPDEST PUSH2 0x1C2C PUSH2 0x1C25 PUSH2 0x2573 JUMP JUMPDEST DUP4 DUP4 PUSH2 0x2A00 JUMP JUMPDEST POP POP JUMP JUMPDEST PUSH1 0x0 DUP1 PUSH1 0x0 SWAP1 POP JUMPDEST PUSH1 0xCB SLOAD DUP2 LT ISZERO PUSH2 0x1CAD JUMPI DUP3 DUP1 MLOAD SWAP1 PUSH1 0x20 ADD KECCAK256 PUSH1 0xD0 PUSH1 0x0 DUP4 DUP2 MSTORE PUSH1 0x20 ADD SWAP1 DUP2 MSTORE PUSH1 0x20 ADD PUSH1 0x0 KECCAK256 PUSH1 0x1 ADD PUSH1 0x40 MLOAD PUSH2 0x1C6D SWAP2 SWAP1 PUSH2 0x44FC JUMP JUMPDEST PUSH1 0x40 MLOAD DUP1 SWAP2 SUB SWAP1 KECCAK256 EQ ISZERO PUSH2 0x1C9A JUMPI PUSH1 0xD0 PUSH1 0x0 DUP3 DUP2 MSTORE PUSH1 0x20 ADD SWAP1 DUP2 MSTORE PUSH1 0x20 ADD PUSH1 0x0 KECCAK256 PUSH1 0x0 ADD SLOAD SWAP2 POP POP PUSH2 0x1CB3 JUMP JUMPDEST DUP1 DUP1 PUSH2 0x1CA5 SWAP1 PUSH2 0x4B95 JUMP JUMPDEST SWAP2 POP POP PUSH2 0x1C38 JUMP JUMPDEST POP PUSH1 0x0 SWAP1 POP JUMPDEST SWAP2 SWAP1 POP JUMP JUMPDEST PUSH1 0x0 PUSH1 0xC9 DUP2 SWAP1 SSTORE POP PUSH1 0x0 PUSH1 0xCA DUP2 SWAP1 SSTORE POP PUSH1 0x0 PUSH1 0xCB DUP2 SWAP1 SSTORE POP PUSH1 0x0 PUSH1 0xCD DUP2 SWAP1 SSTORE POP PUSH1 0x0 JUMPDEST PUSH1 0xC9 SLOAD DUP2 LT ISZERO PUSH2 0x1D3E JUMPI PUSH1 0xCE PUSH1 0x0 DUP3 DUP2 MSTORE PUSH1 0x20 ADD SWAP1 DUP2 MSTORE PUSH1 0x20 ADD PUSH1 0x0 KECCAK256 PUSH1 0x0 DUP1 DUP3 ADD PUSH1 0x0 PUSH2 0x1D09 SWAP2 SWAP1 PUSH2 0x3917 JUMP JUMPDEST PUSH1 0x1 DUP3 ADD PUSH1 0x0 PUSH2 0x1D19 SWAP2 SWAP1 PUSH2 0x3917 JUMP JUMPDEST PUSH1 0x2 DUP3 ADD PUSH1 0x0 PUSH2 0x1D29 SWAP2 SWAP1 PUSH2 0x3917 JUMP JUMPDEST POP POP DUP1 DUP1 PUSH2 0x1D36 SWAP1 PUSH2 0x4B95 JUMP JUMPDEST SWAP2 POP POP PUSH2 0x1CDB JUMP JUMPDEST POP PUSH1 0x0 JUMPDEST PUSH1 0xCA SLOAD DUP2 LT ISZERO PUSH2 0x1D8D JUMPI PUSH1 0xCF PUSH1 0x0 DUP3 DUP2 MSTORE PUSH1 0x20 ADD SWAP1 DUP2 MSTORE PUSH1 0x20 ADD PUSH1 0x0 KECCAK256 PUSH1 0x0 DUP1 DUP3 ADD PUSH1 0x0 SWAP1 SSTORE PUSH1 0x1 DUP3 ADD PUSH1 0x0 PUSH2 0x1D78 SWAP2 SWAP1 PUSH2 0x3917 JUMP JUMPDEST POP POP DUP1 DUP1 PUSH2 0x1D85 SWAP1 PUSH2 0x4B95 JUMP JUMPDEST SWAP2 POP POP PUSH2 0x1D42 JUMP JUMPDEST POP PUSH1 0x0 JUMPDEST PUSH1 0xCB SLOAD DUP2 LT ISZERO PUSH2 0x1DDC JUMPI PUSH1 0xD0 PUSH1 0x0 DUP3 DUP2 MSTORE PUSH1 0x20 ADD SWAP1 DUP2 MSTORE PUSH1 0x20 ADD PUSH1 0x0 KECCAK256 PUSH1 0x0 DUP1 DUP3 ADD PUSH1 0x0 SWAP1 SSTORE PUSH1 0x1 DUP3 ADD PUSH1 0x0 PUSH2 0x1DC7 SWAP2 SWAP1 PUSH2 0x3917 JUMP JUMPDEST POP POP DUP1 DUP1 PUSH2 0x1DD4 SWAP1 PUSH2 0x4B95 JUMP JUMPDEST SWAP2 POP POP PUSH2 0x1D91 JUMP JUMPDEST POP PUSH1 0x0 JUMPDEST PUSH1 0xCD SLOAD DUP2 LT ISZERO PUSH2 0x1E33 JUMPI PUSH1 0xD2 PUSH1 0x0 DUP3 DUP2 MSTORE PUSH1 0x20 ADD SWAP1 DUP2 MSTORE PUSH1 0x20 ADD PUSH1 0x0 KECCAK256 PUSH1 0x0 DUP1 DUP3 ADD PUSH1 0x0 SWAP1 SSTORE PUSH1 0x1 DUP3 ADD PUSH1 0x0 SWAP1 SSTORE PUSH1 0x2 DUP3 ADD PUSH1 0x0 PUSH2 0x1E1E SWAP2 SWAP1 PUSH2 0x3917 JUMP JUMPDEST POP POP DUP1 DUP1 PUSH2 0x1E2B SWAP1 PUSH2 0x4B95 JUMP JUMPDEST SWAP2 POP POP PUSH2 0x1DE0 JUMP JUMPDEST POP JUMP JUMPDEST PUSH2 0x1E47 PUSH2 0x1E41 PUSH2 0x2573 JUMP JUMPDEST DUP4 PUSH2 0x2634 JUMP JUMPDEST PUSH2 0x1E86 JUMPI PUSH1 0x40 MLOAD PUSH32 0x8C379A000000000000000000000000000000000000000000000000000000000 DUP2 MSTORE PUSH1 0x4 ADD PUSH2 0x1E7D SWAP1 PUSH2 0x4649 JUMP JUMPDEST PUSH1 0x40 MLOAD DUP1 SWAP2 SUB SWAP1 REVERT JUMPDEST PUSH2 0x1E92 DUP5 DUP5 DUP5 DUP5 PUSH2 0x2B6D JUMP JUMPDEST POP POP POP POP JUMP JUMPDEST DUP1 PUSH1 0xD0 PUSH1 0x0 DUP5 DUP2 MSTORE PUSH1 0x20 ADD SWAP1 DUP2 MSTORE PUSH1 0x20 ADD PUSH1 0x0 KECCAK256 PUSH1 0x1 ADD SWAP1 DUP1 MLOAD SWAP1 PUSH1 0x20 ADD SWAP1 PUSH2 0x1EC2 SWAP3 SWAP2 SWAP1 PUSH2 0x3891 JUMP JUMPDEST POP POP POP JUMP JUMPDEST PUSH1 0x60 PUSH1 0x0 PUSH1 0xC9 SLOAD PUSH8 0xFFFFFFFFFFFFFFFF DUP2 GT ISZERO PUSH2 0x1EE7 JUMPI PUSH2 0x1EE6 PUSH2 0x4CC9 JUMP JUMPDEST JUMPDEST PUSH1 0x40 MLOAD SWAP1 DUP1 DUP3 MSTORE DUP1 PUSH1 0x20 MUL PUSH1 0x20 ADD DUP3 ADD PUSH1 0x40 MSTORE DUP1 ISZERO PUSH2 0x1F1A JUMPI DUP2 PUSH1 0x20 ADD JUMPDEST PUSH1 0x60 DUP2 MSTORE PUSH1 0x20 ADD SWAP1 PUSH1 0x1 SWAP1 SUB SWAP1 DUP2 PUSH2 0x1F05 JUMPI SWAP1 POP JUMPDEST POP SWAP1 POP PUSH1 0x0 JUMPDEST PUSH1 0xC9 SLOAD DUP2 LT ISZERO PUSH2 0x1FFA JUMPI PUSH1 0xCE PUSH1 0x0 DUP3 DUP2 MSTORE PUSH1 0x20 ADD SWAP1 DUP2 MSTORE PUSH1 0x20 ADD PUSH1 0x0 KECCAK256 PUSH1 0x1 ADD DUP1 SLOAD PUSH2 0x1F4B SWAP1 PUSH2 0x4B32 JUMP JUMPDEST DUP1 PUSH1 0x1F ADD PUSH1 0x20 DUP1 SWAP2 DIV MUL PUSH1 0x20 ADD PUSH1 0x40 MLOAD SWAP1 DUP2 ADD PUSH1 0x40 MSTORE DUP1 SWAP3 SWAP2 SWAP1 DUP2 DUP2 MSTORE PUSH1 0x20 ADD DUP3 DUP1 SLOAD PUSH2 0x1F77 SWAP1 PUSH2 0x4B32 JUMP JUMPDEST DUP1 ISZERO PUSH2 0x1FC4 JUMPI DUP1 PUSH1 0x1F LT PUSH2 0x1F99 JUMPI PUSH2 0x100 DUP1 DUP4 SLOAD DIV MUL DUP4 MSTORE SWAP2 PUSH1 0x20 ADD SWAP2 PUSH2 0x1FC4 JUMP JUMPDEST DUP3 ADD SWAP2 SWAP1 PUSH1 0x0 MSTORE PUSH1 0x20 PUSH1 0x0 KECCAK256 SWAP1 JUMPDEST DUP2 SLOAD DUP2 MSTORE SWAP1 PUSH1 0x1 ADD SWAP1 PUSH1 0x20 ADD DUP1 DUP4 GT PUSH2 0x1FA7 JUMPI DUP3 SWAP1 SUB PUSH1 0x1F AND DUP3 ADD SWAP2 JUMPDEST POP POP POP POP POP DUP3 DUP3 DUP2 MLOAD DUP2 LT PUSH2 0x1FDC JUMPI PUSH2 0x1FDB PUSH2 0x4C9A JUMP JUMPDEST JUMPDEST PUSH1 0x20 MUL PUSH1 0x20 ADD ADD DUP2 SWAP1 MSTORE POP DUP1 DUP1 PUSH2 0x1FF2 SWAP1 PUSH2 0x4B95 JUMP JUMPDEST SWAP2 POP POP PUSH2 0x1F20 JUMP JUMPDEST POP DUP1 SWAP2 POP POP SWAP1 JUMP JUMPDEST DUP1 PUSH1 0xCF PUSH1 0x0 DUP5 DUP2 MSTORE PUSH1 0x20 ADD SWAP1 DUP2 MSTORE PUSH1 0x20 ADD PUSH1 0x0 KECCAK256 PUSH1 0x1 ADD SWAP1 DUP1 MLOAD SWAP1 PUSH1 0x20 ADD SWAP1 PUSH2 0x202C SWAP3 SWAP2 SWAP1 PUSH2 0x3891 JUMP JUMPDEST POP POP POP JUMP JUMPDEST PUSH1 0x0 PUSH1 0x40 MLOAD DUP1 PUSH1 0x60 ADD PUSH1 0x40 MSTORE DUP1 DUP5 DUP2 MSTORE PUSH1 0x20 ADD DUP4 DUP2 MSTORE PUSH1 0x20 ADD PUSH1 0x40 MLOAD DUP1 PUSH1 0x40 ADD PUSH1 0x40 MSTORE DUP1 PUSH1 0x5 DUP2 MSTORE PUSH1 0x20 ADD PUSH32 0x46616C7365000000000000000000000000000000000000000000000000000000 DUP2 MSTORE POP DUP2 MSTORE POP PUSH1 0xCE PUSH1 0x0 PUSH1 0xC9 SLOAD DUP2 MSTORE PUSH1 0x20 ADD SWAP1 DUP2 MSTORE PUSH1 0x20 ADD PUSH1 0x0 KECCAK256 PUSH1 0x0 DUP3 ADD MLOAD DUP2 PUSH1 0x0 ADD SWAP1 DUP1 MLOAD SWAP1 PUSH1 0x20 ADD SWAP1 PUSH2 0x20B4 SWAP3 SWAP2 SWAP1 PUSH2 0x3891 JUMP JUMPDEST POP PUSH1 0x20 DUP3 ADD MLOAD DUP2 PUSH1 0x1 ADD SWAP1 DUP1 MLOAD SWAP1 PUSH1 0x20 ADD SWAP1 PUSH2 0x20D1 SWAP3 SWAP2 SWAP1 PUSH2 0x3891 JUMP JUMPDEST POP PUSH1 0x40 DUP3 ADD MLOAD DUP2 PUSH1 0x2 ADD SWAP1 DUP1 MLOAD SWAP1 PUSH1 0x20 ADD SWAP1 PUSH2 0x20EE SWAP3 SWAP2 SWAP1 PUSH2 0x3891 JUMP JUMPDEST POP SWAP1 POP POP PUSH1 0xC9 PUSH1 0x0 DUP2 SLOAD DUP1 SWAP3 SWAP2 SWAP1 PUSH2 0x2105 SWAP1 PUSH2 0x4B95 JUMP JUMPDEST SWAP2 SWAP1 POP SSTORE POP PUSH1 0xC9 SLOAD SWAP1 POP SWAP3 SWAP2 POP POP JUMP JUMPDEST PUSH1 0x60 PUSH2 0x2120 DUP3 PUSH2 0x2528 JUMP JUMPDEST PUSH1 0x0 PUSH2 0x212A PUSH2 0x2BC9 JUMP JUMPDEST SWAP1 POP PUSH1 0x0 DUP2 MLOAD GT PUSH2 0x214A JUMPI PUSH1 0x40 MLOAD DUP1 PUSH1 0x20 ADD PUSH1 0x40 MSTORE DUP1 PUSH1 0x0 DUP2 MSTORE POP PUSH2 0x2175 JUMP JUMPDEST DUP1 PUSH2 0x2154 DUP5 PUSH2 0x2BE0 JUMP JUMPDEST PUSH1 0x40 MLOAD PUSH1 0x20 ADD PUSH2 0x2165 SWAP3 SWAP2 SWAP1 PUSH2 0x4513 JUMP JUMPDEST PUSH1 0x40 MLOAD PUSH1 0x20 DUP2 DUP4 SUB SUB DUP2 MSTORE SWAP1 PUSH1 0x40 MSTORE JUMPDEST SWAP2 POP POP SWAP2 SWAP1 POP JUMP JUMPDEST PUSH1 0x0 PUSH1 0x40 MLOAD DUP1 PUSH1 0x40 ADD PUSH1 0x40 MSTORE DUP1 DUP5 DUP2 MSTORE PUSH1 0x20 ADD DUP6 DUP2 MSTORE POP PUSH1 0xD0 PUSH1 0x0 PUSH1 0xCB SLOAD DUP2 MSTORE PUSH1 0x20 ADD SWAP1 DUP2 MSTORE PUSH1 0x20 ADD PUSH1 0x0 KECCAK256 PUSH1 0x0 DUP3 ADD MLOAD DUP2 PUSH1 0x0 ADD SSTORE PUSH1 0x20 DUP3 ADD MLOAD DUP2 PUSH1 0x1 ADD SWAP1 DUP1 MLOAD SWAP1 PUSH1 0x20 ADD SWAP1 PUSH2 0x21CF SWAP3 SWAP2 SWAP1 PUSH2 0x3891 JUMP JUMPDEST POP SWAP1 POP POP PUSH1 0xCB PUSH1 0x0 DUP2 SLOAD DUP1 SWAP3 SWAP2 SWAP1 PUSH2 0x21E6 SWAP1 PUSH2 0x4B95 JUMP JUMPDEST SWAP2 SWAP1 POP SSTORE POP PUSH1 0x0 JUMPDEST DUP3 MLOAD DUP2 LT ISZERO PUSH2 0x224B JUMPI PUSH2 0x2220 PUSH1 0xCB SLOAD PUSH1 0xCC SLOAD DUP6 DUP5 DUP2 MLOAD DUP2 LT PUSH2 0x2213 JUMPI PUSH2 0x2212 PUSH2 0x4C9A JUMP JUMPDEST JUMPDEST PUSH1 0x20 MUL PUSH1 0x20 ADD ADD MLOAD PUSH2 0x2CB8 JUMP JUMPDEST PUSH1 0xCC PUSH1 0x0 DUP2 SLOAD DUP1 SWAP3 SWAP2 SWAP1 PUSH2 0x2233 SWAP1 PUSH2 0x4B95 JUMP JUMPDEST SWAP2 SWAP1 POP SSTORE POP DUP1 DUP1 PUSH2 0x2243 SWAP1 PUSH2 0x4B95 JUMP JUMPDEST SWAP2 POP POP PUSH2 0x21EE JUMP JUMPDEST POP PUSH1 0xCB SLOAD SWAP1 POP SWAP4 SWAP3 POP POP POP JUMP JUMPDEST PUSH1 0x60 PUSH1 0xCF PUSH1 0x0 DUP4 DUP2 MSTORE PUSH1 0x20 ADD SWAP1 DUP2 MSTORE PUSH1 0x20 ADD PUSH1 0x0 KECCAK256 PUSH1 0x1 ADD DUP1 SLOAD PUSH2 0x227B SWAP1 PUSH2 0x4B32 JUMP JUMPDEST DUP1 PUSH1 0x1F ADD PUSH1 0x20 DUP1 SWAP2 DIV MUL PUSH1 0x20 ADD PUSH1 0x40 MLOAD SWAP1 DUP2 ADD PUSH1 0x40 MSTORE DUP1 SWAP3 SWAP2 SWAP1 DUP2 DUP2 MSTORE PUSH1 0x20 ADD DUP3 DUP1 SLOAD PUSH2 0x22A7 SWAP1 PUSH2 0x4B32 JUMP JUMPDEST DUP1 ISZERO PUSH2 0x22F4 JUMPI DUP1 PUSH1 0x1F LT PUSH2 0x22C9 JUMPI PUSH2 0x100 DUP1 DUP4 SLOAD DIV MUL DUP4 MSTORE SWAP2 PUSH1 0x20 ADD SWAP2 PUSH2 0x22F4 JUMP JUMPDEST DUP3 ADD SWAP2 SWAP1 PUSH1 0x0 MSTORE PUSH1 0x20 PUSH1 0x0 KECCAK256 SWAP1 JUMPDEST DUP2 SLOAD DUP2 MSTORE SWAP1 PUSH1 0x1 ADD SWAP1 PUSH1 0x20 ADD DUP1 DUP4 GT PUSH2 0x22D7 JUMPI DUP3 SWAP1 SUB PUSH1 0x1F AND DUP3 ADD SWAP2 JUMPDEST POP POP POP POP POP SWAP1 POP SWAP2 SWAP1 POP JUMP JUMPDEST PUSH1 0x0 PUSH1 0x6A PUSH1 0x0 DUP5 PUSH20 0xFFFFFFFFFFFFFFFFFFFFFFFFFFFFFFFFFFFFFFFF AND PUSH20 0xFFFFFFFFFFFFFFFFFFFFFFFFFFFFFFFFFFFFFFFF AND DUP2 MSTORE PUSH1 0x20 ADD SWAP1 DUP2 MSTORE PUSH1 0x20 ADD PUSH1 0x0 KECCAK256 PUSH1 0x0 DUP4 PUSH20 0xFFFFFFFFFFFFFFFFFFFFFFFFFFFFFFFFFFFFFFFF AND PUSH20 0xFFFFFFFFFFFFFFFFFFFFFFFFFFFFFFFFFFFFFFFF AND DUP2 MSTORE PUSH1 0x20 ADD SWAP1 DUP2 MSTORE PUSH1 0x20 ADD PUSH1 0x0 KECCAK256 PUSH1 0x0 SWAP1 SLOAD SWAP1 PUSH2 0x100 EXP SWAP1 DIV PUSH1 0xFF AND SWAP1 POP SWAP3 SWAP2 POP POP JUMP JUMPDEST PUSH1 0xD1 PUSH1 0x20 MSTORE DUP1 PUSH1 0x0 MSTORE PUSH1 0x40 PUSH1 0x0 KECCAK256 PUSH1 0x0 SWAP2 POP SWAP1 POP DUP1 PUSH1 0x0 ADD SLOAD SWAP1 DUP1 PUSH1 0x1 ADD SLOAD SWAP1 DUP1 PUSH1 0x2 ADD DUP1 SLOAD PUSH2 0x23C3 SWAP1 PUSH2 0x4B32 JUMP JUMPDEST DUP1 PUSH1 0x1F ADD PUSH1 0x20 DUP1 SWAP2 DIV MUL PUSH1 0x20 ADD PUSH1 0x40 MLOAD SWAP1 DUP2 ADD PUSH1 0x40 MSTORE DUP1 SWAP3 SWAP2 SWAP1 DUP2 DUP2 MSTORE PUSH1 0x20 ADD DUP3 DUP1 SLOAD PUSH2 0x23EF SWAP1 PUSH2 0x4B32 JUMP JUMPDEST DUP1 ISZERO PUSH2 0x243C JUMPI DUP1 PUSH1 0x1F LT PUSH2 0x2411 JUMPI PUSH2 0x100 DUP1 DUP4 SLOAD DIV MUL DUP4 MSTORE SWAP2 PUSH1 0x20 ADD SWAP2 PUSH2 0x243C JUMP JUMPDEST DUP3 ADD SWAP2 SWAP1 PUSH1 0x0 MSTORE PUSH1 0x20 PUSH1 0x0 KECCAK256 SWAP1 JUMPDEST DUP2 SLOAD DUP2 MSTORE SWAP1 PUSH1 0x1 ADD SWAP1 PUSH1 0x20 ADD DUP1 DUP4 GT PUSH2 0x241F JUMPI DUP3 SWAP1 SUB PUSH1 0x1F AND DUP3 ADD SWAP2 JUMPDEST POP POP POP POP POP SWAP1 POP DUP4 JUMP JUMPDEST PUSH1 0x0 PUSH32 0x80AC58CD00000000000000000000000000000000000000000000000000000000 PUSH28 0xFFFFFFFFFFFFFFFFFFFFFFFFFFFFFFFFFFFFFFFFFFFFFFFFFFFFFFFF NOT AND DUP3 PUSH28 0xFFFFFFFFFFFFFFFFFFFFFFFFFFFFFFFFFFFFFFFFFFFFFFFFFFFFFFFF NOT AND EQ DUP1 PUSH2 0x2511 JUMPI POP PUSH32 0x5B5E139F00000000000000000000000000000000000000000000000000000000 PUSH28 0xFFFFFFFFFFFFFFFFFFFFFFFFFFFFFFFFFFFFFFFFFFFFFFFFFFFFFFFF NOT AND DUP3 PUSH28 0xFFFFFFFFFFFFFFFFFFFFFFFFFFFFFFFFFFFFFFFFFFFFFFFFFFFFFFFF NOT AND EQ JUMPDEST DUP1 PUSH2 0x2521 JUMPI POP PUSH2 0x2520 DUP3 PUSH2 0x2D29 JUMP JUMPDEST JUMPDEST SWAP1 POP SWAP2 SWAP1 POP JUMP JUMPDEST PUSH2 0x2531 DUP2 PUSH2 0x2D93 JUMP JUMPDEST PUSH2 0x2570 JUMPI PUSH1 0x40 MLOAD PUSH32 0x8C379A000000000000000000000000000000000000000000000000000000000 DUP2 MSTORE PUSH1 0x4 ADD PUSH2 0x2567 SWAP1 PUSH2 0x4769 JUMP JUMPDEST PUSH1 0x40 MLOAD DUP1 SWAP2 SUB SWAP1 REVERT JUMPDEST POP JUMP JUMPDEST PUSH1 0x0 CALLER SWAP1 POP SWAP1 JUMP JUMPDEST DUP2 PUSH1 0x69 PUSH1 0x0 DUP4 DUP2 MSTORE PUSH1 0x20 ADD SWAP1 DUP2 MSTORE PUSH1 0x20 ADD PUSH1 0x0 KECCAK256 PUSH1 0x0 PUSH2 0x100 EXP DUP2 SLOAD DUP2 PUSH20 0xFFFFFFFFFFFFFFFFFFFFFFFFFFFFFFFFFFFFFFFF MUL NOT AND SWAP1 DUP4 PUSH20 0xFFFFFFFFFFFFFFFFFFFFFFFFFFFFFFFFFFFFFFFF AND MUL OR SWAP1 SSTORE POP DUP1 DUP3 PUSH20 0xFFFFFFFFFFFFFFFFFFFFFFFFFFFFFFFFFFFFFFFF AND PUSH2 0x25EE DUP4 PUSH2 0x1696 JUMP JUMPDEST PUSH20 0xFFFFFFFFFFFFFFFFFFFFFFFFFFFFFFFFFFFFFFFF AND PUSH32 0x8C5BE1E5EBEC7D5BD14F71427D1E84F3DD0314C0F7B2291E5B200AC8C7C3B925 PUSH1 0x40 MLOAD PUSH1 0x40 MLOAD DUP1 SWAP2 SUB SWAP1 LOG4 POP POP JUMP JUMPDEST PUSH1 0x0 DUP1 PUSH2 0x2640 DUP4 PUSH2 0x1696 JUMP JUMPDEST SWAP1 POP DUP1 PUSH20 0xFFFFFFFFFFFFFFFFFFFFFFFFFFFFFFFFFFFFFFFF AND DUP5 PUSH20 0xFFFFFFFFFFFFFFFFFFFFFFFFFFFFFFFFFFFFFFFF AND EQ DUP1 PUSH2 0x2682 JUMPI POP PUSH2 0x2681 DUP2 DUP6 PUSH2 0x2300 JUMP JUMPDEST JUMPDEST DUP1 PUSH2 0x26C0 JUMPI POP DUP4 PUSH20 0xFFFFFFFFFFFFFFFFFFFFFFFFFFFFFFFFFFFFFFFF AND PUSH2 0x26A8 DUP5 PUSH2 0x9AE JUMP JUMPDEST PUSH20 0xFFFFFFFFFFFFFFFFFFFFFFFFFFFFFFFFFFFFFFFF AND EQ JUMPDEST SWAP2 POP POP SWAP3 SWAP2 POP POP JUMP JUMPDEST DUP3 PUSH20 0xFFFFFFFFFFFFFFFFFFFFFFFFFFFFFFFFFFFFFFFF AND PUSH2 0x26E9 DUP3 PUSH2 0x1696 JUMP JUMPDEST PUSH20 0xFFFFFFFFFFFFFFFFFFFFFFFFFFFFFFFFFFFFFFFF AND EQ PUSH2 0x273F JUMPI PUSH1 0x40 MLOAD PUSH32 0x8C379A000000000000000000000000000000000000000000000000000000000 DUP2 MSTORE PUSH1 0x4 ADD PUSH2 0x2736 SWAP1 PUSH2 0x46A9 JUMP JUMPDEST PUSH1 0x40 MLOAD DUP1 SWAP2 SUB SWAP1 REVERT JUMPDEST PUSH1 0x0 PUSH20 0xFFFFFFFFFFFFFFFFFFFFFFFFFFFFFFFFFFFFFFFF AND DUP3 PUSH20 0xFFFFFFFFFFFFFFFFFFFFFFFFFFFFFFFFFFFFFFFF AND EQ ISZERO PUSH2 0x27AF JUMPI PUSH1 0x40 MLOAD PUSH32 0x8C379A000000000000000000000000000000000000000000000000000000000 DUP2 MSTORE PUSH1 0x4 ADD PUSH2 0x27A6 SWAP1 PUSH2 0x46E9 JUMP JUMPDEST PUSH1 0x40 MLOAD DUP1 SWAP2 SUB SWAP1 REVERT JUMPDEST PUSH2 0x27BC DUP4 DUP4 DUP4 PUSH1 0x1 PUSH2 0x2DD4 JUMP JUMPDEST DUP3 PUSH20 0xFFFFFFFFFFFFFFFFFFFFFFFFFFFFFFFFFFFFFFFF AND PUSH2 0x27DC DUP3 PUSH2 0x1696 JUMP JUMPDEST PUSH20 0xFFFFFFFFFFFFFFFFFFFFFFFFFFFFFFFFFFFFFFFF AND EQ PUSH2 0x2832 JUMPI PUSH1 0x40 MLOAD PUSH32 0x8C379A000000000000000000000000000000000000000000000000000000000 DUP2 MSTORE PUSH1 0x4 ADD PUSH2 0x2829 SWAP1 PUSH2 0x46A9 JUMP JUMPDEST PUSH1 0x40 MLOAD DUP1 SWAP2 SUB SWAP1 REVERT JUMPDEST PUSH1 0x69 PUSH1 0x0 DUP3 DUP2 MSTORE PUSH1 0x20 ADD SWAP1 DUP2 MSTORE PUSH1 0x20 ADD PUSH1 0x0 KECCAK256 PUSH1 0x0 PUSH2 0x100 EXP DUP2 SLOAD SWAP1 PUSH20 0xFFFFFFFFFFFFFFFFFFFFFFFFFFFFFFFFFFFFFFFF MUL NOT AND SWAP1 SSTORE PUSH1 0x1 PUSH1 0x68 PUSH1 0x0 DUP6 PUSH20 0xFFFFFFFFFFFFFFFFFFFFFFFFFFFFFFFFFFFFFFFF AND PUSH20 0xFFFFFFFFFFFFFFFFFFFFFFFFFFFFFFFFFFFFFFFF AND DUP2 MSTORE PUSH1 0x20 ADD SWAP1 DUP2 MSTORE PUSH1 0x20 ADD PUSH1 0x0 KECCAK256 PUSH1 0x0 DUP3 DUP3 SLOAD SUB SWAP3 POP POP DUP2 SWAP1 SSTORE POP PUSH1 0x1 PUSH1 0x68 PUSH1 0x0 DUP5 PUSH20 0xFFFFFFFFFFFFFFFFFFFFFFFFFFFFFFFFFFFFFFFF AND PUSH20 0xFFFFFFFFFFFFFFFFFFFFFFFFFFFFFFFFFFFFFFFF AND DUP2 MSTORE PUSH1 0x20 ADD SWAP1 DUP2 MSTORE PUSH1 0x20 ADD PUSH1 0x0 KECCAK256 PUSH1 0x0 DUP3 DUP3 SLOAD ADD SWAP3 POP POP DUP2 SWAP1 SSTORE POP DUP2 PUSH1 0x67 PUSH1 0x0 DUP4 DUP2 MSTORE PUSH1 0x20 ADD SWAP1 DUP2 MSTORE PUSH1 0x20 ADD PUSH1 0x0 KECCAK256 PUSH1 0x0 PUSH2 0x100 EXP DUP2 SLOAD DUP2 PUSH20 0xFFFFFFFFFFFFFFFFFFFFFFFFFFFFFFFFFFFFFFFF MUL NOT AND SWAP1 DUP4 PUSH20 0xFFFFFFFFFFFFFFFFFFFFFFFFFFFFFFFFFFFFFFFF AND MUL OR SWAP1 SSTORE POP DUP1 DUP3 PUSH20 0xFFFFFFFFFFFFFFFFFFFFFFFFFFFFFFFFFFFFFFFF AND DUP5 PUSH20 0xFFFFFFFFFFFFFFFFFFFFFFFFFFFFFFFFFFFFFFFF AND PUSH32 0xDDF252AD1BE2C89B69C2B068FC378DAA952BA7F163C4A11628F55A4DF523B3EF PUSH1 0x40 MLOAD PUSH1 0x40 MLOAD DUP1 SWAP2 SUB SWAP1 LOG4 PUSH2 0x29BE DUP4 DUP4 DUP4 PUSH1 0x1 PUSH2 0x2F34 JUMP JUMPDEST POP POP POP JUMP JUMPDEST PUSH1 0x0 PUSH1 0x67 PUSH1 0x0 DUP4 DUP2 MSTORE PUSH1 0x20 ADD SWAP1 DUP2 MSTORE PUSH1 0x20 ADD PUSH1 0x0 KECCAK256 PUSH1 0x0 SWAP1 SLOAD SWAP1 PUSH2 0x100 EXP SWAP1 DIV PUSH20 0xFFFFFFFFFFFFFFFFFFFFFFFFFFFFFFFFFFFFFFFF AND SWAP1 POP SWAP2 SWAP1 POP JUMP JUMPDEST DUP2 PUSH20 0xFFFFFFFFFFFFFFFFFFFFFFFFFFFFFFFFFFFFFFFF AND DUP4 PUSH20 0xFFFFFFFFFFFFFFFFFFFFFFFFFFFFFFFFFFFFFFFF AND EQ ISZERO PUSH2 0x2A6F JUMPI PUSH1 0x40 MLOAD PUSH32 0x8C379A000000000000000000000000000000000000000000000000000000000 DUP2 MSTORE PUSH1 0x4 ADD PUSH2 0x2A66 SWAP1 PUSH2 0x4709 JUMP JUMPDEST PUSH1 0x40 MLOAD DUP1 SWAP2 SUB SWAP1 REVERT JUMPDEST DUP1 PUSH1 0x6A PUSH1 0x0 DUP6 PUSH20 0xFFFFFFFFFFFFFFFFFFFFFFFFFFFFFFFFFFFFFFFF AND PUSH20 0xFFFFFFFFFFFFFFFFFFFFFFFFFFFFFFFFFFFFFFFF AND DUP2 MSTORE PUSH1 0x20 ADD SWAP1 DUP2 MSTORE PUSH1 0x20 ADD PUSH1 0x0 KECCAK256 PUSH1 0x0 DUP5 PUSH20 0xFFFFFFFFFFFFFFFFFFFFFFFFFFFFFFFFFFFFFFFF AND PUSH20 0xFFFFFFFFFFFFFFFFFFFFFFFFFFFFFFFFFFFFFFFF AND DUP2 MSTORE PUSH1 0x20 ADD SWAP1 DUP2 MSTORE PUSH1 0x20 ADD PUSH1 0x0 KECCAK256 PUSH1 0x0 PUSH2 0x100 EXP DUP2 SLOAD DUP2 PUSH1 0xFF MUL NOT AND SWAP1 DUP4 ISZERO ISZERO MUL OR SWAP1 SSTORE POP DUP2 PUSH20 0xFFFFFFFFFFFFFFFFFFFFFFFFFFFFFFFFFFFFFFFF AND DUP4 PUSH20 0xFFFFFFFFFFFFFFFFFFFFFFFFFFFFFFFFFFFFFFFF AND PUSH32 0x17307EAB39AB6107E8899845AD3D59BD9653F200F220920489CA2B5937696C31 DUP4 PUSH1 0x40 MLOAD PUSH2 0x2B60 SWAP2 SWAP1 PUSH2 0x45C0 JUMP JUMPDEST PUSH1 0x40 MLOAD DUP1 SWAP2 SUB SWAP1 LOG3 POP POP POP JUMP JUMPDEST PUSH2 0x2B78 DUP5 DUP5 DUP5 PUSH2 0x26C9 JUMP JUMPDEST PUSH2 0x2B84 DUP5 DUP5 DUP5 DUP5 PUSH2 0x2F3A JUMP JUMPDEST PUSH2 0x2BC3 JUMPI PUSH1 0x40 MLOAD PUSH32 0x8C379A000000000000000000000000000000000000000000000000000000000 DUP2 MSTORE PUSH1 0x4 ADD PUSH2 0x2BBA SWAP1 PUSH2 0x4689 JUMP JUMPDEST PUSH1 0x40 MLOAD DUP1 SWAP2 SUB SWAP1 REVERT JUMPDEST POP POP POP POP JUMP JUMPDEST PUSH1 0x60 PUSH1 0x40 MLOAD DUP1 PUSH1 0x20 ADD PUSH1 0x40 MSTORE DUP1 PUSH1 0x0 DUP2 MSTORE POP SWAP1 POP SWAP1 JUMP JUMPDEST PUSH1 0x60 PUSH1 0x0 PUSH1 0x1 PUSH2 0x2BEF DUP5 PUSH2 0x30D1 JUMP JUMPDEST ADD SWAP1 POP PUSH1 0x0 DUP2 PUSH8 0xFFFFFFFFFFFFFFFF DUP2 GT ISZERO PUSH2 0x2C0E JUMPI PUSH2 0x2C0D PUSH2 0x4CC9 JUMP JUMPDEST JUMPDEST PUSH1 0x40 MLOAD SWAP1 DUP1 DUP3 MSTORE DUP1 PUSH1 0x1F ADD PUSH1 0x1F NOT AND PUSH1 0x20 ADD DUP3 ADD PUSH1 0x40 MSTORE DUP1 ISZERO PUSH2 0x2C40 JUMPI DUP2 PUSH1 0x20 ADD PUSH1 0x1 DUP3 MUL DUP1 CALLDATASIZE DUP4 CALLDATACOPY DUP1 DUP3 ADD SWAP2 POP POP SWAP1 POP JUMPDEST POP SWAP1 POP PUSH1 0x0 DUP3 PUSH1 0x20 ADD DUP3 ADD SWAP1 POP JUMPDEST PUSH1 0x1 ISZERO PUSH2 0x2CAD JUMPI DUP1 DUP1 PUSH1 0x1 SWAP1 SUB SWAP2 POP POP PUSH32 0x3031323334353637383961626364656600000000000000000000000000000000 PUSH1 0xA DUP7 MOD BYTE DUP2 MSTORE8 PUSH1 0xA DUP6 DUP2 PUSH2 0x2C97 JUMPI PUSH2 0x2C96 PUSH2 0x4C0D JUMP JUMPDEST JUMPDEST DIV SWAP5 POP PUSH1 0x0 DUP6 EQ ISZERO PUSH2 0x2CA8 JUMPI PUSH2 0x2CAD JUMP JUMPDEST PUSH2 0x2C4E JUMP JUMPDEST DUP2 SWAP4 POP POP POP POP SWAP2 SWAP1 POP JUMP JUMPDEST PUSH1 0x40 MLOAD DUP1 PUSH1 0x60 ADD PUSH1 0x40 MSTORE DUP1 DUP5 DUP2 MSTORE PUSH1 0x20 ADD DUP4 DUP2 MSTORE PUSH1 0x20 ADD DUP3 DUP2 MSTORE POP PUSH1 0xD1 PUSH1 0x0 DUP5 DUP2 MSTORE PUSH1 0x20 ADD SWAP1 DUP2 MSTORE PUSH1 0x20 ADD PUSH1 0x0 KECCAK256 PUSH1 0x0 DUP3 ADD MLOAD DUP2 PUSH1 0x0 ADD SSTORE PUSH1 0x20 DUP3 ADD MLOAD DUP2 PUSH1 0x1 ADD SSTORE PUSH1 0x40 DUP3 ADD MLOAD DUP2 PUSH1 0x2 ADD SWAP1 DUP1 MLOAD SWAP1 PUSH1 0x20 ADD SWAP1 PUSH2 0x2D16 SWAP3 SWAP2 SWAP1 PUSH2 0x3891 JUMP JUMPDEST POP SWAP1 POP POP PUSH2 0x2D24 CALLER DUP4 PUSH2 0x3224 JUMP JUMPDEST POP POP POP JUMP JUMPDEST PUSH1 0x0 PUSH32 0x1FFC9A700000000000000000000000000000000000000000000000000000000 PUSH28 0xFFFFFFFFFFFFFFFFFFFFFFFFFFFFFFFFFFFFFFFFFFFFFFFFFFFFFFFF NOT AND DUP3 PUSH28 0xFFFFFFFFFFFFFFFFFFFFFFFFFFFFFFFFFFFFFFFFFFFFFFFFFFFFFFFF NOT AND EQ SWAP1 POP SWAP2 SWAP1 POP JUMP JUMPDEST PUSH1 0x0 DUP1 PUSH20 0xFFFFFFFFFFFFFFFFFFFFFFFFFFFFFFFFFFFFFFFF AND PUSH2 0x2DB5 DUP4 PUSH2 0x29C3 JUMP JUMPDEST PUSH20 0xFFFFFFFFFFFFFFFFFFFFFFFFFFFFFFFFFFFFFFFF AND EQ ISZERO SWAP1 POP SWAP2 SWAP1 POP JUMP JUMPDEST PUSH2 0x2DE0 DUP5 DUP5 DUP5 DUP5 PUSH2 0x3442 JUMP JUMPDEST PUSH1 0x1 DUP2 GT ISZERO PUSH2 0x2E24 JUMPI PUSH1 0x40 MLOAD PUSH32 0x8C379A000000000000000000000000000000000000000000000000000000000 DUP2 MSTORE PUSH1 0x4 ADD PUSH2 0x2E1B SWAP1 PUSH2 0x47E9 JUMP JUMPDEST PUSH1 0x40 MLOAD DUP1 SWAP2 SUB SWAP1 REVERT JUMPDEST PUSH1 0x0 DUP3 SWAP1 POP PUSH1 0x0 PUSH20 0xFFFFFFFFFFFFFFFFFFFFFFFFFFFFFFFFFFFFFFFF AND DUP6 PUSH20 0xFFFFFFFFFFFFFFFFFFFFFFFFFFFFFFFFFFFFFFFF AND EQ ISZERO PUSH2 0x2E6C JUMPI PUSH2 0x2E67 DUP2 PUSH2 0x3568 JUMP JUMPDEST PUSH2 0x2EAB JUMP JUMPDEST DUP4 PUSH20 0xFFFFFFFFFFFFFFFFFFFFFFFFFFFFFFFFFFFFFFFF AND DUP6 PUSH20 0xFFFFFFFFFFFFFFFFFFFFFFFFFFFFFFFFFFFFFFFF AND EQ PUSH2 0x2EAA JUMPI PUSH2 0x2EA9 DUP6 DUP3 PUSH2 0x35B1 JUMP JUMPDEST JUMPDEST JUMPDEST PUSH1 0x0 PUSH20 0xFFFFFFFFFFFFFFFFFFFFFFFFFFFFFFFFFFFFFFFF AND DUP5 PUSH20 0xFFFFFFFFFFFFFFFFFFFFFFFFFFFFFFFFFFFFFFFF AND EQ ISZERO PUSH2 0x2EEE JUMPI PUSH2 0x2EE9 DUP2 PUSH2 0x371E JUMP JUMPDEST PUSH2 0x2F2D JUMP JUMPDEST DUP5 PUSH20 0xFFFFFFFFFFFFFFFFFFFFFFFFFFFFFFFFFFFFFFFF AND DUP5 PUSH20 0xFFFFFFFFFFFFFFFFFFFFFFFFFFFFFFFFFFFFFFFF AND EQ PUSH2 0x2F2C JUMPI PUSH2 0x2F2B DUP5 DUP3 PUSH2 0x37EF JUMP JUMPDEST JUMPDEST JUMPDEST POP POP POP POP POP JUMP JUMPDEST POP POP POP POP JUMP JUMPDEST PUSH1 0x0 PUSH2 0x2F5B DUP5 PUSH20 0xFFFFFFFFFFFFFFFFFFFFFFFFFFFFFFFFFFFFFFFF AND PUSH2 0x386E JUMP JUMPDEST ISZERO PUSH2 0x30C4 JUMPI DUP4 PUSH20 0xFFFFFFFFFFFFFFFFFFFFFFFFFFFFFFFFFFFFFFFF AND PUSH4 0x150B7A02 PUSH2 0x2F84 PUSH2 0x2573 JUMP JUMPDEST DUP8 DUP7 DUP7 PUSH1 0x40 MLOAD DUP6 PUSH4 0xFFFFFFFF AND PUSH1 0xE0 SHL DUP2 MSTORE PUSH1 0x4 ADD PUSH2 0x2FA6 SWAP5 SWAP4 SWAP3 SWAP2 SWAP1 PUSH2 0x4552 JUMP JUMPDEST PUSH1 0x20 PUSH1 0x40 MLOAD DUP1 DUP4 SUB DUP2 PUSH1 0x0 DUP8 DUP1 EXTCODESIZE ISZERO DUP1 ISZERO PUSH2 0x2FC0 JUMPI PUSH1 0x0 DUP1 REVERT JUMPDEST POP GAS CALL SWAP3 POP POP POP DUP1 ISZERO PUSH2 0x2FF1 JUMPI POP PUSH1 0x40 MLOAD RETURNDATASIZE PUSH1 0x1F NOT PUSH1 0x1F DUP3 ADD AND DUP3 ADD DUP1 PUSH1 0x40 MSTORE POP DUP2 ADD SWAP1 PUSH2 0x2FEE SWAP2 SWAP1 PUSH2 0x3D69 JUMP JUMPDEST PUSH1 0x1 JUMPDEST PUSH2 0x3074 JUMPI RETURNDATASIZE DUP1 PUSH1 0x0 DUP2 EQ PUSH2 0x3021 JUMPI PUSH1 0x40 MLOAD SWAP2 POP PUSH1 0x1F NOT PUSH1 0x3F RETURNDATASIZE ADD AND DUP3 ADD PUSH1 0x40 MSTORE RETURNDATASIZE DUP3 MSTORE RETURNDATASIZE PUSH1 0x0 PUSH1 0x20 DUP5 ADD RETURNDATACOPY PUSH2 0x3026 JUMP JUMPDEST PUSH1 0x60 SWAP2 POP JUMPDEST POP PUSH1 0x0 DUP2 MLOAD EQ ISZERO PUSH2 0x306C JUMPI PUSH1 0x40 MLOAD PUSH32 0x8C379A000000000000000000000000000000000000000000000000000000000 DUP2 MSTORE PUSH1 0x4 ADD PUSH2 0x3063 SWAP1 PUSH2 0x4689 JUMP JUMPDEST PUSH1 0x40 MLOAD DUP1 SWAP2 SUB SWAP1 REVERT JUMPDEST DUP1 MLOAD DUP2 PUSH1 0x20 ADD REVERT JUMPDEST PUSH4 0x150B7A02 PUSH1 0xE0 SHL PUSH28 0xFFFFFFFFFFFFFFFFFFFFFFFFFFFFFFFFFFFFFFFFFFFFFFFFFFFFFFFF NOT AND DUP2 PUSH28 0xFFFFFFFFFFFFFFFFFFFFFFFFFFFFFFFFFFFFFFFFFFFFFFFFFFFFFFFF NOT AND EQ SWAP2 POP POP PUSH2 0x30C9 JUMP JUMPDEST PUSH1 0x1 SWAP1 POP JUMPDEST SWAP5 SWAP4 POP POP POP POP JUMP JUMPDEST PUSH1 0x0 DUP1 PUSH1 0x0 SWAP1 POP PUSH27 0x184F03E93FF9F4DAA797ED6E38ED64BF6A1F010000000000000000 DUP4 LT PUSH2 0x312F JUMPI PUSH27 0x184F03E93FF9F4DAA797ED6E38ED64BF6A1F010000000000000000 DUP4 DUP2 PUSH2 0x3125 JUMPI PUSH2 0x3124 PUSH2 0x4C0D JUMP JUMPDEST JUMPDEST DIV SWAP3 POP PUSH1 0x40 DUP2 ADD SWAP1 POP JUMPDEST PUSH14 0x4EE2D6D415B85ACEF8100000000 DUP4 LT PUSH2 0x316C JUMPI PUSH14 0x4EE2D6D415B85ACEF8100000000 DUP4 DUP2 PUSH2 0x3162 JUMPI PUSH2 0x3161 PUSH2 0x4C0D JUMP JUMPDEST JUMPDEST DIV SWAP3 POP PUSH1 0x20 DUP2 ADD SWAP1 POP JUMPDEST PUSH7 0x2386F26FC10000 DUP4 LT PUSH2 0x319B JUMPI PUSH7 0x2386F26FC10000 DUP4 DUP2 PUSH2 0x3191 JUMPI PUSH2 0x3190 PUSH2 0x4C0D JUMP JUMPDEST JUMPDEST DIV SWAP3 POP PUSH1 0x10 DUP2 ADD SWAP1 POP JUMPDEST PUSH4 0x5F5E100 DUP4 LT PUSH2 0x31C4 JUMPI PUSH4 0x5F5E100 DUP4 DUP2 PUSH2 0x31BA JUMPI PUSH2 0x31B9 PUSH2 0x4C0D JUMP JUMPDEST JUMPDEST DIV SWAP3 POP PUSH1 0x8 DUP2 ADD SWAP1 POP JUMPDEST PUSH2 0x2710 DUP4 LT PUSH2 0x31E9 JUMPI PUSH2 0x2710 DUP4 DUP2 PUSH2 0x31DF JUMPI PUSH2 0x31DE PUSH2 0x4C0D JUMP JUMPDEST JUMPDEST DIV SWAP3 POP PUSH1 0x4 DUP2 ADD SWAP1 POP JUMPDEST PUSH1 0x64 DUP4 LT PUSH2 0x320C JUMPI PUSH1 0x64 DUP4 DUP2 PUSH2 0x3202 JUMPI PUSH2 0x3201 PUSH2 0x4C0D JUMP JUMPDEST JUMPDEST DIV SWAP3 POP PUSH1 0x2 DUP2 ADD SWAP1 POP JUMPDEST PUSH1 0xA DUP4 LT PUSH2 0x321B JUMPI PUSH1 0x1 DUP2 ADD SWAP1 POP JUMPDEST DUP1 SWAP2 POP POP SWAP2 SWAP1 POP JUMP JUMPDEST PUSH1 0x0 PUSH20 0xFFFFFFFFFFFFFFFFFFFFFFFFFFFFFFFFFFFFFFFF AND DUP3 PUSH20 0xFFFFFFFFFFFFFFFFFFFFFFFFFFFFFFFFFFFFFFFF AND EQ ISZERO PUSH2 0x3294 JUMPI PUSH1 0x40 MLOAD PUSH32 0x8C379A000000000000000000000000000000000000000000000000000000000 DUP2 MSTORE PUSH1 0x4 ADD PUSH2 0x328B SWAP1 PUSH2 0x4749 JUMP JUMPDEST PUSH1 0x40 MLOAD DUP1 SWAP2 SUB SWAP1 REVERT JUMPDEST PUSH2 0x329D DUP2 PUSH2 0x2D93 JUMP JUMPDEST ISZERO PUSH2 0x32DD JUMPI PUSH1 0x40 MLOAD PUSH32 0x8C379A000000000000000000000000000000000000000000000000000000000 DUP2 MSTORE PUSH1 0x4 ADD PUSH2 0x32D4 SWAP1 PUSH2 0x46C9 JUMP JUMPDEST PUSH1 0x40 MLOAD DUP1 SWAP2 SUB SWAP1 REVERT JUMPDEST PUSH2 0x32EB PUSH1 0x0 DUP4 DUP4 PUSH1 0x1 PUSH2 0x2DD4 JUMP JUMPDEST PUSH2 0x32F4 DUP2 PUSH2 0x2D93 JUMP JUMPDEST ISZERO PUSH2 0x3334 JUMPI PUSH1 0x40 MLOAD PUSH32 0x8C379A000000000000000000000000000000000000000000000000000000000 DUP2 MSTORE PUSH1 0x4 ADD PUSH2 0x332B SWAP1 PUSH2 0x46C9 JUMP JUMPDEST PUSH1 0x40 MLOAD DUP1 SWAP2 SUB SWAP1 REVERT JUMPDEST PUSH1 0x1 PUSH1 0x68 PUSH1 0x0 DUP5 PUSH20 0xFFFFFFFFFFFFFFFFFFFFFFFFFFFFFFFFFFFFFFFF AND PUSH20 0xFFFFFFFFFFFFFFFFFFFFFFFFFFFFFFFFFFFFFFFF AND DUP2 MSTORE PUSH1 0x20 ADD SWAP1 DUP2 MSTORE PUSH1 0x20 ADD PUSH1 0x0 KECCAK256 PUSH1 0x0 DUP3 DUP3 SLOAD ADD SWAP3 POP POP DUP2 SWAP1 SSTORE POP DUP2 PUSH1 0x67 PUSH1 0x0 DUP4 DUP2 MSTORE PUSH1 0x20 ADD SWAP1 DUP2 MSTORE PUSH1 0x20 ADD PUSH1 0x0 KECCAK256 PUSH1 0x0 PUSH2 0x100 EXP DUP2 SLOAD DUP2 PUSH20 0xFFFFFFFFFFFFFFFFFFFFFFFFFFFFFFFFFFFFFFFF MUL NOT AND SWAP1 DUP4 PUSH20 0xFFFFFFFFFFFFFFFFFFFFFFFFFFFFFFFFFFFFFFFF AND MUL OR SWAP1 SSTORE POP DUP1 DUP3 PUSH20 0xFFFFFFFFFFFFFFFFFFFFFFFFFFFFFFFFFFFFFFFF AND PUSH1 0x0 PUSH20 0xFFFFFFFFFFFFFFFFFFFFFFFFFFFFFFFFFFFFFFFF AND PUSH32 0xDDF252AD1BE2C89B69C2B068FC378DAA952BA7F163C4A11628F55A4DF523B3EF PUSH1 0x40 MLOAD PUSH1 0x40 MLOAD DUP1 SWAP2 SUB SWAP1 LOG4 PUSH2 0x343E PUSH1 0x0 DUP4 DUP4 PUSH1 0x1 PUSH2 0x2F34 JUMP JUMPDEST POP POP JUMP JUMPDEST PUSH1 0x1 DUP2 GT ISZERO PUSH2 0x3562 JUMPI PUSH1 0x0 PUSH20 0xFFFFFFFFFFFFFFFFFFFFFFFFFFFFFFFFFFFFFFFF AND DUP5 PUSH20 0xFFFFFFFFFFFFFFFFFFFFFFFFFFFFFFFFFFFFFFFF AND EQ PUSH2 0x34D6 JUMPI DUP1 PUSH1 0x68 PUSH1 0x0 DUP7 PUSH20 0xFFFFFFFFFFFFFFFFFFFFFFFFFFFFFFFFFFFFFFFF AND PUSH20 0xFFFFFFFFFFFFFFFFFFFFFFFFFFFFFFFFFFFFFFFF AND DUP2 MSTORE PUSH1 0x20 ADD SWAP1 DUP2 MSTORE PUSH1 0x20 ADD PUSH1 0x0 KECCAK256 PUSH1 0x0 DUP3 DUP3 SLOAD PUSH2 0x34CE SWAP2 SWAP1 PUSH2 0x4A48 JUMP JUMPDEST SWAP3 POP POP DUP2 SWAP1 SSTORE POP JUMPDEST PUSH1 0x0 PUSH20 0xFFFFFFFFFFFFFFFFFFFFFFFFFFFFFFFFFFFFFFFF AND DUP4 PUSH20 0xFFFFFFFFFFFFFFFFFFFFFFFFFFFFFFFFFFFFFFFF AND EQ PUSH2 0x3561 JUMPI DUP1 PUSH1 0x68 PUSH1 0x0 DUP6 PUSH20 0xFFFFFFFFFFFFFFFFFFFFFFFFFFFFFFFFFFFFFFFF AND PUSH20 0xFFFFFFFFFFFFFFFFFFFFFFFFFFFFFFFFFFFFFFFF AND DUP2 MSTORE PUSH1 0x20 ADD SWAP1 DUP2 MSTORE PUSH1 0x20 ADD PUSH1 0x0 KECCAK256 PUSH1 0x0 DUP3 DUP3 SLOAD PUSH2 0x3559 SWAP2 SWAP1 PUSH2 0x49F2 JUMP JUMPDEST SWAP3 POP POP DUP2 SWAP1 SSTORE POP JUMPDEST JUMPDEST POP POP POP POP JUMP JUMPDEST PUSH1 0x99 DUP1 SLOAD SWAP1 POP PUSH1 0x9A PUSH1 0x0 DUP4 DUP2 MSTORE PUSH1 0x20 ADD SWAP1 DUP2 MSTORE PUSH1 0x20 ADD PUSH1 0x0 KECCAK256 DUP2 SWAP1 SSTORE POP PUSH1 0x99 DUP2 SWAP1 DUP1 PUSH1 0x1 DUP2 SLOAD ADD DUP1 DUP3 SSTORE DUP1 SWAP2 POP POP PUSH1 0x1 SWAP1 SUB SWAP1 PUSH1 0x0 MSTORE PUSH1 0x20 PUSH1 0x0 KECCAK256 ADD PUSH1 0x0 SWAP1 SWAP2 SWAP1 SWAP2 SWAP1 SWAP2 POP SSTORE POP JUMP JUMPDEST PUSH1 0x0 PUSH1 0x1 PUSH2 0x35BE DUP5 PUSH2 0x171D JUMP JUMPDEST PUSH2 0x35C8 SWAP2 SWAP1 PUSH2 0x4A48 JUMP JUMPDEST SWAP1 POP PUSH1 0x0 PUSH1 0x98 PUSH1 0x0 DUP5 DUP2 MSTORE PUSH1 0x20 ADD SWAP1 DUP2 MSTORE PUSH1 0x20 ADD PUSH1 0x0 KECCAK256 SLOAD SWAP1 POP DUP2 DUP2 EQ PUSH2 0x36AD JUMPI PUSH1 0x0 PUSH1 0x97 PUSH1 0x0 DUP7 PUSH20 0xFFFFFFFFFFFFFFFFFFFFFFFFFFFFFFFFFFFFFFFF AND PUSH20 0xFFFFFFFFFFFFFFFFFFFFFFFFFFFFFFFFFFFFFFFF AND DUP2 MSTORE PUSH1 0x20 ADD SWAP1 DUP2 MSTORE PUSH1 0x20 ADD PUSH1 0x0 KECCAK256 PUSH1 0x0 DUP5 DUP2 MSTORE PUSH1 0x20 ADD SWAP1 DUP2 MSTORE PUSH1 0x20 ADD PUSH1 0x0 KECCAK256 SLOAD SWAP1 POP DUP1 PUSH1 0x97 PUSH1 0x0 DUP8 PUSH20 0xFFFFFFFFFFFFFFFFFFFFFFFFFFFFFFFFFFFFFFFF AND PUSH20 0xFFFFFFFFFFFFFFFFFFFFFFFFFFFFFFFFFFFFFFFF AND DUP2 MSTORE PUSH1 0x20 ADD SWAP1 DUP2 MSTORE PUSH1 0x20 ADD PUSH1 0x0 KECCAK256 PUSH1 0x0 DUP5 DUP2 MSTORE PUSH1 0x20 ADD SWAP1 DUP2 MSTORE PUSH1 0x20 ADD PUSH1 0x0 KECCAK256 DUP2 SWAP1 SSTORE POP DUP2 PUSH1 0x98 PUSH1 0x0 DUP4 DUP2 MSTORE PUSH1 0x20 ADD SWAP1 DUP2 MSTORE PUSH1 0x20 ADD PUSH1 0x0 KECCAK256 DUP2 SWAP1 SSTORE POP POP JUMPDEST PUSH1 0x98 PUSH1 0x0 DUP5 DUP2 MSTORE PUSH1 0x20 ADD SWAP1 DUP2 MSTORE PUSH1 0x20 ADD PUSH1 0x0 KECCAK256 PUSH1 0x0 SWAP1 SSTORE PUSH1 0x97 PUSH1 0x0 DUP6 PUSH20 0xFFFFFFFFFFFFFFFFFFFFFFFFFFFFFFFFFFFFFFFF AND PUSH20 0xFFFFFFFFFFFFFFFFFFFFFFFFFFFFFFFFFFFFFFFF AND DUP2 MSTORE PUSH1 0x20 ADD SWAP1 DUP2 MSTORE PUSH1 0x20 ADD PUSH1 0x0 KECCAK256 PUSH1 0x0 DUP4 DUP2 MSTORE PUSH1 0x20 ADD SWAP1 DUP2 MSTORE PUSH1 0x20 ADD PUSH1 0x0 KECCAK256 PUSH1 0x0 SWAP1 SSTORE POP POP POP POP JUMP JUMPDEST PUSH1 0x0 PUSH1 0x1 PUSH1 0x99 DUP1 SLOAD SWAP1 POP PUSH2 0x3732 SWAP2 SWAP1 PUSH2 0x4A48 JUMP JUMPDEST SWAP1 POP PUSH1 0x0 PUSH1 0x9A PUSH1 0x0 DUP5 DUP2 MSTORE PUSH1 0x20 ADD SWAP1 DUP2 MSTORE PUSH1 0x20 ADD PUSH1 0x0 KECCAK256 SLOAD SWAP1 POP PUSH1 0x0 PUSH1 0x99 DUP4 DUP2 SLOAD DUP2 LT PUSH2 0x3762 JUMPI PUSH2 0x3761 PUSH2 0x4C9A JUMP JUMPDEST JUMPDEST SWAP1 PUSH1 0x0 MSTORE PUSH1 0x20 PUSH1 0x0 KECCAK256 ADD SLOAD SWAP1 POP DUP1 PUSH1 0x99 DUP4 DUP2 SLOAD DUP2 LT PUSH2 0x3784 JUMPI PUSH2 0x3783 PUSH2 0x4C9A JUMP JUMPDEST JUMPDEST SWAP1 PUSH1 0x0 MSTORE PUSH1 0x20 PUSH1 0x0 KECCAK256 ADD DUP2 SWAP1 SSTORE POP DUP2 PUSH1 0x9A PUSH1 0x0 DUP4 DUP2 MSTORE PUSH1 0x20 ADD SWAP1 DUP2 MSTORE PUSH1 0x20 ADD PUSH1 0x0 KECCAK256 DUP2 SWAP1 SSTORE POP PUSH1 0x9A PUSH1 0x0 DUP6 DUP2 MSTORE PUSH1 0x20 ADD SWAP1 DUP2 MSTORE PUSH1 0x20 ADD PUSH1 0x0 KECCAK256 PUSH1 0x0 SWAP1 SSTORE PUSH1 0x99 DUP1 SLOAD DUP1 PUSH2 0x37D3 JUMPI PUSH2 0x37D2 PUSH2 0x4C6B JUMP JUMPDEST JUMPDEST PUSH1 0x1 SWAP1 SUB DUP2 DUP2 SWAP1 PUSH1 0x0 MSTORE PUSH1 0x20 PUSH1 0x0 KECCAK256 ADD PUSH1 0x0 SWAP1 SSTORE SWAP1 SSTORE POP POP POP POP JUMP JUMPDEST PUSH1 0x0 PUSH2 0x37FA DUP4 PUSH2 0x171D JUMP JUMPDEST SWAP1 POP DUP2 PUSH1 0x97 PUSH1 0x0 DUP6 PUSH20 0xFFFFFFFFFFFFFFFFFFFFFFFFFFFFFFFFFFFFFFFF AND PUSH20 0xFFFFFFFFFFFFFFFFFFFFFFFFFFFFFFFFFFFFFFFF AND DUP2 MSTORE PUSH1 0x20 ADD SWAP1 DUP2 MSTORE PUSH1 0x20 ADD PUSH1 0x0 KECCAK256 PUSH1 0x0 DUP4 DUP2 MSTORE PUSH1 0x20 ADD SWAP1 DUP2 MSTORE PUSH1 0x20 ADD PUSH1 0x0 KECCAK256 DUP2 SWAP1 SSTORE POP DUP1 PUSH1 0x98 PUSH1 0x0 DUP5 DUP2 MSTORE PUSH1 0x20 ADD SWAP1 DUP2 MSTORE PUSH1 0x20 ADD PUSH1 0x0 KECCAK256 DUP2 SWAP1 SSTORE POP POP POP POP JUMP JUMPDEST PUSH1 0x0 DUP1 DUP3 PUSH20 0xFFFFFFFFFFFFFFFFFFFFFFFFFFFFFFFFFFFFFFFF AND EXTCODESIZE GT SWAP1 POP SWAP2 SWAP1 POP JUMP JUMPDEST DUP3 DUP1 SLOAD PUSH2 0x389D SWAP1 PUSH2 0x4B32 JUMP JUMPDEST SWAP1 PUSH1 0x0 MSTORE PUSH1 0x20 PUSH1 0x0 KECCAK256 SWAP1 PUSH1 0x1F ADD PUSH1 0x20 SWAP1 DIV DUP2 ADD SWAP3 DUP3 PUSH2 0x38BF JUMPI PUSH1 0x0 DUP6 SSTORE PUSH2 0x3906 JUMP JUMPDEST DUP3 PUSH1 0x1F LT PUSH2 0x38D8 JUMPI DUP1 MLOAD PUSH1 0xFF NOT AND DUP4 DUP1 ADD OR DUP6 SSTORE PUSH2 0x3906 JUMP JUMPDEST DUP3 DUP1 ADD PUSH1 0x1 ADD DUP6 SSTORE DUP3 ISZERO PUSH2 0x3906 JUMPI SWAP2 DUP3 ADD JUMPDEST DUP3 DUP2 GT ISZERO PUSH2 0x3905 JUMPI DUP3 MLOAD DUP3 SSTORE SWAP2 PUSH1 0x20 ADD SWAP2 SWAP1 PUSH1 0x1 ADD SWAP1 PUSH2 0x38EA JUMP JUMPDEST JUMPDEST POP SWAP1 POP PUSH2 0x3913 SWAP2 SWAP1 PUSH2 0x3957 JUMP JUMPDEST POP SWAP1 JUMP JUMPDEST POP DUP1 SLOAD PUSH2 0x3923 SWAP1 PUSH2 0x4B32 JUMP JUMPDEST PUSH1 0x0 DUP3 SSTORE DUP1 PUSH1 0x1F LT PUSH2 0x3935 JUMPI POP PUSH2 0x3954 JUMP JUMPDEST PUSH1 0x1F ADD PUSH1 0x20 SWAP1 DIV SWAP1 PUSH1 0x0 MSTORE PUSH1 0x20 PUSH1 0x0 KECCAK256 SWAP1 DUP2 ADD SWAP1 PUSH2 0x3953 SWAP2 SWAP1 PUSH2 0x3957 JUMP JUMPDEST JUMPDEST POP JUMP JUMPDEST JUMPDEST DUP1 DUP3 GT ISZERO PUSH2 0x3970 JUMPI PUSH1 0x0 DUP2 PUSH1 0x0 SWAP1 SSTORE POP PUSH1 0x1 ADD PUSH2 0x3958 JUMP JUMPDEST POP SWAP1 JUMP JUMPDEST PUSH1 0x0 PUSH2 0x3987 PUSH2 0x3982 DUP5 PUSH2 0x48B7 JUMP JUMPDEST PUSH2 0x4892 JUMP JUMPDEST SWAP1 POP DUP1 DUP4 DUP3 MSTORE PUSH1 0x20 DUP3 ADD SWAP1 POP DUP3 DUP6 PUSH1 0x20 DUP7 MUL DUP3 ADD GT ISZERO PUSH2 0x39AA JUMPI PUSH2 0x39A9 PUSH2 0x4CFD JUMP JUMPDEST JUMPDEST PUSH1 0x0 JUMPDEST DUP6 DUP2 LT ISZERO PUSH2 0x39F8 JUMPI DUP2 CALLDATALOAD PUSH8 0xFFFFFFFFFFFFFFFF DUP2 GT ISZERO PUSH2 0x39D0 JUMPI PUSH2 0x39CF PUSH2 0x4CF8 JUMP JUMPDEST JUMPDEST DUP1 DUP7 ADD PUSH2 0x39DD DUP10 DUP3 PUSH2 0x3B36 JUMP JUMPDEST DUP6 MSTORE PUSH1 0x20 DUP6 ADD SWAP5 POP PUSH1 0x20 DUP5 ADD SWAP4 POP POP POP PUSH1 0x1 DUP2 ADD SWAP1 POP PUSH2 0x39AD JUMP JUMPDEST POP POP POP SWAP4 SWAP3 POP POP POP JUMP JUMPDEST PUSH1 0x0 PUSH2 0x3A15 PUSH2 0x3A10 DUP5 PUSH2 0x48E3 JUMP JUMPDEST PUSH2 0x4892 JUMP JUMPDEST SWAP1 POP DUP3 DUP2 MSTORE PUSH1 0x20 DUP2 ADD DUP5 DUP5 DUP5 ADD GT ISZERO PUSH2 0x3A31 JUMPI PUSH2 0x3A30 PUSH2 0x4D02 JUMP JUMPDEST JUMPDEST PUSH2 0x3A3C DUP5 DUP3 DUP6 PUSH2 0x4AF0 JUMP JUMPDEST POP SWAP4 SWAP3 POP POP POP JUMP JUMPDEST PUSH1 0x0 PUSH2 0x3A57 PUSH2 0x3A52 DUP5 PUSH2 0x4914 JUMP JUMPDEST PUSH2 0x4892 JUMP JUMPDEST SWAP1 POP DUP3 DUP2 MSTORE PUSH1 0x20 DUP2 ADD DUP5 DUP5 DUP5 ADD GT ISZERO PUSH2 0x3A73 JUMPI PUSH2 0x3A72 PUSH2 0x4D02 JUMP JUMPDEST JUMPDEST PUSH2 0x3A7E DUP5 DUP3 DUP6 PUSH2 0x4AF0 JUMP JUMPDEST POP SWAP4 SWAP3 POP POP POP JUMP JUMPDEST PUSH1 0x0 DUP2 CALLDATALOAD SWAP1 POP PUSH2 0x3A95 DUP2 PUSH2 0x50DC JUMP JUMPDEST SWAP3 SWAP2 POP POP JUMP JUMPDEST PUSH1 0x0 DUP3 PUSH1 0x1F DUP4 ADD SLT PUSH2 0x3AB0 JUMPI PUSH2 0x3AAF PUSH2 0x4CF8 JUMP JUMPDEST JUMPDEST DUP2 CALLDATALOAD PUSH2 0x3AC0 DUP5 DUP3 PUSH1 0x20 DUP7 ADD PUSH2 0x3974 JUMP JUMPDEST SWAP2 POP POP SWAP3 SWAP2 POP POP JUMP JUMPDEST PUSH1 0x0 DUP2 CALLDATALOAD SWAP1 POP PUSH2 0x3AD8 DUP2 PUSH2 0x50F3 JUMP JUMPDEST SWAP3 SWAP2 POP POP JUMP JUMPDEST PUSH1 0x0 DUP2 CALLDATALOAD SWAP1 POP PUSH2 0x3AED DUP2 PUSH2 0x510A JUMP JUMPDEST SWAP3 SWAP2 POP POP JUMP JUMPDEST PUSH1 0x0 DUP2 MLOAD SWAP1 POP PUSH2 0x3B02 DUP2 PUSH2 0x510A JUMP JUMPDEST SWAP3 SWAP2 POP POP JUMP JUMPDEST PUSH1 0x0 DUP3 PUSH1 0x1F DUP4 ADD SLT PUSH2 0x3B1D JUMPI PUSH2 0x3B1C PUSH2 0x4CF8 JUMP JUMPDEST JUMPDEST DUP2 CALLDATALOAD PUSH2 0x3B2D DUP5 DUP3 PUSH1 0x20 DUP7 ADD PUSH2 0x3A02 JUMP JUMPDEST SWAP2 POP POP SWAP3 SWAP2 POP POP JUMP JUMPDEST PUSH1 0x0 DUP3 PUSH1 0x1F DUP4 ADD SLT PUSH2 0x3B4B JUMPI PUSH2 0x3B4A PUSH2 0x4CF8 JUMP JUMPDEST JUMPDEST DUP2 CALLDATALOAD PUSH2 0x3B5B DUP5 DUP3 PUSH1 0x20 DUP7 ADD PUSH2 0x3A44 JUMP JUMPDEST SWAP2 POP POP SWAP3 SWAP2 POP POP JUMP JUMPDEST PUSH1 0x0 DUP2 CALLDATALOAD SWAP1 POP PUSH2 0x3B73 DUP2 PUSH2 0x5121 JUMP JUMPDEST SWAP3 SWAP2 POP POP JUMP JUMPDEST PUSH1 0x0 PUSH1 0x20 DUP3 DUP5 SUB SLT ISZERO PUSH2 0x3B8F JUMPI PUSH2 0x3B8E PUSH2 0x4D0C JUMP JUMPDEST JUMPDEST PUSH1 0x0 PUSH2 0x3B9D DUP5 DUP3 DUP6 ADD PUSH2 0x3A86 JUMP JUMPDEST SWAP2 POP POP SWAP3 SWAP2 POP POP JUMP JUMPDEST PUSH1 0x0 DUP1 PUSH1 0x40 DUP4 DUP6 SUB SLT ISZERO PUSH2 0x3BBD JUMPI PUSH2 0x3BBC PUSH2 0x4D0C JUMP JUMPDEST JUMPDEST PUSH1 0x0 PUSH2 0x3BCB DUP6 DUP3 DUP7 ADD PUSH2 0x3A86 JUMP JUMPDEST SWAP3 POP POP PUSH1 0x20 PUSH2 0x3BDC DUP6 DUP3 DUP7 ADD PUSH2 0x3A86 JUMP JUMPDEST SWAP2 POP POP SWAP3 POP SWAP3 SWAP1 POP JUMP JUMPDEST PUSH1 0x0 DUP1 PUSH1 0x0 PUSH1 0x60 DUP5 DUP7 SUB SLT ISZERO PUSH2 0x3BFF JUMPI PUSH2 0x3BFE PUSH2 0x4D0C JUMP JUMPDEST JUMPDEST PUSH1 0x0 PUSH2 0x3C0D DUP7 DUP3 DUP8 ADD PUSH2 0x3A86 JUMP JUMPDEST SWAP4 POP POP PUSH1 0x20 PUSH2 0x3C1E DUP7 DUP3 DUP8 ADD PUSH2 0x3A86 JUMP JUMPDEST SWAP3 POP POP PUSH1 0x40 PUSH2 0x3C2F DUP7 DUP3 DUP8 ADD PUSH2 0x3B64 JUMP JUMPDEST SWAP2 POP POP SWAP3 POP SWAP3 POP SWAP3 JUMP JUMPDEST PUSH1 0x0 DUP1 PUSH1 0x0 DUP1 PUSH1 0x80 DUP6 DUP8 SUB SLT ISZERO PUSH2 0x3C53 JUMPI PUSH2 0x3C52 PUSH2 0x4D0C JUMP JUMPDEST JUMPDEST PUSH1 0x0 PUSH2 0x3C61 DUP8 DUP3 DUP9 ADD PUSH2 0x3A86 JUMP JUMPDEST SWAP5 POP POP PUSH1 0x20 PUSH2 0x3C72 DUP8 DUP3 DUP9 ADD PUSH2 0x3A86 JUMP JUMPDEST SWAP4 POP POP PUSH1 0x40 PUSH2 0x3C83 DUP8 DUP3 DUP9 ADD PUSH2 0x3B64 JUMP JUMPDEST SWAP3 POP POP PUSH1 0x60 DUP6 ADD CALLDATALOAD PUSH8 0xFFFFFFFFFFFFFFFF DUP2 GT ISZERO PUSH2 0x3CA4 JUMPI PUSH2 0x3CA3 PUSH2 0x4D07 JUMP JUMPDEST JUMPDEST PUSH2 0x3CB0 DUP8 DUP3 DUP9 ADD PUSH2 0x3B08 JUMP JUMPDEST SWAP2 POP POP SWAP3 SWAP6 SWAP2 SWAP5 POP SWAP3 POP JUMP JUMPDEST PUSH1 0x0 DUP1 PUSH1 0x40 DUP4 DUP6 SUB SLT ISZERO PUSH2 0x3CD3 JUMPI PUSH2 0x3CD2 PUSH2 0x4D0C JUMP JUMPDEST JUMPDEST PUSH1 0x0 PUSH2 0x3CE1 DUP6 DUP3 DUP7 ADD PUSH2 0x3A86 JUMP JUMPDEST SWAP3 POP POP PUSH1 0x20 PUSH2 0x3CF2 DUP6 DUP3 DUP7 ADD PUSH2 0x3AC9 JUMP JUMPDEST SWAP2 POP POP SWAP3 POP SWAP3 SWAP1 POP JUMP JUMPDEST PUSH1 0x0 DUP1 PUSH1 0x40 DUP4 DUP6 SUB SLT ISZERO PUSH2 0x3D13 JUMPI PUSH2 0x3D12 PUSH2 0x4D0C JUMP JUMPDEST JUMPDEST PUSH1 0x0 PUSH2 0x3D21 DUP6 DUP3 DUP7 ADD PUSH2 0x3A86 JUMP JUMPDEST SWAP3 POP POP PUSH1 0x20 PUSH2 0x3D32 DUP6 DUP3 DUP7 ADD PUSH2 0x3B64 JUMP JUMPDEST SWAP2 POP POP SWAP3 POP SWAP3 SWAP1 POP JUMP JUMPDEST PUSH1 0x0 PUSH1 0x20 DUP3 DUP5 SUB SLT ISZERO PUSH2 0x3D52 JUMPI PUSH2 0x3D51 PUSH2 0x4D0C JUMP JUMPDEST JUMPDEST PUSH1 0x0 PUSH2 0x3D60 DUP5 DUP3 DUP6 ADD PUSH2 0x3ADE JUMP JUMPDEST SWAP2 POP POP SWAP3 SWAP2 POP POP JUMP JUMPDEST PUSH1 0x0 PUSH1 0x20 DUP3 DUP5 SUB SLT ISZERO PUSH2 0x3D7F JUMPI PUSH2 0x3D7E PUSH2 0x4D0C JUMP JUMPDEST JUMPDEST PUSH1 0x0 PUSH2 0x3D8D DUP5 DUP3 DUP6 ADD PUSH2 0x3AF3 JUMP JUMPDEST SWAP2 POP POP SWAP3 SWAP2 POP POP JUMP JUMPDEST PUSH1 0x0 PUSH1 0x20 DUP3 DUP5 SUB SLT ISZERO PUSH2 0x3DAC JUMPI PUSH2 0x3DAB PUSH2 0x4D0C JUMP JUMPDEST JUMPDEST PUSH1 0x0 DUP3 ADD CALLDATALOAD PUSH8 0xFFFFFFFFFFFFFFFF DUP2 GT ISZERO PUSH2 0x3DCA JUMPI PUSH2 0x3DC9 PUSH2 0x4D07 JUMP JUMPDEST JUMPDEST PUSH2 0x3DD6 DUP5 DUP3 DUP6 ADD PUSH2 0x3B36 JUMP JUMPDEST SWAP2 POP POP SWAP3 SWAP2 POP POP JUMP JUMPDEST PUSH1 0x0 DUP1 PUSH1 0x40 DUP4 DUP6 SUB SLT ISZERO PUSH2 0x3DF6 JUMPI PUSH2 0x3DF5 PUSH2 0x4D0C JUMP JUMPDEST JUMPDEST PUSH1 0x0 DUP4 ADD CALLDATALOAD PUSH8 0xFFFFFFFFFFFFFFFF DUP2 GT ISZERO PUSH2 0x3E14 JUMPI PUSH2 0x3E13 PUSH2 0x4D07 JUMP JUMPDEST JUMPDEST PUSH2 0x3E20 DUP6 DUP3 DUP7 ADD PUSH2 0x3B36 JUMP JUMPDEST SWAP3 POP POP PUSH1 0x20 DUP4 ADD CALLDATALOAD PUSH8 0xFFFFFFFFFFFFFFFF DUP2 GT ISZERO PUSH2 0x3E41 JUMPI PUSH2 0x3E40 PUSH2 0x4D07 JUMP JUMPDEST JUMPDEST PUSH2 0x3E4D DUP6 DUP3 DUP7 ADD PUSH2 0x3B36 JUMP JUMPDEST SWAP2 POP POP SWAP3 POP SWAP3 SWAP1 POP JUMP JUMPDEST PUSH1 0x0 DUP1 PUSH1 0x40 DUP4 DUP6 SUB SLT ISZERO PUSH2 0x3E6E JUMPI PUSH2 0x3E6D PUSH2 0x4D0C JUMP JUMPDEST JUMPDEST PUSH1 0x0 DUP4 ADD CALLDATALOAD PUSH8 0xFFFFFFFFFFFFFFFF DUP2 GT ISZERO PUSH2 0x3E8C JUMPI PUSH2 0x3E8B PUSH2 0x4D07 JUMP JUMPDEST JUMPDEST PUSH2 0x3E98 DUP6 DUP3 DUP7 ADD PUSH2 0x3B36 JUMP JUMPDEST SWAP3 POP POP PUSH1 0x20 PUSH2 0x3EA9 DUP6 DUP3 DUP7 ADD PUSH2 0x3B64 JUMP JUMPDEST SWAP2 POP POP SWAP3 POP SWAP3 SWAP1 POP JUMP JUMPDEST PUSH1 0x0 DUP1 PUSH1 0x0 PUSH1 0x60 DUP5 DUP7 SUB SLT ISZERO PUSH2 0x3ECC JUMPI PUSH2 0x3ECB PUSH2 0x4D0C JUMP JUMPDEST JUMPDEST PUSH1 0x0 DUP5 ADD CALLDATALOAD PUSH8 0xFFFFFFFFFFFFFFFF DUP2 GT ISZERO PUSH2 0x3EEA JUMPI PUSH2 0x3EE9 PUSH2 0x4D07 JUMP JUMPDEST JUMPDEST PUSH2 0x3EF6 DUP7 DUP3 DUP8 ADD PUSH2 0x3B36 JUMP JUMPDEST SWAP4 POP POP PUSH1 0x20 PUSH2 0x3F07 DUP7 DUP3 DUP8 ADD PUSH2 0x3B64 JUMP JUMPDEST SWAP3 POP POP PUSH1 0x40 DUP5 ADD CALLDATALOAD PUSH8 0xFFFFFFFFFFFFFFFF DUP2 GT ISZERO PUSH2 0x3F28 JUMPI PUSH2 0x3F27 PUSH2 0x4D07 JUMP JUMPDEST JUMPDEST PUSH2 0x3F34 DUP7 DUP3 DUP8 ADD PUSH2 0x3A9B JUMP JUMPDEST SWAP2 POP POP SWAP3 POP SWAP3 POP SWAP3 JUMP JUMPDEST PUSH1 0x0 PUSH1 0x20 DUP3 DUP5 SUB SLT ISZERO PUSH2 0x3F54 JUMPI PUSH2 0x3F53 PUSH2 0x4D0C JUMP JUMPDEST JUMPDEST PUSH1 0x0 PUSH2 0x3F62 DUP5 DUP3 DUP6 ADD PUSH2 0x3B64 JUMP JUMPDEST SWAP2 POP POP SWAP3 SWAP2 POP POP JUMP JUMPDEST PUSH1 0x0 DUP1 PUSH1 0x40 DUP4 DUP6 SUB SLT ISZERO PUSH2 0x3F82 JUMPI PUSH2 0x3F81 PUSH2 0x4D0C JUMP JUMPDEST JUMPDEST PUSH1 0x0 PUSH2 0x3F90 DUP6 DUP3 DUP7 ADD PUSH2 0x3B64 JUMP JUMPDEST SWAP3 POP POP PUSH1 0x20 DUP4 ADD CALLDATALOAD PUSH8 0xFFFFFFFFFFFFFFFF DUP2 GT ISZERO PUSH2 0x3FB1 JUMPI PUSH2 0x3FB0 PUSH2 0x4D07 JUMP JUMPDEST JUMPDEST PUSH2 0x3FBD DUP6 DUP3 DUP7 ADD PUSH2 0x3B36 JUMP JUMPDEST SWAP2 POP POP SWAP3 POP SWAP3 SWAP1 POP JUMP JUMPDEST PUSH1 0x0 DUP1 PUSH1 0x0 PUSH1 0x60 DUP5 DUP7 SUB SLT ISZERO PUSH2 0x3FE0 JUMPI PUSH2 0x3FDF PUSH2 0x4D0C JUMP JUMPDEST JUMPDEST PUSH1 0x0 PUSH2 0x3FEE DUP7 DUP3 DUP8 ADD PUSH2 0x3B64 JUMP JUMPDEST SWAP4 POP POP PUSH1 0x20 DUP5 ADD CALLDATALOAD PUSH8 0xFFFFFFFFFFFFFFFF DUP2 GT ISZERO PUSH2 0x400F JUMPI PUSH2 0x400E PUSH2 0x4D07 JUMP JUMPDEST JUMPDEST PUSH2 0x401B DUP7 DUP3 DUP8 ADD PUSH2 0x3B36 JUMP JUMPDEST SWAP3 POP POP PUSH1 0x40 DUP5 ADD CALLDATALOAD PUSH8 0xFFFFFFFFFFFFFFFF DUP2 GT ISZERO PUSH2 0x403C JUMPI PUSH2 0x403B PUSH2 0x4D07 JUMP JUMPDEST JUMPDEST PUSH2 0x4048 DUP7 DUP3 DUP8 ADD PUSH2 0x3B36 JUMP JUMPDEST SWAP2 POP POP SWAP3 POP SWAP3 POP SWAP3 JUMP JUMPDEST PUSH1 0x0 DUP1 PUSH1 0x40 DUP4 DUP6 SUB SLT ISZERO PUSH2 0x4069 JUMPI PUSH2 0x4068 PUSH2 0x4D0C JUMP JUMPDEST JUMPDEST PUSH1 0x0 PUSH2 0x4077 DUP6 DUP3 DUP7 ADD PUSH2 0x3B64 JUMP JUMPDEST SWAP3 POP POP PUSH1 0x20 PUSH2 0x4088 DUP6 DUP3 DUP7 ADD PUSH2 0x3B64 JUMP JUMPDEST SWAP2 POP POP SWAP3 POP SWAP3 SWAP1 POP JUMP JUMPDEST PUSH1 0x0 DUP1 PUSH1 0x0 PUSH1 0x60 DUP5 DUP7 SUB SLT ISZERO PUSH2 0x40AB JUMPI PUSH2 0x40AA PUSH2 0x4D0C JUMP JUMPDEST JUMPDEST PUSH1 0x0 PUSH2 0x40B9 DUP7 DUP3 DUP8 ADD PUSH2 0x3B64 JUMP JUMPDEST SWAP4 POP POP PUSH1 0x20 PUSH2 0x40CA DUP7 DUP3 DUP8 ADD PUSH2 0x3B64 JUMP JUMPDEST SWAP3 POP POP PUSH1 0x40 DUP5 ADD CALLDATALOAD PUSH8 0xFFFFFFFFFFFFFFFF DUP2 GT ISZERO PUSH2 0x40EB JUMPI PUSH2 0x40EA PUSH2 0x4D07 JUMP JUMPDEST JUMPDEST PUSH2 0x40F7 DUP7 DUP3 DUP8 ADD PUSH2 0x3B36 JUMP JUMPDEST SWAP2 POP POP SWAP3 POP SWAP3 POP SWAP3 JUMP JUMPDEST PUSH1 0x0 PUSH2 0x410D DUP4 DUP4 PUSH2 0x4260 JUMP JUMPDEST SWAP1 POP SWAP3 SWAP2 POP POP JUMP JUMPDEST PUSH2 0x411E DUP2 PUSH2 0x4A7C JUMP JUMPDEST DUP3 MSTORE POP POP JUMP JUMPDEST PUSH1 0x0 PUSH2 0x412F DUP3 PUSH2 0x496A JUMP JUMPDEST PUSH2 0x4139 DUP2 DUP6 PUSH2 0x4998 JUMP JUMPDEST SWAP4 POP DUP4 PUSH1 0x20 DUP3 MUL DUP6 ADD PUSH2 0x414B DUP6 PUSH2 0x4945 JUMP JUMPDEST DUP1 PUSH1 0x0 JUMPDEST DUP6 DUP2 LT ISZERO PUSH2 0x4187 JUMPI DUP5 DUP5 SUB DUP10 MSTORE DUP2 MLOAD PUSH2 0x4168 DUP6 DUP3 PUSH2 0x4101 JUMP JUMPDEST SWAP5 POP PUSH2 0x4173 DUP4 PUSH2 0x498B JUMP JUMPDEST SWAP3 POP PUSH1 0x20 DUP11 ADD SWAP10 POP POP PUSH1 0x1 DUP2 ADD SWAP1 POP PUSH2 0x414F JUMP JUMPDEST POP DUP3 SWAP8 POP DUP8 SWAP6 POP POP POP POP POP POP SWAP3 SWAP2 POP POP JUMP JUMPDEST PUSH2 0x41A2 DUP2 PUSH2 0x4A8E JUMP JUMPDEST DUP3 MSTORE POP POP JUMP JUMPDEST PUSH1 0x0 PUSH2 0x41B3 DUP3 PUSH2 0x4975 JUMP JUMPDEST PUSH2 0x41BD DUP2 DUP6 PUSH2 0x49A9 JUMP JUMPDEST SWAP4 POP PUSH2 0x41CD DUP2 DUP6 PUSH1 0x20 DUP7 ADD PUSH2 0x4AFF JUMP JUMPDEST PUSH2 0x41D6 DUP2 PUSH2 0x4D11 JUMP JUMPDEST DUP5 ADD SWAP2 POP POP SWAP3 SWAP2 POP POP JUMP JUMPDEST PUSH1 0x0 DUP2 SLOAD PUSH2 0x41EE DUP2 PUSH2 0x4B32 JUMP JUMPDEST PUSH2 0x41F8 DUP2 DUP7 PUSH2 0x49BA JUMP JUMPDEST SWAP5 POP PUSH1 0x1 DUP3 AND PUSH1 0x0 DUP2 EQ PUSH2 0x4213 JUMPI PUSH1 0x1 DUP2 EQ PUSH2 0x4224 JUMPI PUSH2 0x4257 JUMP JUMPDEST PUSH1 0xFF NOT DUP4 AND DUP7 MSTORE DUP2 DUP7 ADD SWAP4 POP PUSH2 0x4257 JUMP JUMPDEST PUSH2 0x422D DUP6 PUSH2 0x4955 JUMP JUMPDEST PUSH1 0x0 JUMPDEST DUP4 DUP2 LT ISZERO PUSH2 0x424F JUMPI DUP2 SLOAD DUP2 DUP10 ADD MSTORE PUSH1 0x1 DUP3 ADD SWAP2 POP PUSH1 0x20 DUP2 ADD SWAP1 POP PUSH2 0x4230 JUMP JUMPDEST DUP4 DUP9 ADD SWAP6 POP POP POP JUMPDEST POP POP POP SWAP3 SWAP2 POP POP JUMP JUMPDEST PUSH1 0x0 PUSH2 0x426B DUP3 PUSH2 0x4980 JUMP JUMPDEST PUSH2 0x4275 DUP2 DUP6 PUSH2 0x49C5 JUMP JUMPDEST SWAP4 POP PUSH2 0x4285 DUP2 DUP6 PUSH1 0x20 DUP7 ADD PUSH2 0x4AFF JUMP JUMPDEST PUSH2 0x428E DUP2 PUSH2 0x4D11 JUMP JUMPDEST DUP5 ADD SWAP2 POP POP SWAP3 SWAP2 POP POP JUMP JUMPDEST PUSH1 0x0 PUSH2 0x42A4 DUP3 PUSH2 0x4980 JUMP JUMPDEST PUSH2 0x42AE DUP2 DUP6 PUSH2 0x49D6 JUMP JUMPDEST SWAP4 POP PUSH2 0x42BE DUP2 DUP6 PUSH1 0x20 DUP7 ADD PUSH2 0x4AFF JUMP JUMPDEST PUSH2 0x42C7 DUP2 PUSH2 0x4D11 JUMP JUMPDEST DUP5 ADD SWAP2 POP POP SWAP3 SWAP2 POP POP JUMP JUMPDEST PUSH1 0x0 PUSH2 0x42DD DUP3 PUSH2 0x4980 JUMP JUMPDEST PUSH2 0x42E7 DUP2 DUP6 PUSH2 0x49E7 JUMP JUMPDEST SWAP4 POP PUSH2 0x42F7 DUP2 DUP6 PUSH1 0x20 DUP7 ADD PUSH2 0x4AFF JUMP JUMPDEST DUP1 DUP5 ADD SWAP2 POP POP SWAP3 SWAP2 POP POP JUMP JUMPDEST PUSH1 0x0 PUSH2 0x4310 PUSH1 0x2D DUP4 PUSH2 0x49D6 JUMP JUMPDEST SWAP2 POP PUSH2 0x431B DUP3 PUSH2 0x4D22 JUMP JUMPDEST PUSH1 0x40 DUP3 ADD SWAP1 POP SWAP2 SWAP1 POP JUMP JUMPDEST PUSH1 0x0 PUSH2 0x4333 PUSH1 0x2B DUP4 PUSH2 0x49D6 JUMP JUMPDEST SWAP2 POP PUSH2 0x433E DUP3 PUSH2 0x4D71 JUMP JUMPDEST PUSH1 0x40 DUP3 ADD SWAP1 POP SWAP2 SWAP1 POP JUMP JUMPDEST PUSH1 0x0 PUSH2 0x4356 PUSH1 0x32 DUP4 PUSH2 0x49D6 JUMP JUMPDEST SWAP2 POP PUSH2 0x4361 DUP3 PUSH2 0x4DC0 JUMP JUMPDEST PUSH1 0x40 DUP3 ADD SWAP1 POP SWAP2 SWAP1 POP JUMP JUMPDEST PUSH1 0x0 PUSH2 0x4379 PUSH1 0x25 DUP4 PUSH2 0x49D6 JUMP JUMPDEST SWAP2 POP PUSH2 0x4384 DUP3 PUSH2 0x4E0F JUMP JUMPDEST PUSH1 0x40 DUP3 ADD SWAP1 POP SWAP2 SWAP1 POP JUMP JUMPDEST PUSH1 0x0 PUSH2 0x439C PUSH1 0x1C DUP4 PUSH2 0x49D6 JUMP JUMPDEST SWAP2 POP PUSH2 0x43A7 DUP3 PUSH2 0x4E5E JUMP JUMPDEST PUSH1 0x20 DUP3 ADD SWAP1 POP SWAP2 SWAP1 POP JUMP JUMPDEST PUSH1 0x0 PUSH2 0x43BF PUSH1 0x24 DUP4 PUSH2 0x49D6 JUMP JUMPDEST SWAP2 POP PUSH2 0x43CA DUP3 PUSH2 0x4E87 JUMP JUMPDEST PUSH1 0x40 DUP3 ADD SWAP1 POP SWAP2 SWAP1 POP JUMP JUMPDEST PUSH1 0x0 PUSH2 0x43E2 PUSH1 0x19 DUP4 PUSH2 0x49D6 JUMP JUMPDEST SWAP2 POP PUSH2 0x43ED DUP3 PUSH2 0x4ED6 JUMP JUMPDEST PUSH1 0x20 DUP3 ADD SWAP1 POP SWAP2 SWAP1 POP JUMP JUMPDEST PUSH1 0x0 PUSH2 0x4405 PUSH1 0x29 DUP4 PUSH2 0x49D6 JUMP JUMPDEST SWAP2 POP PUSH2 0x4410 DUP3 PUSH2 0x4EFF JUMP JUMPDEST PUSH1 0x40 DUP3 ADD SWAP1 POP SWAP2 SWAP1 POP JUMP JUMPDEST PUSH1 0x0 PUSH2 0x4428 PUSH1 0x20 DUP4 PUSH2 0x49D6 JUMP JUMPDEST SWAP2 POP PUSH2 0x4433 DUP3 PUSH2 0x4F4E JUMP JUMPDEST PUSH1 0x20 DUP3 ADD SWAP1 POP SWAP2 SWAP1 POP JUMP JUMPDEST PUSH1 0x0 PUSH2 0x444B PUSH1 0x18 DUP4 PUSH2 0x49D6 JUMP JUMPDEST SWAP2 POP PUSH2 0x4456 DUP3 PUSH2 0x4F77 JUMP JUMPDEST PUSH1 0x20 DUP3 ADD SWAP1 POP SWAP2 SWAP1 POP JUMP JUMPDEST PUSH1 0x0 PUSH2 0x446E PUSH1 0x21 DUP4 PUSH2 0x49D6 JUMP JUMPDEST SWAP2 POP PUSH2 0x4479 DUP3 PUSH2 0x4FA0 JUMP JUMPDEST PUSH1 0x40 DUP3 ADD SWAP1 POP SWAP2 SWAP1 POP JUMP JUMPDEST PUSH1 0x0 PUSH2 0x4491 PUSH1 0x3D DUP4 PUSH2 0x49D6 JUMP JUMPDEST SWAP2 POP PUSH2 0x449C DUP3 PUSH2 0x4FEF JUMP JUMPDEST PUSH1 0x40 DUP3 ADD SWAP1 POP SWAP2 SWAP1 POP JUMP JUMPDEST PUSH1 0x0 PUSH2 0x44B4 PUSH1 0x2C DUP4 PUSH2 0x49D6 JUMP JUMPDEST SWAP2 POP PUSH2 0x44BF DUP3 PUSH2 0x503E JUMP JUMPDEST PUSH1 0x40 DUP3 ADD SWAP1 POP SWAP2 SWAP1 POP JUMP JUMPDEST PUSH1 0x0 PUSH2 0x44D7 PUSH1 0x35 DUP4 PUSH2 0x49D6 JUMP JUMPDEST SWAP2 POP PUSH2 0x44E2 DUP3 PUSH2 0x508D JUMP JUMPDEST PUSH1 0x40 DUP3 ADD SWAP1 POP SWAP2 SWAP1 POP JUMP JUMPDEST PUSH2 0x44F6 DUP2 PUSH2 0x4AE6 JUMP JUMPDEST DUP3 MSTORE POP POP JUMP JUMPDEST PUSH1 0x0 PUSH2 0x4508 DUP3 DUP5 PUSH2 0x41E1 JUMP JUMPDEST SWAP2 POP DUP2 SWAP1 POP SWAP3 SWAP2 POP POP JUMP JUMPDEST PUSH1 0x0 PUSH2 0x451F DUP3 DUP6 PUSH2 0x42D2 JUMP JUMPDEST SWAP2 POP PUSH2 0x452B DUP3 DUP5 PUSH2 0x42D2 JUMP JUMPDEST SWAP2 POP DUP2 SWAP1 POP SWAP4 SWAP3 POP POP POP JUMP JUMPDEST PUSH1 0x0 PUSH1 0x20 DUP3 ADD SWAP1 POP PUSH2 0x454C PUSH1 0x0 DUP4 ADD DUP5 PUSH2 0x4115 JUMP JUMPDEST SWAP3 SWAP2 POP POP JUMP JUMPDEST PUSH1 0x0 PUSH1 0x80 DUP3 ADD SWAP1 POP PUSH2 0x4567 PUSH1 0x0 DUP4 ADD DUP8 PUSH2 0x4115 JUMP JUMPDEST PUSH2 0x4574 PUSH1 0x20 DUP4 ADD DUP7 PUSH2 0x4115 JUMP JUMPDEST PUSH2 0x4581 PUSH1 0x40 DUP4 ADD DUP6 PUSH2 0x44ED JUMP JUMPDEST DUP2 DUP2 SUB PUSH1 0x60 DUP4 ADD MSTORE PUSH2 0x4593 DUP2 DUP5 PUSH2 0x41A8 JUMP JUMPDEST SWAP1 POP SWAP6 SWAP5 POP POP POP POP POP JUMP JUMPDEST PUSH1 0x0 PUSH1 0x20 DUP3 ADD SWAP1 POP DUP2 DUP2 SUB PUSH1 0x0 DUP4 ADD MSTORE PUSH2 0x45B8 DUP2 DUP5 PUSH2 0x4124 JUMP JUMPDEST SWAP1 POP SWAP3 SWAP2 POP POP JUMP JUMPDEST PUSH1 0x0 PUSH1 0x20 DUP3 ADD SWAP1 POP PUSH2 0x45D5 PUSH1 0x0 DUP4 ADD DUP5 PUSH2 0x4199 JUMP JUMPDEST SWAP3 SWAP2 POP POP JUMP JUMPDEST PUSH1 0x0 PUSH1 0x20 DUP3 ADD SWAP1 POP DUP2 DUP2 SUB PUSH1 0x0 DUP4 ADD MSTORE PUSH2 0x45F5 DUP2 DUP5 PUSH2 0x4299 JUMP JUMPDEST SWAP1 POP SWAP3 SWAP2 POP POP JUMP JUMPDEST PUSH1 0x0 PUSH1 0x60 DUP3 ADD SWAP1 POP DUP2 DUP2 SUB PUSH1 0x0 DUP4 ADD MSTORE PUSH2 0x4617 DUP2 DUP7 PUSH2 0x4299 JUMP JUMPDEST SWAP1 POP DUP2 DUP2 SUB PUSH1 0x20 DUP4 ADD MSTORE PUSH2 0x462B DUP2 DUP6 PUSH2 0x4299 JUMP JUMPDEST SWAP1 POP DUP2 DUP2 SUB PUSH1 0x40 DUP4 ADD MSTORE PUSH2 0x463F DUP2 DUP5 PUSH2 0x4299 JUMP JUMPDEST SWAP1 POP SWAP5 SWAP4 POP POP POP POP JUMP JUMPDEST PUSH1 0x0 PUSH1 0x20 DUP3 ADD SWAP1 POP DUP2 DUP2 SUB PUSH1 0x0 DUP4 ADD MSTORE PUSH2 0x4662 DUP2 PUSH2 0x4303 JUMP JUMPDEST SWAP1 POP SWAP2 SWAP1 POP JUMP JUMPDEST PUSH1 0x0 PUSH1 0x20 DUP3 ADD SWAP1 POP DUP2 DUP2 SUB PUSH1 0x0 DUP4 ADD MSTORE PUSH2 0x4682 DUP2 PUSH2 0x4326 JUMP JUMPDEST SWAP1 POP SWAP2 SWAP1 POP JUMP JUMPDEST PUSH1 0x0 PUSH1 0x20 DUP3 ADD SWAP1 POP DUP2 DUP2 SUB PUSH1 0x0 DUP4 ADD MSTORE PUSH2 0x46A2 DUP2 PUSH2 0x4349 JUMP JUMPDEST SWAP1 POP SWAP2 SWAP1 POP JUMP JUMPDEST PUSH1 0x0 PUSH1 0x20 DUP3 ADD SWAP1 POP DUP2 DUP2 SUB PUSH1 0x0 DUP4 ADD MSTORE PUSH2 0x46C2 DUP2 PUSH2 0x436C JUMP JUMPDEST SWAP1 POP SWAP2 SWAP1 POP JUMP JUMPDEST PUSH1 0x0 PUSH1 0x20 DUP3 ADD SWAP1 POP DUP2 DUP2 SUB PUSH1 0x0 DUP4 ADD MSTORE PUSH2 0x46E2 DUP2 PUSH2 0x438F JUMP JUMPDEST SWAP1 POP SWAP2 SWAP1 POP JUMP JUMPDEST PUSH1 0x0 PUSH1 0x20 DUP3 ADD SWAP1 POP DUP2 DUP2 SUB PUSH1 0x0 DUP4 ADD MSTORE PUSH2 0x4702 DUP2 PUSH2 0x43B2 JUMP JUMPDEST SWAP1 POP SWAP2 SWAP1 POP JUMP JUMPDEST PUSH1 0x0 PUSH1 0x20 DUP3 ADD SWAP1 POP DUP2 DUP2 SUB PUSH1 0x0 DUP4 ADD MSTORE PUSH2 0x4722 DUP2 PUSH2 0x43D5 JUMP JUMPDEST SWAP1 POP SWAP2 SWAP1 POP JUMP JUMPDEST PUSH1 0x0 PUSH1 0x20 DUP3 ADD SWAP1 POP DUP2 DUP2 SUB PUSH1 0x0 DUP4 ADD MSTORE PUSH2 0x4742 DUP2 PUSH2 0x43F8 JUMP JUMPDEST SWAP1 POP SWAP2 SWAP1 POP JUMP JUMPDEST PUSH1 0x0 PUSH1 0x20 DUP3 ADD SWAP1 POP DUP2 DUP2 SUB PUSH1 0x0 DUP4 ADD MSTORE PUSH2 0x4762 DUP2 PUSH2 0x441B JUMP JUMPDEST SWAP1 POP SWAP2 SWAP1 POP JUMP JUMPDEST PUSH1 0x0 PUSH1 0x20 DUP3 ADD SWAP1 POP DUP2 DUP2 SUB PUSH1 0x0 DUP4 ADD MSTORE PUSH2 0x4782 DUP2 PUSH2 0x443E JUMP JUMPDEST SWAP1 POP SWAP2 SWAP1 POP JUMP JUMPDEST PUSH1 0x0 PUSH1 0x20 DUP3 ADD SWAP1 POP DUP2 DUP2 SUB PUSH1 0x0 DUP4 ADD MSTORE PUSH2 0x47A2 DUP2 PUSH2 0x4461 JUMP JUMPDEST SWAP1 POP SWAP2 SWAP1 POP JUMP JUMPDEST PUSH1 0x0 PUSH1 0x20 DUP3 ADD SWAP1 POP DUP2 DUP2 SUB PUSH1 0x0 DUP4 ADD MSTORE PUSH2 0x47C2 DUP2 PUSH2 0x4484 JUMP JUMPDEST SWAP1 POP SWAP2 SWAP1 POP JUMP JUMPDEST PUSH1 0x0 PUSH1 0x20 DUP3 ADD SWAP1 POP DUP2 DUP2 SUB PUSH1 0x0 DUP4 ADD MSTORE PUSH2 0x47E2 DUP2 PUSH2 0x44A7 JUMP JUMPDEST SWAP1 POP SWAP2 SWAP1 POP JUMP JUMPDEST PUSH1 0x0 PUSH1 0x20 DUP3 ADD SWAP1 POP DUP2 DUP2 SUB PUSH1 0x0 DUP4 ADD MSTORE PUSH2 0x4802 DUP2 PUSH2 0x44CA JUMP JUMPDEST SWAP1 POP SWAP2 SWAP1 POP JUMP JUMPDEST PUSH1 0x0 PUSH1 0x20 DUP3 ADD SWAP1 POP PUSH2 0x481E PUSH1 0x0 DUP4 ADD DUP5 PUSH2 0x44ED JUMP JUMPDEST SWAP3 SWAP2 POP POP JUMP JUMPDEST PUSH1 0x0 PUSH1 0x40 DUP3 ADD SWAP1 POP PUSH2 0x4839 PUSH1 0x0 DUP4 ADD DUP6 PUSH2 0x44ED JUMP JUMPDEST DUP2 DUP2 SUB PUSH1 0x20 DUP4 ADD MSTORE PUSH2 0x484B DUP2 DUP5 PUSH2 0x4299 JUMP JUMPDEST SWAP1 POP SWAP4 SWAP3 POP POP POP JUMP JUMPDEST PUSH1 0x0 PUSH1 0x60 DUP3 ADD SWAP1 POP PUSH2 0x4869 PUSH1 0x0 DUP4 ADD DUP7 PUSH2 0x44ED JUMP JUMPDEST PUSH2 0x4876 PUSH1 0x20 DUP4 ADD DUP6 PUSH2 0x44ED JUMP JUMPDEST DUP2 DUP2 SUB PUSH1 0x40 DUP4 ADD MSTORE PUSH2 0x4888 DUP2 DUP5 PUSH2 0x4299 JUMP JUMPDEST SWAP1 POP SWAP5 SWAP4 POP POP POP POP JUMP JUMPDEST PUSH1 0x0 PUSH2 0x489C PUSH2 0x48AD JUMP JUMPDEST SWAP1 POP PUSH2 0x48A8 DUP3 DUP3 PUSH2 0x4B64 JUMP JUMPDEST SWAP2 SWAP1 POP JUMP JUMPDEST PUSH1 0x0 PUSH1 0x40 MLOAD SWAP1 POP SWAP1 JUMP JUMPDEST PUSH1 0x0 PUSH8 0xFFFFFFFFFFFFFFFF DUP3 GT ISZERO PUSH2 0x48D2 JUMPI PUSH2 0x48D1 PUSH2 0x4CC9 JUMP JUMPDEST JUMPDEST PUSH1 0x20 DUP3 MUL SWAP1 POP PUSH1 0x20 DUP2 ADD SWAP1 POP SWAP2 SWAP1 POP JUMP JUMPDEST PUSH1 0x0 PUSH8 0xFFFFFFFFFFFFFFFF DUP3 GT ISZERO PUSH2 0x48FE JUMPI PUSH2 0x48FD PUSH2 0x4CC9 JUMP JUMPDEST JUMPDEST PUSH2 0x4907 DUP3 PUSH2 0x4D11 JUMP JUMPDEST SWAP1 POP PUSH1 0x20 DUP2 ADD SWAP1 POP SWAP2 SWAP1 POP JUMP JUMPDEST PUSH1 0x0 PUSH8 0xFFFFFFFFFFFFFFFF DUP3 GT ISZERO PUSH2 0x492F JUMPI PUSH2 0x492E PUSH2 0x4CC9 JUMP JUMPDEST JUMPDEST PUSH2 0x4938 DUP3 PUSH2 0x4D11 JUMP JUMPDEST SWAP1 POP PUSH1 0x20 DUP2 ADD SWAP1 POP SWAP2 SWAP1 POP JUMP JUMPDEST PUSH1 0x0 DUP2 SWAP1 POP PUSH1 0x20 DUP3 ADD SWAP1 POP SWAP2 SWAP1 POP JUMP JUMPDEST PUSH1 0x0 DUP2 SWAP1 POP DUP2 PUSH1 0x0 MSTORE PUSH1 0x20 PUSH1 0x0 KECCAK256 SWAP1 POP SWAP2 SWAP1 POP JUMP JUMPDEST PUSH1 0x0 DUP2 MLOAD SWAP1 POP SWAP2 SWAP1 POP JUMP JUMPDEST PUSH1 0x0 DUP2 MLOAD SWAP1 POP SWAP2 SWAP1 POP JUMP JUMPDEST PUSH1 0x0 DUP2 MLOAD SWAP1 POP SWAP2 SWAP1 POP JUMP JUMPDEST PUSH1 0x0 PUSH1 0x20 DUP3 ADD SWAP1 POP SWAP2 SWAP1 POP JUMP JUMPDEST PUSH1 0x0 DUP3 DUP3 MSTORE PUSH1 0x20 DUP3 ADD SWAP1 POP SWAP3 SWAP2 POP POP JUMP JUMPDEST PUSH1 0x0 DUP3 DUP3 MSTORE PUSH1 0x20 DUP3 ADD SWAP1 POP SWAP3 SWAP2 POP POP JUMP JUMPDEST PUSH1 0x0 DUP2 SWAP1 POP SWAP3 SWAP2 POP POP JUMP JUMPDEST PUSH1 0x0 DUP3 DUP3 MSTORE PUSH1 0x20 DUP3 ADD SWAP1 POP SWAP3 SWAP2 POP POP JUMP JUMPDEST PUSH1 0x0 DUP3 DUP3 MSTORE PUSH1 0x20 DUP3 ADD SWAP1 POP SWAP3 SWAP2 POP POP JUMP JUMPDEST PUSH1 0x0 DUP2 SWAP1 POP SWAP3 SWAP2 POP POP JUMP JUMPDEST PUSH1 0x0 PUSH2 0x49FD DUP3 PUSH2 0x4AE6 JUMP JUMPDEST SWAP2 POP PUSH2 0x4A08 DUP4 PUSH2 0x4AE6 JUMP JUMPDEST SWAP3 POP DUP3 PUSH32 0xFFFFFFFFFFFFFFFFFFFFFFFFFFFFFFFFFFFFFFFFFFFFFFFFFFFFFFFFFFFFFFFF SUB DUP3 GT ISZERO PUSH2 0x4A3D JUMPI PUSH2 0x4A3C PUSH2 0x4BDE JUMP JUMPDEST JUMPDEST DUP3 DUP3 ADD SWAP1 POP SWAP3 SWAP2 POP POP JUMP JUMPDEST PUSH1 0x0 PUSH2 0x4A53 DUP3 PUSH2 0x4AE6 JUMP JUMPDEST SWAP2 POP PUSH2 0x4A5E DUP4 PUSH2 0x4AE6 JUMP JUMPDEST SWAP3 POP DUP3 DUP3 LT ISZERO PUSH2 0x4A71 JUMPI PUSH2 0x4A70 PUSH2 0x4BDE JUMP JUMPDEST JUMPDEST DUP3 DUP3 SUB SWAP1 POP SWAP3 SWAP2 POP POP JUMP JUMPDEST PUSH1 0x0 PUSH2 0x4A87 DUP3 PUSH2 0x4AC6 JUMP JUMPDEST SWAP1 POP SWAP2 SWAP1 POP JUMP JUMPDEST PUSH1 0x0 DUP2 ISZERO ISZERO SWAP1 POP SWAP2 SWAP1 POP JUMP JUMPDEST PUSH1 0x0 PUSH32 0xFFFFFFFF00000000000000000000000000000000000000000000000000000000 DUP3 AND SWAP1 POP SWAP2 SWAP1 POP JUMP JUMPDEST PUSH1 0x0 PUSH20 0xFFFFFFFFFFFFFFFFFFFFFFFFFFFFFFFFFFFFFFFF DUP3 AND SWAP1 POP SWAP2 SWAP1 POP JUMP JUMPDEST PUSH1 0x0 DUP2 SWAP1 POP SWAP2 SWAP1 POP JUMP JUMPDEST DUP3 DUP2 DUP4 CALLDATACOPY PUSH1 0x0 DUP4 DUP4 ADD MSTORE POP POP POP JUMP JUMPDEST PUSH1 0x0 JUMPDEST DUP4 DUP2 LT ISZERO PUSH2 0x4B1D JUMPI DUP1 DUP3 ADD MLOAD DUP2 DUP5 ADD MSTORE PUSH1 0x20 DUP2 ADD SWAP1 POP PUSH2 0x4B02 JUMP JUMPDEST DUP4 DUP2 GT ISZERO PUSH2 0x4B2C JUMPI PUSH1 0x0 DUP5 DUP5 ADD MSTORE JUMPDEST POP POP POP POP JUMP JUMPDEST PUSH1 0x0 PUSH1 0x2 DUP3 DIV SWAP1 POP PUSH1 0x1 DUP3 AND DUP1 PUSH2 0x4B4A JUMPI PUSH1 0x7F DUP3 AND SWAP2 POP JUMPDEST PUSH1 0x20 DUP3 LT DUP2 EQ ISZERO PUSH2 0x4B5E JUMPI PUSH2 0x4B5D PUSH2 0x4C3C JUMP JUMPDEST JUMPDEST POP SWAP2 SWAP1 POP JUMP JUMPDEST PUSH2 0x4B6D DUP3 PUSH2 0x4D11 JUMP JUMPDEST DUP2 ADD DUP2 DUP2 LT PUSH8 0xFFFFFFFFFFFFFFFF DUP3 GT OR ISZERO PUSH2 0x4B8C JUMPI PUSH2 0x4B8B PUSH2 0x4CC9 JUMP JUMPDEST JUMPDEST DUP1 PUSH1 0x40 MSTORE POP POP POP JUMP JUMPDEST PUSH1 0x0 PUSH2 0x4BA0 DUP3 PUSH2 0x4AE6 JUMP JUMPDEST SWAP2 POP PUSH32 0xFFFFFFFFFFFFFFFFFFFFFFFFFFFFFFFFFFFFFFFFFFFFFFFFFFFFFFFFFFFFFFFF DUP3 EQ ISZERO PUSH2 0x4BD3 JUMPI PUSH2 0x4BD2 PUSH2 0x4BDE JUMP JUMPDEST JUMPDEST PUSH1 0x1 DUP3 ADD SWAP1 POP SWAP2 SWAP1 POP JUMP JUMPDEST PUSH32 0x4E487B7100000000000000000000000000000000000000000000000000000000 PUSH1 0x0 MSTORE PUSH1 0x11 PUSH1 0x4 MSTORE PUSH1 0x24 PUSH1 0x0 REVERT JUMPDEST PUSH32 0x4E487B7100000000000000000000000000000000000000000000000000000000 PUSH1 0x0 MSTORE PUSH1 0x12 PUSH1 0x4 MSTORE PUSH1 0x24 PUSH1 0x0 REVERT JUMPDEST PUSH32 0x4E487B7100000000000000000000000000000000000000000000000000000000 PUSH1 0x0 MSTORE PUSH1 0x22 PUSH1 0x4 MSTORE PUSH1 0x24 PUSH1 0x0 REVERT JUMPDEST PUSH32 0x4E487B7100000000000000000000000000000000000000000000000000000000 PUSH1 0x0 MSTORE PUSH1 0x31 PUSH1 0x4 MSTORE PUSH1 0x24 PUSH1 0x0 REVERT JUMPDEST PUSH32 0x4E487B7100000000000000000000000000000000000000000000000000000000 PUSH1 0x0 MSTORE PUSH1 0x32 PUSH1 0x4 MSTORE PUSH1 0x24 PUSH1 0x0 REVERT JUMPDEST PUSH32 0x4E487B7100000000000000000000000000000000000000000000000000000000 PUSH1 0x0 MSTORE PUSH1 0x41 PUSH1 0x4 MSTORE PUSH1 0x24 PUSH1 0x0 REVERT JUMPDEST PUSH1 0x0 DUP1 REVERT JUMPDEST PUSH1 0x0 DUP1 REVERT JUMPDEST PUSH1 0x0 DUP1 REVERT JUMPDEST PUSH1 0x0 DUP1 REVERT JUMPDEST PUSH1 0x0 DUP1 REVERT JUMPDEST PUSH1 0x0 PUSH1 0x1F NOT PUSH1 0x1F DUP4 ADD AND SWAP1 POP SWAP2 SWAP1 POP JUMP JUMPDEST PUSH32 0x4552433732313A2063616C6C6572206973206E6F7420746F6B656E206F776E65 PUSH1 0x0 DUP3 ADD MSTORE PUSH32 0x72206F7220617070726F76656400000000000000000000000000000000000000 PUSH1 0x20 DUP3 ADD MSTORE POP JUMP JUMPDEST PUSH32 0x455243373231456E756D657261626C653A206F776E657220696E646578206F75 PUSH1 0x0 DUP3 ADD MSTORE PUSH32 0x74206F6620626F756E6473000000000000000000000000000000000000000000 PUSH1 0x20 DUP3 ADD MSTORE POP JUMP JUMPDEST PUSH32 0x4552433732313A207472616E7366657220746F206E6F6E204552433732315265 PUSH1 0x0 DUP3 ADD MSTORE PUSH32 0x63656976657220696D706C656D656E7465720000000000000000000000000000 PUSH1 0x20 DUP3 ADD MSTORE POP JUMP JUMPDEST PUSH32 0x4552433732313A207472616E736665722066726F6D20696E636F727265637420 PUSH1 0x0 DUP3 ADD MSTORE PUSH32 0x6F776E6572000000000000000000000000000000000000000000000000000000 PUSH1 0x20 DUP3 ADD MSTORE POP JUMP JUMPDEST PUSH32 0x4552433732313A20746F6B656E20616C7265616479206D696E74656400000000 PUSH1 0x0 DUP3 ADD MSTORE POP JUMP JUMPDEST PUSH32 0x4552433732313A207472616E7366657220746F20746865207A65726F20616464 PUSH1 0x0 DUP3 ADD MSTORE PUSH32 0x7265737300000000000000000000000000000000000000000000000000000000 PUSH1 0x20 DUP3 ADD MSTORE POP JUMP JUMPDEST PUSH32 0x4552433732313A20617070726F766520746F2063616C6C657200000000000000 PUSH1 0x0 DUP3 ADD MSTORE POP JUMP JUMPDEST PUSH32 0x4552433732313A2061646472657373207A65726F206973206E6F742061207661 PUSH1 0x0 DUP3 ADD MSTORE PUSH32 0x6C6964206F776E65720000000000000000000000000000000000000000000000 PUSH1 0x20 DUP3 ADD MSTORE POP JUMP JUMPDEST PUSH32 0x4552433732313A206D696E7420746F20746865207A65726F2061646472657373 PUSH1 0x0 DUP3 ADD MSTORE POP JUMP JUMPDEST PUSH32 0x4552433732313A20696E76616C696420746F6B656E2049440000000000000000 PUSH1 0x0 DUP3 ADD MSTORE POP JUMP JUMPDEST PUSH32 0x4552433732313A20617070726F76616C20746F2063757272656E74206F776E65 PUSH1 0x0 DUP3 ADD MSTORE PUSH32 0x7200000000000000000000000000000000000000000000000000000000000000 PUSH1 0x20 DUP3 ADD MSTORE POP JUMP JUMPDEST PUSH32 0x4552433732313A20617070726F76652063616C6C6572206973206E6F7420746F PUSH1 0x0 DUP3 ADD MSTORE PUSH32 0x6B656E206F776E6572206F7220617070726F76656420666F7220616C6C000000 PUSH1 0x20 DUP3 ADD MSTORE POP JUMP JUMPDEST PUSH32 0x455243373231456E756D657261626C653A20676C6F62616C20696E646578206F PUSH1 0x0 DUP3 ADD MSTORE PUSH32 0x7574206F6620626F756E64730000000000000000000000000000000000000000 PUSH1 0x20 DUP3 ADD MSTORE POP JUMP JUMPDEST PUSH32 0x455243373231456E756D657261626C653A20636F6E7365637574697665207472 PUSH1 0x0 DUP3 ADD MSTORE PUSH32 0x616E7366657273206E6F7420737570706F727465640000000000000000000000 PUSH1 0x20 DUP3 ADD MSTORE POP JUMP JUMPDEST PUSH2 0x50E5 DUP2 PUSH2 0x4A7C JUMP JUMPDEST DUP2 EQ PUSH2 0x50F0 JUMPI PUSH1 0x0 DUP1 REVERT JUMPDEST POP JUMP JUMPDEST PUSH2 0x50FC DUP2 PUSH2 0x4A8E JUMP JUMPDEST DUP2 EQ PUSH2 0x5107 JUMPI PUSH1 0x0 DUP1 REVERT JUMPDEST POP JUMP JUMPDEST PUSH2 0x5113 DUP2 PUSH2 0x4A9A JUMP JUMPDEST DUP2 EQ PUSH2 0x511E JUMPI PUSH1 0x0 DUP1 REVERT JUMPDEST POP JUMP JUMPDEST PUSH2 0x512A DUP2 PUSH2 0x4AE6 JUMP JUMPDEST DUP2 EQ PUSH2 0x5135 JUMPI PUSH1 0x0 DUP1 REVERT JUMPDEST POP JUMP INVALID LOG2 PUSH5 0x6970667358 0x22 SLT KECCAK256 COINBASE POP 0xB7 SWAP6 0x23 MSTORE8 0xB3 SWAP11 DIV POP 0x28 0xC7 DELEGATECALL PUSH12 0x92C06E0B69E1057276FCDC9C 0xEB 0xA9 0x49 CALLDATACOPY 0xEB SWAP14 PUSH5 0x736F6C6343 STOP ADDMOD MOD STOP CALLER "},"gasEstimates":{"creation":{"codeDepositCost":"4169200","executionCost":"4793","totalCost":"4173993"},"external":{"_dao_uris(uint256)":"infinite","_ideas_uris(uint256)":"infinite","_smart_contracts_uris(uint256)":"infinite","all_goal_ideas_votes(uint256)":"infinite","approve(address,uint256)":"infinite","balanceOf(address)":"3012","create_dao(string,string)":"infinite","create_goal(string,uint256)":"infinite","create_goal_ideas_vote(uint256,uint256,string)":"infinite","create_ideas(string,uint256,string[])":"infinite","dao_uri(uint256)":"infinite","getApproved(uint256)":"5323","get_all_daos()":"infinite","get_all_goals()":"infinite","get_all_goals_by_dao_id(uint256)":"infinite","get_all_ideas()":"infinite","get_all_ideas_by_goal_id(uint256)":"infinite","get_goal_id_by_goal_uri(string)":"infinite","get_goal_id_from_ideas_uri(string)":"infinite","get_ideas_id_by_ideas_uri(string)":"infinite","get_ideas_votes_from_goal(uint256,uint256)":"infinite","goal_uri(uint256)":"infinite","ideas_uri(uint256)":"infinite","isApprovedForAll(address,address)":"infinite","name()":"infinite","ownerOf(uint256)":"3113","reset_all()":"28861","safeTransferFrom(address,address,uint256)":"infinite","safeTransferFrom(address,address,uint256,bytes)":"infinite","setApprovalForAll(address,bool)":"infinite","set_dao(uint256,string,string)":"infinite","set_goal(uint256,string)":"infinite","set_ideas(uint256,string)":"infinite","supportsInterface(bytes4)":"909","symbol()":"infinite","tokenByIndex(uint256)":"infinite","tokenOfOwnerByIndex(address,uint256)":"infinite","tokenURI(uint256)":"3445","totalSupply()":"2513","transferFrom(address,address,uint256)":"infinite"},"internal":{"create_ideas_smart_contract(uint256,uint256,string memory)":"infinite"}},"methodIdentifiers":{"_dao_uris(uint256)":"27a568b9","_ideas_uris(uint256)":"468d0c80","_smart_contracts_uris(uint256)":"ff4a37ef","all_goal_ideas_votes(uint256)":"1ba44c4c","approve(address,uint256)":"095ea7b3","balanceOf(address)":"70a08231","create_dao(string,string)":"c4c2e364","create_goal(string,uint256)":"71085cab","create_goal_ideas_vote(uint256,uint256,string)":"82fcc732","create_ideas(string,uint256,string[])":"e3280c96","dao_uri(uint256)":"5d907da1","getApproved(uint256)":"081812fc","get_all_daos()":"c04fe978","get_all_goals()":"29b56f60","get_all_goals_by_dao_id(uint256)":"109ac970","get_all_ideas()":"97ee7606","get_all_ideas_by_goal_id(uint256)":"131d44f2","get_goal_id_by_goal_uri(string)":"1e9ac9f5","get_goal_id_from_ideas_uri(string)":"aa4cdf2a","get_ideas_id_by_ideas_uri(string)":"a1ca9178","get_ideas_votes_from_goal(uint256,uint256)":"4be7adb5","goal_uri(uint256)":"e32acc1a","ideas_uri(uint256)":"8d3d2595","isApprovedForAll(address,address)":"e985e9c5","name()":"06fdde03","ownerOf(uint256)":"6352211e","reset_all()":"b16060a6","safeTransferFrom(address,address,uint256)":"42842e0e","safeTransferFrom(address,address,uint256,bytes)":"b88d4fde","setApprovalForAll(address,bool)":"a22cb465","set_dao(uint256,string,string)":"881de858","set_goal(uint256,string)":"c29595c5","set_ideas(uint256,string)":"c04e7430","supportsInterface(bytes4)":"01ffc9a7","symbol()":"95d89b41","tokenByIndex(uint256)":"4f6ccce7","tokenOfOwnerByIndex(address,uint256)":"2f745c59","tokenURI(uint256)":"c87b56dd","totalSupply()":"18160ddd","transferFrom(address,address,uint256)":"23b872dd"}},"storageLayout":{"storage":[{"astId":6,"contract":"contracts/GreenDAO.sol:GreenDAO","label":"_initialized","offset":0,"slot":"0","type":"t_uint8"},{"astId":9,"contract":"contracts/GreenDAO.sol:GreenDAO","label":"_initializing","offset":1,"slot":"0","type":"t_bool"},{"astId":2029,"contract":"contracts/GreenDAO.sol:GreenDAO","label":"__gap","offset":0,"slot":"1","type":"t_array(t_uint256)50_storage"},{"astId":2248,"contract":"contracts/GreenDAO.sol:GreenDAO","label":"__gap","offset":0,"slot":"51","type":"t_array(t_uint256)50_storage"},{"astId":197,"contract":"contracts/GreenDAO.sol:GreenDAO","label":"_name","offset":0,"slot":"101","type":"t_string_storage"},{"astId":199,"contract":"contracts/GreenDAO.sol:GreenDAO","label":"_symbol","offset":0,"slot":"102","type":"t_string_storage"},{"astId":203,"contract":"contracts/GreenDAO.sol:GreenDAO","label":"_owners","offset":0,"slot":"103","type":"t_mapping(t_uint256,t_address)"},{"astId":207,"contract":"contracts/GreenDAO.sol:GreenDAO","label":"_balances","offset":0,"slot":"104","type":"t_mapping(t_address,t_uint256)"},{"astId":211,"contract":"contracts/GreenDAO.sol:GreenDAO","label":"_tokenApprovals","offset":0,"slot":"105","type":"t_mapping(t_uint256,t_address)"},{"astId":217,"contract":"contracts/GreenDAO.sol:GreenDAO","label":"_operatorApprovals","offset":0,"slot":"106","type":"t_mapping(t_address,t_mapping(t_address,t_bool))"},{"astId":1137,"contract":"contracts/GreenDAO.sol:GreenDAO","label":"__gap","offset":0,"slot":"107","type":"t_array(t_uint256)44_storage"},{"astId":1302,"contract":"contracts/GreenDAO.sol:GreenDAO","label":"_ownedTokens","offset":0,"slot":"151","type":"t_mapping(t_address,t_mapping(t_uint256,t_uint256))"},{"astId":1306,"contract":"contracts/GreenDAO.sol:GreenDAO","label":"_ownedTokensIndex","offset":0,"slot":"152","type":"t_mapping(t_uint256,t_uint256)"},{"astId":1309,"contract":"contracts/GreenDAO.sol:GreenDAO","label":"_allTokens","offset":0,"slot":"153","type":"t_array(t_uint256)dyn_storage"},{"astId":1313,"contract":"contracts/GreenDAO.sol:GreenDAO","label":"_allTokensIndex","offset":0,"slot":"154","type":"t_mapping(t_uint256,t_uint256)"},{"astId":1645,"contract":"contracts/GreenDAO.sol:GreenDAO","label":"__gap","offset":0,"slot":"155","type":"t_array(t_uint256)46_storage"},{"astId":4206,"contract":"contracts/GreenDAO.sol:GreenDAO","label":"_dao_ids","offset":0,"slot":"201","type":"t_uint256"},{"astId":4208,"contract":"contracts/GreenDAO.sol:GreenDAO","label":"_goal_ids","offset":0,"slot":"202","type":"t_uint256"},{"astId":4210,"contract":"contracts/GreenDAO.sol:GreenDAO","label":"_ideas_ids","offset":0,"slot":"203","type":"t_uint256"},{"astId":4212,"contract":"contracts/GreenDAO.sol:GreenDAO","label":"_smart_contract_ids","offset":0,"slot":"204","type":"t_uint256"},{"astId":4214,"contract":"contracts/GreenDAO.sol:GreenDAO","label":"_ideas_vote_ids","offset":0,"slot":"205","type":"t_uint256"},{"astId":4219,"contract":"contracts/GreenDAO.sol:GreenDAO","label":"_dao_uris","offset":0,"slot":"206","type":"t_mapping(t_uint256,t_struct(dao_uri_struct)4180_storage)"},{"astId":4224,"contract":"contracts/GreenDAO.sol:GreenDAO","label":"_goal_uris","offset":0,"slot":"207","type":"t_mapping(t_uint256,t_struct(goal_uri_struct)4185_storage)"},{"astId":4229,"contract":"contracts/GreenDAO.sol:GreenDAO","label":"_ideas_uris","offset":0,"slot":"208","type":"t_mapping(t_uint256,t_struct(ideas_uri_struct)4190_storage)"},{"astId":4234,"contract":"contracts/GreenDAO.sol:GreenDAO","label":"_smart_contracts_uris","offset":0,"slot":"209","type":"t_mapping(t_uint256,t_struct(smart_contract_uri_struct)4197_storage)"},{"astId":4239,"contract":"contracts/GreenDAO.sol:GreenDAO","label":"all_goal_ideas_votes","offset":0,"slot":"210","type":"t_mapping(t_uint256,t_struct(goal_ideas_votes_struct)4204_storage)"}],"types":{"t_address":{"encoding":"inplace","label":"address","numberOfBytes":"20"},"t_array(t_uint256)44_storage":{"base":"t_uint256","encoding":"inplace","label":"uint256[44]","numberOfBytes":"1408"},"t_array(t_uint256)46_storage":{"base":"t_uint256","encoding":"inplace","label":"uint256[46]","numberOfBytes":"1472"},"t_array(t_uint256)50_storage":{"base":"t_uint256","encoding":"inplace","label":"uint256[50]","numberOfBytes":"1600"},"t_array(t_uint256)dyn_storage":{"base":"t_uint256","encoding":"dynamic_array","label":"uint256[]","numberOfBytes":"32"},"t_bool":{"encoding":"inplace","label":"bool","numberOfBytes":"1"},"t_mapping(t_address,t_bool)":{"encoding":"mapping","key":"t_address","label":"mapping(address => bool)","numberOfBytes":"32","value":"t_bool"},"t_mapping(t_address,t_mapping(t_address,t_bool))":{"encoding":"mapping","key":"t_address","label":"mapping(address => mapping(address => bool))","numberOfBytes":"32","value":"t_mapping(t_address,t_bool)"},"t_mapping(t_address,t_mapping(t_uint256,t_uint256))":{"encoding":"mapping","key":"t_address","label":"mapping(address => mapping(uint256 => uint256))","numberOfBytes":"32","value":"t_mapping(t_uint256,t_uint256)"},"t_mapping(t_address,t_uint256)":{"encoding":"mapping","key":"t_address","label":"mapping(address => uint256)","numberOfBytes":"32","value":"t_uint256"},"t_mapping(t_uint256,t_address)":{"encoding":"mapping","key":"t_uint256","label":"mapping(uint256 => address)","numberOfBytes":"32","value":"t_address"},"t_mapping(t_uint256,t_struct(dao_uri_struct)4180_storage)":{"encoding":"mapping","key":"t_uint256","label":"mapping(uint256 => struct GreenDAO.dao_uri_struct)","numberOfBytes":"32","value":"t_struct(dao_uri_struct)4180_storage"},"t_mapping(t_uint256,t_struct(goal_ideas_votes_struct)4204_storage)":{"encoding":"mapping","key":"t_uint256","label":"mapping(uint256 => struct GreenDAO.goal_ideas_votes_struct)","numberOfBytes":"32","value":"t_struct(goal_ideas_votes_struct)4204_storage"},"t_mapping(t_uint256,t_struct(goal_uri_struct)4185_storage)":{"encoding":"mapping","key":"t_uint256","label":"mapping(uint256 => struct GreenDAO.goal_uri_struct)","numberOfBytes":"32","value":"t_struct(goal_uri_struct)4185_storage"},"t_mapping(t_uint256,t_struct(ideas_uri_struct)4190_storage)":{"encoding":"mapping","key":"t_uint256","label":"mapping(uint256 => struct GreenDAO.ideas_uri_struct)","numberOfBytes":"32","value":"t_struct(ideas_uri_struct)4190_storage"},"t_mapping(t_uint256,t_struct(smart_contract_uri_struct)4197_storage)":{"encoding":"mapping","key":"t_uint256","label":"mapping(uint256 => struct GreenDAO.smart_contract_uri_struct)","numberOfBytes":"32","value":"t_struct(smart_contract_uri_struct)4197_storage"},"t_mapping(t_uint256,t_uint256)":{"encoding":"mapping","key":"t_uint256","label":"mapping(uint256 => uint256)","numberOfBytes":"32","value":"t_uint256"},"t_string_storage":{"encoding":"bytes","label":"string","numberOfBytes":"32"},"t_struct(dao_uri_struct)4180_storage":{"encoding":"inplace","label":"struct GreenDAO.dao_uri_struct","members":[{"astId":4175,"contract":"contracts/GreenDAO.sol:GreenDAO","label":"dao_wallet","offset":0,"slot":"0","type":"t_string_storage"},{"astId":4177,"contract":"contracts/GreenDAO.sol:GreenDAO","label":"dao_uri","offset":0,"slot":"1","type":"t_string_storage"},{"astId":4179,"contract":"contracts/GreenDAO.sol:GreenDAO","label":"finished","offset":0,"slot":"2","type":"t_string_storage"}],"numberOfBytes":"96"},"t_struct(goal_ideas_votes_struct)4204_storage":{"encoding":"inplace","label":"struct GreenDAO.goal_ideas_votes_struct","members":[{"astId":4199,"contract":"contracts/GreenDAO.sol:GreenDAO","label":"goal_id","offset":0,"slot":"0","type":"t_uint256"},{"astId":4201,"contract":"contracts/GreenDAO.sol:GreenDAO","label":"ideas_id","offset":0,"slot":"1","type":"t_uint256"},{"astId":4203,"contract":"contracts/GreenDAO.sol:GreenDAO","label":"wallet","offset":0,"slot":"2","type":"t_string_storage"}],"numberOfBytes":"96"},"t_struct(goal_uri_struct)4185_storage":{"encoding":"inplace","label":"struct GreenDAO.goal_uri_struct","members":[{"astId":4182,"contract":"contracts/GreenDAO.sol:GreenDAO","label":"dao_id","offset":0,"slot":"0","type":"t_uint256"},{"astId":4184,"contract":"contracts/GreenDAO.sol:GreenDAO","label":"goal_uri","offset":0,"slot":"1","type":"t_string_storage"}],"numberOfBytes":"64"},"t_struct(ideas_uri_struct)4190_storage":{"encoding":"inplace","label":"struct GreenDAO.ideas_uri_struct","members":[{"astId":4187,"contract":"contracts/GreenDAO.sol:GreenDAO","label":"goal_id","offset":0,"slot":"0","type":"t_uint256"},{"astId":4189,"contract":"contracts/GreenDAO.sol:GreenDAO","label":"ideas_uri","offset":0,"slot":"1","type":"t_string_storage"}],"numberOfBytes":"64"},"t_struct(smart_contract_uri_struct)4197_storage":{"encoding":"inplace","label":"struct GreenDAO.smart_contract_uri_struct","members":[{"astId":4192,"contract":"contracts/GreenDAO.sol:GreenDAO","label":"smart_contract_id","offset":0,"slot":"0","type":"t_uint256"},{"astId":4194,"contract":"contracts/GreenDAO.sol:GreenDAO","label":"ideas_id","offset":0,"slot":"1","type":"t_uint256"},{"astId":4196,"contract":"contracts/GreenDAO.sol:GreenDAO","label":"smart_contract_uri","offset":0,"slot":"2","type":"t_string_storage"}],"numberOfBytes":"96"},"t_uint256":{"encoding":"inplace","label":"uint256","numberOfBytes":"32"},"t_uint8":{"encoding":"inplace","label":"uint8","numberOfBytes":"1"}}},"userdoc":{"kind":"user","methods":{},"version":1}}}}