{"contracts/Messenger.sol":{"Messenger":{"abi":[{"inputs":[{"internalType":"address","name":"core_bridge_address","type":"address"}],"stateMutability":"nonpayable","type":"constructor"},{"inputs":[{"internalType":"uint256","name":"ideas_id","type":"uint256"}],"name":"getCurrentMsges","outputs":[{"internalType":"string","name":"","type":"string"}],"stateMutability":"view","type":"function"},{"inputs":[{"internalType":"bytes","name":"encodedMsg","type":"bytes"}],"name":"receiveEncodedMsg","outputs":[],"stateMutability":"nonpayable","type":"function"},{"inputs":[{"internalType":"uint256","name":"ideas_id","type":"uint256"},{"internalType":"string","name":"messages","type":"string"}],"name":"sendMsg","outputs":[{"internalType":"uint64","name":"sequence","type":"uint64"}],"stateMutability":"nonpayable","type":"function"},{"inputs":[{"internalType":"uint256","name":"ideas_id","type":"uint256"},{"internalType":"string","name":"messages","type":"string"}],"name":"sendMsgLOCAL","outputs":[{"internalType":"uint256","name":"","type":"uint256"}],"stateMutability":"nonpayable","type":"function"}],"devdoc":{"kind":"dev","methods":{},"version":1},"evm":{"bytecode":{"linkReferences":{},"object":"608060405260008060146101000a81548163ffffffff021916908363ffffffff1602179055503480156200003257600080fd5b5060405162001252380380620012528339818101604052810190620000589190620000b6565b806000806101000a81548173ffffffffffffffffffffffffffffffffffffffff021916908373ffffffffffffffffffffffffffffffffffffffff160217905550506200013b565b600081519050620000b08162000121565b92915050565b600060208284031215620000cf57620000ce6200011c565b5b6000620000df848285016200009f565b91505092915050565b6000620000f582620000fc565b9050919050565b600073ffffffffffffffffffffffffffffffffffffffff82169050919050565b600080fd5b6200012c81620000e8565b81146200013857600080fd5b50565b611107806200014b6000396000f3fe608060405234801561001057600080fd5b506004361061004c5760003560e01c80632d5bf5b014610051578063496d76ff146100815780639981bcde1461009d578063a1b9162b146100cd575b600080fd5b61006b60048036038101906100669190610ab9565b6100fd565b6040516100789190610d19565b60405180910390f35b61009b600480360381019061009691906109b8565b61022e565b005b6100b760048036038101906100b29190610ab9565b61037b565b6040516100c49190610c90565b60405180910390f35b6100e760048036038101906100e29190610a8c565b6103ae565b6040516100f49190610c6e565b60405180910390f35b6000808383604051602001610113929190610cab565b604051602081830303815290604052905060008054906101000a900473ffffffffffffffffffffffffffffffffffffffff1673ffffffffffffffffffffffffffffffffffffffff1663b19a437e600060149054906101000a900463ffffffff168360016040518463ffffffff1660e01b815260040161019493929190610cdb565b602060405180830381600087803b1580156101ae57600080fd5b505af11580156101c2573d6000803e3d6000fd5b505050506040513d601f19601f820116820180604052508101906101e69190610b71565b91506001600060149054906101000a900463ffffffff166102079190610e1f565b600060146101000a81548163ffffffff021916908363ffffffff1602179055505092915050565b60008060008060009054906101000a900473ffffffffffffffffffffffffffffffffffffffff1673ffffffffffffffffffffffffffffffffffffffff1663c0fd8bde856040518263ffffffff1660e01b815260040161028d9190610c4c565b60006040518083038186803b1580156102a557600080fd5b505afa1580156102b9573d6000803e3d6000fd5b505050506040513d6000823e3d601f19601f820116820180604052508101906102e29190610a01565b92509250925081819061032b576040517f08c379a00000000000000000000000000000000000000000000000000000000081526004016103229190610c6e565b60405180910390fd5b506000808460e001518060200190518101906103479190610b15565b9150915080600160008481526020019081526020016000209080519060200190610372929190610453565b50505050505050565b6000816001600085815260200190815260200160002090805190602001906103a4929190610453565b5082905092915050565b60606001600083815260200190815260200160002080546103ce90610f0c565b80601f01602080910402602001604051908101604052809291908181526020018280546103fa90610f0c565b80156104475780601f1061041c57610100808354040283529160200191610447565b820191906000526020600020905b81548152906001019060200180831161042a57829003601f168201915b50505050509050919050565b82805461045f90610f0c565b90600052602060002090601f01602090048101928261048157600085556104c8565b82601f1061049a57805160ff19168380011785556104c8565b828001600101855582156104c8579182015b828111156104c75782518255916020019190600101906104ac565b5b5090506104d591906104d9565b5090565b5b808211156104f25760008160009055506001016104da565b5090565b600061050961050484610d59565b610d34565b9050808382526020820190508285608086028201111561052c5761052b61100b565b5b60005b8581101561055c5781610542888261077e565b84526020840193506080830192505060018101905061052f565b5050509392505050565b600061057961057484610d85565b610d34565b90508281526020810184848401111561059557610594611010565b5b6105a0848285610eca565b509392505050565b60006105bb6105b684610d85565b610d34565b9050828152602081018484840111156105d7576105d6611010565b5b6105e2848285610ed9565b509392505050565b60006105fd6105f884610db6565b610d34565b90508281526020810184848401111561061957610618611010565b5b610624848285610eca565b509392505050565b600061063f61063a84610db6565b610d34565b90508281526020810184848401111561065b5761065a611010565b5b610666848285610ed9565b509392505050565b600082601f83011261068357610682610ffc565b5b81516106938482602086016104f6565b91505092915050565b6000815190506106ab81611030565b92915050565b6000815190506106c081611047565b92915050565b600082601f8301126106db576106da610ffc565b5b81356106eb848260208601610566565b91505092915050565b600082601f83011261070957610708610ffc565b5b81516107198482602086016105a8565b91505092915050565b600082601f83011261073757610736610ffc565b5b81356107478482602086016105ea565b91505092915050565b600082601f83011261076557610764610ffc565b5b815161077584826020860161062c565b91505092915050565b60006080828403121561079457610793611001565b5b61079e6080610d34565b905060006107ae848285016106b1565b60008301525060206107c2848285016106b1565b60208301525060406107d6848285016109a3565b60408301525060606107ea848285016109a3565b60608301525092915050565b6000610160828403121561080d5761080c611001565b5b610818610160610d34565b90506000610828848285016109a3565b600083015250602061083c84828501610979565b602083015250604061085084828501610979565b60408301525060606108648482850161093a565b6060830152506080610878848285016106b1565b60808301525060a061088c8482850161098e565b60a08301525060c06108a0848285016109a3565b60c08301525060e082015167ffffffffffffffff8111156108c4576108c3611006565b5b6108d0848285016106f4565b60e0830152506101006108e584828501610979565b6101008301525061012082015167ffffffffffffffff81111561090b5761090a611006565b5b6109178482850161066e565b6101208301525061014061092d848285016106b1565b6101408301525092915050565b6000815190506109498161105e565b92915050565b60008135905061095e81611075565b92915050565b60008151905061097381611075565b92915050565b6000815190506109888161108c565b92915050565b60008151905061099d816110a3565b92915050565b6000815190506109b2816110ba565b92915050565b6000602082840312156109ce576109cd61101a565b5b600082013567ffffffffffffffff8111156109ec576109eb611015565b5b6109f8848285016106c6565b91505092915050565b600080600060608486031215610a1a57610a1961101a565b5b600084015167ffffffffffffffff811115610a3857610a37611015565b5b610a44868287016107f6565b9350506020610a558682870161069c565b925050604084015167ffffffffffffffff811115610a7657610a75611015565b5b610a8286828701610750565b9150509250925092565b600060208284031215610aa257610aa161101a565b5b6000610ab08482850161094f565b91505092915050565b60008060408385031215610ad057610acf61101a565b5b6000610ade8582860161094f565b925050602083013567ffffffffffffffff811115610aff57610afe611015565b5b610b0b85828601610722565b9150509250929050565b60008060408385031215610b2c57610b2b61101a565b5b6000610b3a85828601610964565b925050602083015167ffffffffffffffff811115610b5b57610b5a611015565b5b610b6785828601610750565b9150509250929050565b600060208284031215610b8757610b8661101a565b5b6000610b958482850161098e565b91505092915050565b6000610ba982610de7565b610bb38185610dfd565b9350610bc3818560208601610ed9565b610bcc8161101f565b840191505092915050565b610be081610eb8565b82525050565b6000610bf182610df2565b610bfb8185610e0e565b9350610c0b818560208601610ed9565b610c148161101f565b840191505092915050565b610c2881610e7d565b82525050565b610c3781610e87565b82525050565b610c4681610e97565b82525050565b60006020820190508181036000830152610c668184610b9e565b905092915050565b60006020820190508181036000830152610c888184610be6565b905092915050565b6000602082019050610ca56000830184610c1f565b92915050565b6000604082019050610cc06000830185610c1f565b8181036020830152610cd28184610be6565b90509392505050565b6000606082019050610cf06000830186610c2e565b8181036020830152610d028185610b9e565b9050610d116040830184610bd7565b949350505050565b6000602082019050610d2e6000830184610c3d565b92915050565b6000610d3e610d4f565b9050610d4a8282610f3e565b919050565b6000604051905090565b600067ffffffffffffffff821115610d7457610d73610fcd565b5b602082029050602081019050919050565b600067ffffffffffffffff821115610da057610d9f610fcd565b5b610da98261101f565b9050602081019050919050565b600067ffffffffffffffff821115610dd157610dd0610fcd565b5b610dda8261101f565b9050602081019050919050565b600081519050919050565b600081519050919050565b600082825260208201905092915050565b600082825260208201905092915050565b6000610e2a82610e87565b9150610e3583610e87565b92508263ffffffff03821115610e4e57610e4d610f6f565b5b828201905092915050565b60008115159050919050565b6000819050919050565b600061ffff82169050919050565b6000819050919050565b600063ffffffff82169050919050565b600067ffffffffffffffff82169050919050565b600060ff82169050919050565b6000610ec382610eab565b9050919050565b82818337600083830152505050565b60005b83811015610ef7578082015181840152602081019050610edc565b83811115610f06576000848401525b50505050565b60006002820490506001821680610f2457607f821691505b60208210811415610f3857610f37610f9e565b5b50919050565b610f478261101f565b810181811067ffffffffffffffff82111715610f6657610f65610fcd565b5b80604052505050565b7f4e487b7100000000000000000000000000000000000000000000000000000000600052601160045260246000fd5b7f4e487b7100000000000000000000000000000000000000000000000000000000600052602260045260246000fd5b7f4e487b7100000000000000000000000000000000000000000000000000000000600052604160045260246000fd5b600080fd5b600080fd5b600080fd5b600080fd5b600080fd5b600080fd5b600080fd5b6000601f19601f8301169050919050565b61103981610e59565b811461104457600080fd5b50565b61105081610e65565b811461105b57600080fd5b50565b61106781610e6f565b811461107257600080fd5b50565b61107e81610e7d565b811461108957600080fd5b50565b61109581610e87565b81146110a057600080fd5b50565b6110ac81610e97565b81146110b757600080fd5b50565b6110c381610eab565b81146110ce57600080fd5b5056fea26469706673582212205d140d41a7cbe2fa6c63e1d1ac8bee7694f769b5155aec51f8eaf612155e4ea064736f6c63430008060033","opcodes":"PUSH1 0x80 PUSH1 0x40 MSTORE PUSH1 0x0 DUP1 PUSH1 0x14 PUSH2 0x100 EXP DUP2 SLOAD DUP2 PUSH4 0xFFFFFFFF MUL NOT AND SWAP1 DUP4 PUSH4 0xFFFFFFFF AND MUL OR SWAP1 SSTORE POP CALLVALUE DUP1 ISZERO PUSH3 0x32 JUMPI PUSH1 0x0 DUP1 REVERT JUMPDEST POP PUSH1 0x40 MLOAD PUSH3 0x1252 CODESIZE SUB DUP1 PUSH3 0x1252 DUP4 CODECOPY DUP2 DUP2 ADD PUSH1 0x40 MSTORE DUP2 ADD SWAP1 PUSH3 0x58 SWAP2 SWAP1 PUSH3 0xB6 JUMP JUMPDEST DUP1 PUSH1 0x0 DUP1 PUSH2 0x100 EXP DUP2 SLOAD DUP2 PUSH20 0xFFFFFFFFFFFFFFFFFFFFFFFFFFFFFFFFFFFFFFFF MUL NOT AND SWAP1 DUP4 PUSH20 0xFFFFFFFFFFFFFFFFFFFFFFFFFFFFFFFFFFFFFFFF AND MUL OR SWAP1 SSTORE POP POP PUSH3 0x13B JUMP JUMPDEST PUSH1 0x0 DUP2 MLOAD SWAP1 POP PUSH3 0xB0 DUP2 PUSH3 0x121 JUMP JUMPDEST SWAP3 SWAP2 POP POP JUMP JUMPDEST PUSH1 0x0 PUSH1 0x20 DUP3 DUP5 SUB SLT ISZERO PUSH3 0xCF JUMPI PUSH3 0xCE PUSH3 0x11C JUMP JUMPDEST JUMPDEST PUSH1 0x0 PUSH3 0xDF DUP5 DUP3 DUP6 ADD PUSH3 0x9F JUMP JUMPDEST SWAP2 POP POP SWAP3 SWAP2 POP POP JUMP JUMPDEST PUSH1 0x0 PUSH3 0xF5 DUP3 PUSH3 0xFC JUMP JUMPDEST SWAP1 POP SWAP2 SWAP1 POP JUMP JUMPDEST PUSH1 0x0 PUSH20 0xFFFFFFFFFFFFFFFFFFFFFFFFFFFFFFFFFFFFFFFF DUP3 AND SWAP1 POP SWAP2 SWAP1 POP JUMP JUMPDEST PUSH1 0x0 DUP1 REVERT JUMPDEST PUSH3 0x12C DUP2 PUSH3 0xE8 JUMP JUMPDEST DUP2 EQ PUSH3 0x138 JUMPI PUSH1 0x0 DUP1 REVERT JUMPDEST POP JUMP JUMPDEST PUSH2 0x1107 DUP1 PUSH3 0x14B PUSH1 0x0 CODECOPY PUSH1 0x0 RETURN INVALID PUSH1 0x80 PUSH1 0x40 MSTORE CALLVALUE DUP1 ISZERO PUSH2 0x10 JUMPI PUSH1 0x0 DUP1 REVERT JUMPDEST POP PUSH1 0x4 CALLDATASIZE LT PUSH2 0x4C JUMPI PUSH1 0x0 CALLDATALOAD PUSH1 0xE0 SHR DUP1 PUSH4 0x2D5BF5B0 EQ PUSH2 0x51 JUMPI DUP1 PUSH4 0x496D76FF EQ PUSH2 0x81 JUMPI DUP1 PUSH4 0x9981BCDE EQ PUSH2 0x9D JUMPI DUP1 PUSH4 0xA1B9162B EQ PUSH2 0xCD JUMPI JUMPDEST PUSH1 0x0 DUP1 REVERT JUMPDEST PUSH2 0x6B PUSH1 0x4 DUP1 CALLDATASIZE SUB DUP2 ADD SWAP1 PUSH2 0x66 SWAP2 SWAP1 PUSH2 0xAB9 JUMP JUMPDEST PUSH2 0xFD JUMP JUMPDEST PUSH1 0x40 MLOAD PUSH2 0x78 SWAP2 SWAP1 PUSH2 0xD19 JUMP JUMPDEST PUSH1 0x40 MLOAD DUP1 SWAP2 SUB SWAP1 RETURN JUMPDEST PUSH2 0x9B PUSH1 0x4 DUP1 CALLDATASIZE SUB DUP2 ADD SWAP1 PUSH2 0x96 SWAP2 SWAP1 PUSH2 0x9B8 JUMP JUMPDEST PUSH2 0x22E JUMP JUMPDEST STOP JUMPDEST PUSH2 0xB7 PUSH1 0x4 DUP1 CALLDATASIZE SUB DUP2 ADD SWAP1 PUSH2 0xB2 SWAP2 SWAP1 PUSH2 0xAB9 JUMP JUMPDEST PUSH2 0x37B JUMP JUMPDEST PUSH1 0x40 MLOAD PUSH2 0xC4 SWAP2 SWAP1 PUSH2 0xC90 JUMP JUMPDEST PUSH1 0x40 MLOAD DUP1 SWAP2 SUB SWAP1 RETURN JUMPDEST PUSH2 0xE7 PUSH1 0x4 DUP1 CALLDATASIZE SUB DUP2 ADD SWAP1 PUSH2 0xE2 SWAP2 SWAP1 PUSH2 0xA8C JUMP JUMPDEST PUSH2 0x3AE JUMP JUMPDEST PUSH1 0x40 MLOAD PUSH2 0xF4 SWAP2 SWAP1 PUSH2 0xC6E JUMP JUMPDEST PUSH1 0x40 MLOAD DUP1 SWAP2 SUB SWAP1 RETURN JUMPDEST PUSH1 0x0 DUP1 DUP4 DUP4 PUSH1 0x40 MLOAD PUSH1 0x20 ADD PUSH2 0x113 SWAP3 SWAP2 SWAP1 PUSH2 0xCAB JUMP JUMPDEST PUSH1 0x40 MLOAD PUSH1 0x20 DUP2 DUP4 SUB SUB DUP2 MSTORE SWAP1 PUSH1 0x40 MSTORE SWAP1 POP PUSH1 0x0 DUP1 SLOAD SWAP1 PUSH2 0x100 EXP SWAP1 DIV PUSH20 0xFFFFFFFFFFFFFFFFFFFFFFFFFFFFFFFFFFFFFFFF AND PUSH20 0xFFFFFFFFFFFFFFFFFFFFFFFFFFFFFFFFFFFFFFFF AND PUSH4 0xB19A437E PUSH1 0x0 PUSH1 0x14 SWAP1 SLOAD SWAP1 PUSH2 0x100 EXP SWAP1 DIV PUSH4 0xFFFFFFFF AND DUP4 PUSH1 0x1 PUSH1 0x40 MLOAD DUP5 PUSH4 0xFFFFFFFF AND PUSH1 0xE0 SHL DUP2 MSTORE PUSH1 0x4 ADD PUSH2 0x194 SWAP4 SWAP3 SWAP2 SWAP1 PUSH2 0xCDB JUMP JUMPDEST PUSH1 0x20 PUSH1 0x40 MLOAD DUP1 DUP4 SUB DUP2 PUSH1 0x0 DUP8 DUP1 EXTCODESIZE ISZERO DUP1 ISZERO PUSH2 0x1AE JUMPI PUSH1 0x0 DUP1 REVERT JUMPDEST POP GAS CALL ISZERO DUP1 ISZERO PUSH2 0x1C2 JUMPI RETURNDATASIZE PUSH1 0x0 DUP1 RETURNDATACOPY RETURNDATASIZE PUSH1 0x0 REVERT JUMPDEST POP POP POP POP PUSH1 0x40 MLOAD RETURNDATASIZE PUSH1 0x1F NOT PUSH1 0x1F DUP3 ADD AND DUP3 ADD DUP1 PUSH1 0x40 MSTORE POP DUP2 ADD SWAP1 PUSH2 0x1E6 SWAP2 SWAP1 PUSH2 0xB71 JUMP JUMPDEST SWAP2 POP PUSH1 0x1 PUSH1 0x0 PUSH1 0x14 SWAP1 SLOAD SWAP1 PUSH2 0x100 EXP SWAP1 DIV PUSH4 0xFFFFFFFF AND PUSH2 0x207 SWAP2 SWAP1 PUSH2 0xE1F JUMP JUMPDEST PUSH1 0x0 PUSH1 0x14 PUSH2 0x100 EXP DUP2 SLOAD DUP2 PUSH4 0xFFFFFFFF MUL NOT AND SWAP1 DUP4 PUSH4 0xFFFFFFFF AND MUL OR SWAP1 SSTORE POP POP SWAP3 SWAP2 POP POP JUMP JUMPDEST PUSH1 0x0 DUP1 PUSH1 0x0 DUP1 PUSH1 0x0 SWAP1 SLOAD SWAP1 PUSH2 0x100 EXP SWAP1 DIV PUSH20 0xFFFFFFFFFFFFFFFFFFFFFFFFFFFFFFFFFFFFFFFF AND PUSH20 0xFFFFFFFFFFFFFFFFFFFFFFFFFFFFFFFFFFFFFFFF AND PUSH4 0xC0FD8BDE DUP6 PUSH1 0x40 MLOAD DUP3 PUSH4 0xFFFFFFFF AND PUSH1 0xE0 SHL DUP2 MSTORE PUSH1 0x4 ADD PUSH2 0x28D SWAP2 SWAP1 PUSH2 0xC4C JUMP JUMPDEST PUSH1 0x0 PUSH1 0x40 MLOAD DUP1 DUP4 SUB DUP2 DUP7 DUP1 EXTCODESIZE ISZERO DUP1 ISZERO PUSH2 0x2A5 JUMPI PUSH1 0x0 DUP1 REVERT JUMPDEST POP GAS STATICCALL ISZERO DUP1 ISZERO PUSH2 0x2B9 JUMPI RETURNDATASIZE PUSH1 0x0 DUP1 RETURNDATACOPY RETURNDATASIZE PUSH1 0x0 REVERT JUMPDEST POP POP POP POP PUSH1 0x40 MLOAD RETURNDATASIZE PUSH1 0x0 DUP3 RETURNDATACOPY RETURNDATASIZE PUSH1 0x1F NOT PUSH1 0x1F DUP3 ADD AND DUP3 ADD DUP1 PUSH1 0x40 MSTORE POP DUP2 ADD SWAP1 PUSH2 0x2E2 SWAP2 SWAP1 PUSH2 0xA01 JUMP JUMPDEST SWAP3 POP SWAP3 POP SWAP3 POP DUP2 DUP2 SWAP1 PUSH2 0x32B JUMPI PUSH1 0x40 MLOAD PUSH32 0x8C379A000000000000000000000000000000000000000000000000000000000 DUP2 MSTORE PUSH1 0x4 ADD PUSH2 0x322 SWAP2 SWAP1 PUSH2 0xC6E JUMP JUMPDEST PUSH1 0x40 MLOAD DUP1 SWAP2 SUB SWAP1 REVERT JUMPDEST POP PUSH1 0x0 DUP1 DUP5 PUSH1 0xE0 ADD MLOAD DUP1 PUSH1 0x20 ADD SWAP1 MLOAD DUP2 ADD SWAP1 PUSH2 0x347 SWAP2 SWAP1 PUSH2 0xB15 JUMP JUMPDEST SWAP2 POP SWAP2 POP DUP1 PUSH1 0x1 PUSH1 0x0 DUP5 DUP2 MSTORE PUSH1 0x20 ADD SWAP1 DUP2 MSTORE PUSH1 0x20 ADD PUSH1 0x0 KECCAK256 SWAP1 DUP1 MLOAD SWAP1 PUSH1 0x20 ADD SWAP1 PUSH2 0x372 SWAP3 SWAP2 SWAP1 PUSH2 0x453 JUMP JUMPDEST POP POP POP POP POP POP POP JUMP JUMPDEST PUSH1 0x0 DUP2 PUSH1 0x1 PUSH1 0x0 DUP6 DUP2 MSTORE PUSH1 0x20 ADD SWAP1 DUP2 MSTORE PUSH1 0x20 ADD PUSH1 0x0 KECCAK256 SWAP1 DUP1 MLOAD SWAP1 PUSH1 0x20 ADD SWAP1 PUSH2 0x3A4 SWAP3 SWAP2 SWAP1 PUSH2 0x453 JUMP JUMPDEST POP DUP3 SWAP1 POP SWAP3 SWAP2 POP POP JUMP JUMPDEST PUSH1 0x60 PUSH1 0x1 PUSH1 0x0 DUP4 DUP2 MSTORE PUSH1 0x20 ADD SWAP1 DUP2 MSTORE PUSH1 0x20 ADD PUSH1 0x0 KECCAK256 DUP1 SLOAD PUSH2 0x3CE SWAP1 PUSH2 0xF0C JUMP JUMPDEST DUP1 PUSH1 0x1F ADD PUSH1 0x20 DUP1 SWAP2 DIV MUL PUSH1 0x20 ADD PUSH1 0x40 MLOAD SWAP1 DUP2 ADD PUSH1 0x40 MSTORE DUP1 SWAP3 SWAP2 SWAP1 DUP2 DUP2 MSTORE PUSH1 0x20 ADD DUP3 DUP1 SLOAD PUSH2 0x3FA SWAP1 PUSH2 0xF0C JUMP JUMPDEST DUP1 ISZERO PUSH2 0x447 JUMPI DUP1 PUSH1 0x1F LT PUSH2 0x41C JUMPI PUSH2 0x100 DUP1 DUP4 SLOAD DIV MUL DUP4 MSTORE SWAP2 PUSH1 0x20 ADD SWAP2 PUSH2 0x447 JUMP JUMPDEST DUP3 ADD SWAP2 SWAP1 PUSH1 0x0 MSTORE PUSH1 0x20 PUSH1 0x0 KECCAK256 SWAP1 JUMPDEST DUP2 SLOAD DUP2 MSTORE SWAP1 PUSH1 0x1 ADD SWAP1 PUSH1 0x20 ADD DUP1 DUP4 GT PUSH2 0x42A JUMPI DUP3 SWAP1 SUB PUSH1 0x1F AND DUP3 ADD SWAP2 JUMPDEST POP POP POP POP POP SWAP1 POP SWAP2 SWAP1 POP JUMP JUMPDEST DUP3 DUP1 SLOAD PUSH2 0x45F SWAP1 PUSH2 0xF0C JUMP JUMPDEST SWAP1 PUSH1 0x0 MSTORE PUSH1 0x20 PUSH1 0x0 KECCAK256 SWAP1 PUSH1 0x1F ADD PUSH1 0x20 SWAP1 DIV DUP2 ADD SWAP3 DUP3 PUSH2 0x481 JUMPI PUSH1 0x0 DUP6 SSTORE PUSH2 0x4C8 JUMP JUMPDEST DUP3 PUSH1 0x1F LT PUSH2 0x49A JUMPI DUP1 MLOAD PUSH1 0xFF NOT AND DUP4 DUP1 ADD OR DUP6 SSTORE PUSH2 0x4C8 JUMP JUMPDEST DUP3 DUP1 ADD PUSH1 0x1 ADD DUP6 SSTORE DUP3 ISZERO PUSH2 0x4C8 JUMPI SWAP2 DUP3 ADD JUMPDEST DUP3 DUP2 GT ISZERO PUSH2 0x4C7 JUMPI DUP3 MLOAD DUP3 SSTORE SWAP2 PUSH1 0x20 ADD SWAP2 SWAP1 PUSH1 0x1 ADD SWAP1 PUSH2 0x4AC JUMP JUMPDEST JUMPDEST POP SWAP1 POP PUSH2 0x4D5 SWAP2 SWAP1 PUSH2 0x4D9 JUMP JUMPDEST POP SWAP1 JUMP JUMPDEST JUMPDEST DUP1 DUP3 GT ISZERO PUSH2 0x4F2 JUMPI PUSH1 0x0 DUP2 PUSH1 0x0 SWAP1 SSTORE POP PUSH1 0x1 ADD PUSH2 0x4DA JUMP JUMPDEST POP SWAP1 JUMP JUMPDEST PUSH1 0x0 PUSH2 0x509 PUSH2 0x504 DUP5 PUSH2 0xD59 JUMP JUMPDEST PUSH2 0xD34 JUMP JUMPDEST SWAP1 POP DUP1 DUP4 DUP3 MSTORE PUSH1 0x20 DUP3 ADD SWAP1 POP DUP3 DUP6 PUSH1 0x80 DUP7 MUL DUP3 ADD GT ISZERO PUSH2 0x52C JUMPI PUSH2 0x52B PUSH2 0x100B JUMP JUMPDEST JUMPDEST PUSH1 0x0 JUMPDEST DUP6 DUP2 LT ISZERO PUSH2 0x55C JUMPI DUP2 PUSH2 0x542 DUP9 DUP3 PUSH2 0x77E JUMP JUMPDEST DUP5 MSTORE PUSH1 0x20 DUP5 ADD SWAP4 POP PUSH1 0x80 DUP4 ADD SWAP3 POP POP PUSH1 0x1 DUP2 ADD SWAP1 POP PUSH2 0x52F JUMP JUMPDEST POP POP POP SWAP4 SWAP3 POP POP POP JUMP JUMPDEST PUSH1 0x0 PUSH2 0x579 PUSH2 0x574 DUP5 PUSH2 0xD85 JUMP JUMPDEST PUSH2 0xD34 JUMP JUMPDEST SWAP1 POP DUP3 DUP2 MSTORE PUSH1 0x20 DUP2 ADD DUP5 DUP5 DUP5 ADD GT ISZERO PUSH2 0x595 JUMPI PUSH2 0x594 PUSH2 0x1010 JUMP JUMPDEST JUMPDEST PUSH2 0x5A0 DUP5 DUP3 DUP6 PUSH2 0xECA JUMP JUMPDEST POP SWAP4 SWAP3 POP POP POP JUMP JUMPDEST PUSH1 0x0 PUSH2 0x5BB PUSH2 0x5B6 DUP5 PUSH2 0xD85 JUMP JUMPDEST PUSH2 0xD34 JUMP JUMPDEST SWAP1 POP DUP3 DUP2 MSTORE PUSH1 0x20 DUP2 ADD DUP5 DUP5 DUP5 ADD GT ISZERO PUSH2 0x5D7 JUMPI PUSH2 0x5D6 PUSH2 0x1010 JUMP JUMPDEST JUMPDEST PUSH2 0x5E2 DUP5 DUP3 DUP6 PUSH2 0xED9 JUMP JUMPDEST POP SWAP4 SWAP3 POP POP POP JUMP JUMPDEST PUSH1 0x0 PUSH2 0x5FD PUSH2 0x5F8 DUP5 PUSH2 0xDB6 JUMP JUMPDEST PUSH2 0xD34 JUMP JUMPDEST SWAP1 POP DUP3 DUP2 MSTORE PUSH1 0x20 DUP2 ADD DUP5 DUP5 DUP5 ADD GT ISZERO PUSH2 0x619 JUMPI PUSH2 0x618 PUSH2 0x1010 JUMP JUMPDEST JUMPDEST PUSH2 0x624 DUP5 DUP3 DUP6 PUSH2 0xECA JUMP JUMPDEST POP SWAP4 SWAP3 POP POP POP JUMP JUMPDEST PUSH1 0x0 PUSH2 0x63F PUSH2 0x63A DUP5 PUSH2 0xDB6 JUMP JUMPDEST PUSH2 0xD34 JUMP JUMPDEST SWAP1 POP DUP3 DUP2 MSTORE PUSH1 0x20 DUP2 ADD DUP5 DUP5 DUP5 ADD GT ISZERO PUSH2 0x65B JUMPI PUSH2 0x65A PUSH2 0x1010 JUMP JUMPDEST JUMPDEST PUSH2 0x666 DUP5 DUP3 DUP6 PUSH2 0xED9 JUMP JUMPDEST POP SWAP4 SWAP3 POP POP POP JUMP JUMPDEST PUSH1 0x0 DUP3 PUSH1 0x1F DUP4 ADD SLT PUSH2 0x683 JUMPI PUSH2 0x682 PUSH2 0xFFC JUMP JUMPDEST JUMPDEST DUP2 MLOAD PUSH2 0x693 DUP5 DUP3 PUSH1 0x20 DUP7 ADD PUSH2 0x4F6 JUMP JUMPDEST SWAP2 POP POP SWAP3 SWAP2 POP POP JUMP JUMPDEST PUSH1 0x0 DUP2 MLOAD SWAP1 POP PUSH2 0x6AB DUP2 PUSH2 0x1030 JUMP JUMPDEST SWAP3 SWAP2 POP POP JUMP JUMPDEST PUSH1 0x0 DUP2 MLOAD SWAP1 POP PUSH2 0x6C0 DUP2 PUSH2 0x1047 JUMP JUMPDEST SWAP3 SWAP2 POP POP JUMP JUMPDEST PUSH1 0x0 DUP3 PUSH1 0x1F DUP4 ADD SLT PUSH2 0x6DB JUMPI PUSH2 0x6DA PUSH2 0xFFC JUMP JUMPDEST JUMPDEST DUP2 CALLDATALOAD PUSH2 0x6EB DUP5 DUP3 PUSH1 0x20 DUP7 ADD PUSH2 0x566 JUMP JUMPDEST SWAP2 POP POP SWAP3 SWAP2 POP POP JUMP JUMPDEST PUSH1 0x0 DUP3 PUSH1 0x1F DUP4 ADD SLT PUSH2 0x709 JUMPI PUSH2 0x708 PUSH2 0xFFC JUMP JUMPDEST JUMPDEST DUP2 MLOAD PUSH2 0x719 DUP5 DUP3 PUSH1 0x20 DUP7 ADD PUSH2 0x5A8 JUMP JUMPDEST SWAP2 POP POP SWAP3 SWAP2 POP POP JUMP JUMPDEST PUSH1 0x0 DUP3 PUSH1 0x1F DUP4 ADD SLT PUSH2 0x737 JUMPI PUSH2 0x736 PUSH2 0xFFC JUMP JUMPDEST JUMPDEST DUP2 CALLDATALOAD PUSH2 0x747 DUP5 DUP3 PUSH1 0x20 DUP7 ADD PUSH2 0x5EA JUMP JUMPDEST SWAP2 POP POP SWAP3 SWAP2 POP POP JUMP JUMPDEST PUSH1 0x0 DUP3 PUSH1 0x1F DUP4 ADD SLT PUSH2 0x765 JUMPI PUSH2 0x764 PUSH2 0xFFC JUMP JUMPDEST JUMPDEST DUP2 MLOAD PUSH2 0x775 DUP5 DUP3 PUSH1 0x20 DUP7 ADD PUSH2 0x62C JUMP JUMPDEST SWAP2 POP POP SWAP3 SWAP2 POP POP JUMP JUMPDEST PUSH1 0x0 PUSH1 0x80 DUP3 DUP5 SUB SLT ISZERO PUSH2 0x794 JUMPI PUSH2 0x793 PUSH2 0x1001 JUMP JUMPDEST JUMPDEST PUSH2 0x79E PUSH1 0x80 PUSH2 0xD34 JUMP JUMPDEST SWAP1 POP PUSH1 0x0 PUSH2 0x7AE DUP5 DUP3 DUP6 ADD PUSH2 0x6B1 JUMP JUMPDEST PUSH1 0x0 DUP4 ADD MSTORE POP PUSH1 0x20 PUSH2 0x7C2 DUP5 DUP3 DUP6 ADD PUSH2 0x6B1 JUMP JUMPDEST PUSH1 0x20 DUP4 ADD MSTORE POP PUSH1 0x40 PUSH2 0x7D6 DUP5 DUP3 DUP6 ADD PUSH2 0x9A3 JUMP JUMPDEST PUSH1 0x40 DUP4 ADD MSTORE POP PUSH1 0x60 PUSH2 0x7EA DUP5 DUP3 DUP6 ADD PUSH2 0x9A3 JUMP JUMPDEST PUSH1 0x60 DUP4 ADD MSTORE POP SWAP3 SWAP2 POP POP JUMP JUMPDEST PUSH1 0x0 PUSH2 0x160 DUP3 DUP5 SUB SLT ISZERO PUSH2 0x80D JUMPI PUSH2 0x80C PUSH2 0x1001 JUMP JUMPDEST JUMPDEST PUSH2 0x818 PUSH2 0x160 PUSH2 0xD34 JUMP JUMPDEST SWAP1 POP PUSH1 0x0 PUSH2 0x828 DUP5 DUP3 DUP6 ADD PUSH2 0x9A3 JUMP JUMPDEST PUSH1 0x0 DUP4 ADD MSTORE POP PUSH1 0x20 PUSH2 0x83C DUP5 DUP3 DUP6 ADD PUSH2 0x979 JUMP JUMPDEST PUSH1 0x20 DUP4 ADD MSTORE POP PUSH1 0x40 PUSH2 0x850 DUP5 DUP3 DUP6 ADD PUSH2 0x979 JUMP JUMPDEST PUSH1 0x40 DUP4 ADD MSTORE POP PUSH1 0x60 PUSH2 0x864 DUP5 DUP3 DUP6 ADD PUSH2 0x93A JUMP JUMPDEST PUSH1 0x60 DUP4 ADD MSTORE POP PUSH1 0x80 PUSH2 0x878 DUP5 DUP3 DUP6 ADD PUSH2 0x6B1 JUMP JUMPDEST PUSH1 0x80 DUP4 ADD MSTORE POP PUSH1 0xA0 PUSH2 0x88C DUP5 DUP3 DUP6 ADD PUSH2 0x98E JUMP JUMPDEST PUSH1 0xA0 DUP4 ADD MSTORE POP PUSH1 0xC0 PUSH2 0x8A0 DUP5 DUP3 DUP6 ADD PUSH2 0x9A3 JUMP JUMPDEST PUSH1 0xC0 DUP4 ADD MSTORE POP PUSH1 0xE0 DUP3 ADD MLOAD PUSH8 0xFFFFFFFFFFFFFFFF DUP2 GT ISZERO PUSH2 0x8C4 JUMPI PUSH2 0x8C3 PUSH2 0x1006 JUMP JUMPDEST JUMPDEST PUSH2 0x8D0 DUP5 DUP3 DUP6 ADD PUSH2 0x6F4 JUMP JUMPDEST PUSH1 0xE0 DUP4 ADD MSTORE POP PUSH2 0x100 PUSH2 0x8E5 DUP5 DUP3 DUP6 ADD PUSH2 0x979 JUMP JUMPDEST PUSH2 0x100 DUP4 ADD MSTORE POP PUSH2 0x120 DUP3 ADD MLOAD PUSH8 0xFFFFFFFFFFFFFFFF DUP2 GT ISZERO PUSH2 0x90B JUMPI PUSH2 0x90A PUSH2 0x1006 JUMP JUMPDEST JUMPDEST PUSH2 0x917 DUP5 DUP3 DUP6 ADD PUSH2 0x66E JUMP JUMPDEST PUSH2 0x120 DUP4 ADD MSTORE POP PUSH2 0x140 PUSH2 0x92D DUP5 DUP3 DUP6 ADD PUSH2 0x6B1 JUMP JUMPDEST PUSH2 0x140 DUP4 ADD MSTORE POP SWAP3 SWAP2 POP POP JUMP JUMPDEST PUSH1 0x0 DUP2 MLOAD SWAP1 POP PUSH2 0x949 DUP2 PUSH2 0x105E JUMP JUMPDEST SWAP3 SWAP2 POP POP JUMP JUMPDEST PUSH1 0x0 DUP2 CALLDATALOAD SWAP1 POP PUSH2 0x95E DUP2 PUSH2 0x1075 JUMP JUMPDEST SWAP3 SWAP2 POP POP JUMP JUMPDEST PUSH1 0x0 DUP2 MLOAD SWAP1 POP PUSH2 0x973 DUP2 PUSH2 0x1075 JUMP JUMPDEST SWAP3 SWAP2 POP POP JUMP JUMPDEST PUSH1 0x0 DUP2 MLOAD SWAP1 POP PUSH2 0x988 DUP2 PUSH2 0x108C JUMP JUMPDEST SWAP3 SWAP2 POP POP JUMP JUMPDEST PUSH1 0x0 DUP2 MLOAD SWAP1 POP PUSH2 0x99D DUP2 PUSH2 0x10A3 JUMP JUMPDEST SWAP3 SWAP2 POP POP JUMP JUMPDEST PUSH1 0x0 DUP2 MLOAD SWAP1 POP PUSH2 0x9B2 DUP2 PUSH2 0x10BA JUMP JUMPDEST SWAP3 SWAP2 POP POP JUMP JUMPDEST PUSH1 0x0 PUSH1 0x20 DUP3 DUP5 SUB SLT ISZERO PUSH2 0x9CE JUMPI PUSH2 0x9CD PUSH2 0x101A JUMP JUMPDEST JUMPDEST PUSH1 0x0 DUP3 ADD CALLDATALOAD PUSH8 0xFFFFFFFFFFFFFFFF DUP2 GT ISZERO PUSH2 0x9EC JUMPI PUSH2 0x9EB PUSH2 0x1015 JUMP JUMPDEST JUMPDEST PUSH2 0x9F8 DUP5 DUP3 DUP6 ADD PUSH2 0x6C6 JUMP JUMPDEST SWAP2 POP POP SWAP3 SWAP2 POP POP JUMP JUMPDEST PUSH1 0x0 DUP1 PUSH1 0x0 PUSH1 0x60 DUP5 DUP7 SUB SLT ISZERO PUSH2 0xA1A JUMPI PUSH2 0xA19 PUSH2 0x101A JUMP JUMPDEST JUMPDEST PUSH1 0x0 DUP5 ADD MLOAD PUSH8 0xFFFFFFFFFFFFFFFF DUP2 GT ISZERO PUSH2 0xA38 JUMPI PUSH2 0xA37 PUSH2 0x1015 JUMP JUMPDEST JUMPDEST PUSH2 0xA44 DUP7 DUP3 DUP8 ADD PUSH2 0x7F6 JUMP JUMPDEST SWAP4 POP POP PUSH1 0x20 PUSH2 0xA55 DUP7 DUP3 DUP8 ADD PUSH2 0x69C JUMP JUMPDEST SWAP3 POP POP PUSH1 0x40 DUP5 ADD MLOAD PUSH8 0xFFFFFFFFFFFFFFFF DUP2 GT ISZERO PUSH2 0xA76 JUMPI PUSH2 0xA75 PUSH2 0x1015 JUMP JUMPDEST JUMPDEST PUSH2 0xA82 DUP7 DUP3 DUP8 ADD PUSH2 0x750 JUMP JUMPDEST SWAP2 POP POP SWAP3 POP SWAP3 POP SWAP3 JUMP JUMPDEST PUSH1 0x0 PUSH1 0x20 DUP3 DUP5 SUB SLT ISZERO PUSH2 0xAA2 JUMPI PUSH2 0xAA1 PUSH2 0x101A JUMP JUMPDEST JUMPDEST PUSH1 0x0 PUSH2 0xAB0 DUP5 DUP3 DUP6 ADD PUSH2 0x94F JUMP JUMPDEST SWAP2 POP POP SWAP3 SWAP2 POP POP JUMP JUMPDEST PUSH1 0x0 DUP1 PUSH1 0x40 DUP4 DUP6 SUB SLT ISZERO PUSH2 0xAD0 JUMPI PUSH2 0xACF PUSH2 0x101A JUMP JUMPDEST JUMPDEST PUSH1 0x0 PUSH2 0xADE DUP6 DUP3 DUP7 ADD PUSH2 0x94F JUMP JUMPDEST SWAP3 POP POP PUSH1 0x20 DUP4 ADD CALLDATALOAD PUSH8 0xFFFFFFFFFFFFFFFF DUP2 GT ISZERO PUSH2 0xAFF JUMPI PUSH2 0xAFE PUSH2 0x1015 JUMP JUMPDEST JUMPDEST PUSH2 0xB0B DUP6 DUP3 DUP7 ADD PUSH2 0x722 JUMP JUMPDEST SWAP2 POP POP SWAP3 POP SWAP3 SWAP1 POP JUMP JUMPDEST PUSH1 0x0 DUP1 PUSH1 0x40 DUP4 DUP6 SUB SLT ISZERO PUSH2 0xB2C JUMPI PUSH2 0xB2B PUSH2 0x101A JUMP JUMPDEST JUMPDEST PUSH1 0x0 PUSH2 0xB3A DUP6 DUP3 DUP7 ADD PUSH2 0x964 JUMP JUMPDEST SWAP3 POP POP PUSH1 0x20 DUP4 ADD MLOAD PUSH8 0xFFFFFFFFFFFFFFFF DUP2 GT ISZERO PUSH2 0xB5B JUMPI PUSH2 0xB5A PUSH2 0x1015 JUMP JUMPDEST JUMPDEST PUSH2 0xB67 DUP6 DUP3 DUP7 ADD PUSH2 0x750 JUMP JUMPDEST SWAP2 POP POP SWAP3 POP SWAP3 SWAP1 POP JUMP JUMPDEST PUSH1 0x0 PUSH1 0x20 DUP3 DUP5 SUB SLT ISZERO PUSH2 0xB87 JUMPI PUSH2 0xB86 PUSH2 0x101A JUMP JUMPDEST JUMPDEST PUSH1 0x0 PUSH2 0xB95 DUP5 DUP3 DUP6 ADD PUSH2 0x98E JUMP JUMPDEST SWAP2 POP POP SWAP3 SWAP2 POP POP JUMP JUMPDEST PUSH1 0x0 PUSH2 0xBA9 DUP3 PUSH2 0xDE7 JUMP JUMPDEST PUSH2 0xBB3 DUP2 DUP6 PUSH2 0xDFD JUMP JUMPDEST SWAP4 POP PUSH2 0xBC3 DUP2 DUP6 PUSH1 0x20 DUP7 ADD PUSH2 0xED9 JUMP JUMPDEST PUSH2 0xBCC DUP2 PUSH2 0x101F JUMP JUMPDEST DUP5 ADD SWAP2 POP POP SWAP3 SWAP2 POP POP JUMP JUMPDEST PUSH2 0xBE0 DUP2 PUSH2 0xEB8 JUMP JUMPDEST DUP3 MSTORE POP POP JUMP JUMPDEST PUSH1 0x0 PUSH2 0xBF1 DUP3 PUSH2 0xDF2 JUMP JUMPDEST PUSH2 0xBFB DUP2 DUP6 PUSH2 0xE0E JUMP JUMPDEST SWAP4 POP PUSH2 0xC0B DUP2 DUP6 PUSH1 0x20 DUP7 ADD PUSH2 0xED9 JUMP JUMPDEST PUSH2 0xC14 DUP2 PUSH2 0x101F JUMP JUMPDEST DUP5 ADD SWAP2 POP POP SWAP3 SWAP2 POP POP JUMP JUMPDEST PUSH2 0xC28 DUP2 PUSH2 0xE7D JUMP JUMPDEST DUP3 MSTORE POP POP JUMP JUMPDEST PUSH2 0xC37 DUP2 PUSH2 0xE87 JUMP JUMPDEST DUP3 MSTORE POP POP JUMP JUMPDEST PUSH2 0xC46 DUP2 PUSH2 0xE97 JUMP JUMPDEST DUP3 MSTORE POP POP JUMP JUMPDEST PUSH1 0x0 PUSH1 0x20 DUP3 ADD SWAP1 POP DUP2 DUP2 SUB PUSH1 0x0 DUP4 ADD MSTORE PUSH2 0xC66 DUP2 DUP5 PUSH2 0xB9E JUMP JUMPDEST SWAP1 POP SWAP3 SWAP2 POP POP JUMP JUMPDEST PUSH1 0x0 PUSH1 0x20 DUP3 ADD SWAP1 POP DUP2 DUP2 SUB PUSH1 0x0 DUP4 ADD MSTORE PUSH2 0xC88 DUP2 DUP5 PUSH2 0xBE6 JUMP JUMPDEST SWAP1 POP SWAP3 SWAP2 POP POP JUMP JUMPDEST PUSH1 0x0 PUSH1 0x20 DUP3 ADD SWAP1 POP PUSH2 0xCA5 PUSH1 0x0 DUP4 ADD DUP5 PUSH2 0xC1F JUMP JUMPDEST SWAP3 SWAP2 POP POP JUMP JUMPDEST PUSH1 0x0 PUSH1 0x40 DUP3 ADD SWAP1 POP PUSH2 0xCC0 PUSH1 0x0 DUP4 ADD DUP6 PUSH2 0xC1F JUMP JUMPDEST DUP2 DUP2 SUB PUSH1 0x20 DUP4 ADD MSTORE PUSH2 0xCD2 DUP2 DUP5 PUSH2 0xBE6 JUMP JUMPDEST SWAP1 POP SWAP4 SWAP3 POP POP POP JUMP JUMPDEST PUSH1 0x0 PUSH1 0x60 DUP3 ADD SWAP1 POP PUSH2 0xCF0 PUSH1 0x0 DUP4 ADD DUP7 PUSH2 0xC2E JUMP JUMPDEST DUP2 DUP2 SUB PUSH1 0x20 DUP4 ADD MSTORE PUSH2 0xD02 DUP2 DUP6 PUSH2 0xB9E JUMP JUMPDEST SWAP1 POP PUSH2 0xD11 PUSH1 0x40 DUP4 ADD DUP5 PUSH2 0xBD7 JUMP JUMPDEST SWAP5 SWAP4 POP POP POP POP JUMP JUMPDEST PUSH1 0x0 PUSH1 0x20 DUP3 ADD SWAP1 POP PUSH2 0xD2E PUSH1 0x0 DUP4 ADD DUP5 PUSH2 0xC3D JUMP JUMPDEST SWAP3 SWAP2 POP POP JUMP JUMPDEST PUSH1 0x0 PUSH2 0xD3E PUSH2 0xD4F JUMP JUMPDEST SWAP1 POP PUSH2 0xD4A DUP3 DUP3 PUSH2 0xF3E JUMP JUMPDEST SWAP2 SWAP1 POP JUMP JUMPDEST PUSH1 0x0 PUSH1 0x40 MLOAD SWAP1 POP SWAP1 JUMP JUMPDEST PUSH1 0x0 PUSH8 0xFFFFFFFFFFFFFFFF DUP3 GT ISZERO PUSH2 0xD74 JUMPI PUSH2 0xD73 PUSH2 0xFCD JUMP JUMPDEST JUMPDEST PUSH1 0x20 DUP3 MUL SWAP1 POP PUSH1 0x20 DUP2 ADD SWAP1 POP SWAP2 SWAP1 POP JUMP JUMPDEST PUSH1 0x0 PUSH8 0xFFFFFFFFFFFFFFFF DUP3 GT ISZERO PUSH2 0xDA0 JUMPI PUSH2 0xD9F PUSH2 0xFCD JUMP JUMPDEST JUMPDEST PUSH2 0xDA9 DUP3 PUSH2 0x101F JUMP JUMPDEST SWAP1 POP PUSH1 0x20 DUP2 ADD SWAP1 POP SWAP2 SWAP1 POP JUMP JUMPDEST PUSH1 0x0 PUSH8 0xFFFFFFFFFFFFFFFF DUP3 GT ISZERO PUSH2 0xDD1 JUMPI PUSH2 0xDD0 PUSH2 0xFCD JUMP JUMPDEST JUMPDEST PUSH2 0xDDA DUP3 PUSH2 0x101F JUMP JUMPDEST SWAP1 POP PUSH1 0x20 DUP2 ADD SWAP1 POP SWAP2 SWAP1 POP JUMP JUMPDEST PUSH1 0x0 DUP2 MLOAD SWAP1 POP SWAP2 SWAP1 POP JUMP JUMPDEST PUSH1 0x0 DUP2 MLOAD SWAP1 POP SWAP2 SWAP1 POP JUMP JUMPDEST PUSH1 0x0 DUP3 DUP3 MSTORE PUSH1 0x20 DUP3 ADD SWAP1 POP SWAP3 SWAP2 POP POP JUMP JUMPDEST PUSH1 0x0 DUP3 DUP3 MSTORE PUSH1 0x20 DUP3 ADD SWAP1 POP SWAP3 SWAP2 POP POP JUMP JUMPDEST PUSH1 0x0 PUSH2 0xE2A DUP3 PUSH2 0xE87 JUMP JUMPDEST SWAP2 POP PUSH2 0xE35 DUP4 PUSH2 0xE87 JUMP JUMPDEST SWAP3 POP DUP3 PUSH4 0xFFFFFFFF SUB DUP3 GT ISZERO PUSH2 0xE4E JUMPI PUSH2 0xE4D PUSH2 0xF6F JUMP JUMPDEST JUMPDEST DUP3 DUP3 ADD SWAP1 POP SWAP3 SWAP2 POP POP JUMP JUMPDEST PUSH1 0x0 DUP2 ISZERO ISZERO SWAP1 POP SWAP2 SWAP1 POP JUMP JUMPDEST PUSH1 0x0 DUP2 SWAP1 POP SWAP2 SWAP1 POP JUMP JUMPDEST PUSH1 0x0 PUSH2 0xFFFF DUP3 AND SWAP1 POP SWAP2 SWAP1 POP JUMP JUMPDEST PUSH1 0x0 DUP2 SWAP1 POP SWAP2 SWAP1 POP JUMP JUMPDEST PUSH1 0x0 PUSH4 0xFFFFFFFF DUP3 AND SWAP1 POP SWAP2 SWAP1 POP JUMP JUMPDEST PUSH1 0x0 PUSH8 0xFFFFFFFFFFFFFFFF DUP3 AND SWAP1 POP SWAP2 SWAP1 POP JUMP JUMPDEST PUSH1 0x0 PUSH1 0xFF DUP3 AND SWAP1 POP SWAP2 SWAP1 POP JUMP JUMPDEST PUSH1 0x0 PUSH2 0xEC3 DUP3 PUSH2 0xEAB JUMP JUMPDEST SWAP1 POP SWAP2 SWAP1 POP JUMP JUMPDEST DUP3 DUP2 DUP4 CALLDATACOPY PUSH1 0x0 DUP4 DUP4 ADD MSTORE POP POP POP JUMP JUMPDEST PUSH1 0x0 JUMPDEST DUP4 DUP2 LT ISZERO PUSH2 0xEF7 JUMPI DUP1 DUP3 ADD MLOAD DUP2 DUP5 ADD MSTORE PUSH1 0x20 DUP2 ADD SWAP1 POP PUSH2 0xEDC JUMP JUMPDEST DUP4 DUP2 GT ISZERO PUSH2 0xF06 JUMPI PUSH1 0x0 DUP5 DUP5 ADD MSTORE JUMPDEST POP POP POP POP JUMP JUMPDEST PUSH1 0x0 PUSH1 0x2 DUP3 DIV SWAP1 POP PUSH1 0x1 DUP3 AND DUP1 PUSH2 0xF24 JUMPI PUSH1 0x7F DUP3 AND SWAP2 POP JUMPDEST PUSH1 0x20 DUP3 LT DUP2 EQ ISZERO PUSH2 0xF38 JUMPI PUSH2 0xF37 PUSH2 0xF9E JUMP JUMPDEST JUMPDEST POP SWAP2 SWAP1 POP JUMP JUMPDEST PUSH2 0xF47 DUP3 PUSH2 0x101F JUMP JUMPDEST DUP2 ADD DUP2 DUP2 LT PUSH8 0xFFFFFFFFFFFFFFFF DUP3 GT OR ISZERO PUSH2 0xF66 JUMPI PUSH2 0xF65 PUSH2 0xFCD JUMP JUMPDEST JUMPDEST DUP1 PUSH1 0x40 MSTORE POP POP POP JUMP JUMPDEST PUSH32 0x4E487B7100000000000000000000000000000000000000000000000000000000 PUSH1 0x0 MSTORE PUSH1 0x11 PUSH1 0x4 MSTORE PUSH1 0x24 PUSH1 0x0 REVERT JUMPDEST PUSH32 0x4E487B7100000000000000000000000000000000000000000000000000000000 PUSH1 0x0 MSTORE PUSH1 0x22 PUSH1 0x4 MSTORE PUSH1 0x24 PUSH1 0x0 REVERT JUMPDEST PUSH32 0x4E487B7100000000000000000000000000000000000000000000000000000000 PUSH1 0x0 MSTORE PUSH1 0x41 PUSH1 0x4 MSTORE PUSH1 0x24 PUSH1 0x0 REVERT JUMPDEST PUSH1 0x0 DUP1 REVERT JUMPDEST PUSH1 0x0 DUP1 REVERT JUMPDEST PUSH1 0x0 DUP1 REVERT JUMPDEST PUSH1 0x0 DUP1 REVERT JUMPDEST PUSH1 0x0 DUP1 REVERT JUMPDEST PUSH1 0x0 DUP1 REVERT JUMPDEST PUSH1 0x0 DUP1 REVERT JUMPDEST PUSH1 0x0 PUSH1 0x1F NOT PUSH1 0x1F DUP4 ADD AND SWAP1 POP SWAP2 SWAP1 POP JUMP JUMPDEST PUSH2 0x1039 DUP2 PUSH2 0xE59 JUMP JUMPDEST DUP2 EQ PUSH2 0x1044 JUMPI PUSH1 0x0 DUP1 REVERT JUMPDEST POP JUMP JUMPDEST PUSH2 0x1050 DUP2 PUSH2 0xE65 JUMP JUMPDEST DUP2 EQ PUSH2 0x105B JUMPI PUSH1 0x0 DUP1 REVERT JUMPDEST POP JUMP JUMPDEST PUSH2 0x1067 DUP2 PUSH2 0xE6F JUMP JUMPDEST DUP2 EQ PUSH2 0x1072 JUMPI PUSH1 0x0 DUP1 REVERT JUMPDEST POP JUMP JUMPDEST PUSH2 0x107E DUP2 PUSH2 0xE7D JUMP JUMPDEST DUP2 EQ PUSH2 0x1089 JUMPI PUSH1 0x0 DUP1 REVERT JUMPDEST POP JUMP JUMPDEST PUSH2 0x1095 DUP2 PUSH2 0xE87 JUMP JUMPDEST DUP2 EQ PUSH2 0x10A0 JUMPI PUSH1 0x0 DUP1 REVERT JUMPDEST POP JUMP JUMPDEST PUSH2 0x10AC DUP2 PUSH2 0xE97 JUMP JUMPDEST DUP2 EQ PUSH2 0x10B7 JUMPI PUSH1 0x0 DUP1 REVERT JUMPDEST POP JUMP JUMPDEST PUSH2 0x10C3 DUP2 PUSH2 0xEAB JUMP JUMPDEST DUP2 EQ PUSH2 0x10CE JUMPI PUSH1 0x0 DUP1 REVERT JUMPDEST POP JUMP INVALID LOG2 PUSH5 0x6970667358 0x22 SLT KECCAK256 0x5D EQ 0xD COINBASE 0xA7 0xCB 0xE2 STATICCALL PUSH13 0x63E1D1AC8BEE7694F769B5155A 0xEC MLOAD 0xF8 0xEA 0xF6 SLT ISZERO 0x5E 0x4E LOG0 PUSH5 0x736F6C6343 STOP ADDMOD MOD STOP CALLER "},"gasEstimates":{"creation":{"codeDepositCost":"871800","executionCost":"infinite","totalCost":"infinite"},"external":{"getCurrentMsges(uint256)":"infinite","receiveEncodedMsg(bytes)":"infinite","sendMsg(uint256,string)":"infinite","sendMsgLOCAL(uint256,string)":"infinite"}},"methodIdentifiers":{"getCurrentMsges(uint256)":"a1b9162b","receiveEncodedMsg(bytes)":"496d76ff","sendMsg(uint256,string)":"2d5bf5b0","sendMsgLOCAL(uint256,string)":"9981bcde"}},"storageLayout":{"storage":[{"astId":5003,"contract":"contracts/Messenger.sol:Messenger","label":"core_bridge","offset":0,"slot":"0","type":"t_contract(IWormhole)5260"},{"astId":5006,"contract":"contracts/Messenger.sol:Messenger","label":"nonce","offset":20,"slot":"0","type":"t_uint32"},{"astId":5010,"contract":"contracts/Messenger.sol:Messenger","label":"all_messages","offset":0,"slot":"1","type":"t_mapping(t_uint256,t_string_storage)"}],"types":{"t_contract(IWormhole)5260":{"encoding":"inplace","label":"contract IWormhole","numberOfBytes":"20"},"t_mapping(t_uint256,t_string_storage)":{"encoding":"mapping","key":"t_uint256","label":"mapping(uint256 => string)","numberOfBytes":"32","value":"t_string_storage"},"t_string_storage":{"encoding":"bytes","label":"string","numberOfBytes":"32"},"t_uint256":{"encoding":"inplace","label":"uint256","numberOfBytes":"32"},"t_uint32":{"encoding":"inplace","label":"uint32","numberOfBytes":"4"}}},"userdoc":{"kind":"user","methods":{},"version":1}}}}