{"contracts/GreenDAO.sol":{"GreenDAO":{"abi":[{"inputs":[{"internalType":"string","name":"_name","type":"string"},{"internalType":"string","name":"_symbol","type":"string"}],"stateMutability":"nonpayable","type":"constructor"},{"anonymous":false,"inputs":[{"indexed":true,"internalType":"address","name":"owner","type":"address"},{"indexed":true,"internalType":"address","name":"approved","type":"address"},{"indexed":true,"internalType":"uint256","name":"tokenId","type":"uint256"}],"name":"Approval","type":"event"},{"anonymous":false,"inputs":[{"indexed":true,"internalType":"address","name":"owner","type":"address"},{"indexed":true,"internalType":"address","name":"operator","type":"address"},{"indexed":false,"internalType":"bool","name":"approved","type":"bool"}],"name":"ApprovalForAll","type":"event"},{"anonymous":false,"inputs":[{"indexed":true,"internalType":"address","name":"from","type":"address"},{"indexed":true,"internalType":"address","name":"to","type":"address"},{"indexed":true,"internalType":"uint256","name":"tokenId","type":"uint256"}],"name":"Transfer","type":"event"},{"inputs":[{"internalType":"uint256","name":"","type":"uint256"}],"name":"_dao_uris","outputs":[{"internalType":"string","name":"dao_wallet","type":"string"},{"internalType":"string","name":"dao_uri","type":"string"},{"internalType":"string","name":"finished","type":"string"}],"stateMutability":"view","type":"function"},{"inputs":[{"internalType":"uint256","name":"","type":"uint256"}],"name":"_ideas_uris","outputs":[{"internalType":"uint256","name":"goal_id","type":"uint256"},{"internalType":"string","name":"ideas_uri","type":"string"}],"stateMutability":"view","type":"function"},{"inputs":[{"internalType":"uint256","name":"","type":"uint256"}],"name":"all_goal_ideas_votes","outputs":[{"internalType":"uint256","name":"goal_id","type":"uint256"},{"internalType":"uint256","name":"ideas_id","type":"uint256"},{"internalType":"string","name":"wallet","type":"string"}],"stateMutability":"view","type":"function"},{"inputs":[{"internalType":"address","name":"to","type":"address"},{"internalType":"uint256","name":"tokenId","type":"uint256"}],"name":"approve","outputs":[],"stateMutability":"nonpayable","type":"function"},{"inputs":[{"internalType":"address","name":"owner","type":"address"}],"name":"balanceOf","outputs":[{"internalType":"uint256","name":"","type":"uint256"}],"stateMutability":"view","type":"function"},{"inputs":[{"internalType":"string","name":"_dao_wallet","type":"string"},{"internalType":"string","name":"_dao_uri","type":"string"}],"name":"create_dao","outputs":[{"internalType":"uint256","name":"","type":"uint256"}],"stateMutability":"nonpayable","type":"function"},{"inputs":[{"internalType":"string","name":"_goal_uri","type":"string"},{"internalType":"uint256","name":"_dao_id","type":"uint256"}],"name":"create_goal","outputs":[{"internalType":"uint256","name":"","type":"uint256"}],"stateMutability":"nonpayable","type":"function"},{"inputs":[{"internalType":"uint256","name":"_goal_id","type":"uint256"},{"internalType":"uint256","name":"_ideas_id","type":"uint256"},{"internalType":"string","name":"_wallet","type":"string"}],"name":"create_goal_ideas_vote","outputs":[{"internalType":"uint256","name":"","type":"uint256"}],"stateMutability":"nonpayable","type":"function"},{"inputs":[{"internalType":"string","name":"_ideas_uri","type":"string"},{"internalType":"uint256","name":"_goal_id","type":"uint256"}],"name":"create_ideas","outputs":[{"internalType":"uint256","name":"","type":"uint256"}],"stateMutability":"nonpayable","type":"function"},{"inputs":[{"internalType":"uint256","name":"_dao_id","type":"uint256"}],"name":"dao_uri","outputs":[{"internalType":"string","name":"","type":"string"}],"stateMutability":"view","type":"function"},{"inputs":[{"internalType":"uint256","name":"tokenId","type":"uint256"}],"name":"getApproved","outputs":[{"internalType":"address","name":"","type":"address"}],"stateMutability":"view","type":"function"},{"inputs":[],"name":"get_all_daos","outputs":[{"internalType":"string[]","name":"","type":"string[]"}],"stateMutability":"view","type":"function"},{"inputs":[],"name":"get_all_goals","outputs":[{"internalType":"string[]","name":"","type":"string[]"}],"stateMutability":"view","type":"function"},{"inputs":[{"internalType":"uint256","name":"_dao_id","type":"uint256"}],"name":"get_all_goals_by_dao_id","outputs":[{"internalType":"string[]","name":"","type":"string[]"}],"stateMutability":"view","type":"function"},{"inputs":[],"name":"get_all_ideas","outputs":[{"internalType":"string[]","name":"","type":"string[]"}],"stateMutability":"view","type":"function"},{"inputs":[{"internalType":"uint256","name":"_goal_id","type":"uint256"}],"name":"get_all_ideas_by_goal_id","outputs":[{"internalType":"string[]","name":"","type":"string[]"}],"stateMutability":"view","type":"function"},{"inputs":[{"internalType":"string","name":"_goal_uri","type":"string"}],"name":"get_goal_id_by_goal_uri","outputs":[{"internalType":"uint256","name":"","type":"uint256"}],"stateMutability":"view","type":"function"},{"inputs":[{"internalType":"string","name":"_ideas_uri","type":"string"}],"name":"get_goal_id_from_ideas_uri","outputs":[{"internalType":"uint256","name":"","type":"uint256"}],"stateMutability":"view","type":"function"},{"inputs":[{"internalType":"string","name":"_ideas_uri","type":"string"}],"name":"get_ideas_id_by_ideas_uri","outputs":[{"internalType":"uint256","name":"","type":"uint256"}],"stateMutability":"view","type":"function"},{"inputs":[{"internalType":"uint256","name":"_goal_id","type":"uint256"},{"internalType":"uint256","name":"_ideas_id","type":"uint256"}],"name":"get_ideas_votes_from_goal","outputs":[{"internalType":"string[]","name":"","type":"string[]"}],"stateMutability":"view","type":"function"},{"inputs":[{"internalType":"uint256","name":"_goal_id","type":"uint256"}],"name":"goal_uri","outputs":[{"internalType":"string","name":"","type":"string"}],"stateMutability":"view","type":"function"},{"inputs":[{"internalType":"uint256","name":"_ideas_id","type":"uint256"}],"name":"ideas_uri","outputs":[{"internalType":"string","name":"","type":"string"}],"stateMutability":"view","type":"function"},{"inputs":[{"internalType":"address","name":"owner","type":"address"},{"internalType":"address","name":"operator","type":"address"}],"name":"isApprovedForAll","outputs":[{"internalType":"bool","name":"","type":"bool"}],"stateMutability":"view","type":"function"},{"inputs":[],"name":"name","outputs":[{"internalType":"string","name":"","type":"string"}],"stateMutability":"view","type":"function"},{"inputs":[{"internalType":"uint256","name":"tokenId","type":"uint256"}],"name":"ownerOf","outputs":[{"internalType":"address","name":"","type":"address"}],"stateMutability":"view","type":"function"},{"inputs":[],"name":"reset_all","outputs":[],"stateMutability":"nonpayable","type":"function"},{"inputs":[{"internalType":"address","name":"from","type":"address"},{"internalType":"address","name":"to","type":"address"},{"internalType":"uint256","name":"tokenId","type":"uint256"}],"name":"safeTransferFrom","outputs":[],"stateMutability":"nonpayable","type":"function"},{"inputs":[{"internalType":"address","name":"from","type":"address"},{"internalType":"address","name":"to","type":"address"},{"internalType":"uint256","name":"tokenId","type":"uint256"},{"internalType":"bytes","name":"data","type":"bytes"}],"name":"safeTransferFrom","outputs":[],"stateMutability":"nonpayable","type":"function"},{"inputs":[{"internalType":"address","name":"operator","type":"address"},{"internalType":"bool","name":"approved","type":"bool"}],"name":"setApprovalForAll","outputs":[],"stateMutability":"nonpayable","type":"function"},{"inputs":[{"internalType":"uint256","name":"_dao_id","type":"uint256"},{"internalType":"string","name":"_dao_wallet","type":"string"},{"internalType":"string","name":"_dao_uri","type":"string"}],"name":"set_dao","outputs":[],"stateMutability":"nonpayable","type":"function"},{"inputs":[{"internalType":"uint256","name":"_goal_id","type":"uint256"},{"internalType":"string","name":"_goal_uri","type":"string"}],"name":"set_goal","outputs":[],"stateMutability":"nonpayable","type":"function"},{"inputs":[{"internalType":"uint256","name":"_ideas_id","type":"uint256"},{"internalType":"string","name":"_ideas_uri","type":"string"}],"name":"set_ideas","outputs":[],"stateMutability":"nonpayable","type":"function"},{"inputs":[{"internalType":"bytes4","name":"interfaceId","type":"bytes4"}],"name":"supportsInterface","outputs":[{"internalType":"bool","name":"","type":"bool"}],"stateMutability":"view","type":"function"},{"inputs":[],"name":"symbol","outputs":[{"internalType":"string","name":"","type":"string"}],"stateMutability":"view","type":"function"},{"inputs":[{"internalType":"uint256","name":"tokenId","type":"uint256"}],"name":"tokenURI","outputs":[{"internalType":"string","name":"","type":"string"}],"stateMutability":"view","type":"function"},{"inputs":[{"internalType":"address","name":"from","type":"address"},{"internalType":"address","name":"to","type":"address"},{"internalType":"uint256","name":"tokenId","type":"uint256"}],"name":"transferFrom","outputs":[],"stateMutability":"nonpayable","type":"function"}],"devdoc":{"kind":"dev","methods":{"approve(address,uint256)":{"details":"See {IERC721-approve}."},"balanceOf(address)":{"details":"See {IERC721-balanceOf}."},"getApproved(uint256)":{"details":"See {IERC721-getApproved}."},"isApprovedForAll(address,address)":{"details":"See {IERC721-isApprovedForAll}."},"name()":{"details":"See {IERC721Metadata-name}."},"ownerOf(uint256)":{"details":"See {IERC721-ownerOf}."},"safeTransferFrom(address,address,uint256)":{"details":"See {IERC721-safeTransferFrom}."},"safeTransferFrom(address,address,uint256,bytes)":{"details":"See {IERC721-safeTransferFrom}."},"setApprovalForAll(address,bool)":{"details":"See {IERC721-setApprovalForAll}."},"supportsInterface(bytes4)":{"details":"See {IERC165-supportsInterface}."},"symbol()":{"details":"See {IERC721Metadata-symbol}."},"tokenURI(uint256)":{"details":"See {IERC721Metadata-tokenURI}."},"transferFrom(address,address,uint256)":{"details":"See {IERC721-transferFrom}."}},"version":1},"evm":{"bytecode":{"linkReferences":{},"object":"60806040523480156200001157600080fd5b5060405162004673380380620046738339818101604052810190620000379190620001a3565b818181600090805190602001906200005192919062000075565b5080600190805190602001906200006a92919062000075565b5050505050620003ac565b8280546200008390620002bd565b90600052602060002090601f016020900481019282620000a75760008555620000f3565b82601f10620000c257805160ff1916838001178555620000f3565b82800160010185558215620000f3579182015b82811115620000f2578251825591602001919060010190620000d5565b5b50905062000102919062000106565b5090565b5b808211156200012157600081600090555060010162000107565b5090565b60006200013c620001368462000251565b62000228565b9050828152602081018484840111156200015b576200015a6200038c565b5b6200016884828562000287565b509392505050565b600082601f83011262000188576200018762000387565b5b81516200019a84826020860162000125565b91505092915050565b60008060408385031215620001bd57620001bc62000396565b5b600083015167ffffffffffffffff811115620001de57620001dd62000391565b5b620001ec8582860162000170565b925050602083015167ffffffffffffffff81111562000210576200020f62000391565b5b6200021e8582860162000170565b9150509250929050565b60006200023462000247565b9050620002428282620002f3565b919050565b6000604051905090565b600067ffffffffffffffff8211156200026f576200026e62000358565b5b6200027a826200039b565b9050602081019050919050565b60005b83811015620002a75780820151818401526020810190506200028a565b83811115620002b7576000848401525b50505050565b60006002820490506001821680620002d657607f821691505b60208210811415620002ed57620002ec62000329565b5b50919050565b620002fe826200039b565b810181811067ffffffffffffffff8211171562000320576200031f62000358565b5b80604052505050565b7f4e487b7100000000000000000000000000000000000000000000000000000000600052602260045260246000fd5b7f4e487b7100000000000000000000000000000000000000000000000000000000600052604160045260246000fd5b600080fd5b600080fd5b600080fd5b600080fd5b6000601f19601f8301169050919050565b6142b780620003bc6000396000f3fe608060405234801561001057600080fd5b506004361061021c5760003560e01c806371085cab11610125578063b16060a6116100ad578063c29595c51161007c578063c29595c5146106ea578063c4c2e36414610706578063c87b56dd14610736578063e32acc1a14610766578063e985e9c5146107965761021c565b8063b16060a61461068a578063b88d4fde14610694578063c04e7430146106b0578063c04fe978146106cc5761021c565b806395d89b41116100f457806395d89b41146105d257806397ee7606146105f0578063a1ca91781461060e578063a22cb4651461063e578063aa4cdf2a1461065a5761021c565b806371085cab1461052657806382fcc73214610556578063881de858146105865780638d3d2595146105a25761021c565b806327a568b9116101a8578063468d0c8011610177578063468d0c80146104355780634be7adb5146104665780635d907da1146104965780636352211e146104c657806370a08231146104f65761021c565b806327a568b91461039957806329b56f60146103cb5780632d9cb1ab146103e957806342842e0e146104195761021c565b8063109ac970116101ef578063109ac970146102bb578063131d44f2146102eb5780631ba44c4c1461031b5780631e9ac9f51461034d57806323b872dd1461037d5761021c565b806301ffc9a71461022157806306fdde0314610251578063081812fc1461026f578063095ea7b31461029f575b600080fd5b61023b600480360381019061023691906131fe565b6107c6565b6040516102489190613948565b60405180910390f35b6102596108a8565b6040516102669190613963565b60405180910390f35b61028960048036038101906102849190613375565b61093a565b60405161029691906138bf565b60405180910390f35b6102b960048036038101906102b491906131be565b610980565b005b6102d560048036038101906102d09190613375565b610a98565b6040516102e29190613926565b60405180910390f35b61030560048036038101906103009190613375565b610c08565b6040516103129190613926565b60405180910390f35b61033560048036038101906103309190613375565b610d78565b60405161034493929190613b3c565b60405180910390f35b61036760048036038101906103629190613258565b610e2a565b6040516103749190613af1565b60405180910390f35b610397600480360381019061039291906130a8565b610e9c565b005b6103b360048036038101906103ae9190613375565b610efc565b6040516103c293929190613985565b60405180910390f35b6103d36110be565b6040516103e09190613926565b60405180910390f35b61040360048036038101906103fe9190613319565b6111f9565b6040516104109190613af1565b60405180910390f35b610433600480360381019061042e91906130a8565b611272565b005b61044f600480360381019061044a9190613375565b611292565b60405161045d929190613b0c565b60405180910390f35b610480600480360381019061047b9190613489565b61133e565b60405161048d9190613926565b60405180910390f35b6104b060048036038101906104ab9190613375565b6114d0565b6040516104bd9190613963565b60405180910390f35b6104e060048036038101906104db9190613375565b611578565b6040516104ed91906138bf565b60405180910390f35b610510600480360381019061050b919061303b565b6115ff565b60405161051d9190613af1565b60405180910390f35b610540600480360381019061053b9190613319565b6116b7565b60405161054d9190613af1565b60405180910390f35b610570600480360381019061056b91906134c9565b611730565b60405161057d9190613af1565b60405180910390f35b6105a0600480360381019061059b91906133fe565b6117ba565b005b6105bc60048036038101906105b79190613375565b611815565b6040516105c99190613963565b60405180910390f35b6105da6118bd565b6040516105e79190613963565b60405180910390f35b6105f861194f565b6040516106059190613926565b60405180910390f35b61062860048036038101906106239190613258565b611a8a565b6040516106359190613af1565b60405180910390f35b6106586004803603810190610653919061317e565b611afc565b005b610674600480360381019061066f9190613258565b611b12565b6040516106819190613af1565b60405180910390f35b610692611b9a565b005b6106ae60048036038101906106a991906130fb565b611d18565b005b6106ca60048036038101906106c591906133a2565b611d7a565b005b6106d4611da9565b6040516106e19190613926565b60405180910390f35b61070460048036038101906106ff91906133a2565b611ee4565b005b610720600480360381019061071b91906132a1565b611f13565b60405161072d9190613af1565b60405180910390f35b610750600480360381019061074b9190613375565b611ff7565b60405161075d9190613963565b60405180910390f35b610780600480360381019061077b9190613375565b61205f565b60405161078d9190613963565b60405180910390f35b6107b060048036038101906107ab9190613068565b612107565b6040516107bd9190613948565b60405180910390f35b60007f80ac58cd000000000000000000000000000000000000000000000000000000007bffffffffffffffffffffffffffffffffffffffffffffffffffffffff1916827bffffffffffffffffffffffffffffffffffffffffffffffffffffffff1916148061089157507f5b5e139f000000000000000000000000000000000000000000000000000000007bffffffffffffffffffffffffffffffffffffffffffffffffffffffff1916827bffffffffffffffffffffffffffffffffffffffffffffffffffffffff1916145b806108a157506108a08261219b565b5b9050919050565b6060600080546108b790613dee565b80601f01602080910402602001604051908101604052809291908181526020018280546108e390613dee565b80156109305780601f1061090557610100808354040283529160200191610930565b820191906000526020600020905b81548152906001019060200180831161091357829003601f168201915b5050505050905090565b600061094582612205565b6004600083815260200190815260200160002060009054906101000a900473ffffffffffffffffffffffffffffffffffffffff169050919050565b600061098b82611578565b90508073ffffffffffffffffffffffffffffffffffffffff168373ffffffffffffffffffffffffffffffffffffffff1614156109fc576040517f08c379a00000000000000000000000000000000000000000000000000000000081526004016109f390613ab1565b60405180910390fd5b8073ffffffffffffffffffffffffffffffffffffffff16610a1b612250565b73ffffffffffffffffffffffffffffffffffffffff161480610a4a5750610a4981610a44612250565b612107565b5b610a89576040517f08c379a0000000000000000000000000000000000000000000000000000000008152600401610a8090613ad1565b60405180910390fd5b610a938383612258565b505050565b6060600060075467ffffffffffffffff811115610ab857610ab7613f56565b5b604051908082528060200260200182016040528015610aeb57816020015b6060815260200190600190039081610ad65790505b509050600080600090505b600754811015610bfd5784600b6000838152602001908152602001600020600001541415610bea57600b60008281526020019081526020016000206001018054610b3f90613dee565b80601f0160208091040260200160405190810160405280929190818152602001828054610b6b90613dee565b8015610bb85780601f10610b8d57610100808354040283529160200191610bb8565b820191906000526020600020905b815481529060010190602001808311610b9b57829003601f168201915b5050505050838381518110610bd057610bcf613f27565b5b60200260200101819052508180610be690613e51565b9250505b8080610bf590613e51565b915050610af6565b508192505050919050565b6060600060085467ffffffffffffffff811115610c2857610c27613f56565b5b604051908082528060200260200182016040528015610c5b57816020015b6060815260200190600190039081610c465790505b509050600080600090505b600854811015610d6d5784600c6000838152602001908152602001600020600001541415610d4c57600c60008281526020019081526020016000206001018054610caf90613dee565b80601f0160208091040260200160405190810160405280929190818152602001828054610cdb90613dee565b8015610d285780601f10610cfd57610100808354040283529160200191610d28565b820191906000526020600020905b815481529060010190602001808311610d0b57829003601f168201915b5050505050838381518110610d4057610d3f613f27565b5b60200260200101819052505b8180610d5790613e51565b9250508080610d6590613e51565b915050610c66565b508192505050919050565b600d602052806000526040600020600091509050806000015490806001015490806002018054610da790613dee565b80601f0160208091040260200160405190810160405280929190818152602001828054610dd390613dee565b8015610e205780601f10610df557610100808354040283529160200191610e20565b820191906000526020600020905b815481529060010190602001808311610e0357829003601f168201915b5050505050905083565b600080600090505b600754811015610e91578280519060200120600b6000838152602001908152602001600020600101604051610e679190613884565b60405180910390201415610e7e5780915050610e97565b8080610e8990613e51565b915050610e32565b50600090505b919050565b610ead610ea7612250565b82612311565b610eec576040517f08c379a0000000000000000000000000000000000000000000000000000000008152600401610ee3906139d1565b60405180910390fd5b610ef78383836123a6565b505050565b600a602052806000526040600020600091509050806000018054610f1f90613dee565b80601f0160208091040260200160405190810160405280929190818152602001828054610f4b90613dee565b8015610f985780601f10610f6d57610100808354040283529160200191610f98565b820191906000526020600020905b815481529060010190602001808311610f7b57829003601f168201915b505050505090806001018054610fad90613dee565b80601f0160208091040260200160405190810160405280929190818152602001828054610fd990613dee565b80156110265780601f10610ffb57610100808354040283529160200191611026565b820191906000526020600020905b81548152906001019060200180831161100957829003601f168201915b50505050509080600201805461103b90613dee565b80601f016020809104026020016040519081016040528092919081815260200182805461106790613dee565b80156110b45780601f10611089576101008083540402835291602001916110b4565b820191906000526020600020905b81548152906001019060200180831161109757829003601f168201915b5050505050905083565b6060600060075467ffffffffffffffff8111156110de576110dd613f56565b5b60405190808252806020026020018201604052801561111157816020015b60608152602001906001900390816110fc5790505b50905060005b6007548110156111f157600b6000828152602001908152602001600020600101805461114290613dee565b80601f016020809104026020016040519081016040528092919081815260200182805461116e90613dee565b80156111bb5780601f10611190576101008083540402835291602001916111bb565b820191906000526020600020905b81548152906001019060200180831161119e57829003601f168201915b50505050508282815181106111d3576111d2613f27565b5b602002602001018190525080806111e990613e51565b915050611117565b508091505090565b6000604051806040016040528083815260200184815250600c6000600854815260200190815260200160002060008201518160000155602082015181600101908051906020019061124b929190612e0f565b509050506008600081548092919061126290613e51565b9190505550600854905092915050565b61128d83838360405180602001604052806000815250611d18565b505050565b600c6020528060005260406000206000915090508060000154908060010180546112bb90613dee565b80601f01602080910402602001604051908101604052809291908181526020018280546112e790613dee565b80156113345780601f1061130957610100808354040283529160200191611334565b820191906000526020600020905b81548152906001019060200180831161131757829003601f168201915b5050505050905082565b6060600060095467ffffffffffffffff81111561135e5761135d613f56565b5b60405190808252806020026020018201604052801561139157816020015b606081526020019060019003908161137c5790505b509050600080600090505b6009548110156114c45785600d6000838152602001908152602001600020600001541480156113e0575084600d600083815260200190815260200160002060010154145b156114a357600d6000828152602001908152602001600020600201805461140690613dee565b80601f016020809104026020016040519081016040528092919081815260200182805461143290613dee565b801561147f5780601f106114545761010080835404028352916020019161147f565b820191906000526020600020905b81548152906001019060200180831161146257829003601f168201915b505050505083838151811061149757611496613f27565b5b60200260200101819052505b81806114ae90613e51565b92505080806114bc90613e51565b91505061139c565b50819250505092915050565b6060600a600083815260200190815260200160002060010180546114f390613dee565b80601f016020809104026020016040519081016040528092919081815260200182805461151f90613dee565b801561156c5780601f106115415761010080835404028352916020019161156c565b820191906000526020600020905b81548152906001019060200180831161154f57829003601f168201915b50505050509050919050565b600080611584836126a0565b9050600073ffffffffffffffffffffffffffffffffffffffff168173ffffffffffffffffffffffffffffffffffffffff1614156115f6576040517f08c379a00000000000000000000000000000000000000000000000000000000081526004016115ed90613a91565b60405180910390fd5b80915050919050565b60008073ffffffffffffffffffffffffffffffffffffffff168273ffffffffffffffffffffffffffffffffffffffff161415611670576040517f08c379a000000000000000000000000000000000000000000000000000000000815260040161166790613a71565b60405180910390fd5b600360008373ffffffffffffffffffffffffffffffffffffffff1673ffffffffffffffffffffffffffffffffffffffff168152602001908152602001600020549050919050565b6000604051806040016040528083815260200184815250600b60006007548152602001908152602001600020600082015181600001556020820151816001019080519060200190611709929190612e0f565b509050506007600081548092919061172090613e51565b9190505550600754905092915050565b6000604051806060016040528085815260200184815260200183815250600d6000600954815260200190815260200160002060008201518160000155602082015181600101556040820151816002019080519060200190611792929190612e0f565b50905050600960008154809291906117a990613e51565b919050555060095490509392505050565b81600a600085815260200190815260200160002060000190805190602001906117e4929190612e0f565b5080600a6000858152602001908152602001600020600101908051906020019061180f929190612e0f565b50505050565b6060600c6000838152602001908152602001600020600101805461183890613dee565b80601f016020809104026020016040519081016040528092919081815260200182805461186490613dee565b80156118b15780601f10611886576101008083540402835291602001916118b1565b820191906000526020600020905b81548152906001019060200180831161189457829003601f168201915b50505050509050919050565b6060600180546118cc90613dee565b80601f01602080910402602001604051908101604052809291908181526020018280546118f890613dee565b80156119455780601f1061191a57610100808354040283529160200191611945565b820191906000526020600020905b81548152906001019060200180831161192857829003601f168201915b5050505050905090565b6060600060085467ffffffffffffffff81111561196f5761196e613f56565b5b6040519080825280602002602001820160405280156119a257816020015b606081526020019060019003908161198d5790505b50905060005b600854811015611a8257600c600082815260200190815260200160002060010180546119d390613dee565b80601f01602080910402602001604051908101604052809291908181526020018280546119ff90613dee565b8015611a4c5780601f10611a2157610100808354040283529160200191611a4c565b820191906000526020600020905b815481529060010190602001808311611a2f57829003601f168201915b5050505050828281518110611a6457611a63613f27565b5b60200260200101819052508080611a7a90613e51565b9150506119a8565b508091505090565b600080600090505b600854811015611af1578280519060200120600c6000838152602001908152602001600020600101604051611ac79190613884565b60405180910390201415611ade5780915050611af7565b8080611ae990613e51565b915050611a92565b50600090505b919050565b611b0e611b07612250565b83836126dd565b5050565b600080600090505b600854811015611b8f578280519060200120600c6000838152602001908152602001600020600101604051611b4f9190613884565b60405180910390201415611b7c57600c600082815260200190815260200160002060000154915050611b95565b8080611b8790613e51565b915050611b1a565b50600090505b919050565b600060068190555060006007819055506000600881905550600060098190555060005b600654811015611c2057600a600082815260200190815260200160002060008082016000611beb9190612e95565b600182016000611bfb9190612e95565b600282016000611c0b9190612e95565b50508080611c1890613e51565b915050611bbd565b5060005b600754811015611c6f57600b6000828152602001908152602001600020600080820160009055600182016000611c5a9190612e95565b50508080611c6790613e51565b915050611c24565b5060005b600854811015611cbe57600c6000828152602001908152602001600020600080820160009055600182016000611ca99190612e95565b50508080611cb690613e51565b915050611c73565b5060005b600954811015611d1557600d60008281526020019081526020016000206000808201600090556001820160009055600282016000611d009190612e95565b50508080611d0d90613e51565b915050611cc2565b50565b611d29611d23612250565b83612311565b611d68576040517f08c379a0000000000000000000000000000000000000000000000000000000008152600401611d5f906139d1565b60405180910390fd5b611d748484848461284a565b50505050565b80600c60008481526020019081526020016000206001019080519060200190611da4929190612e0f565b505050565b6060600060065467ffffffffffffffff811115611dc957611dc8613f56565b5b604051908082528060200260200182016040528015611dfc57816020015b6060815260200190600190039081611de75790505b50905060005b600654811015611edc57600a60008281526020019081526020016000206001018054611e2d90613dee565b80601f0160208091040260200160405190810160405280929190818152602001828054611e5990613dee565b8015611ea65780601f10611e7b57610100808354040283529160200191611ea6565b820191906000526020600020905b815481529060010190602001808311611e8957829003601f168201915b5050505050828281518110611ebe57611ebd613f27565b5b60200260200101819052508080611ed490613e51565b915050611e02565b508091505090565b80600b60008481526020019081526020016000206001019080519060200190611f0e929190612e0f565b505050565b600060405180606001604052808481526020018381526020016040518060400160405280600581526020017f46616c7365000000000000000000000000000000000000000000000000000000815250815250600a600060065481526020019081526020016000206000820151816000019080519060200190611f96929190612e0f565b506020820151816001019080519060200190611fb3929190612e0f565b506040820151816002019080519060200190611fd0929190612e0f565b5090505060066000815480929190611fe790613e51565b9190505550600654905092915050565b606061200282612205565b600061200c6128a6565b9050600081511161202c5760405180602001604052806000815250612057565b80612036846128bd565b60405160200161204792919061389b565b6040516020818303038152906040525b915050919050565b6060600b6000838152602001908152602001600020600101805461208290613dee565b80601f01602080910402602001604051908101604052809291908181526020018280546120ae90613dee565b80156120fb5780601f106120d0576101008083540402835291602001916120fb565b820191906000526020600020905b8154815290600101906020018083116120de57829003601f168201915b50505050509050919050565b6000600560008473ffffffffffffffffffffffffffffffffffffffff1673ffffffffffffffffffffffffffffffffffffffff16815260200190815260200160002060008373ffffffffffffffffffffffffffffffffffffffff1673ffffffffffffffffffffffffffffffffffffffff16815260200190815260200160002060009054906101000a900460ff16905092915050565b60007f01ffc9a7000000000000000000000000000000000000000000000000000000007bffffffffffffffffffffffffffffffffffffffffffffffffffffffff1916827bffffffffffffffffffffffffffffffffffffffffffffffffffffffff1916149050919050565b61220e81612995565b61224d576040517f08c379a000000000000000000000000000000000000000000000000000000000815260040161224490613a91565b60405180910390fd5b50565b600033905090565b816004600083815260200190815260200160002060006101000a81548173ffffffffffffffffffffffffffffffffffffffff021916908373ffffffffffffffffffffffffffffffffffffffff160217905550808273ffffffffffffffffffffffffffffffffffffffff166122cb83611578565b73ffffffffffffffffffffffffffffffffffffffff167f8c5be1e5ebec7d5bd14f71427d1e84f3dd0314c0f7b2291e5b200ac8c7c3b92560405160405180910390a45050565b60008061231d83611578565b90508073ffffffffffffffffffffffffffffffffffffffff168473ffffffffffffffffffffffffffffffffffffffff16148061235f575061235e8185612107565b5b8061239d57508373ffffffffffffffffffffffffffffffffffffffff166123858461093a565b73ffffffffffffffffffffffffffffffffffffffff16145b91505092915050565b8273ffffffffffffffffffffffffffffffffffffffff166123c682611578565b73ffffffffffffffffffffffffffffffffffffffff161461241c576040517f08c379a000000000000000000000000000000000000000000000000000000000815260040161241390613a11565b60405180910390fd5b600073ffffffffffffffffffffffffffffffffffffffff168273ffffffffffffffffffffffffffffffffffffffff16141561248c576040517f08c379a000000000000000000000000000000000000000000000000000000000815260040161248390613a31565b60405180910390fd5b61249983838360016129d6565b8273ffffffffffffffffffffffffffffffffffffffff166124b982611578565b73ffffffffffffffffffffffffffffffffffffffff161461250f576040517f08c379a000000000000000000000000000000000000000000000000000000000815260040161250690613a11565b60405180910390fd5b6004600082815260200190815260200160002060006101000a81549073ffffffffffffffffffffffffffffffffffffffff02191690556001600360008573ffffffffffffffffffffffffffffffffffffffff1673ffffffffffffffffffffffffffffffffffffffff168152602001908152602001600020600082825403925050819055506001600360008473ffffffffffffffffffffffffffffffffffffffff1673ffffffffffffffffffffffffffffffffffffffff16815260200190815260200160002060008282540192505081905550816002600083815260200190815260200160002060006101000a81548173ffffffffffffffffffffffffffffffffffffffff021916908373ffffffffffffffffffffffffffffffffffffffff160217905550808273ffffffffffffffffffffffffffffffffffffffff168473ffffffffffffffffffffffffffffffffffffffff167fddf252ad1be2c89b69c2b068fc378daa952ba7f163c4a11628f55a4df523b3ef60405160405180910390a461269b8383836001612afc565b505050565b60006002600083815260200190815260200160002060009054906101000a900473ffffffffffffffffffffffffffffffffffffffff169050919050565b8173ffffffffffffffffffffffffffffffffffffffff168373ffffffffffffffffffffffffffffffffffffffff16141561274c576040517f08c379a000000000000000000000000000000000000000000000000000000000815260040161274390613a51565b60405180910390fd5b80600560008573ffffffffffffffffffffffffffffffffffffffff1673ffffffffffffffffffffffffffffffffffffffff16815260200190815260200160002060008473ffffffffffffffffffffffffffffffffffffffff1673ffffffffffffffffffffffffffffffffffffffff16815260200190815260200160002060006101000a81548160ff0219169083151502179055508173ffffffffffffffffffffffffffffffffffffffff168373ffffffffffffffffffffffffffffffffffffffff167f17307eab39ab6107e8899845ad3d59bd9653f200f220920489ca2b5937696c318360405161283d9190613948565b60405180910390a3505050565b6128558484846123a6565b61286184848484612b02565b6128a0576040517f08c379a0000000000000000000000000000000000000000000000000000000008152600401612897906139f1565b60405180910390fd5b50505050565b606060405180602001604052806000815250905090565b6060600060016128cc84612c99565b01905060008167ffffffffffffffff8111156128eb576128ea613f56565b5b6040519080825280601f01601f19166020018201604052801561291d5781602001600182028036833780820191505090505b509050600082602001820190505b60011561298a578080600190039150507f3031323334353637383961626364656600000000000000000000000000000000600a86061a8153600a858161297457612973613ec9565b5b04945060008514156129855761298a565b61292b565b819350505050919050565b60008073ffffffffffffffffffffffffffffffffffffffff166129b7836126a0565b73ffffffffffffffffffffffffffffffffffffffff1614159050919050565b6001811115612af657600073ffffffffffffffffffffffffffffffffffffffff168473ffffffffffffffffffffffffffffffffffffffff1614612a6a5780600360008673ffffffffffffffffffffffffffffffffffffffff1673ffffffffffffffffffffffffffffffffffffffff1681526020019081526020016000206000828254612a629190613d04565b925050819055505b600073ffffffffffffffffffffffffffffffffffffffff168373ffffffffffffffffffffffffffffffffffffffff1614612af55780600360008573ffffffffffffffffffffffffffffffffffffffff1673ffffffffffffffffffffffffffffffffffffffff1681526020019081526020016000206000828254612aed9190613cae565b925050819055505b5b50505050565b50505050565b6000612b238473ffffffffffffffffffffffffffffffffffffffff16612dec565b15612c8c578373ffffffffffffffffffffffffffffffffffffffff1663150b7a02612b4c612250565b8786866040518563ffffffff1660e01b8152600401612b6e94939291906138da565b602060405180830381600087803b158015612b8857600080fd5b505af1925050508015612bb957506040513d601f19601f82011682018060405250810190612bb6919061322b565b60015b612c3c573d8060008114612be9576040519150601f19603f3d011682016040523d82523d6000602084013e612bee565b606091505b50600081511415612c34576040517f08c379a0000000000000000000000000000000000000000000000000000000008152600401612c2b906139f1565b60405180910390fd5b805181602001fd5b63150b7a0260e01b7bffffffffffffffffffffffffffffffffffffffffffffffffffffffff1916817bffffffffffffffffffffffffffffffffffffffffffffffffffffffff191614915050612c91565b600190505b949350505050565b600080600090507a184f03e93ff9f4daa797ed6e38ed64bf6a1f0100000000000000008310612cf7577a184f03e93ff9f4daa797ed6e38ed64bf6a1f0100000000000000008381612ced57612cec613ec9565b5b0492506040810190505b6d04ee2d6d415b85acef81000000008310612d34576d04ee2d6d415b85acef81000000008381612d2a57612d29613ec9565b5b0492506020810190505b662386f26fc100008310612d6357662386f26fc100008381612d5957612d58613ec9565b5b0492506010810190505b6305f5e1008310612d8c576305f5e1008381612d8257612d81613ec9565b5b0492506008810190505b6127108310612db1576127108381612da757612da6613ec9565b5b0492506004810190505b60648310612dd45760648381612dca57612dc9613ec9565b5b0492506002810190505b600a8310612de3576001810190505b80915050919050565b6000808273ffffffffffffffffffffffffffffffffffffffff163b119050919050565b828054612e1b90613dee565b90600052602060002090601f016020900481019282612e3d5760008555612e84565b82601f10612e5657805160ff1916838001178555612e84565b82800160010185558215612e84579182015b82811115612e83578251825591602001919060010190612e68565b5b509050612e919190612ed5565b5090565b508054612ea190613dee565b6000825580601f10612eb35750612ed2565b601f016020900490600052602060002090810190612ed19190612ed5565b5b50565b5b80821115612eee576000816000905550600101612ed6565b5090565b6000612f05612f0084613b9f565b613b7a565b905082815260208101848484011115612f2157612f20613f8a565b5b612f2c848285613dac565b509392505050565b6000612f47612f4284613bd0565b613b7a565b905082815260208101848484011115612f6357612f62613f8a565b5b612f6e848285613dac565b509392505050565b600081359050612f8581614225565b92915050565b600081359050612f9a8161423c565b92915050565b600081359050612faf81614253565b92915050565b600081519050612fc481614253565b92915050565b600082601f830112612fdf57612fde613f85565b5b8135612fef848260208601612ef2565b91505092915050565b600082601f83011261300d5761300c613f85565b5b813561301d848260208601612f34565b91505092915050565b6000813590506130358161426a565b92915050565b60006020828403121561305157613050613f94565b5b600061305f84828501612f76565b91505092915050565b6000806040838503121561307f5761307e613f94565b5b600061308d85828601612f76565b925050602061309e85828601612f76565b9150509250929050565b6000806000606084860312156130c1576130c0613f94565b5b60006130cf86828701612f76565b93505060206130e086828701612f76565b92505060406130f186828701613026565b9150509250925092565b6000806000806080858703121561311557613114613f94565b5b600061312387828801612f76565b945050602061313487828801612f76565b935050604061314587828801613026565b925050606085013567ffffffffffffffff81111561316657613165613f8f565b5b61317287828801612fca565b91505092959194509250565b6000806040838503121561319557613194613f94565b5b60006131a385828601612f76565b92505060206131b485828601612f8b565b9150509250929050565b600080604083850312156131d5576131d4613f94565b5b60006131e385828601612f76565b92505060206131f485828601613026565b9150509250929050565b60006020828403121561321457613213613f94565b5b600061322284828501612fa0565b91505092915050565b60006020828403121561324157613240613f94565b5b600061324f84828501612fb5565b91505092915050565b60006020828403121561326e5761326d613f94565b5b600082013567ffffffffffffffff81111561328c5761328b613f8f565b5b61329884828501612ff8565b91505092915050565b600080604083850312156132b8576132b7613f94565b5b600083013567ffffffffffffffff8111156132d6576132d5613f8f565b5b6132e285828601612ff8565b925050602083013567ffffffffffffffff81111561330357613302613f8f565b5b61330f85828601612ff8565b9150509250929050565b600080604083850312156133305761332f613f94565b5b600083013567ffffffffffffffff81111561334e5761334d613f8f565b5b61335a85828601612ff8565b925050602061336b85828601613026565b9150509250929050565b60006020828403121561338b5761338a613f94565b5b600061339984828501613026565b91505092915050565b600080604083850312156133b9576133b8613f94565b5b60006133c785828601613026565b925050602083013567ffffffffffffffff8111156133e8576133e7613f8f565b5b6133f485828601612ff8565b9150509250929050565b60008060006060848603121561341757613416613f94565b5b600061342586828701613026565b935050602084013567ffffffffffffffff81111561344657613445613f8f565b5b61345286828701612ff8565b925050604084013567ffffffffffffffff81111561347357613472613f8f565b5b61347f86828701612ff8565b9150509250925092565b600080604083850312156134a05761349f613f94565b5b60006134ae85828601613026565b92505060206134bf85828601613026565b9150509250929050565b6000806000606084860312156134e2576134e1613f94565b5b60006134f086828701613026565b935050602061350186828701613026565b925050604084013567ffffffffffffffff81111561352257613521613f8f565b5b61352e86828701612ff8565b9150509250925092565b60006135448383613697565b905092915050565b61355581613d38565b82525050565b600061356682613c26565b6135708185613c54565b93508360208202850161358285613c01565b8060005b858110156135be578484038952815161359f8582613538565b94506135aa83613c47565b925060208a01995050600181019050613586565b50829750879550505050505092915050565b6135d981613d4a565b82525050565b60006135ea82613c31565b6135f48185613c65565b9350613604818560208601613dbb565b61360d81613f99565b840191505092915050565b6000815461362581613dee565b61362f8186613c76565b9450600182166000811461364a576001811461365b5761368e565b60ff1983168652818601935061368e565b61366485613c11565b60005b8381101561368657815481890152600182019150602081019050613667565b838801955050505b50505092915050565b60006136a282613c3c565b6136ac8185613c81565b93506136bc818560208601613dbb565b6136c581613f99565b840191505092915050565b60006136db82613c3c565b6136e58185613c92565b93506136f5818560208601613dbb565b6136fe81613f99565b840191505092915050565b600061371482613c3c565b61371e8185613ca3565b935061372e818560208601613dbb565b80840191505092915050565b6000613747602d83613c92565b915061375282613faa565b604082019050919050565b600061376a603283613c92565b915061377582613ff9565b604082019050919050565b600061378d602583613c92565b915061379882614048565b604082019050919050565b60006137b0602483613c92565b91506137bb82614097565b604082019050919050565b60006137d3601983613c92565b91506137de826140e6565b602082019050919050565b60006137f6602983613c92565b91506138018261410f565b604082019050919050565b6000613819601883613c92565b91506138248261415e565b602082019050919050565b600061383c602183613c92565b915061384782614187565b604082019050919050565b600061385f603d83613c92565b915061386a826141d6565b604082019050919050565b61387e81613da2565b82525050565b60006138908284613618565b915081905092915050565b60006138a78285613709565b91506138b38284613709565b91508190509392505050565b60006020820190506138d4600083018461354c565b92915050565b60006080820190506138ef600083018761354c565b6138fc602083018661354c565b6139096040830185613875565b818103606083015261391b81846135df565b905095945050505050565b60006020820190508181036000830152613940818461355b565b905092915050565b600060208201905061395d60008301846135d0565b92915050565b6000602082019050818103600083015261397d81846136d0565b905092915050565b6000606082019050818103600083015261399f81866136d0565b905081810360208301526139b381856136d0565b905081810360408301526139c781846136d0565b9050949350505050565b600060208201905081810360008301526139ea8161373a565b9050919050565b60006020820190508181036000830152613a0a8161375d565b9050919050565b60006020820190508181036000830152613a2a81613780565b9050919050565b60006020820190508181036000830152613a4a816137a3565b9050919050565b60006020820190508181036000830152613a6a816137c6565b9050919050565b60006020820190508181036000830152613a8a816137e9565b9050919050565b60006020820190508181036000830152613aaa8161380c565b9050919050565b60006020820190508181036000830152613aca8161382f565b9050919050565b60006020820190508181036000830152613aea81613852565b9050919050565b6000602082019050613b066000830184613875565b92915050565b6000604082019050613b216000830185613875565b8181036020830152613b3381846136d0565b90509392505050565b6000606082019050613b516000830186613875565b613b5e6020830185613875565b8181036040830152613b7081846136d0565b9050949350505050565b6000613b84613b95565b9050613b908282613e20565b919050565b6000604051905090565b600067ffffffffffffffff821115613bba57613bb9613f56565b5b613bc382613f99565b9050602081019050919050565b600067ffffffffffffffff821115613beb57613bea613f56565b5b613bf482613f99565b9050602081019050919050565b6000819050602082019050919050565b60008190508160005260206000209050919050565b600081519050919050565b600081519050919050565b600081519050919050565b6000602082019050919050565b600082825260208201905092915050565b600082825260208201905092915050565b600081905092915050565b600082825260208201905092915050565b600082825260208201905092915050565b600081905092915050565b6000613cb982613da2565b9150613cc483613da2565b9250827fffffffffffffffffffffffffffffffffffffffffffffffffffffffffffffffff03821115613cf957613cf8613e9a565b5b828201905092915050565b6000613d0f82613da2565b9150613d1a83613da2565b925082821015613d2d57613d2c613e9a565b5b828203905092915050565b6000613d4382613d82565b9050919050565b60008115159050919050565b60007fffffffff0000000000000000000000000000000000000000000000000000000082169050919050565b600073ffffffffffffffffffffffffffffffffffffffff82169050919050565b6000819050919050565b82818337600083830152505050565b60005b83811015613dd9578082015181840152602081019050613dbe565b83811115613de8576000848401525b50505050565b60006002820490506001821680613e0657607f821691505b60208210811415613e1a57613e19613ef8565b5b50919050565b613e2982613f99565b810181811067ffffffffffffffff82111715613e4857613e47613f56565b5b80604052505050565b6000613e5c82613da2565b91507fffffffffffffffffffffffffffffffffffffffffffffffffffffffffffffffff821415613e8f57613e8e613e9a565b5b600182019050919050565b7f4e487b7100000000000000000000000000000000000000000000000000000000600052601160045260246000fd5b7f4e487b7100000000000000000000000000000000000000000000000000000000600052601260045260246000fd5b7f4e487b7100000000000000000000000000000000000000000000000000000000600052602260045260246000fd5b7f4e487b7100000000000000000000000000000000000000000000000000000000600052603260045260246000fd5b7f4e487b7100000000000000000000000000000000000000000000000000000000600052604160045260246000fd5b600080fd5b600080fd5b600080fd5b600080fd5b6000601f19601f8301169050919050565b7f4552433732313a2063616c6c6572206973206e6f7420746f6b656e206f776e6560008201527f72206f7220617070726f76656400000000000000000000000000000000000000602082015250565b7f4552433732313a207472616e7366657220746f206e6f6e20455243373231526560008201527f63656976657220696d706c656d656e7465720000000000000000000000000000602082015250565b7f4552433732313a207472616e736665722066726f6d20696e636f72726563742060008201527f6f776e6572000000000000000000000000000000000000000000000000000000602082015250565b7f4552433732313a207472616e7366657220746f20746865207a65726f2061646460008201527f7265737300000000000000000000000000000000000000000000000000000000602082015250565b7f4552433732313a20617070726f766520746f2063616c6c657200000000000000600082015250565b7f4552433732313a2061646472657373207a65726f206973206e6f74206120766160008201527f6c6964206f776e65720000000000000000000000000000000000000000000000602082015250565b7f4552433732313a20696e76616c696420746f6b656e2049440000000000000000600082015250565b7f4552433732313a20617070726f76616c20746f2063757272656e74206f776e6560008201527f7200000000000000000000000000000000000000000000000000000000000000602082015250565b7f4552433732313a20617070726f76652063616c6c6572206973206e6f7420746f60008201527f6b656e206f776e6572206f7220617070726f76656420666f7220616c6c000000602082015250565b61422e81613d38565b811461423957600080fd5b50565b61424581613d4a565b811461425057600080fd5b50565b61425c81613d56565b811461426757600080fd5b50565b61427381613da2565b811461427e57600080fd5b5056fea26469706673582212209f3fcf4f75ece837ae08af680170c98bed717e0511c5023e434e0220f4d2cad764736f6c63430008060033","opcodes":"PUSH1 0x80 PUSH1 0x40 MSTORE CALLVALUE DUP1 ISZERO PUSH3 0x11 JUMPI PUSH1 0x0 DUP1 REVERT JUMPDEST POP PUSH1 0x40 MLOAD PUSH3 0x4673 CODESIZE SUB DUP1 PUSH3 0x4673 DUP4 CODECOPY DUP2 DUP2 ADD PUSH1 0x40 MSTORE DUP2 ADD SWAP1 PUSH3 0x37 SWAP2 SWAP1 PUSH3 0x1A3 JUMP JUMPDEST DUP2 DUP2 DUP2 PUSH1 0x0 SWAP1 DUP1 MLOAD SWAP1 PUSH1 0x20 ADD SWAP1 PUSH3 0x51 SWAP3 SWAP2 SWAP1 PUSH3 0x75 JUMP JUMPDEST POP DUP1 PUSH1 0x1 SWAP1 DUP1 MLOAD SWAP1 PUSH1 0x20 ADD SWAP1 PUSH3 0x6A SWAP3 SWAP2 SWAP1 PUSH3 0x75 JUMP JUMPDEST POP POP POP POP POP PUSH3 0x3AC JUMP JUMPDEST DUP3 DUP1 SLOAD PUSH3 0x83 SWAP1 PUSH3 0x2BD JUMP JUMPDEST SWAP1 PUSH1 0x0 MSTORE PUSH1 0x20 PUSH1 0x0 KECCAK256 SWAP1 PUSH1 0x1F ADD PUSH1 0x20 SWAP1 DIV DUP2 ADD SWAP3 DUP3 PUSH3 0xA7 JUMPI PUSH1 0x0 DUP6 SSTORE PUSH3 0xF3 JUMP JUMPDEST DUP3 PUSH1 0x1F LT PUSH3 0xC2 JUMPI DUP1 MLOAD PUSH1 0xFF NOT AND DUP4 DUP1 ADD OR DUP6 SSTORE PUSH3 0xF3 JUMP JUMPDEST DUP3 DUP1 ADD PUSH1 0x1 ADD DUP6 SSTORE DUP3 ISZERO PUSH3 0xF3 JUMPI SWAP2 DUP3 ADD JUMPDEST DUP3 DUP2 GT ISZERO PUSH3 0xF2 JUMPI DUP3 MLOAD DUP3 SSTORE SWAP2 PUSH1 0x20 ADD SWAP2 SWAP1 PUSH1 0x1 ADD SWAP1 PUSH3 0xD5 JUMP JUMPDEST JUMPDEST POP SWAP1 POP PUSH3 0x102 SWAP2 SWAP1 PUSH3 0x106 JUMP JUMPDEST POP SWAP1 JUMP JUMPDEST JUMPDEST DUP1 DUP3 GT ISZERO PUSH3 0x121 JUMPI PUSH1 0x0 DUP2 PUSH1 0x0 SWAP1 SSTORE POP PUSH1 0x1 ADD PUSH3 0x107 JUMP JUMPDEST POP SWAP1 JUMP JUMPDEST PUSH1 0x0 PUSH3 0x13C PUSH3 0x136 DUP5 PUSH3 0x251 JUMP JUMPDEST PUSH3 0x228 JUMP JUMPDEST SWAP1 POP DUP3 DUP2 MSTORE PUSH1 0x20 DUP2 ADD DUP5 DUP5 DUP5 ADD GT ISZERO PUSH3 0x15B JUMPI PUSH3 0x15A PUSH3 0x38C JUMP JUMPDEST JUMPDEST PUSH3 0x168 DUP5 DUP3 DUP6 PUSH3 0x287 JUMP JUMPDEST POP SWAP4 SWAP3 POP POP POP JUMP JUMPDEST PUSH1 0x0 DUP3 PUSH1 0x1F DUP4 ADD SLT PUSH3 0x188 JUMPI PUSH3 0x187 PUSH3 0x387 JUMP JUMPDEST JUMPDEST DUP2 MLOAD PUSH3 0x19A DUP5 DUP3 PUSH1 0x20 DUP7 ADD PUSH3 0x125 JUMP JUMPDEST SWAP2 POP POP SWAP3 SWAP2 POP POP JUMP JUMPDEST PUSH1 0x0 DUP1 PUSH1 0x40 DUP4 DUP6 SUB SLT ISZERO PUSH3 0x1BD JUMPI PUSH3 0x1BC PUSH3 0x396 JUMP JUMPDEST JUMPDEST PUSH1 0x0 DUP4 ADD MLOAD PUSH8 0xFFFFFFFFFFFFFFFF DUP2 GT ISZERO PUSH3 0x1DE JUMPI PUSH3 0x1DD PUSH3 0x391 JUMP JUMPDEST JUMPDEST PUSH3 0x1EC DUP6 DUP3 DUP7 ADD PUSH3 0x170 JUMP JUMPDEST SWAP3 POP POP PUSH1 0x20 DUP4 ADD MLOAD PUSH8 0xFFFFFFFFFFFFFFFF DUP2 GT ISZERO PUSH3 0x210 JUMPI PUSH3 0x20F PUSH3 0x391 JUMP JUMPDEST JUMPDEST PUSH3 0x21E DUP6 DUP3 DUP7 ADD PUSH3 0x170 JUMP JUMPDEST SWAP2 POP POP SWAP3 POP SWAP3 SWAP1 POP JUMP JUMPDEST PUSH1 0x0 PUSH3 0x234 PUSH3 0x247 JUMP JUMPDEST SWAP1 POP PUSH3 0x242 DUP3 DUP3 PUSH3 0x2F3 JUMP JUMPDEST SWAP2 SWAP1 POP JUMP JUMPDEST PUSH1 0x0 PUSH1 0x40 MLOAD SWAP1 POP SWAP1 JUMP JUMPDEST PUSH1 0x0 PUSH8 0xFFFFFFFFFFFFFFFF DUP3 GT ISZERO PUSH3 0x26F JUMPI PUSH3 0x26E PUSH3 0x358 JUMP JUMPDEST JUMPDEST PUSH3 0x27A DUP3 PUSH3 0x39B JUMP JUMPDEST SWAP1 POP PUSH1 0x20 DUP2 ADD SWAP1 POP SWAP2 SWAP1 POP JUMP JUMPDEST PUSH1 0x0 JUMPDEST DUP4 DUP2 LT ISZERO PUSH3 0x2A7 JUMPI DUP1 DUP3 ADD MLOAD DUP2 DUP5 ADD MSTORE PUSH1 0x20 DUP2 ADD SWAP1 POP PUSH3 0x28A JUMP JUMPDEST DUP4 DUP2 GT ISZERO PUSH3 0x2B7 JUMPI PUSH1 0x0 DUP5 DUP5 ADD MSTORE JUMPDEST POP POP POP POP JUMP JUMPDEST PUSH1 0x0 PUSH1 0x2 DUP3 DIV SWAP1 POP PUSH1 0x1 DUP3 AND DUP1 PUSH3 0x2D6 JUMPI PUSH1 0x7F DUP3 AND SWAP2 POP JUMPDEST PUSH1 0x20 DUP3 LT DUP2 EQ ISZERO PUSH3 0x2ED JUMPI PUSH3 0x2EC PUSH3 0x329 JUMP JUMPDEST JUMPDEST POP SWAP2 SWAP1 POP JUMP JUMPDEST PUSH3 0x2FE DUP3 PUSH3 0x39B JUMP JUMPDEST DUP2 ADD DUP2 DUP2 LT PUSH8 0xFFFFFFFFFFFFFFFF DUP3 GT OR ISZERO PUSH3 0x320 JUMPI PUSH3 0x31F PUSH3 0x358 JUMP JUMPDEST JUMPDEST DUP1 PUSH1 0x40 MSTORE POP POP POP JUMP JUMPDEST PUSH32 0x4E487B7100000000000000000000000000000000000000000000000000000000 PUSH1 0x0 MSTORE PUSH1 0x22 PUSH1 0x4 MSTORE PUSH1 0x24 PUSH1 0x0 REVERT JUMPDEST PUSH32 0x4E487B7100000000000000000000000000000000000000000000000000000000 PUSH1 0x0 MSTORE PUSH1 0x41 PUSH1 0x4 MSTORE PUSH1 0x24 PUSH1 0x0 REVERT JUMPDEST PUSH1 0x0 DUP1 REVERT JUMPDEST PUSH1 0x0 DUP1 REVERT JUMPDEST PUSH1 0x0 DUP1 REVERT JUMPDEST PUSH1 0x0 DUP1 REVERT JUMPDEST PUSH1 0x0 PUSH1 0x1F NOT PUSH1 0x1F DUP4 ADD AND SWAP1 POP SWAP2 SWAP1 POP JUMP JUMPDEST PUSH2 0x42B7 DUP1 PUSH3 0x3BC PUSH1 0x0 CODECOPY PUSH1 0x0 RETURN INVALID PUSH1 0x80 PUSH1 0x40 MSTORE CALLVALUE DUP1 ISZERO PUSH2 0x10 JUMPI PUSH1 0x0 DUP1 REVERT JUMPDEST POP PUSH1 0x4 CALLDATASIZE LT PUSH2 0x21C JUMPI PUSH1 0x0 CALLDATALOAD PUSH1 0xE0 SHR DUP1 PUSH4 0x71085CAB GT PUSH2 0x125 JUMPI DUP1 PUSH4 0xB16060A6 GT PUSH2 0xAD JUMPI DUP1 PUSH4 0xC29595C5 GT PUSH2 0x7C JUMPI DUP1 PUSH4 0xC29595C5 EQ PUSH2 0x6EA JUMPI DUP1 PUSH4 0xC4C2E364 EQ PUSH2 0x706 JUMPI DUP1 PUSH4 0xC87B56DD EQ PUSH2 0x736 JUMPI DUP1 PUSH4 0xE32ACC1A EQ PUSH2 0x766 JUMPI DUP1 PUSH4 0xE985E9C5 EQ PUSH2 0x796 JUMPI PUSH2 0x21C JUMP JUMPDEST DUP1 PUSH4 0xB16060A6 EQ PUSH2 0x68A JUMPI DUP1 PUSH4 0xB88D4FDE EQ PUSH2 0x694 JUMPI DUP1 PUSH4 0xC04E7430 EQ PUSH2 0x6B0 JUMPI DUP1 PUSH4 0xC04FE978 EQ PUSH2 0x6CC JUMPI PUSH2 0x21C JUMP JUMPDEST DUP1 PUSH4 0x95D89B41 GT PUSH2 0xF4 JUMPI DUP1 PUSH4 0x95D89B41 EQ PUSH2 0x5D2 JUMPI DUP1 PUSH4 0x97EE7606 EQ PUSH2 0x5F0 JUMPI DUP1 PUSH4 0xA1CA9178 EQ PUSH2 0x60E JUMPI DUP1 PUSH4 0xA22CB465 EQ PUSH2 0x63E JUMPI DUP1 PUSH4 0xAA4CDF2A EQ PUSH2 0x65A JUMPI PUSH2 0x21C JUMP JUMPDEST DUP1 PUSH4 0x71085CAB EQ PUSH2 0x526 JUMPI DUP1 PUSH4 0x82FCC732 EQ PUSH2 0x556 JUMPI DUP1 PUSH4 0x881DE858 EQ PUSH2 0x586 JUMPI DUP1 PUSH4 0x8D3D2595 EQ PUSH2 0x5A2 JUMPI PUSH2 0x21C JUMP JUMPDEST DUP1 PUSH4 0x27A568B9 GT PUSH2 0x1A8 JUMPI DUP1 PUSH4 0x468D0C80 GT PUSH2 0x177 JUMPI DUP1 PUSH4 0x468D0C80 EQ PUSH2 0x435 JUMPI DUP1 PUSH4 0x4BE7ADB5 EQ PUSH2 0x466 JUMPI DUP1 PUSH4 0x5D907DA1 EQ PUSH2 0x496 JUMPI DUP1 PUSH4 0x6352211E EQ PUSH2 0x4C6 JUMPI DUP1 PUSH4 0x70A08231 EQ PUSH2 0x4F6 JUMPI PUSH2 0x21C JUMP JUMPDEST DUP1 PUSH4 0x27A568B9 EQ PUSH2 0x399 JUMPI DUP1 PUSH4 0x29B56F60 EQ PUSH2 0x3CB JUMPI DUP1 PUSH4 0x2D9CB1AB EQ PUSH2 0x3E9 JUMPI DUP1 PUSH4 0x42842E0E EQ PUSH2 0x419 JUMPI PUSH2 0x21C JUMP JUMPDEST DUP1 PUSH4 0x109AC970 GT PUSH2 0x1EF JUMPI DUP1 PUSH4 0x109AC970 EQ PUSH2 0x2BB JUMPI DUP1 PUSH4 0x131D44F2 EQ PUSH2 0x2EB JUMPI DUP1 PUSH4 0x1BA44C4C EQ PUSH2 0x31B JUMPI DUP1 PUSH4 0x1E9AC9F5 EQ PUSH2 0x34D JUMPI DUP1 PUSH4 0x23B872DD EQ PUSH2 0x37D JUMPI PUSH2 0x21C JUMP JUMPDEST DUP1 PUSH4 0x1FFC9A7 EQ PUSH2 0x221 JUMPI DUP1 PUSH4 0x6FDDE03 EQ PUSH2 0x251 JUMPI DUP1 PUSH4 0x81812FC EQ PUSH2 0x26F JUMPI DUP1 PUSH4 0x95EA7B3 EQ PUSH2 0x29F JUMPI JUMPDEST PUSH1 0x0 DUP1 REVERT JUMPDEST PUSH2 0x23B PUSH1 0x4 DUP1 CALLDATASIZE SUB DUP2 ADD SWAP1 PUSH2 0x236 SWAP2 SWAP1 PUSH2 0x31FE JUMP JUMPDEST PUSH2 0x7C6 JUMP JUMPDEST PUSH1 0x40 MLOAD PUSH2 0x248 SWAP2 SWAP1 PUSH2 0x3948 JUMP JUMPDEST PUSH1 0x40 MLOAD DUP1 SWAP2 SUB SWAP1 RETURN JUMPDEST PUSH2 0x259 PUSH2 0x8A8 JUMP JUMPDEST PUSH1 0x40 MLOAD PUSH2 0x266 SWAP2 SWAP1 PUSH2 0x3963 JUMP JUMPDEST PUSH1 0x40 MLOAD DUP1 SWAP2 SUB SWAP1 RETURN JUMPDEST PUSH2 0x289 PUSH1 0x4 DUP1 CALLDATASIZE SUB DUP2 ADD SWAP1 PUSH2 0x284 SWAP2 SWAP1 PUSH2 0x3375 JUMP JUMPDEST PUSH2 0x93A JUMP JUMPDEST PUSH1 0x40 MLOAD PUSH2 0x296 SWAP2 SWAP1 PUSH2 0x38BF JUMP JUMPDEST PUSH1 0x40 MLOAD DUP1 SWAP2 SUB SWAP1 RETURN JUMPDEST PUSH2 0x2B9 PUSH1 0x4 DUP1 CALLDATASIZE SUB DUP2 ADD SWAP1 PUSH2 0x2B4 SWAP2 SWAP1 PUSH2 0x31BE JUMP JUMPDEST PUSH2 0x980 JUMP JUMPDEST STOP JUMPDEST PUSH2 0x2D5 PUSH1 0x4 DUP1 CALLDATASIZE SUB DUP2 ADD SWAP1 PUSH2 0x2D0 SWAP2 SWAP1 PUSH2 0x3375 JUMP JUMPDEST PUSH2 0xA98 JUMP JUMPDEST PUSH1 0x40 MLOAD PUSH2 0x2E2 SWAP2 SWAP1 PUSH2 0x3926 JUMP JUMPDEST PUSH1 0x40 MLOAD DUP1 SWAP2 SUB SWAP1 RETURN JUMPDEST PUSH2 0x305 PUSH1 0x4 DUP1 CALLDATASIZE SUB DUP2 ADD SWAP1 PUSH2 0x300 SWAP2 SWAP1 PUSH2 0x3375 JUMP JUMPDEST PUSH2 0xC08 JUMP JUMPDEST PUSH1 0x40 MLOAD PUSH2 0x312 SWAP2 SWAP1 PUSH2 0x3926 JUMP JUMPDEST PUSH1 0x40 MLOAD DUP1 SWAP2 SUB SWAP1 RETURN JUMPDEST PUSH2 0x335 PUSH1 0x4 DUP1 CALLDATASIZE SUB DUP2 ADD SWAP1 PUSH2 0x330 SWAP2 SWAP1 PUSH2 0x3375 JUMP JUMPDEST PUSH2 0xD78 JUMP JUMPDEST PUSH1 0x40 MLOAD PUSH2 0x344 SWAP4 SWAP3 SWAP2 SWAP1 PUSH2 0x3B3C JUMP JUMPDEST PUSH1 0x40 MLOAD DUP1 SWAP2 SUB SWAP1 RETURN JUMPDEST PUSH2 0x367 PUSH1 0x4 DUP1 CALLDATASIZE SUB DUP2 ADD SWAP1 PUSH2 0x362 SWAP2 SWAP1 PUSH2 0x3258 JUMP JUMPDEST PUSH2 0xE2A JUMP JUMPDEST PUSH1 0x40 MLOAD PUSH2 0x374 SWAP2 SWAP1 PUSH2 0x3AF1 JUMP JUMPDEST PUSH1 0x40 MLOAD DUP1 SWAP2 SUB SWAP1 RETURN JUMPDEST PUSH2 0x397 PUSH1 0x4 DUP1 CALLDATASIZE SUB DUP2 ADD SWAP1 PUSH2 0x392 SWAP2 SWAP1 PUSH2 0x30A8 JUMP JUMPDEST PUSH2 0xE9C JUMP JUMPDEST STOP JUMPDEST PUSH2 0x3B3 PUSH1 0x4 DUP1 CALLDATASIZE SUB DUP2 ADD SWAP1 PUSH2 0x3AE SWAP2 SWAP1 PUSH2 0x3375 JUMP JUMPDEST PUSH2 0xEFC JUMP JUMPDEST PUSH1 0x40 MLOAD PUSH2 0x3C2 SWAP4 SWAP3 SWAP2 SWAP1 PUSH2 0x3985 JUMP JUMPDEST PUSH1 0x40 MLOAD DUP1 SWAP2 SUB SWAP1 RETURN JUMPDEST PUSH2 0x3D3 PUSH2 0x10BE JUMP JUMPDEST PUSH1 0x40 MLOAD PUSH2 0x3E0 SWAP2 SWAP1 PUSH2 0x3926 JUMP JUMPDEST PUSH1 0x40 MLOAD DUP1 SWAP2 SUB SWAP1 RETURN JUMPDEST PUSH2 0x403 PUSH1 0x4 DUP1 CALLDATASIZE SUB DUP2 ADD SWAP1 PUSH2 0x3FE SWAP2 SWAP1 PUSH2 0x3319 JUMP JUMPDEST PUSH2 0x11F9 JUMP JUMPDEST PUSH1 0x40 MLOAD PUSH2 0x410 SWAP2 SWAP1 PUSH2 0x3AF1 JUMP JUMPDEST PUSH1 0x40 MLOAD DUP1 SWAP2 SUB SWAP1 RETURN JUMPDEST PUSH2 0x433 PUSH1 0x4 DUP1 CALLDATASIZE SUB DUP2 ADD SWAP1 PUSH2 0x42E SWAP2 SWAP1 PUSH2 0x30A8 JUMP JUMPDEST PUSH2 0x1272 JUMP JUMPDEST STOP JUMPDEST PUSH2 0x44F PUSH1 0x4 DUP1 CALLDATASIZE SUB DUP2 ADD SWAP1 PUSH2 0x44A SWAP2 SWAP1 PUSH2 0x3375 JUMP JUMPDEST PUSH2 0x1292 JUMP JUMPDEST PUSH1 0x40 MLOAD PUSH2 0x45D SWAP3 SWAP2 SWAP1 PUSH2 0x3B0C JUMP JUMPDEST PUSH1 0x40 MLOAD DUP1 SWAP2 SUB SWAP1 RETURN JUMPDEST PUSH2 0x480 PUSH1 0x4 DUP1 CALLDATASIZE SUB DUP2 ADD SWAP1 PUSH2 0x47B SWAP2 SWAP1 PUSH2 0x3489 JUMP JUMPDEST PUSH2 0x133E JUMP JUMPDEST PUSH1 0x40 MLOAD PUSH2 0x48D SWAP2 SWAP1 PUSH2 0x3926 JUMP JUMPDEST PUSH1 0x40 MLOAD DUP1 SWAP2 SUB SWAP1 RETURN JUMPDEST PUSH2 0x4B0 PUSH1 0x4 DUP1 CALLDATASIZE SUB DUP2 ADD SWAP1 PUSH2 0x4AB SWAP2 SWAP1 PUSH2 0x3375 JUMP JUMPDEST PUSH2 0x14D0 JUMP JUMPDEST PUSH1 0x40 MLOAD PUSH2 0x4BD SWAP2 SWAP1 PUSH2 0x3963 JUMP JUMPDEST PUSH1 0x40 MLOAD DUP1 SWAP2 SUB SWAP1 RETURN JUMPDEST PUSH2 0x4E0 PUSH1 0x4 DUP1 CALLDATASIZE SUB DUP2 ADD SWAP1 PUSH2 0x4DB SWAP2 SWAP1 PUSH2 0x3375 JUMP JUMPDEST PUSH2 0x1578 JUMP JUMPDEST PUSH1 0x40 MLOAD PUSH2 0x4ED SWAP2 SWAP1 PUSH2 0x38BF JUMP JUMPDEST PUSH1 0x40 MLOAD DUP1 SWAP2 SUB SWAP1 RETURN JUMPDEST PUSH2 0x510 PUSH1 0x4 DUP1 CALLDATASIZE SUB DUP2 ADD SWAP1 PUSH2 0x50B SWAP2 SWAP1 PUSH2 0x303B JUMP JUMPDEST PUSH2 0x15FF JUMP JUMPDEST PUSH1 0x40 MLOAD PUSH2 0x51D SWAP2 SWAP1 PUSH2 0x3AF1 JUMP JUMPDEST PUSH1 0x40 MLOAD DUP1 SWAP2 SUB SWAP1 RETURN JUMPDEST PUSH2 0x540 PUSH1 0x4 DUP1 CALLDATASIZE SUB DUP2 ADD SWAP1 PUSH2 0x53B SWAP2 SWAP1 PUSH2 0x3319 JUMP JUMPDEST PUSH2 0x16B7 JUMP JUMPDEST PUSH1 0x40 MLOAD PUSH2 0x54D SWAP2 SWAP1 PUSH2 0x3AF1 JUMP JUMPDEST PUSH1 0x40 MLOAD DUP1 SWAP2 SUB SWAP1 RETURN JUMPDEST PUSH2 0x570 PUSH1 0x4 DUP1 CALLDATASIZE SUB DUP2 ADD SWAP1 PUSH2 0x56B SWAP2 SWAP1 PUSH2 0x34C9 JUMP JUMPDEST PUSH2 0x1730 JUMP JUMPDEST PUSH1 0x40 MLOAD PUSH2 0x57D SWAP2 SWAP1 PUSH2 0x3AF1 JUMP JUMPDEST PUSH1 0x40 MLOAD DUP1 SWAP2 SUB SWAP1 RETURN JUMPDEST PUSH2 0x5A0 PUSH1 0x4 DUP1 CALLDATASIZE SUB DUP2 ADD SWAP1 PUSH2 0x59B SWAP2 SWAP1 PUSH2 0x33FE JUMP JUMPDEST PUSH2 0x17BA JUMP JUMPDEST STOP JUMPDEST PUSH2 0x5BC PUSH1 0x4 DUP1 CALLDATASIZE SUB DUP2 ADD SWAP1 PUSH2 0x5B7 SWAP2 SWAP1 PUSH2 0x3375 JUMP JUMPDEST PUSH2 0x1815 JUMP JUMPDEST PUSH1 0x40 MLOAD PUSH2 0x5C9 SWAP2 SWAP1 PUSH2 0x3963 JUMP JUMPDEST PUSH1 0x40 MLOAD DUP1 SWAP2 SUB SWAP1 RETURN JUMPDEST PUSH2 0x5DA PUSH2 0x18BD JUMP JUMPDEST PUSH1 0x40 MLOAD PUSH2 0x5E7 SWAP2 SWAP1 PUSH2 0x3963 JUMP JUMPDEST PUSH1 0x40 MLOAD DUP1 SWAP2 SUB SWAP1 RETURN JUMPDEST PUSH2 0x5F8 PUSH2 0x194F JUMP JUMPDEST PUSH1 0x40 MLOAD PUSH2 0x605 SWAP2 SWAP1 PUSH2 0x3926 JUMP JUMPDEST PUSH1 0x40 MLOAD DUP1 SWAP2 SUB SWAP1 RETURN JUMPDEST PUSH2 0x628 PUSH1 0x4 DUP1 CALLDATASIZE SUB DUP2 ADD SWAP1 PUSH2 0x623 SWAP2 SWAP1 PUSH2 0x3258 JUMP JUMPDEST PUSH2 0x1A8A JUMP JUMPDEST PUSH1 0x40 MLOAD PUSH2 0x635 SWAP2 SWAP1 PUSH2 0x3AF1 JUMP JUMPDEST PUSH1 0x40 MLOAD DUP1 SWAP2 SUB SWAP1 RETURN JUMPDEST PUSH2 0x658 PUSH1 0x4 DUP1 CALLDATASIZE SUB DUP2 ADD SWAP1 PUSH2 0x653 SWAP2 SWAP1 PUSH2 0x317E JUMP JUMPDEST PUSH2 0x1AFC JUMP JUMPDEST STOP JUMPDEST PUSH2 0x674 PUSH1 0x4 DUP1 CALLDATASIZE SUB DUP2 ADD SWAP1 PUSH2 0x66F SWAP2 SWAP1 PUSH2 0x3258 JUMP JUMPDEST PUSH2 0x1B12 JUMP JUMPDEST PUSH1 0x40 MLOAD PUSH2 0x681 SWAP2 SWAP1 PUSH2 0x3AF1 JUMP JUMPDEST PUSH1 0x40 MLOAD DUP1 SWAP2 SUB SWAP1 RETURN JUMPDEST PUSH2 0x692 PUSH2 0x1B9A JUMP JUMPDEST STOP JUMPDEST PUSH2 0x6AE PUSH1 0x4 DUP1 CALLDATASIZE SUB DUP2 ADD SWAP1 PUSH2 0x6A9 SWAP2 SWAP1 PUSH2 0x30FB JUMP JUMPDEST PUSH2 0x1D18 JUMP JUMPDEST STOP JUMPDEST PUSH2 0x6CA PUSH1 0x4 DUP1 CALLDATASIZE SUB DUP2 ADD SWAP1 PUSH2 0x6C5 SWAP2 SWAP1 PUSH2 0x33A2 JUMP JUMPDEST PUSH2 0x1D7A JUMP JUMPDEST STOP JUMPDEST PUSH2 0x6D4 PUSH2 0x1DA9 JUMP JUMPDEST PUSH1 0x40 MLOAD PUSH2 0x6E1 SWAP2 SWAP1 PUSH2 0x3926 JUMP JUMPDEST PUSH1 0x40 MLOAD DUP1 SWAP2 SUB SWAP1 RETURN JUMPDEST PUSH2 0x704 PUSH1 0x4 DUP1 CALLDATASIZE SUB DUP2 ADD SWAP1 PUSH2 0x6FF SWAP2 SWAP1 PUSH2 0x33A2 JUMP JUMPDEST PUSH2 0x1EE4 JUMP JUMPDEST STOP JUMPDEST PUSH2 0x720 PUSH1 0x4 DUP1 CALLDATASIZE SUB DUP2 ADD SWAP1 PUSH2 0x71B SWAP2 SWAP1 PUSH2 0x32A1 JUMP JUMPDEST PUSH2 0x1F13 JUMP JUMPDEST PUSH1 0x40 MLOAD PUSH2 0x72D SWAP2 SWAP1 PUSH2 0x3AF1 JUMP JUMPDEST PUSH1 0x40 MLOAD DUP1 SWAP2 SUB SWAP1 RETURN JUMPDEST PUSH2 0x750 PUSH1 0x4 DUP1 CALLDATASIZE SUB DUP2 ADD SWAP1 PUSH2 0x74B SWAP2 SWAP1 PUSH2 0x3375 JUMP JUMPDEST PUSH2 0x1FF7 JUMP JUMPDEST PUSH1 0x40 MLOAD PUSH2 0x75D SWAP2 SWAP1 PUSH2 0x3963 JUMP JUMPDEST PUSH1 0x40 MLOAD DUP1 SWAP2 SUB SWAP1 RETURN JUMPDEST PUSH2 0x780 PUSH1 0x4 DUP1 CALLDATASIZE SUB DUP2 ADD SWAP1 PUSH2 0x77B SWAP2 SWAP1 PUSH2 0x3375 JUMP JUMPDEST PUSH2 0x205F JUMP JUMPDEST PUSH1 0x40 MLOAD PUSH2 0x78D SWAP2 SWAP1 PUSH2 0x3963 JUMP JUMPDEST PUSH1 0x40 MLOAD DUP1 SWAP2 SUB SWAP1 RETURN JUMPDEST PUSH2 0x7B0 PUSH1 0x4 DUP1 CALLDATASIZE SUB DUP2 ADD SWAP1 PUSH2 0x7AB SWAP2 SWAP1 PUSH2 0x3068 JUMP JUMPDEST PUSH2 0x2107 JUMP JUMPDEST PUSH1 0x40 MLOAD PUSH2 0x7BD SWAP2 SWAP1 PUSH2 0x3948 JUMP JUMPDEST PUSH1 0x40 MLOAD DUP1 SWAP2 SUB SWAP1 RETURN JUMPDEST PUSH1 0x0 PUSH32 0x80AC58CD00000000000000000000000000000000000000000000000000000000 PUSH28 0xFFFFFFFFFFFFFFFFFFFFFFFFFFFFFFFFFFFFFFFFFFFFFFFFFFFFFFFF NOT AND DUP3 PUSH28 0xFFFFFFFFFFFFFFFFFFFFFFFFFFFFFFFFFFFFFFFFFFFFFFFFFFFFFFFF NOT AND EQ DUP1 PUSH2 0x891 JUMPI POP PUSH32 0x5B5E139F00000000000000000000000000000000000000000000000000000000 PUSH28 0xFFFFFFFFFFFFFFFFFFFFFFFFFFFFFFFFFFFFFFFFFFFFFFFFFFFFFFFF NOT AND DUP3 PUSH28 0xFFFFFFFFFFFFFFFFFFFFFFFFFFFFFFFFFFFFFFFFFFFFFFFFFFFFFFFF NOT AND EQ JUMPDEST DUP1 PUSH2 0x8A1 JUMPI POP PUSH2 0x8A0 DUP3 PUSH2 0x219B JUMP JUMPDEST JUMPDEST SWAP1 POP SWAP2 SWAP1 POP JUMP JUMPDEST PUSH1 0x60 PUSH1 0x0 DUP1 SLOAD PUSH2 0x8B7 SWAP1 PUSH2 0x3DEE JUMP JUMPDEST DUP1 PUSH1 0x1F ADD PUSH1 0x20 DUP1 SWAP2 DIV MUL PUSH1 0x20 ADD PUSH1 0x40 MLOAD SWAP1 DUP2 ADD PUSH1 0x40 MSTORE DUP1 SWAP3 SWAP2 SWAP1 DUP2 DUP2 MSTORE PUSH1 0x20 ADD DUP3 DUP1 SLOAD PUSH2 0x8E3 SWAP1 PUSH2 0x3DEE JUMP JUMPDEST DUP1 ISZERO PUSH2 0x930 JUMPI DUP1 PUSH1 0x1F LT PUSH2 0x905 JUMPI PUSH2 0x100 DUP1 DUP4 SLOAD DIV MUL DUP4 MSTORE SWAP2 PUSH1 0x20 ADD SWAP2 PUSH2 0x930 JUMP JUMPDEST DUP3 ADD SWAP2 SWAP1 PUSH1 0x0 MSTORE PUSH1 0x20 PUSH1 0x0 KECCAK256 SWAP1 JUMPDEST DUP2 SLOAD DUP2 MSTORE SWAP1 PUSH1 0x1 ADD SWAP1 PUSH1 0x20 ADD DUP1 DUP4 GT PUSH2 0x913 JUMPI DUP3 SWAP1 SUB PUSH1 0x1F AND DUP3 ADD SWAP2 JUMPDEST POP POP POP POP POP SWAP1 POP SWAP1 JUMP JUMPDEST PUSH1 0x0 PUSH2 0x945 DUP3 PUSH2 0x2205 JUMP JUMPDEST PUSH1 0x4 PUSH1 0x0 DUP4 DUP2 MSTORE PUSH1 0x20 ADD SWAP1 DUP2 MSTORE PUSH1 0x20 ADD PUSH1 0x0 KECCAK256 PUSH1 0x0 SWAP1 SLOAD SWAP1 PUSH2 0x100 EXP SWAP1 DIV PUSH20 0xFFFFFFFFFFFFFFFFFFFFFFFFFFFFFFFFFFFFFFFF AND SWAP1 POP SWAP2 SWAP1 POP JUMP JUMPDEST PUSH1 0x0 PUSH2 0x98B DUP3 PUSH2 0x1578 JUMP JUMPDEST SWAP1 POP DUP1 PUSH20 0xFFFFFFFFFFFFFFFFFFFFFFFFFFFFFFFFFFFFFFFF AND DUP4 PUSH20 0xFFFFFFFFFFFFFFFFFFFFFFFFFFFFFFFFFFFFFFFF AND EQ ISZERO PUSH2 0x9FC JUMPI PUSH1 0x40 MLOAD PUSH32 0x8C379A000000000000000000000000000000000000000000000000000000000 DUP2 MSTORE PUSH1 0x4 ADD PUSH2 0x9F3 SWAP1 PUSH2 0x3AB1 JUMP JUMPDEST PUSH1 0x40 MLOAD DUP1 SWAP2 SUB SWAP1 REVERT JUMPDEST DUP1 PUSH20 0xFFFFFFFFFFFFFFFFFFFFFFFFFFFFFFFFFFFFFFFF AND PUSH2 0xA1B PUSH2 0x2250 JUMP JUMPDEST PUSH20 0xFFFFFFFFFFFFFFFFFFFFFFFFFFFFFFFFFFFFFFFF AND EQ DUP1 PUSH2 0xA4A JUMPI POP PUSH2 0xA49 DUP2 PUSH2 0xA44 PUSH2 0x2250 JUMP JUMPDEST PUSH2 0x2107 JUMP JUMPDEST JUMPDEST PUSH2 0xA89 JUMPI PUSH1 0x40 MLOAD PUSH32 0x8C379A000000000000000000000000000000000000000000000000000000000 DUP2 MSTORE PUSH1 0x4 ADD PUSH2 0xA80 SWAP1 PUSH2 0x3AD1 JUMP JUMPDEST PUSH1 0x40 MLOAD DUP1 SWAP2 SUB SWAP1 REVERT JUMPDEST PUSH2 0xA93 DUP4 DUP4 PUSH2 0x2258 JUMP JUMPDEST POP POP POP JUMP JUMPDEST PUSH1 0x60 PUSH1 0x0 PUSH1 0x7 SLOAD PUSH8 0xFFFFFFFFFFFFFFFF DUP2 GT ISZERO PUSH2 0xAB8 JUMPI PUSH2 0xAB7 PUSH2 0x3F56 JUMP JUMPDEST JUMPDEST PUSH1 0x40 MLOAD SWAP1 DUP1 DUP3 MSTORE DUP1 PUSH1 0x20 MUL PUSH1 0x20 ADD DUP3 ADD PUSH1 0x40 MSTORE DUP1 ISZERO PUSH2 0xAEB JUMPI DUP2 PUSH1 0x20 ADD JUMPDEST PUSH1 0x60 DUP2 MSTORE PUSH1 0x20 ADD SWAP1 PUSH1 0x1 SWAP1 SUB SWAP1 DUP2 PUSH2 0xAD6 JUMPI SWAP1 POP JUMPDEST POP SWAP1 POP PUSH1 0x0 DUP1 PUSH1 0x0 SWAP1 POP JUMPDEST PUSH1 0x7 SLOAD DUP2 LT ISZERO PUSH2 0xBFD JUMPI DUP5 PUSH1 0xB PUSH1 0x0 DUP4 DUP2 MSTORE PUSH1 0x20 ADD SWAP1 DUP2 MSTORE PUSH1 0x20 ADD PUSH1 0x0 KECCAK256 PUSH1 0x0 ADD SLOAD EQ ISZERO PUSH2 0xBEA JUMPI PUSH1 0xB PUSH1 0x0 DUP3 DUP2 MSTORE PUSH1 0x20 ADD SWAP1 DUP2 MSTORE PUSH1 0x20 ADD PUSH1 0x0 KECCAK256 PUSH1 0x1 ADD DUP1 SLOAD PUSH2 0xB3F SWAP1 PUSH2 0x3DEE JUMP JUMPDEST DUP1 PUSH1 0x1F ADD PUSH1 0x20 DUP1 SWAP2 DIV MUL PUSH1 0x20 ADD PUSH1 0x40 MLOAD SWAP1 DUP2 ADD PUSH1 0x40 MSTORE DUP1 SWAP3 SWAP2 SWAP1 DUP2 DUP2 MSTORE PUSH1 0x20 ADD DUP3 DUP1 SLOAD PUSH2 0xB6B SWAP1 PUSH2 0x3DEE JUMP JUMPDEST DUP1 ISZERO PUSH2 0xBB8 JUMPI DUP1 PUSH1 0x1F LT PUSH2 0xB8D JUMPI PUSH2 0x100 DUP1 DUP4 SLOAD DIV MUL DUP4 MSTORE SWAP2 PUSH1 0x20 ADD SWAP2 PUSH2 0xBB8 JUMP JUMPDEST DUP3 ADD SWAP2 SWAP1 PUSH1 0x0 MSTORE PUSH1 0x20 PUSH1 0x0 KECCAK256 SWAP1 JUMPDEST DUP2 SLOAD DUP2 MSTORE SWAP1 PUSH1 0x1 ADD SWAP1 PUSH1 0x20 ADD DUP1 DUP4 GT PUSH2 0xB9B JUMPI DUP3 SWAP1 SUB PUSH1 0x1F AND DUP3 ADD SWAP2 JUMPDEST POP POP POP POP POP DUP4 DUP4 DUP2 MLOAD DUP2 LT PUSH2 0xBD0 JUMPI PUSH2 0xBCF PUSH2 0x3F27 JUMP JUMPDEST JUMPDEST PUSH1 0x20 MUL PUSH1 0x20 ADD ADD DUP2 SWAP1 MSTORE POP DUP2 DUP1 PUSH2 0xBE6 SWAP1 PUSH2 0x3E51 JUMP JUMPDEST SWAP3 POP POP JUMPDEST DUP1 DUP1 PUSH2 0xBF5 SWAP1 PUSH2 0x3E51 JUMP JUMPDEST SWAP2 POP POP PUSH2 0xAF6 JUMP JUMPDEST POP DUP2 SWAP3 POP POP POP SWAP2 SWAP1 POP JUMP JUMPDEST PUSH1 0x60 PUSH1 0x0 PUSH1 0x8 SLOAD PUSH8 0xFFFFFFFFFFFFFFFF DUP2 GT ISZERO PUSH2 0xC28 JUMPI PUSH2 0xC27 PUSH2 0x3F56 JUMP JUMPDEST JUMPDEST PUSH1 0x40 MLOAD SWAP1 DUP1 DUP3 MSTORE DUP1 PUSH1 0x20 MUL PUSH1 0x20 ADD DUP3 ADD PUSH1 0x40 MSTORE DUP1 ISZERO PUSH2 0xC5B JUMPI DUP2 PUSH1 0x20 ADD JUMPDEST PUSH1 0x60 DUP2 MSTORE PUSH1 0x20 ADD SWAP1 PUSH1 0x1 SWAP1 SUB SWAP1 DUP2 PUSH2 0xC46 JUMPI SWAP1 POP JUMPDEST POP SWAP1 POP PUSH1 0x0 DUP1 PUSH1 0x0 SWAP1 POP JUMPDEST PUSH1 0x8 SLOAD DUP2 LT ISZERO PUSH2 0xD6D JUMPI DUP5 PUSH1 0xC PUSH1 0x0 DUP4 DUP2 MSTORE PUSH1 0x20 ADD SWAP1 DUP2 MSTORE PUSH1 0x20 ADD PUSH1 0x0 KECCAK256 PUSH1 0x0 ADD SLOAD EQ ISZERO PUSH2 0xD4C JUMPI PUSH1 0xC PUSH1 0x0 DUP3 DUP2 MSTORE PUSH1 0x20 ADD SWAP1 DUP2 MSTORE PUSH1 0x20 ADD PUSH1 0x0 KECCAK256 PUSH1 0x1 ADD DUP1 SLOAD PUSH2 0xCAF SWAP1 PUSH2 0x3DEE JUMP JUMPDEST DUP1 PUSH1 0x1F ADD PUSH1 0x20 DUP1 SWAP2 DIV MUL PUSH1 0x20 ADD PUSH1 0x40 MLOAD SWAP1 DUP2 ADD PUSH1 0x40 MSTORE DUP1 SWAP3 SWAP2 SWAP1 DUP2 DUP2 MSTORE PUSH1 0x20 ADD DUP3 DUP1 SLOAD PUSH2 0xCDB SWAP1 PUSH2 0x3DEE JUMP JUMPDEST DUP1 ISZERO PUSH2 0xD28 JUMPI DUP1 PUSH1 0x1F LT PUSH2 0xCFD JUMPI PUSH2 0x100 DUP1 DUP4 SLOAD DIV MUL DUP4 MSTORE SWAP2 PUSH1 0x20 ADD SWAP2 PUSH2 0xD28 JUMP JUMPDEST DUP3 ADD SWAP2 SWAP1 PUSH1 0x0 MSTORE PUSH1 0x20 PUSH1 0x0 KECCAK256 SWAP1 JUMPDEST DUP2 SLOAD DUP2 MSTORE SWAP1 PUSH1 0x1 ADD SWAP1 PUSH1 0x20 ADD DUP1 DUP4 GT PUSH2 0xD0B JUMPI DUP3 SWAP1 SUB PUSH1 0x1F AND DUP3 ADD SWAP2 JUMPDEST POP POP POP POP POP DUP4 DUP4 DUP2 MLOAD DUP2 LT PUSH2 0xD40 JUMPI PUSH2 0xD3F PUSH2 0x3F27 JUMP JUMPDEST JUMPDEST PUSH1 0x20 MUL PUSH1 0x20 ADD ADD DUP2 SWAP1 MSTORE POP JUMPDEST DUP2 DUP1 PUSH2 0xD57 SWAP1 PUSH2 0x3E51 JUMP JUMPDEST SWAP3 POP POP DUP1 DUP1 PUSH2 0xD65 SWAP1 PUSH2 0x3E51 JUMP JUMPDEST SWAP2 POP POP PUSH2 0xC66 JUMP JUMPDEST POP DUP2 SWAP3 POP POP POP SWAP2 SWAP1 POP JUMP JUMPDEST PUSH1 0xD PUSH1 0x20 MSTORE DUP1 PUSH1 0x0 MSTORE PUSH1 0x40 PUSH1 0x0 KECCAK256 PUSH1 0x0 SWAP2 POP SWAP1 POP DUP1 PUSH1 0x0 ADD SLOAD SWAP1 DUP1 PUSH1 0x1 ADD SLOAD SWAP1 DUP1 PUSH1 0x2 ADD DUP1 SLOAD PUSH2 0xDA7 SWAP1 PUSH2 0x3DEE JUMP JUMPDEST DUP1 PUSH1 0x1F ADD PUSH1 0x20 DUP1 SWAP2 DIV MUL PUSH1 0x20 ADD PUSH1 0x40 MLOAD SWAP1 DUP2 ADD PUSH1 0x40 MSTORE DUP1 SWAP3 SWAP2 SWAP1 DUP2 DUP2 MSTORE PUSH1 0x20 ADD DUP3 DUP1 SLOAD PUSH2 0xDD3 SWAP1 PUSH2 0x3DEE JUMP JUMPDEST DUP1 ISZERO PUSH2 0xE20 JUMPI DUP1 PUSH1 0x1F LT PUSH2 0xDF5 JUMPI PUSH2 0x100 DUP1 DUP4 SLOAD DIV MUL DUP4 MSTORE SWAP2 PUSH1 0x20 ADD SWAP2 PUSH2 0xE20 JUMP JUMPDEST DUP3 ADD SWAP2 SWAP1 PUSH1 0x0 MSTORE PUSH1 0x20 PUSH1 0x0 KECCAK256 SWAP1 JUMPDEST DUP2 SLOAD DUP2 MSTORE SWAP1 PUSH1 0x1 ADD SWAP1 PUSH1 0x20 ADD DUP1 DUP4 GT PUSH2 0xE03 JUMPI DUP3 SWAP1 SUB PUSH1 0x1F AND DUP3 ADD SWAP2 JUMPDEST POP POP POP POP POP SWAP1 POP DUP4 JUMP JUMPDEST PUSH1 0x0 DUP1 PUSH1 0x0 SWAP1 POP JUMPDEST PUSH1 0x7 SLOAD DUP2 LT ISZERO PUSH2 0xE91 JUMPI DUP3 DUP1 MLOAD SWAP1 PUSH1 0x20 ADD KECCAK256 PUSH1 0xB PUSH1 0x0 DUP4 DUP2 MSTORE PUSH1 0x20 ADD SWAP1 DUP2 MSTORE PUSH1 0x20 ADD PUSH1 0x0 KECCAK256 PUSH1 0x1 ADD PUSH1 0x40 MLOAD PUSH2 0xE67 SWAP2 SWAP1 PUSH2 0x3884 JUMP JUMPDEST PUSH1 0x40 MLOAD DUP1 SWAP2 SUB SWAP1 KECCAK256 EQ ISZERO PUSH2 0xE7E JUMPI DUP1 SWAP2 POP POP PUSH2 0xE97 JUMP JUMPDEST DUP1 DUP1 PUSH2 0xE89 SWAP1 PUSH2 0x3E51 JUMP JUMPDEST SWAP2 POP POP PUSH2 0xE32 JUMP JUMPDEST POP PUSH1 0x0 SWAP1 POP JUMPDEST SWAP2 SWAP1 POP JUMP JUMPDEST PUSH2 0xEAD PUSH2 0xEA7 PUSH2 0x2250 JUMP JUMPDEST DUP3 PUSH2 0x2311 JUMP JUMPDEST PUSH2 0xEEC JUMPI PUSH1 0x40 MLOAD PUSH32 0x8C379A000000000000000000000000000000000000000000000000000000000 DUP2 MSTORE PUSH1 0x4 ADD PUSH2 0xEE3 SWAP1 PUSH2 0x39D1 JUMP JUMPDEST PUSH1 0x40 MLOAD DUP1 SWAP2 SUB SWAP1 REVERT JUMPDEST PUSH2 0xEF7 DUP4 DUP4 DUP4 PUSH2 0x23A6 JUMP JUMPDEST POP POP POP JUMP JUMPDEST PUSH1 0xA PUSH1 0x20 MSTORE DUP1 PUSH1 0x0 MSTORE PUSH1 0x40 PUSH1 0x0 KECCAK256 PUSH1 0x0 SWAP2 POP SWAP1 POP DUP1 PUSH1 0x0 ADD DUP1 SLOAD PUSH2 0xF1F SWAP1 PUSH2 0x3DEE JUMP JUMPDEST DUP1 PUSH1 0x1F ADD PUSH1 0x20 DUP1 SWAP2 DIV MUL PUSH1 0x20 ADD PUSH1 0x40 MLOAD SWAP1 DUP2 ADD PUSH1 0x40 MSTORE DUP1 SWAP3 SWAP2 SWAP1 DUP2 DUP2 MSTORE PUSH1 0x20 ADD DUP3 DUP1 SLOAD PUSH2 0xF4B SWAP1 PUSH2 0x3DEE JUMP JUMPDEST DUP1 ISZERO PUSH2 0xF98 JUMPI DUP1 PUSH1 0x1F LT PUSH2 0xF6D JUMPI PUSH2 0x100 DUP1 DUP4 SLOAD DIV MUL DUP4 MSTORE SWAP2 PUSH1 0x20 ADD SWAP2 PUSH2 0xF98 JUMP JUMPDEST DUP3 ADD SWAP2 SWAP1 PUSH1 0x0 MSTORE PUSH1 0x20 PUSH1 0x0 KECCAK256 SWAP1 JUMPDEST DUP2 SLOAD DUP2 MSTORE SWAP1 PUSH1 0x1 ADD SWAP1 PUSH1 0x20 ADD DUP1 DUP4 GT PUSH2 0xF7B JUMPI DUP3 SWAP1 SUB PUSH1 0x1F AND DUP3 ADD SWAP2 JUMPDEST POP POP POP POP POP SWAP1 DUP1 PUSH1 0x1 ADD DUP1 SLOAD PUSH2 0xFAD SWAP1 PUSH2 0x3DEE JUMP JUMPDEST DUP1 PUSH1 0x1F ADD PUSH1 0x20 DUP1 SWAP2 DIV MUL PUSH1 0x20 ADD PUSH1 0x40 MLOAD SWAP1 DUP2 ADD PUSH1 0x40 MSTORE DUP1 SWAP3 SWAP2 SWAP1 DUP2 DUP2 MSTORE PUSH1 0x20 ADD DUP3 DUP1 SLOAD PUSH2 0xFD9 SWAP1 PUSH2 0x3DEE JUMP JUMPDEST DUP1 ISZERO PUSH2 0x1026 JUMPI DUP1 PUSH1 0x1F LT PUSH2 0xFFB JUMPI PUSH2 0x100 DUP1 DUP4 SLOAD DIV MUL DUP4 MSTORE SWAP2 PUSH1 0x20 ADD SWAP2 PUSH2 0x1026 JUMP JUMPDEST DUP3 ADD SWAP2 SWAP1 PUSH1 0x0 MSTORE PUSH1 0x20 PUSH1 0x0 KECCAK256 SWAP1 JUMPDEST DUP2 SLOAD DUP2 MSTORE SWAP1 PUSH1 0x1 ADD SWAP1 PUSH1 0x20 ADD DUP1 DUP4 GT PUSH2 0x1009 JUMPI DUP3 SWAP1 SUB PUSH1 0x1F AND DUP3 ADD SWAP2 JUMPDEST POP POP POP POP POP SWAP1 DUP1 PUSH1 0x2 ADD DUP1 SLOAD PUSH2 0x103B SWAP1 PUSH2 0x3DEE JUMP JUMPDEST DUP1 PUSH1 0x1F ADD PUSH1 0x20 DUP1 SWAP2 DIV MUL PUSH1 0x20 ADD PUSH1 0x40 MLOAD SWAP1 DUP2 ADD PUSH1 0x40 MSTORE DUP1 SWAP3 SWAP2 SWAP1 DUP2 DUP2 MSTORE PUSH1 0x20 ADD DUP3 DUP1 SLOAD PUSH2 0x1067 SWAP1 PUSH2 0x3DEE JUMP JUMPDEST DUP1 ISZERO PUSH2 0x10B4 JUMPI DUP1 PUSH1 0x1F LT PUSH2 0x1089 JUMPI PUSH2 0x100 DUP1 DUP4 SLOAD DIV MUL DUP4 MSTORE SWAP2 PUSH1 0x20 ADD SWAP2 PUSH2 0x10B4 JUMP JUMPDEST DUP3 ADD SWAP2 SWAP1 PUSH1 0x0 MSTORE PUSH1 0x20 PUSH1 0x0 KECCAK256 SWAP1 JUMPDEST DUP2 SLOAD DUP2 MSTORE SWAP1 PUSH1 0x1 ADD SWAP1 PUSH1 0x20 ADD DUP1 DUP4 GT PUSH2 0x1097 JUMPI DUP3 SWAP1 SUB PUSH1 0x1F AND DUP3 ADD SWAP2 JUMPDEST POP POP POP POP POP SWAP1 POP DUP4 JUMP JUMPDEST PUSH1 0x60 PUSH1 0x0 PUSH1 0x7 SLOAD PUSH8 0xFFFFFFFFFFFFFFFF DUP2 GT ISZERO PUSH2 0x10DE JUMPI PUSH2 0x10DD PUSH2 0x3F56 JUMP JUMPDEST JUMPDEST PUSH1 0x40 MLOAD SWAP1 DUP1 DUP3 MSTORE DUP1 PUSH1 0x20 MUL PUSH1 0x20 ADD DUP3 ADD PUSH1 0x40 MSTORE DUP1 ISZERO PUSH2 0x1111 JUMPI DUP2 PUSH1 0x20 ADD JUMPDEST PUSH1 0x60 DUP2 MSTORE PUSH1 0x20 ADD SWAP1 PUSH1 0x1 SWAP1 SUB SWAP1 DUP2 PUSH2 0x10FC JUMPI SWAP1 POP JUMPDEST POP SWAP1 POP PUSH1 0x0 JUMPDEST PUSH1 0x7 SLOAD DUP2 LT ISZERO PUSH2 0x11F1 JUMPI PUSH1 0xB PUSH1 0x0 DUP3 DUP2 MSTORE PUSH1 0x20 ADD SWAP1 DUP2 MSTORE PUSH1 0x20 ADD PUSH1 0x0 KECCAK256 PUSH1 0x1 ADD DUP1 SLOAD PUSH2 0x1142 SWAP1 PUSH2 0x3DEE JUMP JUMPDEST DUP1 PUSH1 0x1F ADD PUSH1 0x20 DUP1 SWAP2 DIV MUL PUSH1 0x20 ADD PUSH1 0x40 MLOAD SWAP1 DUP2 ADD PUSH1 0x40 MSTORE DUP1 SWAP3 SWAP2 SWAP1 DUP2 DUP2 MSTORE PUSH1 0x20 ADD DUP3 DUP1 SLOAD PUSH2 0x116E SWAP1 PUSH2 0x3DEE JUMP JUMPDEST DUP1 ISZERO PUSH2 0x11BB JUMPI DUP1 PUSH1 0x1F LT PUSH2 0x1190 JUMPI PUSH2 0x100 DUP1 DUP4 SLOAD DIV MUL DUP4 MSTORE SWAP2 PUSH1 0x20 ADD SWAP2 PUSH2 0x11BB JUMP JUMPDEST DUP3 ADD SWAP2 SWAP1 PUSH1 0x0 MSTORE PUSH1 0x20 PUSH1 0x0 KECCAK256 SWAP1 JUMPDEST DUP2 SLOAD DUP2 MSTORE SWAP1 PUSH1 0x1 ADD SWAP1 PUSH1 0x20 ADD DUP1 DUP4 GT PUSH2 0x119E JUMPI DUP3 SWAP1 SUB PUSH1 0x1F AND DUP3 ADD SWAP2 JUMPDEST POP POP POP POP POP DUP3 DUP3 DUP2 MLOAD DUP2 LT PUSH2 0x11D3 JUMPI PUSH2 0x11D2 PUSH2 0x3F27 JUMP JUMPDEST JUMPDEST PUSH1 0x20 MUL PUSH1 0x20 ADD ADD DUP2 SWAP1 MSTORE POP DUP1 DUP1 PUSH2 0x11E9 SWAP1 PUSH2 0x3E51 JUMP JUMPDEST SWAP2 POP POP PUSH2 0x1117 JUMP JUMPDEST POP DUP1 SWAP2 POP POP SWAP1 JUMP JUMPDEST PUSH1 0x0 PUSH1 0x40 MLOAD DUP1 PUSH1 0x40 ADD PUSH1 0x40 MSTORE DUP1 DUP4 DUP2 MSTORE PUSH1 0x20 ADD DUP5 DUP2 MSTORE POP PUSH1 0xC PUSH1 0x0 PUSH1 0x8 SLOAD DUP2 MSTORE PUSH1 0x20 ADD SWAP1 DUP2 MSTORE PUSH1 0x20 ADD PUSH1 0x0 KECCAK256 PUSH1 0x0 DUP3 ADD MLOAD DUP2 PUSH1 0x0 ADD SSTORE PUSH1 0x20 DUP3 ADD MLOAD DUP2 PUSH1 0x1 ADD SWAP1 DUP1 MLOAD SWAP1 PUSH1 0x20 ADD SWAP1 PUSH2 0x124B SWAP3 SWAP2 SWAP1 PUSH2 0x2E0F JUMP JUMPDEST POP SWAP1 POP POP PUSH1 0x8 PUSH1 0x0 DUP2 SLOAD DUP1 SWAP3 SWAP2 SWAP1 PUSH2 0x1262 SWAP1 PUSH2 0x3E51 JUMP JUMPDEST SWAP2 SWAP1 POP SSTORE POP PUSH1 0x8 SLOAD SWAP1 POP SWAP3 SWAP2 POP POP JUMP JUMPDEST PUSH2 0x128D DUP4 DUP4 DUP4 PUSH1 0x40 MLOAD DUP1 PUSH1 0x20 ADD PUSH1 0x40 MSTORE DUP1 PUSH1 0x0 DUP2 MSTORE POP PUSH2 0x1D18 JUMP JUMPDEST POP POP POP JUMP JUMPDEST PUSH1 0xC PUSH1 0x20 MSTORE DUP1 PUSH1 0x0 MSTORE PUSH1 0x40 PUSH1 0x0 KECCAK256 PUSH1 0x0 SWAP2 POP SWAP1 POP DUP1 PUSH1 0x0 ADD SLOAD SWAP1 DUP1 PUSH1 0x1 ADD DUP1 SLOAD PUSH2 0x12BB SWAP1 PUSH2 0x3DEE JUMP JUMPDEST DUP1 PUSH1 0x1F ADD PUSH1 0x20 DUP1 SWAP2 DIV MUL PUSH1 0x20 ADD PUSH1 0x40 MLOAD SWAP1 DUP2 ADD PUSH1 0x40 MSTORE DUP1 SWAP3 SWAP2 SWAP1 DUP2 DUP2 MSTORE PUSH1 0x20 ADD DUP3 DUP1 SLOAD PUSH2 0x12E7 SWAP1 PUSH2 0x3DEE JUMP JUMPDEST DUP1 ISZERO PUSH2 0x1334 JUMPI DUP1 PUSH1 0x1F LT PUSH2 0x1309 JUMPI PUSH2 0x100 DUP1 DUP4 SLOAD DIV MUL DUP4 MSTORE SWAP2 PUSH1 0x20 ADD SWAP2 PUSH2 0x1334 JUMP JUMPDEST DUP3 ADD SWAP2 SWAP1 PUSH1 0x0 MSTORE PUSH1 0x20 PUSH1 0x0 KECCAK256 SWAP1 JUMPDEST DUP2 SLOAD DUP2 MSTORE SWAP1 PUSH1 0x1 ADD SWAP1 PUSH1 0x20 ADD DUP1 DUP4 GT PUSH2 0x1317 JUMPI DUP3 SWAP1 SUB PUSH1 0x1F AND DUP3 ADD SWAP2 JUMPDEST POP POP POP POP POP SWAP1 POP DUP3 JUMP JUMPDEST PUSH1 0x60 PUSH1 0x0 PUSH1 0x9 SLOAD PUSH8 0xFFFFFFFFFFFFFFFF DUP2 GT ISZERO PUSH2 0x135E JUMPI PUSH2 0x135D PUSH2 0x3F56 JUMP JUMPDEST JUMPDEST PUSH1 0x40 MLOAD SWAP1 DUP1 DUP3 MSTORE DUP1 PUSH1 0x20 MUL PUSH1 0x20 ADD DUP3 ADD PUSH1 0x40 MSTORE DUP1 ISZERO PUSH2 0x1391 JUMPI DUP2 PUSH1 0x20 ADD JUMPDEST PUSH1 0x60 DUP2 MSTORE PUSH1 0x20 ADD SWAP1 PUSH1 0x1 SWAP1 SUB SWAP1 DUP2 PUSH2 0x137C JUMPI SWAP1 POP JUMPDEST POP SWAP1 POP PUSH1 0x0 DUP1 PUSH1 0x0 SWAP1 POP JUMPDEST PUSH1 0x9 SLOAD DUP2 LT ISZERO PUSH2 0x14C4 JUMPI DUP6 PUSH1 0xD PUSH1 0x0 DUP4 DUP2 MSTORE PUSH1 0x20 ADD SWAP1 DUP2 MSTORE PUSH1 0x20 ADD PUSH1 0x0 KECCAK256 PUSH1 0x0 ADD SLOAD EQ DUP1 ISZERO PUSH2 0x13E0 JUMPI POP DUP5 PUSH1 0xD PUSH1 0x0 DUP4 DUP2 MSTORE PUSH1 0x20 ADD SWAP1 DUP2 MSTORE PUSH1 0x20 ADD PUSH1 0x0 KECCAK256 PUSH1 0x1 ADD SLOAD EQ JUMPDEST ISZERO PUSH2 0x14A3 JUMPI PUSH1 0xD PUSH1 0x0 DUP3 DUP2 MSTORE PUSH1 0x20 ADD SWAP1 DUP2 MSTORE PUSH1 0x20 ADD PUSH1 0x0 KECCAK256 PUSH1 0x2 ADD DUP1 SLOAD PUSH2 0x1406 SWAP1 PUSH2 0x3DEE JUMP JUMPDEST DUP1 PUSH1 0x1F ADD PUSH1 0x20 DUP1 SWAP2 DIV MUL PUSH1 0x20 ADD PUSH1 0x40 MLOAD SWAP1 DUP2 ADD PUSH1 0x40 MSTORE DUP1 SWAP3 SWAP2 SWAP1 DUP2 DUP2 MSTORE PUSH1 0x20 ADD DUP3 DUP1 SLOAD PUSH2 0x1432 SWAP1 PUSH2 0x3DEE JUMP JUMPDEST DUP1 ISZERO PUSH2 0x147F JUMPI DUP1 PUSH1 0x1F LT PUSH2 0x1454 JUMPI PUSH2 0x100 DUP1 DUP4 SLOAD DIV MUL DUP4 MSTORE SWAP2 PUSH1 0x20 ADD SWAP2 PUSH2 0x147F JUMP JUMPDEST DUP3 ADD SWAP2 SWAP1 PUSH1 0x0 MSTORE PUSH1 0x20 PUSH1 0x0 KECCAK256 SWAP1 JUMPDEST DUP2 SLOAD DUP2 MSTORE SWAP1 PUSH1 0x1 ADD SWAP1 PUSH1 0x20 ADD DUP1 DUP4 GT PUSH2 0x1462 JUMPI DUP3 SWAP1 SUB PUSH1 0x1F AND DUP3 ADD SWAP2 JUMPDEST POP POP POP POP POP DUP4 DUP4 DUP2 MLOAD DUP2 LT PUSH2 0x1497 JUMPI PUSH2 0x1496 PUSH2 0x3F27 JUMP JUMPDEST JUMPDEST PUSH1 0x20 MUL PUSH1 0x20 ADD ADD DUP2 SWAP1 MSTORE POP JUMPDEST DUP2 DUP1 PUSH2 0x14AE SWAP1 PUSH2 0x3E51 JUMP JUMPDEST SWAP3 POP POP DUP1 DUP1 PUSH2 0x14BC SWAP1 PUSH2 0x3E51 JUMP JUMPDEST SWAP2 POP POP PUSH2 0x139C JUMP JUMPDEST POP DUP2 SWAP3 POP POP POP SWAP3 SWAP2 POP POP JUMP JUMPDEST PUSH1 0x60 PUSH1 0xA PUSH1 0x0 DUP4 DUP2 MSTORE PUSH1 0x20 ADD SWAP1 DUP2 MSTORE PUSH1 0x20 ADD PUSH1 0x0 KECCAK256 PUSH1 0x1 ADD DUP1 SLOAD PUSH2 0x14F3 SWAP1 PUSH2 0x3DEE JUMP JUMPDEST DUP1 PUSH1 0x1F ADD PUSH1 0x20 DUP1 SWAP2 DIV MUL PUSH1 0x20 ADD PUSH1 0x40 MLOAD SWAP1 DUP2 ADD PUSH1 0x40 MSTORE DUP1 SWAP3 SWAP2 SWAP1 DUP2 DUP2 MSTORE PUSH1 0x20 ADD DUP3 DUP1 SLOAD PUSH2 0x151F SWAP1 PUSH2 0x3DEE JUMP JUMPDEST DUP1 ISZERO PUSH2 0x156C JUMPI DUP1 PUSH1 0x1F LT PUSH2 0x1541 JUMPI PUSH2 0x100 DUP1 DUP4 SLOAD DIV MUL DUP4 MSTORE SWAP2 PUSH1 0x20 ADD SWAP2 PUSH2 0x156C JUMP JUMPDEST DUP3 ADD SWAP2 SWAP1 PUSH1 0x0 MSTORE PUSH1 0x20 PUSH1 0x0 KECCAK256 SWAP1 JUMPDEST DUP2 SLOAD DUP2 MSTORE SWAP1 PUSH1 0x1 ADD SWAP1 PUSH1 0x20 ADD DUP1 DUP4 GT PUSH2 0x154F JUMPI DUP3 SWAP1 SUB PUSH1 0x1F AND DUP3 ADD SWAP2 JUMPDEST POP POP POP POP POP SWAP1 POP SWAP2 SWAP1 POP JUMP JUMPDEST PUSH1 0x0 DUP1 PUSH2 0x1584 DUP4 PUSH2 0x26A0 JUMP JUMPDEST SWAP1 POP PUSH1 0x0 PUSH20 0xFFFFFFFFFFFFFFFFFFFFFFFFFFFFFFFFFFFFFFFF AND DUP2 PUSH20 0xFFFFFFFFFFFFFFFFFFFFFFFFFFFFFFFFFFFFFFFF AND EQ ISZERO PUSH2 0x15F6 JUMPI PUSH1 0x40 MLOAD PUSH32 0x8C379A000000000000000000000000000000000000000000000000000000000 DUP2 MSTORE PUSH1 0x4 ADD PUSH2 0x15ED SWAP1 PUSH2 0x3A91 JUMP JUMPDEST PUSH1 0x40 MLOAD DUP1 SWAP2 SUB SWAP1 REVERT JUMPDEST DUP1 SWAP2 POP POP SWAP2 SWAP1 POP JUMP JUMPDEST PUSH1 0x0 DUP1 PUSH20 0xFFFFFFFFFFFFFFFFFFFFFFFFFFFFFFFFFFFFFFFF AND DUP3 PUSH20 0xFFFFFFFFFFFFFFFFFFFFFFFFFFFFFFFFFFFFFFFF AND EQ ISZERO PUSH2 0x1670 JUMPI PUSH1 0x40 MLOAD PUSH32 0x8C379A000000000000000000000000000000000000000000000000000000000 DUP2 MSTORE PUSH1 0x4 ADD PUSH2 0x1667 SWAP1 PUSH2 0x3A71 JUMP JUMPDEST PUSH1 0x40 MLOAD DUP1 SWAP2 SUB SWAP1 REVERT JUMPDEST PUSH1 0x3 PUSH1 0x0 DUP4 PUSH20 0xFFFFFFFFFFFFFFFFFFFFFFFFFFFFFFFFFFFFFFFF AND PUSH20 0xFFFFFFFFFFFFFFFFFFFFFFFFFFFFFFFFFFFFFFFF AND DUP2 MSTORE PUSH1 0x20 ADD SWAP1 DUP2 MSTORE PUSH1 0x20 ADD PUSH1 0x0 KECCAK256 SLOAD SWAP1 POP SWAP2 SWAP1 POP JUMP JUMPDEST PUSH1 0x0 PUSH1 0x40 MLOAD DUP1 PUSH1 0x40 ADD PUSH1 0x40 MSTORE DUP1 DUP4 DUP2 MSTORE PUSH1 0x20 ADD DUP5 DUP2 MSTORE POP PUSH1 0xB PUSH1 0x0 PUSH1 0x7 SLOAD DUP2 MSTORE PUSH1 0x20 ADD SWAP1 DUP2 MSTORE PUSH1 0x20 ADD PUSH1 0x0 KECCAK256 PUSH1 0x0 DUP3 ADD MLOAD DUP2 PUSH1 0x0 ADD SSTORE PUSH1 0x20 DUP3 ADD MLOAD DUP2 PUSH1 0x1 ADD SWAP1 DUP1 MLOAD SWAP1 PUSH1 0x20 ADD SWAP1 PUSH2 0x1709 SWAP3 SWAP2 SWAP1 PUSH2 0x2E0F JUMP JUMPDEST POP SWAP1 POP POP PUSH1 0x7 PUSH1 0x0 DUP2 SLOAD DUP1 SWAP3 SWAP2 SWAP1 PUSH2 0x1720 SWAP1 PUSH2 0x3E51 JUMP JUMPDEST SWAP2 SWAP1 POP SSTORE POP PUSH1 0x7 SLOAD SWAP1 POP SWAP3 SWAP2 POP POP JUMP JUMPDEST PUSH1 0x0 PUSH1 0x40 MLOAD DUP1 PUSH1 0x60 ADD PUSH1 0x40 MSTORE DUP1 DUP6 DUP2 MSTORE PUSH1 0x20 ADD DUP5 DUP2 MSTORE PUSH1 0x20 ADD DUP4 DUP2 MSTORE POP PUSH1 0xD PUSH1 0x0 PUSH1 0x9 SLOAD DUP2 MSTORE PUSH1 0x20 ADD SWAP1 DUP2 MSTORE PUSH1 0x20 ADD PUSH1 0x0 KECCAK256 PUSH1 0x0 DUP3 ADD MLOAD DUP2 PUSH1 0x0 ADD SSTORE PUSH1 0x20 DUP3 ADD MLOAD DUP2 PUSH1 0x1 ADD SSTORE PUSH1 0x40 DUP3 ADD MLOAD DUP2 PUSH1 0x2 ADD SWAP1 DUP1 MLOAD SWAP1 PUSH1 0x20 ADD SWAP1 PUSH2 0x1792 SWAP3 SWAP2 SWAP1 PUSH2 0x2E0F JUMP JUMPDEST POP SWAP1 POP POP PUSH1 0x9 PUSH1 0x0 DUP2 SLOAD DUP1 SWAP3 SWAP2 SWAP1 PUSH2 0x17A9 SWAP1 PUSH2 0x3E51 JUMP JUMPDEST SWAP2 SWAP1 POP SSTORE POP PUSH1 0x9 SLOAD SWAP1 POP SWAP4 SWAP3 POP POP POP JUMP JUMPDEST DUP2 PUSH1 0xA PUSH1 0x0 DUP6 DUP2 MSTORE PUSH1 0x20 ADD SWAP1 DUP2 MSTORE PUSH1 0x20 ADD PUSH1 0x0 KECCAK256 PUSH1 0x0 ADD SWAP1 DUP1 MLOAD SWAP1 PUSH1 0x20 ADD SWAP1 PUSH2 0x17E4 SWAP3 SWAP2 SWAP1 PUSH2 0x2E0F JUMP JUMPDEST POP DUP1 PUSH1 0xA PUSH1 0x0 DUP6 DUP2 MSTORE PUSH1 0x20 ADD SWAP1 DUP2 MSTORE PUSH1 0x20 ADD PUSH1 0x0 KECCAK256 PUSH1 0x1 ADD SWAP1 DUP1 MLOAD SWAP1 PUSH1 0x20 ADD SWAP1 PUSH2 0x180F SWAP3 SWAP2 SWAP1 PUSH2 0x2E0F JUMP JUMPDEST POP POP POP POP JUMP JUMPDEST PUSH1 0x60 PUSH1 0xC PUSH1 0x0 DUP4 DUP2 MSTORE PUSH1 0x20 ADD SWAP1 DUP2 MSTORE PUSH1 0x20 ADD PUSH1 0x0 KECCAK256 PUSH1 0x1 ADD DUP1 SLOAD PUSH2 0x1838 SWAP1 PUSH2 0x3DEE JUMP JUMPDEST DUP1 PUSH1 0x1F ADD PUSH1 0x20 DUP1 SWAP2 DIV MUL PUSH1 0x20 ADD PUSH1 0x40 MLOAD SWAP1 DUP2 ADD PUSH1 0x40 MSTORE DUP1 SWAP3 SWAP2 SWAP1 DUP2 DUP2 MSTORE PUSH1 0x20 ADD DUP3 DUP1 SLOAD PUSH2 0x1864 SWAP1 PUSH2 0x3DEE JUMP JUMPDEST DUP1 ISZERO PUSH2 0x18B1 JUMPI DUP1 PUSH1 0x1F LT PUSH2 0x1886 JUMPI PUSH2 0x100 DUP1 DUP4 SLOAD DIV MUL DUP4 MSTORE SWAP2 PUSH1 0x20 ADD SWAP2 PUSH2 0x18B1 JUMP JUMPDEST DUP3 ADD SWAP2 SWAP1 PUSH1 0x0 MSTORE PUSH1 0x20 PUSH1 0x0 KECCAK256 SWAP1 JUMPDEST DUP2 SLOAD DUP2 MSTORE SWAP1 PUSH1 0x1 ADD SWAP1 PUSH1 0x20 ADD DUP1 DUP4 GT PUSH2 0x1894 JUMPI DUP3 SWAP1 SUB PUSH1 0x1F AND DUP3 ADD SWAP2 JUMPDEST POP POP POP POP POP SWAP1 POP SWAP2 SWAP1 POP JUMP JUMPDEST PUSH1 0x60 PUSH1 0x1 DUP1 SLOAD PUSH2 0x18CC SWAP1 PUSH2 0x3DEE JUMP JUMPDEST DUP1 PUSH1 0x1F ADD PUSH1 0x20 DUP1 SWAP2 DIV MUL PUSH1 0x20 ADD PUSH1 0x40 MLOAD SWAP1 DUP2 ADD PUSH1 0x40 MSTORE DUP1 SWAP3 SWAP2 SWAP1 DUP2 DUP2 MSTORE PUSH1 0x20 ADD DUP3 DUP1 SLOAD PUSH2 0x18F8 SWAP1 PUSH2 0x3DEE JUMP JUMPDEST DUP1 ISZERO PUSH2 0x1945 JUMPI DUP1 PUSH1 0x1F LT PUSH2 0x191A JUMPI PUSH2 0x100 DUP1 DUP4 SLOAD DIV MUL DUP4 MSTORE SWAP2 PUSH1 0x20 ADD SWAP2 PUSH2 0x1945 JUMP JUMPDEST DUP3 ADD SWAP2 SWAP1 PUSH1 0x0 MSTORE PUSH1 0x20 PUSH1 0x0 KECCAK256 SWAP1 JUMPDEST DUP2 SLOAD DUP2 MSTORE SWAP1 PUSH1 0x1 ADD SWAP1 PUSH1 0x20 ADD DUP1 DUP4 GT PUSH2 0x1928 JUMPI DUP3 SWAP1 SUB PUSH1 0x1F AND DUP3 ADD SWAP2 JUMPDEST POP POP POP POP POP SWAP1 POP SWAP1 JUMP JUMPDEST PUSH1 0x60 PUSH1 0x0 PUSH1 0x8 SLOAD PUSH8 0xFFFFFFFFFFFFFFFF DUP2 GT ISZERO PUSH2 0x196F JUMPI PUSH2 0x196E PUSH2 0x3F56 JUMP JUMPDEST JUMPDEST PUSH1 0x40 MLOAD SWAP1 DUP1 DUP3 MSTORE DUP1 PUSH1 0x20 MUL PUSH1 0x20 ADD DUP3 ADD PUSH1 0x40 MSTORE DUP1 ISZERO PUSH2 0x19A2 JUMPI DUP2 PUSH1 0x20 ADD JUMPDEST PUSH1 0x60 DUP2 MSTORE PUSH1 0x20 ADD SWAP1 PUSH1 0x1 SWAP1 SUB SWAP1 DUP2 PUSH2 0x198D JUMPI SWAP1 POP JUMPDEST POP SWAP1 POP PUSH1 0x0 JUMPDEST PUSH1 0x8 SLOAD DUP2 LT ISZERO PUSH2 0x1A82 JUMPI PUSH1 0xC PUSH1 0x0 DUP3 DUP2 MSTORE PUSH1 0x20 ADD SWAP1 DUP2 MSTORE PUSH1 0x20 ADD PUSH1 0x0 KECCAK256 PUSH1 0x1 ADD DUP1 SLOAD PUSH2 0x19D3 SWAP1 PUSH2 0x3DEE JUMP JUMPDEST DUP1 PUSH1 0x1F ADD PUSH1 0x20 DUP1 SWAP2 DIV MUL PUSH1 0x20 ADD PUSH1 0x40 MLOAD SWAP1 DUP2 ADD PUSH1 0x40 MSTORE DUP1 SWAP3 SWAP2 SWAP1 DUP2 DUP2 MSTORE PUSH1 0x20 ADD DUP3 DUP1 SLOAD PUSH2 0x19FF SWAP1 PUSH2 0x3DEE JUMP JUMPDEST DUP1 ISZERO PUSH2 0x1A4C JUMPI DUP1 PUSH1 0x1F LT PUSH2 0x1A21 JUMPI PUSH2 0x100 DUP1 DUP4 SLOAD DIV MUL DUP4 MSTORE SWAP2 PUSH1 0x20 ADD SWAP2 PUSH2 0x1A4C JUMP JUMPDEST DUP3 ADD SWAP2 SWAP1 PUSH1 0x0 MSTORE PUSH1 0x20 PUSH1 0x0 KECCAK256 SWAP1 JUMPDEST DUP2 SLOAD DUP2 MSTORE SWAP1 PUSH1 0x1 ADD SWAP1 PUSH1 0x20 ADD DUP1 DUP4 GT PUSH2 0x1A2F JUMPI DUP3 SWAP1 SUB PUSH1 0x1F AND DUP3 ADD SWAP2 JUMPDEST POP POP POP POP POP DUP3 DUP3 DUP2 MLOAD DUP2 LT PUSH2 0x1A64 JUMPI PUSH2 0x1A63 PUSH2 0x3F27 JUMP JUMPDEST JUMPDEST PUSH1 0x20 MUL PUSH1 0x20 ADD ADD DUP2 SWAP1 MSTORE POP DUP1 DUP1 PUSH2 0x1A7A SWAP1 PUSH2 0x3E51 JUMP JUMPDEST SWAP2 POP POP PUSH2 0x19A8 JUMP JUMPDEST POP DUP1 SWAP2 POP POP SWAP1 JUMP JUMPDEST PUSH1 0x0 DUP1 PUSH1 0x0 SWAP1 POP JUMPDEST PUSH1 0x8 SLOAD DUP2 LT ISZERO PUSH2 0x1AF1 JUMPI DUP3 DUP1 MLOAD SWAP1 PUSH1 0x20 ADD KECCAK256 PUSH1 0xC PUSH1 0x0 DUP4 DUP2 MSTORE PUSH1 0x20 ADD SWAP1 DUP2 MSTORE PUSH1 0x20 ADD PUSH1 0x0 KECCAK256 PUSH1 0x1 ADD PUSH1 0x40 MLOAD PUSH2 0x1AC7 SWAP2 SWAP1 PUSH2 0x3884 JUMP JUMPDEST PUSH1 0x40 MLOAD DUP1 SWAP2 SUB SWAP1 KECCAK256 EQ ISZERO PUSH2 0x1ADE JUMPI DUP1 SWAP2 POP POP PUSH2 0x1AF7 JUMP JUMPDEST DUP1 DUP1 PUSH2 0x1AE9 SWAP1 PUSH2 0x3E51 JUMP JUMPDEST SWAP2 POP POP PUSH2 0x1A92 JUMP JUMPDEST POP PUSH1 0x0 SWAP1 POP JUMPDEST SWAP2 SWAP1 POP JUMP JUMPDEST PUSH2 0x1B0E PUSH2 0x1B07 PUSH2 0x2250 JUMP JUMPDEST DUP4 DUP4 PUSH2 0x26DD JUMP JUMPDEST POP POP JUMP JUMPDEST PUSH1 0x0 DUP1 PUSH1 0x0 SWAP1 POP JUMPDEST PUSH1 0x8 SLOAD DUP2 LT ISZERO PUSH2 0x1B8F JUMPI DUP3 DUP1 MLOAD SWAP1 PUSH1 0x20 ADD KECCAK256 PUSH1 0xC PUSH1 0x0 DUP4 DUP2 MSTORE PUSH1 0x20 ADD SWAP1 DUP2 MSTORE PUSH1 0x20 ADD PUSH1 0x0 KECCAK256 PUSH1 0x1 ADD PUSH1 0x40 MLOAD PUSH2 0x1B4F SWAP2 SWAP1 PUSH2 0x3884 JUMP JUMPDEST PUSH1 0x40 MLOAD DUP1 SWAP2 SUB SWAP1 KECCAK256 EQ ISZERO PUSH2 0x1B7C JUMPI PUSH1 0xC PUSH1 0x0 DUP3 DUP2 MSTORE PUSH1 0x20 ADD SWAP1 DUP2 MSTORE PUSH1 0x20 ADD PUSH1 0x0 KECCAK256 PUSH1 0x0 ADD SLOAD SWAP2 POP POP PUSH2 0x1B95 JUMP JUMPDEST DUP1 DUP1 PUSH2 0x1B87 SWAP1 PUSH2 0x3E51 JUMP JUMPDEST SWAP2 POP POP PUSH2 0x1B1A JUMP JUMPDEST POP PUSH1 0x0 SWAP1 POP JUMPDEST SWAP2 SWAP1 POP JUMP JUMPDEST PUSH1 0x0 PUSH1 0x6 DUP2 SWAP1 SSTORE POP PUSH1 0x0 PUSH1 0x7 DUP2 SWAP1 SSTORE POP PUSH1 0x0 PUSH1 0x8 DUP2 SWAP1 SSTORE POP PUSH1 0x0 PUSH1 0x9 DUP2 SWAP1 SSTORE POP PUSH1 0x0 JUMPDEST PUSH1 0x6 SLOAD DUP2 LT ISZERO PUSH2 0x1C20 JUMPI PUSH1 0xA PUSH1 0x0 DUP3 DUP2 MSTORE PUSH1 0x20 ADD SWAP1 DUP2 MSTORE PUSH1 0x20 ADD PUSH1 0x0 KECCAK256 PUSH1 0x0 DUP1 DUP3 ADD PUSH1 0x0 PUSH2 0x1BEB SWAP2 SWAP1 PUSH2 0x2E95 JUMP JUMPDEST PUSH1 0x1 DUP3 ADD PUSH1 0x0 PUSH2 0x1BFB SWAP2 SWAP1 PUSH2 0x2E95 JUMP JUMPDEST PUSH1 0x2 DUP3 ADD PUSH1 0x0 PUSH2 0x1C0B SWAP2 SWAP1 PUSH2 0x2E95 JUMP JUMPDEST POP POP DUP1 DUP1 PUSH2 0x1C18 SWAP1 PUSH2 0x3E51 JUMP JUMPDEST SWAP2 POP POP PUSH2 0x1BBD JUMP JUMPDEST POP PUSH1 0x0 JUMPDEST PUSH1 0x7 SLOAD DUP2 LT ISZERO PUSH2 0x1C6F JUMPI PUSH1 0xB PUSH1 0x0 DUP3 DUP2 MSTORE PUSH1 0x20 ADD SWAP1 DUP2 MSTORE PUSH1 0x20 ADD PUSH1 0x0 KECCAK256 PUSH1 0x0 DUP1 DUP3 ADD PUSH1 0x0 SWAP1 SSTORE PUSH1 0x1 DUP3 ADD PUSH1 0x0 PUSH2 0x1C5A SWAP2 SWAP1 PUSH2 0x2E95 JUMP JUMPDEST POP POP DUP1 DUP1 PUSH2 0x1C67 SWAP1 PUSH2 0x3E51 JUMP JUMPDEST SWAP2 POP POP PUSH2 0x1C24 JUMP JUMPDEST POP PUSH1 0x0 JUMPDEST PUSH1 0x8 SLOAD DUP2 LT ISZERO PUSH2 0x1CBE JUMPI PUSH1 0xC PUSH1 0x0 DUP3 DUP2 MSTORE PUSH1 0x20 ADD SWAP1 DUP2 MSTORE PUSH1 0x20 ADD PUSH1 0x0 KECCAK256 PUSH1 0x0 DUP1 DUP3 ADD PUSH1 0x0 SWAP1 SSTORE PUSH1 0x1 DUP3 ADD PUSH1 0x0 PUSH2 0x1CA9 SWAP2 SWAP1 PUSH2 0x2E95 JUMP JUMPDEST POP POP DUP1 DUP1 PUSH2 0x1CB6 SWAP1 PUSH2 0x3E51 JUMP JUMPDEST SWAP2 POP POP PUSH2 0x1C73 JUMP JUMPDEST POP PUSH1 0x0 JUMPDEST PUSH1 0x9 SLOAD DUP2 LT ISZERO PUSH2 0x1D15 JUMPI PUSH1 0xD PUSH1 0x0 DUP3 DUP2 MSTORE PUSH1 0x20 ADD SWAP1 DUP2 MSTORE PUSH1 0x20 ADD PUSH1 0x0 KECCAK256 PUSH1 0x0 DUP1 DUP3 ADD PUSH1 0x0 SWAP1 SSTORE PUSH1 0x1 DUP3 ADD PUSH1 0x0 SWAP1 SSTORE PUSH1 0x2 DUP3 ADD PUSH1 0x0 PUSH2 0x1D00 SWAP2 SWAP1 PUSH2 0x2E95 JUMP JUMPDEST POP POP DUP1 DUP1 PUSH2 0x1D0D SWAP1 PUSH2 0x3E51 JUMP JUMPDEST SWAP2 POP POP PUSH2 0x1CC2 JUMP JUMPDEST POP JUMP JUMPDEST PUSH2 0x1D29 PUSH2 0x1D23 PUSH2 0x2250 JUMP JUMPDEST DUP4 PUSH2 0x2311 JUMP JUMPDEST PUSH2 0x1D68 JUMPI PUSH1 0x40 MLOAD PUSH32 0x8C379A000000000000000000000000000000000000000000000000000000000 DUP2 MSTORE PUSH1 0x4 ADD PUSH2 0x1D5F SWAP1 PUSH2 0x39D1 JUMP JUMPDEST PUSH1 0x40 MLOAD DUP1 SWAP2 SUB SWAP1 REVERT JUMPDEST PUSH2 0x1D74 DUP5 DUP5 DUP5 DUP5 PUSH2 0x284A JUMP JUMPDEST POP POP POP POP JUMP JUMPDEST DUP1 PUSH1 0xC PUSH1 0x0 DUP5 DUP2 MSTORE PUSH1 0x20 ADD SWAP1 DUP2 MSTORE PUSH1 0x20 ADD PUSH1 0x0 KECCAK256 PUSH1 0x1 ADD SWAP1 DUP1 MLOAD SWAP1 PUSH1 0x20 ADD SWAP1 PUSH2 0x1DA4 SWAP3 SWAP2 SWAP1 PUSH2 0x2E0F JUMP JUMPDEST POP POP POP JUMP JUMPDEST PUSH1 0x60 PUSH1 0x0 PUSH1 0x6 SLOAD PUSH8 0xFFFFFFFFFFFFFFFF DUP2 GT ISZERO PUSH2 0x1DC9 JUMPI PUSH2 0x1DC8 PUSH2 0x3F56 JUMP JUMPDEST JUMPDEST PUSH1 0x40 MLOAD SWAP1 DUP1 DUP3 MSTORE DUP1 PUSH1 0x20 MUL PUSH1 0x20 ADD DUP3 ADD PUSH1 0x40 MSTORE DUP1 ISZERO PUSH2 0x1DFC JUMPI DUP2 PUSH1 0x20 ADD JUMPDEST PUSH1 0x60 DUP2 MSTORE PUSH1 0x20 ADD SWAP1 PUSH1 0x1 SWAP1 SUB SWAP1 DUP2 PUSH2 0x1DE7 JUMPI SWAP1 POP JUMPDEST POP SWAP1 POP PUSH1 0x0 JUMPDEST PUSH1 0x6 SLOAD DUP2 LT ISZERO PUSH2 0x1EDC JUMPI PUSH1 0xA PUSH1 0x0 DUP3 DUP2 MSTORE PUSH1 0x20 ADD SWAP1 DUP2 MSTORE PUSH1 0x20 ADD PUSH1 0x0 KECCAK256 PUSH1 0x1 ADD DUP1 SLOAD PUSH2 0x1E2D SWAP1 PUSH2 0x3DEE JUMP JUMPDEST DUP1 PUSH1 0x1F ADD PUSH1 0x20 DUP1 SWAP2 DIV MUL PUSH1 0x20 ADD PUSH1 0x40 MLOAD SWAP1 DUP2 ADD PUSH1 0x40 MSTORE DUP1 SWAP3 SWAP2 SWAP1 DUP2 DUP2 MSTORE PUSH1 0x20 ADD DUP3 DUP1 SLOAD PUSH2 0x1E59 SWAP1 PUSH2 0x3DEE JUMP JUMPDEST DUP1 ISZERO PUSH2 0x1EA6 JUMPI DUP1 PUSH1 0x1F LT PUSH2 0x1E7B JUMPI PUSH2 0x100 DUP1 DUP4 SLOAD DIV MUL DUP4 MSTORE SWAP2 PUSH1 0x20 ADD SWAP2 PUSH2 0x1EA6 JUMP JUMPDEST DUP3 ADD SWAP2 SWAP1 PUSH1 0x0 MSTORE PUSH1 0x20 PUSH1 0x0 KECCAK256 SWAP1 JUMPDEST DUP2 SLOAD DUP2 MSTORE SWAP1 PUSH1 0x1 ADD SWAP1 PUSH1 0x20 ADD DUP1 DUP4 GT PUSH2 0x1E89 JUMPI DUP3 SWAP1 SUB PUSH1 0x1F AND DUP3 ADD SWAP2 JUMPDEST POP POP POP POP POP DUP3 DUP3 DUP2 MLOAD DUP2 LT PUSH2 0x1EBE JUMPI PUSH2 0x1EBD PUSH2 0x3F27 JUMP JUMPDEST JUMPDEST PUSH1 0x20 MUL PUSH1 0x20 ADD ADD DUP2 SWAP1 MSTORE POP DUP1 DUP1 PUSH2 0x1ED4 SWAP1 PUSH2 0x3E51 JUMP JUMPDEST SWAP2 POP POP PUSH2 0x1E02 JUMP JUMPDEST POP DUP1 SWAP2 POP POP SWAP1 JUMP JUMPDEST DUP1 PUSH1 0xB PUSH1 0x0 DUP5 DUP2 MSTORE PUSH1 0x20 ADD SWAP1 DUP2 MSTORE PUSH1 0x20 ADD PUSH1 0x0 KECCAK256 PUSH1 0x1 ADD SWAP1 DUP1 MLOAD SWAP1 PUSH1 0x20 ADD SWAP1 PUSH2 0x1F0E SWAP3 SWAP2 SWAP1 PUSH2 0x2E0F JUMP JUMPDEST POP POP POP JUMP JUMPDEST PUSH1 0x0 PUSH1 0x40 MLOAD DUP1 PUSH1 0x60 ADD PUSH1 0x40 MSTORE DUP1 DUP5 DUP2 MSTORE PUSH1 0x20 ADD DUP4 DUP2 MSTORE PUSH1 0x20 ADD PUSH1 0x40 MLOAD DUP1 PUSH1 0x40 ADD PUSH1 0x40 MSTORE DUP1 PUSH1 0x5 DUP2 MSTORE PUSH1 0x20 ADD PUSH32 0x46616C7365000000000000000000000000000000000000000000000000000000 DUP2 MSTORE POP DUP2 MSTORE POP PUSH1 0xA PUSH1 0x0 PUSH1 0x6 SLOAD DUP2 MSTORE PUSH1 0x20 ADD SWAP1 DUP2 MSTORE PUSH1 0x20 ADD PUSH1 0x0 KECCAK256 PUSH1 0x0 DUP3 ADD MLOAD DUP2 PUSH1 0x0 ADD SWAP1 DUP1 MLOAD SWAP1 PUSH1 0x20 ADD SWAP1 PUSH2 0x1F96 SWAP3 SWAP2 SWAP1 PUSH2 0x2E0F JUMP JUMPDEST POP PUSH1 0x20 DUP3 ADD MLOAD DUP2 PUSH1 0x1 ADD SWAP1 DUP1 MLOAD SWAP1 PUSH1 0x20 ADD SWAP1 PUSH2 0x1FB3 SWAP3 SWAP2 SWAP1 PUSH2 0x2E0F JUMP JUMPDEST POP PUSH1 0x40 DUP3 ADD MLOAD DUP2 PUSH1 0x2 ADD SWAP1 DUP1 MLOAD SWAP1 PUSH1 0x20 ADD SWAP1 PUSH2 0x1FD0 SWAP3 SWAP2 SWAP1 PUSH2 0x2E0F JUMP JUMPDEST POP SWAP1 POP POP PUSH1 0x6 PUSH1 0x0 DUP2 SLOAD DUP1 SWAP3 SWAP2 SWAP1 PUSH2 0x1FE7 SWAP1 PUSH2 0x3E51 JUMP JUMPDEST SWAP2 SWAP1 POP SSTORE POP PUSH1 0x6 SLOAD SWAP1 POP SWAP3 SWAP2 POP POP JUMP JUMPDEST PUSH1 0x60 PUSH2 0x2002 DUP3 PUSH2 0x2205 JUMP JUMPDEST PUSH1 0x0 PUSH2 0x200C PUSH2 0x28A6 JUMP JUMPDEST SWAP1 POP PUSH1 0x0 DUP2 MLOAD GT PUSH2 0x202C JUMPI PUSH1 0x40 MLOAD DUP1 PUSH1 0x20 ADD PUSH1 0x40 MSTORE DUP1 PUSH1 0x0 DUP2 MSTORE POP PUSH2 0x2057 JUMP JUMPDEST DUP1 PUSH2 0x2036 DUP5 PUSH2 0x28BD JUMP JUMPDEST PUSH1 0x40 MLOAD PUSH1 0x20 ADD PUSH2 0x2047 SWAP3 SWAP2 SWAP1 PUSH2 0x389B JUMP JUMPDEST PUSH1 0x40 MLOAD PUSH1 0x20 DUP2 DUP4 SUB SUB DUP2 MSTORE SWAP1 PUSH1 0x40 MSTORE JUMPDEST SWAP2 POP POP SWAP2 SWAP1 POP JUMP JUMPDEST PUSH1 0x60 PUSH1 0xB PUSH1 0x0 DUP4 DUP2 MSTORE PUSH1 0x20 ADD SWAP1 DUP2 MSTORE PUSH1 0x20 ADD PUSH1 0x0 KECCAK256 PUSH1 0x1 ADD DUP1 SLOAD PUSH2 0x2082 SWAP1 PUSH2 0x3DEE JUMP JUMPDEST DUP1 PUSH1 0x1F ADD PUSH1 0x20 DUP1 SWAP2 DIV MUL PUSH1 0x20 ADD PUSH1 0x40 MLOAD SWAP1 DUP2 ADD PUSH1 0x40 MSTORE DUP1 SWAP3 SWAP2 SWAP1 DUP2 DUP2 MSTORE PUSH1 0x20 ADD DUP3 DUP1 SLOAD PUSH2 0x20AE SWAP1 PUSH2 0x3DEE JUMP JUMPDEST DUP1 ISZERO PUSH2 0x20FB JUMPI DUP1 PUSH1 0x1F LT PUSH2 0x20D0 JUMPI PUSH2 0x100 DUP1 DUP4 SLOAD DIV MUL DUP4 MSTORE SWAP2 PUSH1 0x20 ADD SWAP2 PUSH2 0x20FB JUMP JUMPDEST DUP3 ADD SWAP2 SWAP1 PUSH1 0x0 MSTORE PUSH1 0x20 PUSH1 0x0 KECCAK256 SWAP1 JUMPDEST DUP2 SLOAD DUP2 MSTORE SWAP1 PUSH1 0x1 ADD SWAP1 PUSH1 0x20 ADD DUP1 DUP4 GT PUSH2 0x20DE JUMPI DUP3 SWAP1 SUB PUSH1 0x1F AND DUP3 ADD SWAP2 JUMPDEST POP POP POP POP POP SWAP1 POP SWAP2 SWAP1 POP JUMP JUMPDEST PUSH1 0x0 PUSH1 0x5 PUSH1 0x0 DUP5 PUSH20 0xFFFFFFFFFFFFFFFFFFFFFFFFFFFFFFFFFFFFFFFF AND PUSH20 0xFFFFFFFFFFFFFFFFFFFFFFFFFFFFFFFFFFFFFFFF AND DUP2 MSTORE PUSH1 0x20 ADD SWAP1 DUP2 MSTORE PUSH1 0x20 ADD PUSH1 0x0 KECCAK256 PUSH1 0x0 DUP4 PUSH20 0xFFFFFFFFFFFFFFFFFFFFFFFFFFFFFFFFFFFFFFFF AND PUSH20 0xFFFFFFFFFFFFFFFFFFFFFFFFFFFFFFFFFFFFFFFF AND DUP2 MSTORE PUSH1 0x20 ADD SWAP1 DUP2 MSTORE PUSH1 0x20 ADD PUSH1 0x0 KECCAK256 PUSH1 0x0 SWAP1 SLOAD SWAP1 PUSH2 0x100 EXP SWAP1 DIV PUSH1 0xFF AND SWAP1 POP SWAP3 SWAP2 POP POP JUMP JUMPDEST PUSH1 0x0 PUSH32 0x1FFC9A700000000000000000000000000000000000000000000000000000000 PUSH28 0xFFFFFFFFFFFFFFFFFFFFFFFFFFFFFFFFFFFFFFFFFFFFFFFFFFFFFFFF NOT AND DUP3 PUSH28 0xFFFFFFFFFFFFFFFFFFFFFFFFFFFFFFFFFFFFFFFFFFFFFFFFFFFFFFFF NOT AND EQ SWAP1 POP SWAP2 SWAP1 POP JUMP JUMPDEST PUSH2 0x220E DUP2 PUSH2 0x2995 JUMP JUMPDEST PUSH2 0x224D JUMPI PUSH1 0x40 MLOAD PUSH32 0x8C379A000000000000000000000000000000000000000000000000000000000 DUP2 MSTORE PUSH1 0x4 ADD PUSH2 0x2244 SWAP1 PUSH2 0x3A91 JUMP JUMPDEST PUSH1 0x40 MLOAD DUP1 SWAP2 SUB SWAP1 REVERT JUMPDEST POP JUMP JUMPDEST PUSH1 0x0 CALLER SWAP1 POP SWAP1 JUMP JUMPDEST DUP2 PUSH1 0x4 PUSH1 0x0 DUP4 DUP2 MSTORE PUSH1 0x20 ADD SWAP1 DUP2 MSTORE PUSH1 0x20 ADD PUSH1 0x0 KECCAK256 PUSH1 0x0 PUSH2 0x100 EXP DUP2 SLOAD DUP2 PUSH20 0xFFFFFFFFFFFFFFFFFFFFFFFFFFFFFFFFFFFFFFFF MUL NOT AND SWAP1 DUP4 PUSH20 0xFFFFFFFFFFFFFFFFFFFFFFFFFFFFFFFFFFFFFFFF AND MUL OR SWAP1 SSTORE POP DUP1 DUP3 PUSH20 0xFFFFFFFFFFFFFFFFFFFFFFFFFFFFFFFFFFFFFFFF AND PUSH2 0x22CB DUP4 PUSH2 0x1578 JUMP JUMPDEST PUSH20 0xFFFFFFFFFFFFFFFFFFFFFFFFFFFFFFFFFFFFFFFF AND PUSH32 0x8C5BE1E5EBEC7D5BD14F71427D1E84F3DD0314C0F7B2291E5B200AC8C7C3B925 PUSH1 0x40 MLOAD PUSH1 0x40 MLOAD DUP1 SWAP2 SUB SWAP1 LOG4 POP POP JUMP JUMPDEST PUSH1 0x0 DUP1 PUSH2 0x231D DUP4 PUSH2 0x1578 JUMP JUMPDEST SWAP1 POP DUP1 PUSH20 0xFFFFFFFFFFFFFFFFFFFFFFFFFFFFFFFFFFFFFFFF AND DUP5 PUSH20 0xFFFFFFFFFFFFFFFFFFFFFFFFFFFFFFFFFFFFFFFF AND EQ DUP1 PUSH2 0x235F JUMPI POP PUSH2 0x235E DUP2 DUP6 PUSH2 0x2107 JUMP JUMPDEST JUMPDEST DUP1 PUSH2 0x239D JUMPI POP DUP4 PUSH20 0xFFFFFFFFFFFFFFFFFFFFFFFFFFFFFFFFFFFFFFFF AND PUSH2 0x2385 DUP5 PUSH2 0x93A JUMP JUMPDEST PUSH20 0xFFFFFFFFFFFFFFFFFFFFFFFFFFFFFFFFFFFFFFFF AND EQ JUMPDEST SWAP2 POP POP SWAP3 SWAP2 POP POP JUMP JUMPDEST DUP3 PUSH20 0xFFFFFFFFFFFFFFFFFFFFFFFFFFFFFFFFFFFFFFFF AND PUSH2 0x23C6 DUP3 PUSH2 0x1578 JUMP JUMPDEST PUSH20 0xFFFFFFFFFFFFFFFFFFFFFFFFFFFFFFFFFFFFFFFF AND EQ PUSH2 0x241C JUMPI PUSH1 0x40 MLOAD PUSH32 0x8C379A000000000000000000000000000000000000000000000000000000000 DUP2 MSTORE PUSH1 0x4 ADD PUSH2 0x2413 SWAP1 PUSH2 0x3A11 JUMP JUMPDEST PUSH1 0x40 MLOAD DUP1 SWAP2 SUB SWAP1 REVERT JUMPDEST PUSH1 0x0 PUSH20 0xFFFFFFFFFFFFFFFFFFFFFFFFFFFFFFFFFFFFFFFF AND DUP3 PUSH20 0xFFFFFFFFFFFFFFFFFFFFFFFFFFFFFFFFFFFFFFFF AND EQ ISZERO PUSH2 0x248C JUMPI PUSH1 0x40 MLOAD PUSH32 0x8C379A000000000000000000000000000000000000000000000000000000000 DUP2 MSTORE PUSH1 0x4 ADD PUSH2 0x2483 SWAP1 PUSH2 0x3A31 JUMP JUMPDEST PUSH1 0x40 MLOAD DUP1 SWAP2 SUB SWAP1 REVERT JUMPDEST PUSH2 0x2499 DUP4 DUP4 DUP4 PUSH1 0x1 PUSH2 0x29D6 JUMP JUMPDEST DUP3 PUSH20 0xFFFFFFFFFFFFFFFFFFFFFFFFFFFFFFFFFFFFFFFF AND PUSH2 0x24B9 DUP3 PUSH2 0x1578 JUMP JUMPDEST PUSH20 0xFFFFFFFFFFFFFFFFFFFFFFFFFFFFFFFFFFFFFFFF AND EQ PUSH2 0x250F JUMPI PUSH1 0x40 MLOAD PUSH32 0x8C379A000000000000000000000000000000000000000000000000000000000 DUP2 MSTORE PUSH1 0x4 ADD PUSH2 0x2506 SWAP1 PUSH2 0x3A11 JUMP JUMPDEST PUSH1 0x40 MLOAD DUP1 SWAP2 SUB SWAP1 REVERT JUMPDEST PUSH1 0x4 PUSH1 0x0 DUP3 DUP2 MSTORE PUSH1 0x20 ADD SWAP1 DUP2 MSTORE PUSH1 0x20 ADD PUSH1 0x0 KECCAK256 PUSH1 0x0 PUSH2 0x100 EXP DUP2 SLOAD SWAP1 PUSH20 0xFFFFFFFFFFFFFFFFFFFFFFFFFFFFFFFFFFFFFFFF MUL NOT AND SWAP1 SSTORE PUSH1 0x1 PUSH1 0x3 PUSH1 0x0 DUP6 PUSH20 0xFFFFFFFFFFFFFFFFFFFFFFFFFFFFFFFFFFFFFFFF AND PUSH20 0xFFFFFFFFFFFFFFFFFFFFFFFFFFFFFFFFFFFFFFFF AND DUP2 MSTORE PUSH1 0x20 ADD SWAP1 DUP2 MSTORE PUSH1 0x20 ADD PUSH1 0x0 KECCAK256 PUSH1 0x0 DUP3 DUP3 SLOAD SUB SWAP3 POP POP DUP2 SWAP1 SSTORE POP PUSH1 0x1 PUSH1 0x3 PUSH1 0x0 DUP5 PUSH20 0xFFFFFFFFFFFFFFFFFFFFFFFFFFFFFFFFFFFFFFFF AND PUSH20 0xFFFFFFFFFFFFFFFFFFFFFFFFFFFFFFFFFFFFFFFF AND DUP2 MSTORE PUSH1 0x20 ADD SWAP1 DUP2 MSTORE PUSH1 0x20 ADD PUSH1 0x0 KECCAK256 PUSH1 0x0 DUP3 DUP3 SLOAD ADD SWAP3 POP POP DUP2 SWAP1 SSTORE POP DUP2 PUSH1 0x2 PUSH1 0x0 DUP4 DUP2 MSTORE PUSH1 0x20 ADD SWAP1 DUP2 MSTORE PUSH1 0x20 ADD PUSH1 0x0 KECCAK256 PUSH1 0x0 PUSH2 0x100 EXP DUP2 SLOAD DUP2 PUSH20 0xFFFFFFFFFFFFFFFFFFFFFFFFFFFFFFFFFFFFFFFF MUL NOT AND SWAP1 DUP4 PUSH20 0xFFFFFFFFFFFFFFFFFFFFFFFFFFFFFFFFFFFFFFFF AND MUL OR SWAP1 SSTORE POP DUP1 DUP3 PUSH20 0xFFFFFFFFFFFFFFFFFFFFFFFFFFFFFFFFFFFFFFFF AND DUP5 PUSH20 0xFFFFFFFFFFFFFFFFFFFFFFFFFFFFFFFFFFFFFFFF AND PUSH32 0xDDF252AD1BE2C89B69C2B068FC378DAA952BA7F163C4A11628F55A4DF523B3EF PUSH1 0x40 MLOAD PUSH1 0x40 MLOAD DUP1 SWAP2 SUB SWAP1 LOG4 PUSH2 0x269B DUP4 DUP4 DUP4 PUSH1 0x1 PUSH2 0x2AFC JUMP JUMPDEST POP POP POP JUMP JUMPDEST PUSH1 0x0 PUSH1 0x2 PUSH1 0x0 DUP4 DUP2 MSTORE PUSH1 0x20 ADD SWAP1 DUP2 MSTORE PUSH1 0x20 ADD PUSH1 0x0 KECCAK256 PUSH1 0x0 SWAP1 SLOAD SWAP1 PUSH2 0x100 EXP SWAP1 DIV PUSH20 0xFFFFFFFFFFFFFFFFFFFFFFFFFFFFFFFFFFFFFFFF AND SWAP1 POP SWAP2 SWAP1 POP JUMP JUMPDEST DUP2 PUSH20 0xFFFFFFFFFFFFFFFFFFFFFFFFFFFFFFFFFFFFFFFF AND DUP4 PUSH20 0xFFFFFFFFFFFFFFFFFFFFFFFFFFFFFFFFFFFFFFFF AND EQ ISZERO PUSH2 0x274C JUMPI PUSH1 0x40 MLOAD PUSH32 0x8C379A000000000000000000000000000000000000000000000000000000000 DUP2 MSTORE PUSH1 0x4 ADD PUSH2 0x2743 SWAP1 PUSH2 0x3A51 JUMP JUMPDEST PUSH1 0x40 MLOAD DUP1 SWAP2 SUB SWAP1 REVERT JUMPDEST DUP1 PUSH1 0x5 PUSH1 0x0 DUP6 PUSH20 0xFFFFFFFFFFFFFFFFFFFFFFFFFFFFFFFFFFFFFFFF AND PUSH20 0xFFFFFFFFFFFFFFFFFFFFFFFFFFFFFFFFFFFFFFFF AND DUP2 MSTORE PUSH1 0x20 ADD SWAP1 DUP2 MSTORE PUSH1 0x20 ADD PUSH1 0x0 KECCAK256 PUSH1 0x0 DUP5 PUSH20 0xFFFFFFFFFFFFFFFFFFFFFFFFFFFFFFFFFFFFFFFF AND PUSH20 0xFFFFFFFFFFFFFFFFFFFFFFFFFFFFFFFFFFFFFFFF AND DUP2 MSTORE PUSH1 0x20 ADD SWAP1 DUP2 MSTORE PUSH1 0x20 ADD PUSH1 0x0 KECCAK256 PUSH1 0x0 PUSH2 0x100 EXP DUP2 SLOAD DUP2 PUSH1 0xFF MUL NOT AND SWAP1 DUP4 ISZERO ISZERO MUL OR SWAP1 SSTORE POP DUP2 PUSH20 0xFFFFFFFFFFFFFFFFFFFFFFFFFFFFFFFFFFFFFFFF AND DUP4 PUSH20 0xFFFFFFFFFFFFFFFFFFFFFFFFFFFFFFFFFFFFFFFF AND PUSH32 0x17307EAB39AB6107E8899845AD3D59BD9653F200F220920489CA2B5937696C31 DUP4 PUSH1 0x40 MLOAD PUSH2 0x283D SWAP2 SWAP1 PUSH2 0x3948 JUMP JUMPDEST PUSH1 0x40 MLOAD DUP1 SWAP2 SUB SWAP1 LOG3 POP POP POP JUMP JUMPDEST PUSH2 0x2855 DUP5 DUP5 DUP5 PUSH2 0x23A6 JUMP JUMPDEST PUSH2 0x2861 DUP5 DUP5 DUP5 DUP5 PUSH2 0x2B02 JUMP JUMPDEST PUSH2 0x28A0 JUMPI PUSH1 0x40 MLOAD PUSH32 0x8C379A000000000000000000000000000000000000000000000000000000000 DUP2 MSTORE PUSH1 0x4 ADD PUSH2 0x2897 SWAP1 PUSH2 0x39F1 JUMP JUMPDEST PUSH1 0x40 MLOAD DUP1 SWAP2 SUB SWAP1 REVERT JUMPDEST POP POP POP POP JUMP JUMPDEST PUSH1 0x60 PUSH1 0x40 MLOAD DUP1 PUSH1 0x20 ADD PUSH1 0x40 MSTORE DUP1 PUSH1 0x0 DUP2 MSTORE POP SWAP1 POP SWAP1 JUMP JUMPDEST PUSH1 0x60 PUSH1 0x0 PUSH1 0x1 PUSH2 0x28CC DUP5 PUSH2 0x2C99 JUMP JUMPDEST ADD SWAP1 POP PUSH1 0x0 DUP2 PUSH8 0xFFFFFFFFFFFFFFFF DUP2 GT ISZERO PUSH2 0x28EB JUMPI PUSH2 0x28EA PUSH2 0x3F56 JUMP JUMPDEST JUMPDEST PUSH1 0x40 MLOAD SWAP1 DUP1 DUP3 MSTORE DUP1 PUSH1 0x1F ADD PUSH1 0x1F NOT AND PUSH1 0x20 ADD DUP3 ADD PUSH1 0x40 MSTORE DUP1 ISZERO PUSH2 0x291D JUMPI DUP2 PUSH1 0x20 ADD PUSH1 0x1 DUP3 MUL DUP1 CALLDATASIZE DUP4 CALLDATACOPY DUP1 DUP3 ADD SWAP2 POP POP SWAP1 POP JUMPDEST POP SWAP1 POP PUSH1 0x0 DUP3 PUSH1 0x20 ADD DUP3 ADD SWAP1 POP JUMPDEST PUSH1 0x1 ISZERO PUSH2 0x298A JUMPI DUP1 DUP1 PUSH1 0x1 SWAP1 SUB SWAP2 POP POP PUSH32 0x3031323334353637383961626364656600000000000000000000000000000000 PUSH1 0xA DUP7 MOD BYTE DUP2 MSTORE8 PUSH1 0xA DUP6 DUP2 PUSH2 0x2974 JUMPI PUSH2 0x2973 PUSH2 0x3EC9 JUMP JUMPDEST JUMPDEST DIV SWAP5 POP PUSH1 0x0 DUP6 EQ ISZERO PUSH2 0x2985 JUMPI PUSH2 0x298A JUMP JUMPDEST PUSH2 0x292B JUMP JUMPDEST DUP2 SWAP4 POP POP POP POP SWAP2 SWAP1 POP JUMP JUMPDEST PUSH1 0x0 DUP1 PUSH20 0xFFFFFFFFFFFFFFFFFFFFFFFFFFFFFFFFFFFFFFFF AND PUSH2 0x29B7 DUP4 PUSH2 0x26A0 JUMP JUMPDEST PUSH20 0xFFFFFFFFFFFFFFFFFFFFFFFFFFFFFFFFFFFFFFFF AND EQ ISZERO SWAP1 POP SWAP2 SWAP1 POP JUMP JUMPDEST PUSH1 0x1 DUP2 GT ISZERO PUSH2 0x2AF6 JUMPI PUSH1 0x0 PUSH20 0xFFFFFFFFFFFFFFFFFFFFFFFFFFFFFFFFFFFFFFFF AND DUP5 PUSH20 0xFFFFFFFFFFFFFFFFFFFFFFFFFFFFFFFFFFFFFFFF AND EQ PUSH2 0x2A6A JUMPI DUP1 PUSH1 0x3 PUSH1 0x0 DUP7 PUSH20 0xFFFFFFFFFFFFFFFFFFFFFFFFFFFFFFFFFFFFFFFF AND PUSH20 0xFFFFFFFFFFFFFFFFFFFFFFFFFFFFFFFFFFFFFFFF AND DUP2 MSTORE PUSH1 0x20 ADD SWAP1 DUP2 MSTORE PUSH1 0x20 ADD PUSH1 0x0 KECCAK256 PUSH1 0x0 DUP3 DUP3 SLOAD PUSH2 0x2A62 SWAP2 SWAP1 PUSH2 0x3D04 JUMP JUMPDEST SWAP3 POP POP DUP2 SWAP1 SSTORE POP JUMPDEST PUSH1 0x0 PUSH20 0xFFFFFFFFFFFFFFFFFFFFFFFFFFFFFFFFFFFFFFFF AND DUP4 PUSH20 0xFFFFFFFFFFFFFFFFFFFFFFFFFFFFFFFFFFFFFFFF AND EQ PUSH2 0x2AF5 JUMPI DUP1 PUSH1 0x3 PUSH1 0x0 DUP6 PUSH20 0xFFFFFFFFFFFFFFFFFFFFFFFFFFFFFFFFFFFFFFFF AND PUSH20 0xFFFFFFFFFFFFFFFFFFFFFFFFFFFFFFFFFFFFFFFF AND DUP2 MSTORE PUSH1 0x20 ADD SWAP1 DUP2 MSTORE PUSH1 0x20 ADD PUSH1 0x0 KECCAK256 PUSH1 0x0 DUP3 DUP3 SLOAD PUSH2 0x2AED SWAP2 SWAP1 PUSH2 0x3CAE JUMP JUMPDEST SWAP3 POP POP DUP2 SWAP1 SSTORE POP JUMPDEST JUMPDEST POP POP POP POP JUMP JUMPDEST POP POP POP POP JUMP JUMPDEST PUSH1 0x0 PUSH2 0x2B23 DUP5 PUSH20 0xFFFFFFFFFFFFFFFFFFFFFFFFFFFFFFFFFFFFFFFF AND PUSH2 0x2DEC JUMP JUMPDEST ISZERO PUSH2 0x2C8C JUMPI DUP4 PUSH20 0xFFFFFFFFFFFFFFFFFFFFFFFFFFFFFFFFFFFFFFFF AND PUSH4 0x150B7A02 PUSH2 0x2B4C PUSH2 0x2250 JUMP JUMPDEST DUP8 DUP7 DUP7 PUSH1 0x40 MLOAD DUP6 PUSH4 0xFFFFFFFF AND PUSH1 0xE0 SHL DUP2 MSTORE PUSH1 0x4 ADD PUSH2 0x2B6E SWAP5 SWAP4 SWAP3 SWAP2 SWAP1 PUSH2 0x38DA JUMP JUMPDEST PUSH1 0x20 PUSH1 0x40 MLOAD DUP1 DUP4 SUB DUP2 PUSH1 0x0 DUP8 DUP1 EXTCODESIZE ISZERO DUP1 ISZERO PUSH2 0x2B88 JUMPI PUSH1 0x0 DUP1 REVERT JUMPDEST POP GAS CALL SWAP3 POP POP POP DUP1 ISZERO PUSH2 0x2BB9 JUMPI POP PUSH1 0x40 MLOAD RETURNDATASIZE PUSH1 0x1F NOT PUSH1 0x1F DUP3 ADD AND DUP3 ADD DUP1 PUSH1 0x40 MSTORE POP DUP2 ADD SWAP1 PUSH2 0x2BB6 SWAP2 SWAP1 PUSH2 0x322B JUMP JUMPDEST PUSH1 0x1 JUMPDEST PUSH2 0x2C3C JUMPI RETURNDATASIZE DUP1 PUSH1 0x0 DUP2 EQ PUSH2 0x2BE9 JUMPI PUSH1 0x40 MLOAD SWAP2 POP PUSH1 0x1F NOT PUSH1 0x3F RETURNDATASIZE ADD AND DUP3 ADD PUSH1 0x40 MSTORE RETURNDATASIZE DUP3 MSTORE RETURNDATASIZE PUSH1 0x0 PUSH1 0x20 DUP5 ADD RETURNDATACOPY PUSH2 0x2BEE JUMP JUMPDEST PUSH1 0x60 SWAP2 POP JUMPDEST POP PUSH1 0x0 DUP2 MLOAD EQ ISZERO PUSH2 0x2C34 JUMPI PUSH1 0x40 MLOAD PUSH32 0x8C379A000000000000000000000000000000000000000000000000000000000 DUP2 MSTORE PUSH1 0x4 ADD PUSH2 0x2C2B SWAP1 PUSH2 0x39F1 JUMP JUMPDEST PUSH1 0x40 MLOAD DUP1 SWAP2 SUB SWAP1 REVERT JUMPDEST DUP1 MLOAD DUP2 PUSH1 0x20 ADD REVERT JUMPDEST PUSH4 0x150B7A02 PUSH1 0xE0 SHL PUSH28 0xFFFFFFFFFFFFFFFFFFFFFFFFFFFFFFFFFFFFFFFFFFFFFFFFFFFFFFFF NOT AND DUP2 PUSH28 0xFFFFFFFFFFFFFFFFFFFFFFFFFFFFFFFFFFFFFFFFFFFFFFFFFFFFFFFF NOT AND EQ SWAP2 POP POP PUSH2 0x2C91 JUMP JUMPDEST PUSH1 0x1 SWAP1 POP JUMPDEST SWAP5 SWAP4 POP POP POP POP JUMP JUMPDEST PUSH1 0x0 DUP1 PUSH1 0x0 SWAP1 POP PUSH27 0x184F03E93FF9F4DAA797ED6E38ED64BF6A1F010000000000000000 DUP4 LT PUSH2 0x2CF7 JUMPI PUSH27 0x184F03E93FF9F4DAA797ED6E38ED64BF6A1F010000000000000000 DUP4 DUP2 PUSH2 0x2CED JUMPI PUSH2 0x2CEC PUSH2 0x3EC9 JUMP JUMPDEST JUMPDEST DIV SWAP3 POP PUSH1 0x40 DUP2 ADD SWAP1 POP JUMPDEST PUSH14 0x4EE2D6D415B85ACEF8100000000 DUP4 LT PUSH2 0x2D34 JUMPI PUSH14 0x4EE2D6D415B85ACEF8100000000 DUP4 DUP2 PUSH2 0x2D2A JUMPI PUSH2 0x2D29 PUSH2 0x3EC9 JUMP JUMPDEST JUMPDEST DIV SWAP3 POP PUSH1 0x20 DUP2 ADD SWAP1 POP JUMPDEST PUSH7 0x2386F26FC10000 DUP4 LT PUSH2 0x2D63 JUMPI PUSH7 0x2386F26FC10000 DUP4 DUP2 PUSH2 0x2D59 JUMPI PUSH2 0x2D58 PUSH2 0x3EC9 JUMP JUMPDEST JUMPDEST DIV SWAP3 POP PUSH1 0x10 DUP2 ADD SWAP1 POP JUMPDEST PUSH4 0x5F5E100 DUP4 LT PUSH2 0x2D8C JUMPI PUSH4 0x5F5E100 DUP4 DUP2 PUSH2 0x2D82 JUMPI PUSH2 0x2D81 PUSH2 0x3EC9 JUMP JUMPDEST JUMPDEST DIV SWAP3 POP PUSH1 0x8 DUP2 ADD SWAP1 POP JUMPDEST PUSH2 0x2710 DUP4 LT PUSH2 0x2DB1 JUMPI PUSH2 0x2710 DUP4 DUP2 PUSH2 0x2DA7 JUMPI PUSH2 0x2DA6 PUSH2 0x3EC9 JUMP JUMPDEST JUMPDEST DIV SWAP3 POP PUSH1 0x4 DUP2 ADD SWAP1 POP JUMPDEST PUSH1 0x64 DUP4 LT PUSH2 0x2DD4 JUMPI PUSH1 0x64 DUP4 DUP2 PUSH2 0x2DCA JUMPI PUSH2 0x2DC9 PUSH2 0x3EC9 JUMP JUMPDEST JUMPDEST DIV SWAP3 POP PUSH1 0x2 DUP2 ADD SWAP1 POP JUMPDEST PUSH1 0xA DUP4 LT PUSH2 0x2DE3 JUMPI PUSH1 0x1 DUP2 ADD SWAP1 POP JUMPDEST DUP1 SWAP2 POP POP SWAP2 SWAP1 POP JUMP JUMPDEST PUSH1 0x0 DUP1 DUP3 PUSH20 0xFFFFFFFFFFFFFFFFFFFFFFFFFFFFFFFFFFFFFFFF AND EXTCODESIZE GT SWAP1 POP SWAP2 SWAP1 POP JUMP JUMPDEST DUP3 DUP1 SLOAD PUSH2 0x2E1B SWAP1 PUSH2 0x3DEE JUMP JUMPDEST SWAP1 PUSH1 0x0 MSTORE PUSH1 0x20 PUSH1 0x0 KECCAK256 SWAP1 PUSH1 0x1F ADD PUSH1 0x20 SWAP1 DIV DUP2 ADD SWAP3 DUP3 PUSH2 0x2E3D JUMPI PUSH1 0x0 DUP6 SSTORE PUSH2 0x2E84 JUMP JUMPDEST DUP3 PUSH1 0x1F LT PUSH2 0x2E56 JUMPI DUP1 MLOAD PUSH1 0xFF NOT AND DUP4 DUP1 ADD OR DUP6 SSTORE PUSH2 0x2E84 JUMP JUMPDEST DUP3 DUP1 ADD PUSH1 0x1 ADD DUP6 SSTORE DUP3 ISZERO PUSH2 0x2E84 JUMPI SWAP2 DUP3 ADD JUMPDEST DUP3 DUP2 GT ISZERO PUSH2 0x2E83 JUMPI DUP3 MLOAD DUP3 SSTORE SWAP2 PUSH1 0x20 ADD SWAP2 SWAP1 PUSH1 0x1 ADD SWAP1 PUSH2 0x2E68 JUMP JUMPDEST JUMPDEST POP SWAP1 POP PUSH2 0x2E91 SWAP2 SWAP1 PUSH2 0x2ED5 JUMP JUMPDEST POP SWAP1 JUMP JUMPDEST POP DUP1 SLOAD PUSH2 0x2EA1 SWAP1 PUSH2 0x3DEE JUMP JUMPDEST PUSH1 0x0 DUP3 SSTORE DUP1 PUSH1 0x1F LT PUSH2 0x2EB3 JUMPI POP PUSH2 0x2ED2 JUMP JUMPDEST PUSH1 0x1F ADD PUSH1 0x20 SWAP1 DIV SWAP1 PUSH1 0x0 MSTORE PUSH1 0x20 PUSH1 0x0 KECCAK256 SWAP1 DUP2 ADD SWAP1 PUSH2 0x2ED1 SWAP2 SWAP1 PUSH2 0x2ED5 JUMP JUMPDEST JUMPDEST POP JUMP JUMPDEST JUMPDEST DUP1 DUP3 GT ISZERO PUSH2 0x2EEE JUMPI PUSH1 0x0 DUP2 PUSH1 0x0 SWAP1 SSTORE POP PUSH1 0x1 ADD PUSH2 0x2ED6 JUMP JUMPDEST POP SWAP1 JUMP JUMPDEST PUSH1 0x0 PUSH2 0x2F05 PUSH2 0x2F00 DUP5 PUSH2 0x3B9F JUMP JUMPDEST PUSH2 0x3B7A JUMP JUMPDEST SWAP1 POP DUP3 DUP2 MSTORE PUSH1 0x20 DUP2 ADD DUP5 DUP5 DUP5 ADD GT ISZERO PUSH2 0x2F21 JUMPI PUSH2 0x2F20 PUSH2 0x3F8A JUMP JUMPDEST JUMPDEST PUSH2 0x2F2C DUP5 DUP3 DUP6 PUSH2 0x3DAC JUMP JUMPDEST POP SWAP4 SWAP3 POP POP POP JUMP JUMPDEST PUSH1 0x0 PUSH2 0x2F47 PUSH2 0x2F42 DUP5 PUSH2 0x3BD0 JUMP JUMPDEST PUSH2 0x3B7A JUMP JUMPDEST SWAP1 POP DUP3 DUP2 MSTORE PUSH1 0x20 DUP2 ADD DUP5 DUP5 DUP5 ADD GT ISZERO PUSH2 0x2F63 JUMPI PUSH2 0x2F62 PUSH2 0x3F8A JUMP JUMPDEST JUMPDEST PUSH2 0x2F6E DUP5 DUP3 DUP6 PUSH2 0x3DAC JUMP JUMPDEST POP SWAP4 SWAP3 POP POP POP JUMP JUMPDEST PUSH1 0x0 DUP2 CALLDATALOAD SWAP1 POP PUSH2 0x2F85 DUP2 PUSH2 0x4225 JUMP JUMPDEST SWAP3 SWAP2 POP POP JUMP JUMPDEST PUSH1 0x0 DUP2 CALLDATALOAD SWAP1 POP PUSH2 0x2F9A DUP2 PUSH2 0x423C JUMP JUMPDEST SWAP3 SWAP2 POP POP JUMP JUMPDEST PUSH1 0x0 DUP2 CALLDATALOAD SWAP1 POP PUSH2 0x2FAF DUP2 PUSH2 0x4253 JUMP JUMPDEST SWAP3 SWAP2 POP POP JUMP JUMPDEST PUSH1 0x0 DUP2 MLOAD SWAP1 POP PUSH2 0x2FC4 DUP2 PUSH2 0x4253 JUMP JUMPDEST SWAP3 SWAP2 POP POP JUMP JUMPDEST PUSH1 0x0 DUP3 PUSH1 0x1F DUP4 ADD SLT PUSH2 0x2FDF JUMPI PUSH2 0x2FDE PUSH2 0x3F85 JUMP JUMPDEST JUMPDEST DUP2 CALLDATALOAD PUSH2 0x2FEF DUP5 DUP3 PUSH1 0x20 DUP7 ADD PUSH2 0x2EF2 JUMP JUMPDEST SWAP2 POP POP SWAP3 SWAP2 POP POP JUMP JUMPDEST PUSH1 0x0 DUP3 PUSH1 0x1F DUP4 ADD SLT PUSH2 0x300D JUMPI PUSH2 0x300C PUSH2 0x3F85 JUMP JUMPDEST JUMPDEST DUP2 CALLDATALOAD PUSH2 0x301D DUP5 DUP3 PUSH1 0x20 DUP7 ADD PUSH2 0x2F34 JUMP JUMPDEST SWAP2 POP POP SWAP3 SWAP2 POP POP JUMP JUMPDEST PUSH1 0x0 DUP2 CALLDATALOAD SWAP1 POP PUSH2 0x3035 DUP2 PUSH2 0x426A JUMP JUMPDEST SWAP3 SWAP2 POP POP JUMP JUMPDEST PUSH1 0x0 PUSH1 0x20 DUP3 DUP5 SUB SLT ISZERO PUSH2 0x3051 JUMPI PUSH2 0x3050 PUSH2 0x3F94 JUMP JUMPDEST JUMPDEST PUSH1 0x0 PUSH2 0x305F DUP5 DUP3 DUP6 ADD PUSH2 0x2F76 JUMP JUMPDEST SWAP2 POP POP SWAP3 SWAP2 POP POP JUMP JUMPDEST PUSH1 0x0 DUP1 PUSH1 0x40 DUP4 DUP6 SUB SLT ISZERO PUSH2 0x307F JUMPI PUSH2 0x307E PUSH2 0x3F94 JUMP JUMPDEST JUMPDEST PUSH1 0x0 PUSH2 0x308D DUP6 DUP3 DUP7 ADD PUSH2 0x2F76 JUMP JUMPDEST SWAP3 POP POP PUSH1 0x20 PUSH2 0x309E DUP6 DUP3 DUP7 ADD PUSH2 0x2F76 JUMP JUMPDEST SWAP2 POP POP SWAP3 POP SWAP3 SWAP1 POP JUMP JUMPDEST PUSH1 0x0 DUP1 PUSH1 0x0 PUSH1 0x60 DUP5 DUP7 SUB SLT ISZERO PUSH2 0x30C1 JUMPI PUSH2 0x30C0 PUSH2 0x3F94 JUMP JUMPDEST JUMPDEST PUSH1 0x0 PUSH2 0x30CF DUP7 DUP3 DUP8 ADD PUSH2 0x2F76 JUMP JUMPDEST SWAP4 POP POP PUSH1 0x20 PUSH2 0x30E0 DUP7 DUP3 DUP8 ADD PUSH2 0x2F76 JUMP JUMPDEST SWAP3 POP POP PUSH1 0x40 PUSH2 0x30F1 DUP7 DUP3 DUP8 ADD PUSH2 0x3026 JUMP JUMPDEST SWAP2 POP POP SWAP3 POP SWAP3 POP SWAP3 JUMP JUMPDEST PUSH1 0x0 DUP1 PUSH1 0x0 DUP1 PUSH1 0x80 DUP6 DUP8 SUB SLT ISZERO PUSH2 0x3115 JUMPI PUSH2 0x3114 PUSH2 0x3F94 JUMP JUMPDEST JUMPDEST PUSH1 0x0 PUSH2 0x3123 DUP8 DUP3 DUP9 ADD PUSH2 0x2F76 JUMP JUMPDEST SWAP5 POP POP PUSH1 0x20 PUSH2 0x3134 DUP8 DUP3 DUP9 ADD PUSH2 0x2F76 JUMP JUMPDEST SWAP4 POP POP PUSH1 0x40 PUSH2 0x3145 DUP8 DUP3 DUP9 ADD PUSH2 0x3026 JUMP JUMPDEST SWAP3 POP POP PUSH1 0x60 DUP6 ADD CALLDATALOAD PUSH8 0xFFFFFFFFFFFFFFFF DUP2 GT ISZERO PUSH2 0x3166 JUMPI PUSH2 0x3165 PUSH2 0x3F8F JUMP JUMPDEST JUMPDEST PUSH2 0x3172 DUP8 DUP3 DUP9 ADD PUSH2 0x2FCA JUMP JUMPDEST SWAP2 POP POP SWAP3 SWAP6 SWAP2 SWAP5 POP SWAP3 POP JUMP JUMPDEST PUSH1 0x0 DUP1 PUSH1 0x40 DUP4 DUP6 SUB SLT ISZERO PUSH2 0x3195 JUMPI PUSH2 0x3194 PUSH2 0x3F94 JUMP JUMPDEST JUMPDEST PUSH1 0x0 PUSH2 0x31A3 DUP6 DUP3 DUP7 ADD PUSH2 0x2F76 JUMP JUMPDEST SWAP3 POP POP PUSH1 0x20 PUSH2 0x31B4 DUP6 DUP3 DUP7 ADD PUSH2 0x2F8B JUMP JUMPDEST SWAP2 POP POP SWAP3 POP SWAP3 SWAP1 POP JUMP JUMPDEST PUSH1 0x0 DUP1 PUSH1 0x40 DUP4 DUP6 SUB SLT ISZERO PUSH2 0x31D5 JUMPI PUSH2 0x31D4 PUSH2 0x3F94 JUMP JUMPDEST JUMPDEST PUSH1 0x0 PUSH2 0x31E3 DUP6 DUP3 DUP7 ADD PUSH2 0x2F76 JUMP JUMPDEST SWAP3 POP POP PUSH1 0x20 PUSH2 0x31F4 DUP6 DUP3 DUP7 ADD PUSH2 0x3026 JUMP JUMPDEST SWAP2 POP POP SWAP3 POP SWAP3 SWAP1 POP JUMP JUMPDEST PUSH1 0x0 PUSH1 0x20 DUP3 DUP5 SUB SLT ISZERO PUSH2 0x3214 JUMPI PUSH2 0x3213 PUSH2 0x3F94 JUMP JUMPDEST JUMPDEST PUSH1 0x0 PUSH2 0x3222 DUP5 DUP3 DUP6 ADD PUSH2 0x2FA0 JUMP JUMPDEST SWAP2 POP POP SWAP3 SWAP2 POP POP JUMP JUMPDEST PUSH1 0x0 PUSH1 0x20 DUP3 DUP5 SUB SLT ISZERO PUSH2 0x3241 JUMPI PUSH2 0x3240 PUSH2 0x3F94 JUMP JUMPDEST JUMPDEST PUSH1 0x0 PUSH2 0x324F DUP5 DUP3 DUP6 ADD PUSH2 0x2FB5 JUMP JUMPDEST SWAP2 POP POP SWAP3 SWAP2 POP POP JUMP JUMPDEST PUSH1 0x0 PUSH1 0x20 DUP3 DUP5 SUB SLT ISZERO PUSH2 0x326E JUMPI PUSH2 0x326D PUSH2 0x3F94 JUMP JUMPDEST JUMPDEST PUSH1 0x0 DUP3 ADD CALLDATALOAD PUSH8 0xFFFFFFFFFFFFFFFF DUP2 GT ISZERO PUSH2 0x328C JUMPI PUSH2 0x328B PUSH2 0x3F8F JUMP JUMPDEST JUMPDEST PUSH2 0x3298 DUP5 DUP3 DUP6 ADD PUSH2 0x2FF8 JUMP JUMPDEST SWAP2 POP POP SWAP3 SWAP2 POP POP JUMP JUMPDEST PUSH1 0x0 DUP1 PUSH1 0x40 DUP4 DUP6 SUB SLT ISZERO PUSH2 0x32B8 JUMPI PUSH2 0x32B7 PUSH2 0x3F94 JUMP JUMPDEST JUMPDEST PUSH1 0x0 DUP4 ADD CALLDATALOAD PUSH8 0xFFFFFFFFFFFFFFFF DUP2 GT ISZERO PUSH2 0x32D6 JUMPI PUSH2 0x32D5 PUSH2 0x3F8F JUMP JUMPDEST JUMPDEST PUSH2 0x32E2 DUP6 DUP3 DUP7 ADD PUSH2 0x2FF8 JUMP JUMPDEST SWAP3 POP POP PUSH1 0x20 DUP4 ADD CALLDATALOAD PUSH8 0xFFFFFFFFFFFFFFFF DUP2 GT ISZERO PUSH2 0x3303 JUMPI PUSH2 0x3302 PUSH2 0x3F8F JUMP JUMPDEST JUMPDEST PUSH2 0x330F DUP6 DUP3 DUP7 ADD PUSH2 0x2FF8 JUMP JUMPDEST SWAP2 POP POP SWAP3 POP SWAP3 SWAP1 POP JUMP JUMPDEST PUSH1 0x0 DUP1 PUSH1 0x40 DUP4 DUP6 SUB SLT ISZERO PUSH2 0x3330 JUMPI PUSH2 0x332F PUSH2 0x3F94 JUMP JUMPDEST JUMPDEST PUSH1 0x0 DUP4 ADD CALLDATALOAD PUSH8 0xFFFFFFFFFFFFFFFF DUP2 GT ISZERO PUSH2 0x334E JUMPI PUSH2 0x334D PUSH2 0x3F8F JUMP JUMPDEST JUMPDEST PUSH2 0x335A DUP6 DUP3 DUP7 ADD PUSH2 0x2FF8 JUMP JUMPDEST SWAP3 POP POP PUSH1 0x20 PUSH2 0x336B DUP6 DUP3 DUP7 ADD PUSH2 0x3026 JUMP JUMPDEST SWAP2 POP POP SWAP3 POP SWAP3 SWAP1 POP JUMP JUMPDEST PUSH1 0x0 PUSH1 0x20 DUP3 DUP5 SUB SLT ISZERO PUSH2 0x338B JUMPI PUSH2 0x338A PUSH2 0x3F94 JUMP JUMPDEST JUMPDEST PUSH1 0x0 PUSH2 0x3399 DUP5 DUP3 DUP6 ADD PUSH2 0x3026 JUMP JUMPDEST SWAP2 POP POP SWAP3 SWAP2 POP POP JUMP JUMPDEST PUSH1 0x0 DUP1 PUSH1 0x40 DUP4 DUP6 SUB SLT ISZERO PUSH2 0x33B9 JUMPI PUSH2 0x33B8 PUSH2 0x3F94 JUMP JUMPDEST JUMPDEST PUSH1 0x0 PUSH2 0x33C7 DUP6 DUP3 DUP7 ADD PUSH2 0x3026 JUMP JUMPDEST SWAP3 POP POP PUSH1 0x20 DUP4 ADD CALLDATALOAD PUSH8 0xFFFFFFFFFFFFFFFF DUP2 GT ISZERO PUSH2 0x33E8 JUMPI PUSH2 0x33E7 PUSH2 0x3F8F JUMP JUMPDEST JUMPDEST PUSH2 0x33F4 DUP6 DUP3 DUP7 ADD PUSH2 0x2FF8 JUMP JUMPDEST SWAP2 POP POP SWAP3 POP SWAP3 SWAP1 POP JUMP JUMPDEST PUSH1 0x0 DUP1 PUSH1 0x0 PUSH1 0x60 DUP5 DUP7 SUB SLT ISZERO PUSH2 0x3417 JUMPI PUSH2 0x3416 PUSH2 0x3F94 JUMP JUMPDEST JUMPDEST PUSH1 0x0 PUSH2 0x3425 DUP7 DUP3 DUP8 ADD PUSH2 0x3026 JUMP JUMPDEST SWAP4 POP POP PUSH1 0x20 DUP5 ADD CALLDATALOAD PUSH8 0xFFFFFFFFFFFFFFFF DUP2 GT ISZERO PUSH2 0x3446 JUMPI PUSH2 0x3445 PUSH2 0x3F8F JUMP JUMPDEST JUMPDEST PUSH2 0x3452 DUP7 DUP3 DUP8 ADD PUSH2 0x2FF8 JUMP JUMPDEST SWAP3 POP POP PUSH1 0x40 DUP5 ADD CALLDATALOAD PUSH8 0xFFFFFFFFFFFFFFFF DUP2 GT ISZERO PUSH2 0x3473 JUMPI PUSH2 0x3472 PUSH2 0x3F8F JUMP JUMPDEST JUMPDEST PUSH2 0x347F DUP7 DUP3 DUP8 ADD PUSH2 0x2FF8 JUMP JUMPDEST SWAP2 POP POP SWAP3 POP SWAP3 POP SWAP3 JUMP JUMPDEST PUSH1 0x0 DUP1 PUSH1 0x40 DUP4 DUP6 SUB SLT ISZERO PUSH2 0x34A0 JUMPI PUSH2 0x349F PUSH2 0x3F94 JUMP JUMPDEST JUMPDEST PUSH1 0x0 PUSH2 0x34AE DUP6 DUP3 DUP7 ADD PUSH2 0x3026 JUMP JUMPDEST SWAP3 POP POP PUSH1 0x20 PUSH2 0x34BF DUP6 DUP3 DUP7 ADD PUSH2 0x3026 JUMP JUMPDEST SWAP2 POP POP SWAP3 POP SWAP3 SWAP1 POP JUMP JUMPDEST PUSH1 0x0 DUP1 PUSH1 0x0 PUSH1 0x60 DUP5 DUP7 SUB SLT ISZERO PUSH2 0x34E2 JUMPI PUSH2 0x34E1 PUSH2 0x3F94 JUMP JUMPDEST JUMPDEST PUSH1 0x0 PUSH2 0x34F0 DUP7 DUP3 DUP8 ADD PUSH2 0x3026 JUMP JUMPDEST SWAP4 POP POP PUSH1 0x20 PUSH2 0x3501 DUP7 DUP3 DUP8 ADD PUSH2 0x3026 JUMP JUMPDEST SWAP3 POP POP PUSH1 0x40 DUP5 ADD CALLDATALOAD PUSH8 0xFFFFFFFFFFFFFFFF DUP2 GT ISZERO PUSH2 0x3522 JUMPI PUSH2 0x3521 PUSH2 0x3F8F JUMP JUMPDEST JUMPDEST PUSH2 0x352E DUP7 DUP3 DUP8 ADD PUSH2 0x2FF8 JUMP JUMPDEST SWAP2 POP POP SWAP3 POP SWAP3 POP SWAP3 JUMP JUMPDEST PUSH1 0x0 PUSH2 0x3544 DUP4 DUP4 PUSH2 0x3697 JUMP JUMPDEST SWAP1 POP SWAP3 SWAP2 POP POP JUMP JUMPDEST PUSH2 0x3555 DUP2 PUSH2 0x3D38 JUMP JUMPDEST DUP3 MSTORE POP POP JUMP JUMPDEST PUSH1 0x0 PUSH2 0x3566 DUP3 PUSH2 0x3C26 JUMP JUMPDEST PUSH2 0x3570 DUP2 DUP6 PUSH2 0x3C54 JUMP JUMPDEST SWAP4 POP DUP4 PUSH1 0x20 DUP3 MUL DUP6 ADD PUSH2 0x3582 DUP6 PUSH2 0x3C01 JUMP JUMPDEST DUP1 PUSH1 0x0 JUMPDEST DUP6 DUP2 LT ISZERO PUSH2 0x35BE JUMPI DUP5 DUP5 SUB DUP10 MSTORE DUP2 MLOAD PUSH2 0x359F DUP6 DUP3 PUSH2 0x3538 JUMP JUMPDEST SWAP5 POP PUSH2 0x35AA DUP4 PUSH2 0x3C47 JUMP JUMPDEST SWAP3 POP PUSH1 0x20 DUP11 ADD SWAP10 POP POP PUSH1 0x1 DUP2 ADD SWAP1 POP PUSH2 0x3586 JUMP JUMPDEST POP DUP3 SWAP8 POP DUP8 SWAP6 POP POP POP POP POP POP SWAP3 SWAP2 POP POP JUMP JUMPDEST PUSH2 0x35D9 DUP2 PUSH2 0x3D4A JUMP JUMPDEST DUP3 MSTORE POP POP JUMP JUMPDEST PUSH1 0x0 PUSH2 0x35EA DUP3 PUSH2 0x3C31 JUMP JUMPDEST PUSH2 0x35F4 DUP2 DUP6 PUSH2 0x3C65 JUMP JUMPDEST SWAP4 POP PUSH2 0x3604 DUP2 DUP6 PUSH1 0x20 DUP7 ADD PUSH2 0x3DBB JUMP JUMPDEST PUSH2 0x360D DUP2 PUSH2 0x3F99 JUMP JUMPDEST DUP5 ADD SWAP2 POP POP SWAP3 SWAP2 POP POP JUMP JUMPDEST PUSH1 0x0 DUP2 SLOAD PUSH2 0x3625 DUP2 PUSH2 0x3DEE JUMP JUMPDEST PUSH2 0x362F DUP2 DUP7 PUSH2 0x3C76 JUMP JUMPDEST SWAP5 POP PUSH1 0x1 DUP3 AND PUSH1 0x0 DUP2 EQ PUSH2 0x364A JUMPI PUSH1 0x1 DUP2 EQ PUSH2 0x365B JUMPI PUSH2 0x368E JUMP JUMPDEST PUSH1 0xFF NOT DUP4 AND DUP7 MSTORE DUP2 DUP7 ADD SWAP4 POP PUSH2 0x368E JUMP JUMPDEST PUSH2 0x3664 DUP6 PUSH2 0x3C11 JUMP JUMPDEST PUSH1 0x0 JUMPDEST DUP4 DUP2 LT ISZERO PUSH2 0x3686 JUMPI DUP2 SLOAD DUP2 DUP10 ADD MSTORE PUSH1 0x1 DUP3 ADD SWAP2 POP PUSH1 0x20 DUP2 ADD SWAP1 POP PUSH2 0x3667 JUMP JUMPDEST DUP4 DUP9 ADD SWAP6 POP POP POP JUMPDEST POP POP POP SWAP3 SWAP2 POP POP JUMP JUMPDEST PUSH1 0x0 PUSH2 0x36A2 DUP3 PUSH2 0x3C3C JUMP JUMPDEST PUSH2 0x36AC DUP2 DUP6 PUSH2 0x3C81 JUMP JUMPDEST SWAP4 POP PUSH2 0x36BC DUP2 DUP6 PUSH1 0x20 DUP7 ADD PUSH2 0x3DBB JUMP JUMPDEST PUSH2 0x36C5 DUP2 PUSH2 0x3F99 JUMP JUMPDEST DUP5 ADD SWAP2 POP POP SWAP3 SWAP2 POP POP JUMP JUMPDEST PUSH1 0x0 PUSH2 0x36DB DUP3 PUSH2 0x3C3C JUMP JUMPDEST PUSH2 0x36E5 DUP2 DUP6 PUSH2 0x3C92 JUMP JUMPDEST SWAP4 POP PUSH2 0x36F5 DUP2 DUP6 PUSH1 0x20 DUP7 ADD PUSH2 0x3DBB JUMP JUMPDEST PUSH2 0x36FE DUP2 PUSH2 0x3F99 JUMP JUMPDEST DUP5 ADD SWAP2 POP POP SWAP3 SWAP2 POP POP JUMP JUMPDEST PUSH1 0x0 PUSH2 0x3714 DUP3 PUSH2 0x3C3C JUMP JUMPDEST PUSH2 0x371E DUP2 DUP6 PUSH2 0x3CA3 JUMP JUMPDEST SWAP4 POP PUSH2 0x372E DUP2 DUP6 PUSH1 0x20 DUP7 ADD PUSH2 0x3DBB JUMP JUMPDEST DUP1 DUP5 ADD SWAP2 POP POP SWAP3 SWAP2 POP POP JUMP JUMPDEST PUSH1 0x0 PUSH2 0x3747 PUSH1 0x2D DUP4 PUSH2 0x3C92 JUMP JUMPDEST SWAP2 POP PUSH2 0x3752 DUP3 PUSH2 0x3FAA JUMP JUMPDEST PUSH1 0x40 DUP3 ADD SWAP1 POP SWAP2 SWAP1 POP JUMP JUMPDEST PUSH1 0x0 PUSH2 0x376A PUSH1 0x32 DUP4 PUSH2 0x3C92 JUMP JUMPDEST SWAP2 POP PUSH2 0x3775 DUP3 PUSH2 0x3FF9 JUMP JUMPDEST PUSH1 0x40 DUP3 ADD SWAP1 POP SWAP2 SWAP1 POP JUMP JUMPDEST PUSH1 0x0 PUSH2 0x378D PUSH1 0x25 DUP4 PUSH2 0x3C92 JUMP JUMPDEST SWAP2 POP PUSH2 0x3798 DUP3 PUSH2 0x4048 JUMP JUMPDEST PUSH1 0x40 DUP3 ADD SWAP1 POP SWAP2 SWAP1 POP JUMP JUMPDEST PUSH1 0x0 PUSH2 0x37B0 PUSH1 0x24 DUP4 PUSH2 0x3C92 JUMP JUMPDEST SWAP2 POP PUSH2 0x37BB DUP3 PUSH2 0x4097 JUMP JUMPDEST PUSH1 0x40 DUP3 ADD SWAP1 POP SWAP2 SWAP1 POP JUMP JUMPDEST PUSH1 0x0 PUSH2 0x37D3 PUSH1 0x19 DUP4 PUSH2 0x3C92 JUMP JUMPDEST SWAP2 POP PUSH2 0x37DE DUP3 PUSH2 0x40E6 JUMP JUMPDEST PUSH1 0x20 DUP3 ADD SWAP1 POP SWAP2 SWAP1 POP JUMP JUMPDEST PUSH1 0x0 PUSH2 0x37F6 PUSH1 0x29 DUP4 PUSH2 0x3C92 JUMP JUMPDEST SWAP2 POP PUSH2 0x3801 DUP3 PUSH2 0x410F JUMP JUMPDEST PUSH1 0x40 DUP3 ADD SWAP1 POP SWAP2 SWAP1 POP JUMP JUMPDEST PUSH1 0x0 PUSH2 0x3819 PUSH1 0x18 DUP4 PUSH2 0x3C92 JUMP JUMPDEST SWAP2 POP PUSH2 0x3824 DUP3 PUSH2 0x415E JUMP JUMPDEST PUSH1 0x20 DUP3 ADD SWAP1 POP SWAP2 SWAP1 POP JUMP JUMPDEST PUSH1 0x0 PUSH2 0x383C PUSH1 0x21 DUP4 PUSH2 0x3C92 JUMP JUMPDEST SWAP2 POP PUSH2 0x3847 DUP3 PUSH2 0x4187 JUMP JUMPDEST PUSH1 0x40 DUP3 ADD SWAP1 POP SWAP2 SWAP1 POP JUMP JUMPDEST PUSH1 0x0 PUSH2 0x385F PUSH1 0x3D DUP4 PUSH2 0x3C92 JUMP JUMPDEST SWAP2 POP PUSH2 0x386A DUP3 PUSH2 0x41D6 JUMP JUMPDEST PUSH1 0x40 DUP3 ADD SWAP1 POP SWAP2 SWAP1 POP JUMP JUMPDEST PUSH2 0x387E DUP2 PUSH2 0x3DA2 JUMP JUMPDEST DUP3 MSTORE POP POP JUMP JUMPDEST PUSH1 0x0 PUSH2 0x3890 DUP3 DUP5 PUSH2 0x3618 JUMP JUMPDEST SWAP2 POP DUP2 SWAP1 POP SWAP3 SWAP2 POP POP JUMP JUMPDEST PUSH1 0x0 PUSH2 0x38A7 DUP3 DUP6 PUSH2 0x3709 JUMP JUMPDEST SWAP2 POP PUSH2 0x38B3 DUP3 DUP5 PUSH2 0x3709 JUMP JUMPDEST SWAP2 POP DUP2 SWAP1 POP SWAP4 SWAP3 POP POP POP JUMP JUMPDEST PUSH1 0x0 PUSH1 0x20 DUP3 ADD SWAP1 POP PUSH2 0x38D4 PUSH1 0x0 DUP4 ADD DUP5 PUSH2 0x354C JUMP JUMPDEST SWAP3 SWAP2 POP POP JUMP JUMPDEST PUSH1 0x0 PUSH1 0x80 DUP3 ADD SWAP1 POP PUSH2 0x38EF PUSH1 0x0 DUP4 ADD DUP8 PUSH2 0x354C JUMP JUMPDEST PUSH2 0x38FC PUSH1 0x20 DUP4 ADD DUP7 PUSH2 0x354C JUMP JUMPDEST PUSH2 0x3909 PUSH1 0x40 DUP4 ADD DUP6 PUSH2 0x3875 JUMP JUMPDEST DUP2 DUP2 SUB PUSH1 0x60 DUP4 ADD MSTORE PUSH2 0x391B DUP2 DUP5 PUSH2 0x35DF JUMP JUMPDEST SWAP1 POP SWAP6 SWAP5 POP POP POP POP POP JUMP JUMPDEST PUSH1 0x0 PUSH1 0x20 DUP3 ADD SWAP1 POP DUP2 DUP2 SUB PUSH1 0x0 DUP4 ADD MSTORE PUSH2 0x3940 DUP2 DUP5 PUSH2 0x355B JUMP JUMPDEST SWAP1 POP SWAP3 SWAP2 POP POP JUMP JUMPDEST PUSH1 0x0 PUSH1 0x20 DUP3 ADD SWAP1 POP PUSH2 0x395D PUSH1 0x0 DUP4 ADD DUP5 PUSH2 0x35D0 JUMP JUMPDEST SWAP3 SWAP2 POP POP JUMP JUMPDEST PUSH1 0x0 PUSH1 0x20 DUP3 ADD SWAP1 POP DUP2 DUP2 SUB PUSH1 0x0 DUP4 ADD MSTORE PUSH2 0x397D DUP2 DUP5 PUSH2 0x36D0 JUMP JUMPDEST SWAP1 POP SWAP3 SWAP2 POP POP JUMP JUMPDEST PUSH1 0x0 PUSH1 0x60 DUP3 ADD SWAP1 POP DUP2 DUP2 SUB PUSH1 0x0 DUP4 ADD MSTORE PUSH2 0x399F DUP2 DUP7 PUSH2 0x36D0 JUMP JUMPDEST SWAP1 POP DUP2 DUP2 SUB PUSH1 0x20 DUP4 ADD MSTORE PUSH2 0x39B3 DUP2 DUP6 PUSH2 0x36D0 JUMP JUMPDEST SWAP1 POP DUP2 DUP2 SUB PUSH1 0x40 DUP4 ADD MSTORE PUSH2 0x39C7 DUP2 DUP5 PUSH2 0x36D0 JUMP JUMPDEST SWAP1 POP SWAP5 SWAP4 POP POP POP POP JUMP JUMPDEST PUSH1 0x0 PUSH1 0x20 DUP3 ADD SWAP1 POP DUP2 DUP2 SUB PUSH1 0x0 DUP4 ADD MSTORE PUSH2 0x39EA DUP2 PUSH2 0x373A JUMP JUMPDEST SWAP1 POP SWAP2 SWAP1 POP JUMP JUMPDEST PUSH1 0x0 PUSH1 0x20 DUP3 ADD SWAP1 POP DUP2 DUP2 SUB PUSH1 0x0 DUP4 ADD MSTORE PUSH2 0x3A0A DUP2 PUSH2 0x375D JUMP JUMPDEST SWAP1 POP SWAP2 SWAP1 POP JUMP JUMPDEST PUSH1 0x0 PUSH1 0x20 DUP3 ADD SWAP1 POP DUP2 DUP2 SUB PUSH1 0x0 DUP4 ADD MSTORE PUSH2 0x3A2A DUP2 PUSH2 0x3780 JUMP JUMPDEST SWAP1 POP SWAP2 SWAP1 POP JUMP JUMPDEST PUSH1 0x0 PUSH1 0x20 DUP3 ADD SWAP1 POP DUP2 DUP2 SUB PUSH1 0x0 DUP4 ADD MSTORE PUSH2 0x3A4A DUP2 PUSH2 0x37A3 JUMP JUMPDEST SWAP1 POP SWAP2 SWAP1 POP JUMP JUMPDEST PUSH1 0x0 PUSH1 0x20 DUP3 ADD SWAP1 POP DUP2 DUP2 SUB PUSH1 0x0 DUP4 ADD MSTORE PUSH2 0x3A6A DUP2 PUSH2 0x37C6 JUMP JUMPDEST SWAP1 POP SWAP2 SWAP1 POP JUMP JUMPDEST PUSH1 0x0 PUSH1 0x20 DUP3 ADD SWAP1 POP DUP2 DUP2 SUB PUSH1 0x0 DUP4 ADD MSTORE PUSH2 0x3A8A DUP2 PUSH2 0x37E9 JUMP JUMPDEST SWAP1 POP SWAP2 SWAP1 POP JUMP JUMPDEST PUSH1 0x0 PUSH1 0x20 DUP3 ADD SWAP1 POP DUP2 DUP2 SUB PUSH1 0x0 DUP4 ADD MSTORE PUSH2 0x3AAA DUP2 PUSH2 0x380C JUMP JUMPDEST SWAP1 POP SWAP2 SWAP1 POP JUMP JUMPDEST PUSH1 0x0 PUSH1 0x20 DUP3 ADD SWAP1 POP DUP2 DUP2 SUB PUSH1 0x0 DUP4 ADD MSTORE PUSH2 0x3ACA DUP2 PUSH2 0x382F JUMP JUMPDEST SWAP1 POP SWAP2 SWAP1 POP JUMP JUMPDEST PUSH1 0x0 PUSH1 0x20 DUP3 ADD SWAP1 POP DUP2 DUP2 SUB PUSH1 0x0 DUP4 ADD MSTORE PUSH2 0x3AEA DUP2 PUSH2 0x3852 JUMP JUMPDEST SWAP1 POP SWAP2 SWAP1 POP JUMP JUMPDEST PUSH1 0x0 PUSH1 0x20 DUP3 ADD SWAP1 POP PUSH2 0x3B06 PUSH1 0x0 DUP4 ADD DUP5 PUSH2 0x3875 JUMP JUMPDEST SWAP3 SWAP2 POP POP JUMP JUMPDEST PUSH1 0x0 PUSH1 0x40 DUP3 ADD SWAP1 POP PUSH2 0x3B21 PUSH1 0x0 DUP4 ADD DUP6 PUSH2 0x3875 JUMP JUMPDEST DUP2 DUP2 SUB PUSH1 0x20 DUP4 ADD MSTORE PUSH2 0x3B33 DUP2 DUP5 PUSH2 0x36D0 JUMP JUMPDEST SWAP1 POP SWAP4 SWAP3 POP POP POP JUMP JUMPDEST PUSH1 0x0 PUSH1 0x60 DUP3 ADD SWAP1 POP PUSH2 0x3B51 PUSH1 0x0 DUP4 ADD DUP7 PUSH2 0x3875 JUMP JUMPDEST PUSH2 0x3B5E PUSH1 0x20 DUP4 ADD DUP6 PUSH2 0x3875 JUMP JUMPDEST DUP2 DUP2 SUB PUSH1 0x40 DUP4 ADD MSTORE PUSH2 0x3B70 DUP2 DUP5 PUSH2 0x36D0 JUMP JUMPDEST SWAP1 POP SWAP5 SWAP4 POP POP POP POP JUMP JUMPDEST PUSH1 0x0 PUSH2 0x3B84 PUSH2 0x3B95 JUMP JUMPDEST SWAP1 POP PUSH2 0x3B90 DUP3 DUP3 PUSH2 0x3E20 JUMP JUMPDEST SWAP2 SWAP1 POP JUMP JUMPDEST PUSH1 0x0 PUSH1 0x40 MLOAD SWAP1 POP SWAP1 JUMP JUMPDEST PUSH1 0x0 PUSH8 0xFFFFFFFFFFFFFFFF DUP3 GT ISZERO PUSH2 0x3BBA JUMPI PUSH2 0x3BB9 PUSH2 0x3F56 JUMP JUMPDEST JUMPDEST PUSH2 0x3BC3 DUP3 PUSH2 0x3F99 JUMP JUMPDEST SWAP1 POP PUSH1 0x20 DUP2 ADD SWAP1 POP SWAP2 SWAP1 POP JUMP JUMPDEST PUSH1 0x0 PUSH8 0xFFFFFFFFFFFFFFFF DUP3 GT ISZERO PUSH2 0x3BEB JUMPI PUSH2 0x3BEA PUSH2 0x3F56 JUMP JUMPDEST JUMPDEST PUSH2 0x3BF4 DUP3 PUSH2 0x3F99 JUMP JUMPDEST SWAP1 POP PUSH1 0x20 DUP2 ADD SWAP1 POP SWAP2 SWAP1 POP JUMP JUMPDEST PUSH1 0x0 DUP2 SWAP1 POP PUSH1 0x20 DUP3 ADD SWAP1 POP SWAP2 SWAP1 POP JUMP JUMPDEST PUSH1 0x0 DUP2 SWAP1 POP DUP2 PUSH1 0x0 MSTORE PUSH1 0x20 PUSH1 0x0 KECCAK256 SWAP1 POP SWAP2 SWAP1 POP JUMP JUMPDEST PUSH1 0x0 DUP2 MLOAD SWAP1 POP SWAP2 SWAP1 POP JUMP JUMPDEST PUSH1 0x0 DUP2 MLOAD SWAP1 POP SWAP2 SWAP1 POP JUMP JUMPDEST PUSH1 0x0 DUP2 MLOAD SWAP1 POP SWAP2 SWAP1 POP JUMP JUMPDEST PUSH1 0x0 PUSH1 0x20 DUP3 ADD SWAP1 POP SWAP2 SWAP1 POP JUMP JUMPDEST PUSH1 0x0 DUP3 DUP3 MSTORE PUSH1 0x20 DUP3 ADD SWAP1 POP SWAP3 SWAP2 POP POP JUMP JUMPDEST PUSH1 0x0 DUP3 DUP3 MSTORE PUSH1 0x20 DUP3 ADD SWAP1 POP SWAP3 SWAP2 POP POP JUMP JUMPDEST PUSH1 0x0 DUP2 SWAP1 POP SWAP3 SWAP2 POP POP JUMP JUMPDEST PUSH1 0x0 DUP3 DUP3 MSTORE PUSH1 0x20 DUP3 ADD SWAP1 POP SWAP3 SWAP2 POP POP JUMP JUMPDEST PUSH1 0x0 DUP3 DUP3 MSTORE PUSH1 0x20 DUP3 ADD SWAP1 POP SWAP3 SWAP2 POP POP JUMP JUMPDEST PUSH1 0x0 DUP2 SWAP1 POP SWAP3 SWAP2 POP POP JUMP JUMPDEST PUSH1 0x0 PUSH2 0x3CB9 DUP3 PUSH2 0x3DA2 JUMP JUMPDEST SWAP2 POP PUSH2 0x3CC4 DUP4 PUSH2 0x3DA2 JUMP JUMPDEST SWAP3 POP DUP3 PUSH32 0xFFFFFFFFFFFFFFFFFFFFFFFFFFFFFFFFFFFFFFFFFFFFFFFFFFFFFFFFFFFFFFFF SUB DUP3 GT ISZERO PUSH2 0x3CF9 JUMPI PUSH2 0x3CF8 PUSH2 0x3E9A JUMP JUMPDEST JUMPDEST DUP3 DUP3 ADD SWAP1 POP SWAP3 SWAP2 POP POP JUMP JUMPDEST PUSH1 0x0 PUSH2 0x3D0F DUP3 PUSH2 0x3DA2 JUMP JUMPDEST SWAP2 POP PUSH2 0x3D1A DUP4 PUSH2 0x3DA2 JUMP JUMPDEST SWAP3 POP DUP3 DUP3 LT ISZERO PUSH2 0x3D2D JUMPI PUSH2 0x3D2C PUSH2 0x3E9A JUMP JUMPDEST JUMPDEST DUP3 DUP3 SUB SWAP1 POP SWAP3 SWAP2 POP POP JUMP JUMPDEST PUSH1 0x0 PUSH2 0x3D43 DUP3 PUSH2 0x3D82 JUMP JUMPDEST SWAP1 POP SWAP2 SWAP1 POP JUMP JUMPDEST PUSH1 0x0 DUP2 ISZERO ISZERO SWAP1 POP SWAP2 SWAP1 POP JUMP JUMPDEST PUSH1 0x0 PUSH32 0xFFFFFFFF00000000000000000000000000000000000000000000000000000000 DUP3 AND SWAP1 POP SWAP2 SWAP1 POP JUMP JUMPDEST PUSH1 0x0 PUSH20 0xFFFFFFFFFFFFFFFFFFFFFFFFFFFFFFFFFFFFFFFF DUP3 AND SWAP1 POP SWAP2 SWAP1 POP JUMP JUMPDEST PUSH1 0x0 DUP2 SWAP1 POP SWAP2 SWAP1 POP JUMP JUMPDEST DUP3 DUP2 DUP4 CALLDATACOPY PUSH1 0x0 DUP4 DUP4 ADD MSTORE POP POP POP JUMP JUMPDEST PUSH1 0x0 JUMPDEST DUP4 DUP2 LT ISZERO PUSH2 0x3DD9 JUMPI DUP1 DUP3 ADD MLOAD DUP2 DUP5 ADD MSTORE PUSH1 0x20 DUP2 ADD SWAP1 POP PUSH2 0x3DBE JUMP JUMPDEST DUP4 DUP2 GT ISZERO PUSH2 0x3DE8 JUMPI PUSH1 0x0 DUP5 DUP5 ADD MSTORE JUMPDEST POP POP POP POP JUMP JUMPDEST PUSH1 0x0 PUSH1 0x2 DUP3 DIV SWAP1 POP PUSH1 0x1 DUP3 AND DUP1 PUSH2 0x3E06 JUMPI PUSH1 0x7F DUP3 AND SWAP2 POP JUMPDEST PUSH1 0x20 DUP3 LT DUP2 EQ ISZERO PUSH2 0x3E1A JUMPI PUSH2 0x3E19 PUSH2 0x3EF8 JUMP JUMPDEST JUMPDEST POP SWAP2 SWAP1 POP JUMP JUMPDEST PUSH2 0x3E29 DUP3 PUSH2 0x3F99 JUMP JUMPDEST DUP2 ADD DUP2 DUP2 LT PUSH8 0xFFFFFFFFFFFFFFFF DUP3 GT OR ISZERO PUSH2 0x3E48 JUMPI PUSH2 0x3E47 PUSH2 0x3F56 JUMP JUMPDEST JUMPDEST DUP1 PUSH1 0x40 MSTORE POP POP POP JUMP JUMPDEST PUSH1 0x0 PUSH2 0x3E5C DUP3 PUSH2 0x3DA2 JUMP JUMPDEST SWAP2 POP PUSH32 0xFFFFFFFFFFFFFFFFFFFFFFFFFFFFFFFFFFFFFFFFFFFFFFFFFFFFFFFFFFFFFFFF DUP3 EQ ISZERO PUSH2 0x3E8F JUMPI PUSH2 0x3E8E PUSH2 0x3E9A JUMP JUMPDEST JUMPDEST PUSH1 0x1 DUP3 ADD SWAP1 POP SWAP2 SWAP1 POP JUMP JUMPDEST PUSH32 0x4E487B7100000000000000000000000000000000000000000000000000000000 PUSH1 0x0 MSTORE PUSH1 0x11 PUSH1 0x4 MSTORE PUSH1 0x24 PUSH1 0x0 REVERT JUMPDEST PUSH32 0x4E487B7100000000000000000000000000000000000000000000000000000000 PUSH1 0x0 MSTORE PUSH1 0x12 PUSH1 0x4 MSTORE PUSH1 0x24 PUSH1 0x0 REVERT JUMPDEST PUSH32 0x4E487B7100000000000000000000000000000000000000000000000000000000 PUSH1 0x0 MSTORE PUSH1 0x22 PUSH1 0x4 MSTORE PUSH1 0x24 PUSH1 0x0 REVERT JUMPDEST PUSH32 0x4E487B7100000000000000000000000000000000000000000000000000000000 PUSH1 0x0 MSTORE PUSH1 0x32 PUSH1 0x4 MSTORE PUSH1 0x24 PUSH1 0x0 REVERT JUMPDEST PUSH32 0x4E487B7100000000000000000000000000000000000000000000000000000000 PUSH1 0x0 MSTORE PUSH1 0x41 PUSH1 0x4 MSTORE PUSH1 0x24 PUSH1 0x0 REVERT JUMPDEST PUSH1 0x0 DUP1 REVERT JUMPDEST PUSH1 0x0 DUP1 REVERT JUMPDEST PUSH1 0x0 DUP1 REVERT JUMPDEST PUSH1 0x0 DUP1 REVERT JUMPDEST PUSH1 0x0 PUSH1 0x1F NOT PUSH1 0x1F DUP4 ADD AND SWAP1 POP SWAP2 SWAP1 POP JUMP JUMPDEST PUSH32 0x4552433732313A2063616C6C6572206973206E6F7420746F6B656E206F776E65 PUSH1 0x0 DUP3 ADD MSTORE PUSH32 0x72206F7220617070726F76656400000000000000000000000000000000000000 PUSH1 0x20 DUP3 ADD MSTORE POP JUMP JUMPDEST PUSH32 0x4552433732313A207472616E7366657220746F206E6F6E204552433732315265 PUSH1 0x0 DUP3 ADD MSTORE PUSH32 0x63656976657220696D706C656D656E7465720000000000000000000000000000 PUSH1 0x20 DUP3 ADD MSTORE POP JUMP JUMPDEST PUSH32 0x4552433732313A207472616E736665722066726F6D20696E636F727265637420 PUSH1 0x0 DUP3 ADD MSTORE PUSH32 0x6F776E6572000000000000000000000000000000000000000000000000000000 PUSH1 0x20 DUP3 ADD MSTORE POP JUMP JUMPDEST PUSH32 0x4552433732313A207472616E7366657220746F20746865207A65726F20616464 PUSH1 0x0 DUP3 ADD MSTORE PUSH32 0x7265737300000000000000000000000000000000000000000000000000000000 PUSH1 0x20 DUP3 ADD MSTORE POP JUMP JUMPDEST PUSH32 0x4552433732313A20617070726F766520746F2063616C6C657200000000000000 PUSH1 0x0 DUP3 ADD MSTORE POP JUMP JUMPDEST PUSH32 0x4552433732313A2061646472657373207A65726F206973206E6F742061207661 PUSH1 0x0 DUP3 ADD MSTORE PUSH32 0x6C6964206F776E65720000000000000000000000000000000000000000000000 PUSH1 0x20 DUP3 ADD MSTORE POP JUMP JUMPDEST PUSH32 0x4552433732313A20696E76616C696420746F6B656E2049440000000000000000 PUSH1 0x0 DUP3 ADD MSTORE POP JUMP JUMPDEST PUSH32 0x4552433732313A20617070726F76616C20746F2063757272656E74206F776E65 PUSH1 0x0 DUP3 ADD MSTORE PUSH32 0x7200000000000000000000000000000000000000000000000000000000000000 PUSH1 0x20 DUP3 ADD MSTORE POP JUMP JUMPDEST PUSH32 0x4552433732313A20617070726F76652063616C6C6572206973206E6F7420746F PUSH1 0x0 DUP3 ADD MSTORE PUSH32 0x6B656E206F776E6572206F7220617070726F76656420666F7220616C6C000000 PUSH1 0x20 DUP3 ADD MSTORE POP JUMP JUMPDEST PUSH2 0x422E DUP2 PUSH2 0x3D38 JUMP JUMPDEST DUP2 EQ PUSH2 0x4239 JUMPI PUSH1 0x0 DUP1 REVERT JUMPDEST POP JUMP JUMPDEST PUSH2 0x4245 DUP2 PUSH2 0x3D4A JUMP JUMPDEST DUP2 EQ PUSH2 0x4250 JUMPI PUSH1 0x0 DUP1 REVERT JUMPDEST POP JUMP JUMPDEST PUSH2 0x425C DUP2 PUSH2 0x3D56 JUMP JUMPDEST DUP2 EQ PUSH2 0x4267 JUMPI PUSH1 0x0 DUP1 REVERT JUMPDEST POP JUMP JUMPDEST PUSH2 0x4273 DUP2 PUSH2 0x3DA2 JUMP JUMPDEST DUP2 EQ PUSH2 0x427E JUMPI PUSH1 0x0 DUP1 REVERT JUMPDEST POP JUMP INVALID LOG2 PUSH5 0x6970667358 0x22 SLT KECCAK256 SWAP16 EXTCODEHASH 0xCF 0x4F PUSH22 0xECE837AE08AF680170C98BED717E0511C5023E434E02 KECCAK256 DELEGATECALL 0xD2 0xCA 0xD7 PUSH5 0x736F6C6343 STOP ADDMOD MOD STOP CALLER "},"gasEstimates":{"creation":{"codeDepositCost":"3415800","executionCost":"infinite","totalCost":"infinite"},"external":{"_dao_uris(uint256)":"infinite","_ideas_uris(uint256)":"infinite","all_goal_ideas_votes(uint256)":"infinite","approve(address,uint256)":"infinite","balanceOf(address)":"3012","create_dao(string,string)":"infinite","create_goal(string,uint256)":"infinite","create_goal_ideas_vote(uint256,uint256,string)":"infinite","create_ideas(string,uint256)":"infinite","dao_uri(uint256)":"infinite","getApproved(uint256)":"5323","get_all_daos()":"infinite","get_all_goals()":"infinite","get_all_goals_by_dao_id(uint256)":"infinite","get_all_ideas()":"infinite","get_all_ideas_by_goal_id(uint256)":"infinite","get_goal_id_by_goal_uri(string)":"infinite","get_goal_id_from_ideas_uri(string)":"infinite","get_ideas_id_by_ideas_uri(string)":"infinite","get_ideas_votes_from_goal(uint256,uint256)":"infinite","goal_uri(uint256)":"infinite","ideas_uri(uint256)":"infinite","isApprovedForAll(address,address)":"infinite","name()":"infinite","ownerOf(uint256)":"3113","reset_all()":"28773","safeTransferFrom(address,address,uint256)":"infinite","safeTransferFrom(address,address,uint256,bytes)":"infinite","setApprovalForAll(address,bool)":"infinite","set_dao(uint256,string,string)":"infinite","set_goal(uint256,string)":"infinite","set_ideas(uint256,string)":"infinite","supportsInterface(bytes4)":"820","symbol()":"infinite","tokenURI(uint256)":"3489","transferFrom(address,address,uint256)":"infinite"}},"methodIdentifiers":{"_dao_uris(uint256)":"27a568b9","_ideas_uris(uint256)":"468d0c80","all_goal_ideas_votes(uint256)":"1ba44c4c","approve(address,uint256)":"095ea7b3","balanceOf(address)":"70a08231","create_dao(string,string)":"c4c2e364","create_goal(string,uint256)":"71085cab","create_goal_ideas_vote(uint256,uint256,string)":"82fcc732","create_ideas(string,uint256)":"2d9cb1ab","dao_uri(uint256)":"5d907da1","getApproved(uint256)":"081812fc","get_all_daos()":"c04fe978","get_all_goals()":"29b56f60","get_all_goals_by_dao_id(uint256)":"109ac970","get_all_ideas()":"97ee7606","get_all_ideas_by_goal_id(uint256)":"131d44f2","get_goal_id_by_goal_uri(string)":"1e9ac9f5","get_goal_id_from_ideas_uri(string)":"aa4cdf2a","get_ideas_id_by_ideas_uri(string)":"a1ca9178","get_ideas_votes_from_goal(uint256,uint256)":"4be7adb5","goal_uri(uint256)":"e32acc1a","ideas_uri(uint256)":"8d3d2595","isApprovedForAll(address,address)":"e985e9c5","name()":"06fdde03","ownerOf(uint256)":"6352211e","reset_all()":"b16060a6","safeTransferFrom(address,address,uint256)":"42842e0e","safeTransferFrom(address,address,uint256,bytes)":"b88d4fde","setApprovalForAll(address,bool)":"a22cb465","set_dao(uint256,string,string)":"881de858","set_goal(uint256,string)":"c29595c5","set_ideas(uint256,string)":"c04e7430","supportsInterface(bytes4)":"01ffc9a7","symbol()":"95d89b41","tokenURI(uint256)":"c87b56dd","transferFrom(address,address,uint256)":"23b872dd"}},"storageLayout":{"storage":[{"astId":138,"contract":"contracts/GreenDAO.sol:GreenDAO","label":"_name","offset":0,"slot":"0","type":"t_string_storage"},{"astId":140,"contract":"contracts/GreenDAO.sol:GreenDAO","label":"_symbol","offset":0,"slot":"1","type":"t_string_storage"},{"astId":144,"contract":"contracts/GreenDAO.sol:GreenDAO","label":"_owners","offset":0,"slot":"2","type":"t_mapping(t_uint256,t_address)"},{"astId":148,"contract":"contracts/GreenDAO.sol:GreenDAO","label":"_balances","offset":0,"slot":"3","type":"t_mapping(t_address,t_uint256)"},{"astId":152,"contract":"contracts/GreenDAO.sol:GreenDAO","label":"_tokenApprovals","offset":0,"slot":"4","type":"t_mapping(t_uint256,t_address)"},{"astId":158,"contract":"contracts/GreenDAO.sol:GreenDAO","label":"_operatorApprovals","offset":0,"slot":"5","type":"t_mapping(t_address,t_mapping(t_address,t_bool))"},{"astId":2693,"contract":"contracts/GreenDAO.sol:GreenDAO","label":"_dao_ids","offset":0,"slot":"6","type":"t_uint256"},{"astId":2695,"contract":"contracts/GreenDAO.sol:GreenDAO","label":"_goal_ids","offset":0,"slot":"7","type":"t_uint256"},{"astId":2697,"contract":"contracts/GreenDAO.sol:GreenDAO","label":"_ideas_ids","offset":0,"slot":"8","type":"t_uint256"},{"astId":2699,"contract":"contracts/GreenDAO.sol:GreenDAO","label":"_ideas_vote_ids","offset":0,"slot":"9","type":"t_uint256"},{"astId":2704,"contract":"contracts/GreenDAO.sol:GreenDAO","label":"_dao_uris","offset":0,"slot":"10","type":"t_mapping(t_uint256,t_struct(dao_uri_struct)2674_storage)"},{"astId":2709,"contract":"contracts/GreenDAO.sol:GreenDAO","label":"_goal_uris","offset":0,"slot":"11","type":"t_mapping(t_uint256,t_struct(goal_uri_struct)2679_storage)"},{"astId":2714,"contract":"contracts/GreenDAO.sol:GreenDAO","label":"_ideas_uris","offset":0,"slot":"12","type":"t_mapping(t_uint256,t_struct(ideas_uri_struct)2684_storage)"},{"astId":2719,"contract":"contracts/GreenDAO.sol:GreenDAO","label":"all_goal_ideas_votes","offset":0,"slot":"13","type":"t_mapping(t_uint256,t_struct(goal_ideas_votes_struct)2691_storage)"}],"types":{"t_address":{"encoding":"inplace","label":"address","numberOfBytes":"20"},"t_bool":{"encoding":"inplace","label":"bool","numberOfBytes":"1"},"t_mapping(t_address,t_bool)":{"encoding":"mapping","key":"t_address","label":"mapping(address => bool)","numberOfBytes":"32","value":"t_bool"},"t_mapping(t_address,t_mapping(t_address,t_bool))":{"encoding":"mapping","key":"t_address","label":"mapping(address => mapping(address => bool))","numberOfBytes":"32","value":"t_mapping(t_address,t_bool)"},"t_mapping(t_address,t_uint256)":{"encoding":"mapping","key":"t_address","label":"mapping(address => uint256)","numberOfBytes":"32","value":"t_uint256"},"t_mapping(t_uint256,t_address)":{"encoding":"mapping","key":"t_uint256","label":"mapping(uint256 => address)","numberOfBytes":"32","value":"t_address"},"t_mapping(t_uint256,t_struct(dao_uri_struct)2674_storage)":{"encoding":"mapping","key":"t_uint256","label":"mapping(uint256 => struct GreenDAO.dao_uri_struct)","numberOfBytes":"32","value":"t_struct(dao_uri_struct)2674_storage"},"t_mapping(t_uint256,t_struct(goal_ideas_votes_struct)2691_storage)":{"encoding":"mapping","key":"t_uint256","label":"mapping(uint256 => struct GreenDAO.goal_ideas_votes_struct)","numberOfBytes":"32","value":"t_struct(goal_ideas_votes_struct)2691_storage"},"t_mapping(t_uint256,t_struct(goal_uri_struct)2679_storage)":{"encoding":"mapping","key":"t_uint256","label":"mapping(uint256 => struct GreenDAO.goal_uri_struct)","numberOfBytes":"32","value":"t_struct(goal_uri_struct)2679_storage"},"t_mapping(t_uint256,t_struct(ideas_uri_struct)2684_storage)":{"encoding":"mapping","key":"t_uint256","label":"mapping(uint256 => struct GreenDAO.ideas_uri_struct)","numberOfBytes":"32","value":"t_struct(ideas_uri_struct)2684_storage"},"t_string_storage":{"encoding":"bytes","label":"string","numberOfBytes":"32"},"t_struct(dao_uri_struct)2674_storage":{"encoding":"inplace","label":"struct GreenDAO.dao_uri_struct","members":[{"astId":2669,"contract":"contracts/GreenDAO.sol:GreenDAO","label":"dao_wallet","offset":0,"slot":"0","type":"t_string_storage"},{"astId":2671,"contract":"contracts/GreenDAO.sol:GreenDAO","label":"dao_uri","offset":0,"slot":"1","type":"t_string_storage"},{"astId":2673,"contract":"contracts/GreenDAO.sol:GreenDAO","label":"finished","offset":0,"slot":"2","type":"t_string_storage"}],"numberOfBytes":"96"},"t_struct(goal_ideas_votes_struct)2691_storage":{"encoding":"inplace","label":"struct GreenDAO.goal_ideas_votes_struct","members":[{"astId":2686,"contract":"contracts/GreenDAO.sol:GreenDAO","label":"goal_id","offset":0,"slot":"0","type":"t_uint256"},{"astId":2688,"contract":"contracts/GreenDAO.sol:GreenDAO","label":"ideas_id","offset":0,"slot":"1","type":"t_uint256"},{"astId":2690,"contract":"contracts/GreenDAO.sol:GreenDAO","label":"wallet","offset":0,"slot":"2","type":"t_string_storage"}],"numberOfBytes":"96"},"t_struct(goal_uri_struct)2679_storage":{"encoding":"inplace","label":"struct GreenDAO.goal_uri_struct","members":[{"astId":2676,"contract":"contracts/GreenDAO.sol:GreenDAO","label":"dao_id","offset":0,"slot":"0","type":"t_uint256"},{"astId":2678,"contract":"contracts/GreenDAO.sol:GreenDAO","label":"goal_uri","offset":0,"slot":"1","type":"t_string_storage"}],"numberOfBytes":"64"},"t_struct(ideas_uri_struct)2684_storage":{"encoding":"inplace","label":"struct GreenDAO.ideas_uri_struct","members":[{"astId":2681,"contract":"contracts/GreenDAO.sol:GreenDAO","label":"goal_id","offset":0,"slot":"0","type":"t_uint256"},{"astId":2683,"contract":"contracts/GreenDAO.sol:GreenDAO","label":"ideas_uri","offset":0,"slot":"1","type":"t_string_storage"}],"numberOfBytes":"64"},"t_uint256":{"encoding":"inplace","label":"uint256","numberOfBytes":"32"}}},"userdoc":{"kind":"user","methods":{},"version":1}}}}