{
  "_format": "hh-sol-artifact-1",
  "contractName": "GreenDAO",
  "sourceName": "contracts/GreenDAO.sol",
  "abi": [
    {
      "anonymous": false,
      "inputs": [
        {
          "indexed": true,
          "internalType": "address",
          "name": "owner",
          "type": "address"
        },
        {
          "indexed": true,
          "internalType": "address",
          "name": "approved",
          "type": "address"
        },
        {
          "indexed": true,
          "internalType": "uint256",
          "name": "tokenId",
          "type": "uint256"
        }
      ],
      "name": "Approval",
      "type": "event"
    },
    {
      "anonymous": false,
      "inputs": [
        {
          "indexed": true,
          "internalType": "address",
          "name": "owner",
          "type": "address"
        },
        {
          "indexed": true,
          "internalType": "address",
          "name": "operator",
          "type": "address"
        },
        {
          "indexed": false,
          "internalType": "bool",
          "name": "approved",
          "type": "bool"
        }
      ],
      "name": "ApprovalForAll",
      "type": "event"
    },
    {
      "anonymous": false,
      "inputs": [
        {
          "indexed": false,
          "internalType": "uint8",
          "name": "version",
          "type": "uint8"
        }
      ],
      "name": "Initialized",
      "type": "event"
    },
    {
      "anonymous": false,
      "inputs": [
        {
          "indexed": true,
          "internalType": "address",
          "name": "from",
          "type": "address"
        },
        {
          "indexed": true,
          "internalType": "address",
          "name": "to",
          "type": "address"
        },
        {
          "indexed": true,
          "internalType": "uint256",
          "name": "tokenId",
          "type": "uint256"
        }
      ],
      "name": "Transfer",
      "type": "event"
    },
    {
      "inputs": [
        {
          "internalType": "uint256",
          "name": "",
          "type": "uint256"
        }
      ],
      "name": "_dao_uris",
      "outputs": [
        {
          "internalType": "string",
          "name": "dao_wallet",
          "type": "string"
        },
        {
          "internalType": "string",
          "name": "dao_uri",
          "type": "string"
        },
        {
          "internalType": "string",
          "name": "finished",
          "type": "string"
        }
      ],
      "stateMutability": "view",
      "type": "function"
    },
    {
      "inputs": [
        {
          "internalType": "uint256",
          "name": "",
          "type": "uint256"
        }
      ],
      "name": "_ideas_uris",
      "outputs": [
        {
          "internalType": "uint256",
          "name": "goal_id",
          "type": "uint256"
        },
        {
          "internalType": "string",
          "name": "ideas_uri",
          "type": "string"
        }
      ],
      "stateMutability": "view",
      "type": "function"
    },
    {
      "inputs": [
        {
          "internalType": "uint256",
          "name": "",
          "type": "uint256"
        }
      ],
      "name": "_smart_contracts_uris",
      "outputs": [
        {
          "internalType": "uint256",
          "name": "smart_contract_id",
          "type": "uint256"
        },
        {
          "internalType": "uint256",
          "name": "ideas_id",
          "type": "uint256"
        },
        {
          "internalType": "string",
          "name": "smart_contract_uri",
          "type": "string"
        }
      ],
      "stateMutability": "view",
      "type": "function"
    },
    {
      "inputs": [
        {
          "internalType": "uint256",
          "name": "",
          "type": "uint256"
        }
      ],
      "name": "all_goal_ideas_votes",
      "outputs": [
        {
          "internalType": "uint256",
          "name": "goal_id",
          "type": "uint256"
        },
        {
          "internalType": "uint256",
          "name": "ideas_id",
          "type": "uint256"
        },
        {
          "internalType": "string",
          "name": "wallet",
          "type": "string"
        }
      ],
      "stateMutability": "view",
      "type": "function"
    },
    {
      "inputs": [
        {
          "internalType": "address",
          "name": "to",
          "type": "address"
        },
        {
          "internalType": "uint256",
          "name": "tokenId",
          "type": "uint256"
        }
      ],
      "name": "approve",
      "outputs": [],
      "stateMutability": "nonpayable",
      "type": "function"
    },
    {
      "inputs": [
        {
          "internalType": "address",
          "name": "owner",
          "type": "address"
        }
      ],
      "name": "balanceOf",
      "outputs": [
        {
          "internalType": "uint256",
          "name": "",
          "type": "uint256"
        }
      ],
      "stateMutability": "view",
      "type": "function"
    },
    {
      "inputs": [
        {
          "internalType": "string",
          "name": "_dao_wallet",
          "type": "string"
        },
        {
          "internalType": "string",
          "name": "_dao_uri",
          "type": "string"
        }
      ],
      "name": "create_dao",
      "outputs": [
        {
          "internalType": "uint256",
          "name": "",
          "type": "uint256"
        }
      ],
      "stateMutability": "nonpayable",
      "type": "function"
    },
    {
      "inputs": [
        {
          "internalType": "string",
          "name": "_goal_uri",
          "type": "string"
        },
        {
          "internalType": "uint256",
          "name": "_dao_id",
          "type": "uint256"
        }
      ],
      "name": "create_goal",
      "outputs": [
        {
          "internalType": "uint256",
          "name": "",
          "type": "uint256"
        }
      ],
      "stateMutability": "nonpayable",
      "type": "function"
    },
    {
      "inputs": [
        {
          "internalType": "uint256",
          "name": "_goal_id",
          "type": "uint256"
        },
        {
          "internalType": "uint256",
          "name": "_ideas_id",
          "type": "uint256"
        },
        {
          "internalType": "string",
          "name": "_wallet",
          "type": "string"
        }
      ],
      "name": "create_goal_ideas_vote",
      "outputs": [
        {
          "internalType": "uint256",
          "name": "",
          "type": "uint256"
        }
      ],
      "stateMutability": "nonpayable",
      "type": "function"
    },
    {
      "inputs": [
        {
          "internalType": "string",
          "name": "_ideas_uri",
          "type": "string"
        },
        {
          "internalType": "uint256",
          "name": "_goal_id",
          "type": "uint256"
        },
        {
          "internalType": "string[]",
          "name": "_smart_contracts",
          "type": "string[]"
        }
      ],
      "name": "create_ideas",
      "outputs": [
        {
          "internalType": "uint256",
          "name": "",
          "type": "uint256"
        }
      ],
      "stateMutability": "nonpayable",
      "type": "function"
    },
    {
      "inputs": [
        {
          "internalType": "uint256",
          "name": "_dao_id",
          "type": "uint256"
        }
      ],
      "name": "dao_uri",
      "outputs": [
        {
          "internalType": "string",
          "name": "",
          "type": "string"
        }
      ],
      "stateMutability": "view",
      "type": "function"
    },
    {
      "inputs": [
        {
          "internalType": "uint256",
          "name": "tokenId",
          "type": "uint256"
        }
      ],
      "name": "getApproved",
      "outputs": [
        {
          "internalType": "address",
          "name": "",
          "type": "address"
        }
      ],
      "stateMutability": "view",
      "type": "function"
    },
    {
      "inputs": [],
      "name": "get_all_daos",
      "outputs": [
        {
          "internalType": "string[]",
          "name": "",
          "type": "string[]"
        }
      ],
      "stateMutability": "view",
      "type": "function"
    },
    {
      "inputs": [],
      "name": "get_all_goals",
      "outputs": [
        {
          "internalType": "string[]",
          "name": "",
          "type": "string[]"
        }
      ],
      "stateMutability": "view",
      "type": "function"
    },
    {
      "inputs": [
        {
          "internalType": "uint256",
          "name": "_dao_id",
          "type": "uint256"
        }
      ],
      "name": "get_all_goals_by_dao_id",
      "outputs": [
        {
          "internalType": "string[]",
          "name": "",
          "type": "string[]"
        }
      ],
      "stateMutability": "view",
      "type": "function"
    },
    {
      "inputs": [],
      "name": "get_all_ideas",
      "outputs": [
        {
          "internalType": "string[]",
          "name": "",
          "type": "string[]"
        }
      ],
      "stateMutability": "view",
      "type": "function"
    },
    {
      "inputs": [
        {
          "internalType": "uint256",
          "name": "_goal_id",
          "type": "uint256"
        }
      ],
      "name": "get_all_ideas_by_goal_id",
      "outputs": [
        {
          "internalType": "string[]",
          "name": "",
          "type": "string[]"
        }
      ],
      "stateMutability": "view",
      "type": "function"
    },
    {
      "inputs": [
        {
          "internalType": "string",
          "name": "_goal_uri",
          "type": "string"
        }
      ],
      "name": "get_goal_id_by_goal_uri",
      "outputs": [
        {
          "internalType": "uint256",
          "name": "",
          "type": "uint256"
        }
      ],
      "stateMutability": "view",
      "type": "function"
    },
    {
      "inputs": [
        {
          "internalType": "string",
          "name": "_ideas_uri",
          "type": "string"
        }
      ],
      "name": "get_goal_id_from_ideas_uri",
      "outputs": [
        {
          "internalType": "uint256",
          "name": "",
          "type": "uint256"
        }
      ],
      "stateMutability": "view",
      "type": "function"
    },
    {
      "inputs": [
        {
          "internalType": "string",
          "name": "_ideas_uri",
          "type": "string"
        }
      ],
      "name": "get_ideas_id_by_ideas_uri",
      "outputs": [
        {
          "internalType": "uint256",
          "name": "",
          "type": "uint256"
        }
      ],
      "stateMutability": "view",
      "type": "function"
    },
    {
      "inputs": [
        {
          "internalType": "uint256",
          "name": "_goal_id",
          "type": "uint256"
        },
        {
          "internalType": "uint256",
          "name": "_ideas_id",
          "type": "uint256"
        }
      ],
      "name": "get_ideas_votes_from_goal",
      "outputs": [
        {
          "internalType": "string[]",
          "name": "",
          "type": "string[]"
        }
      ],
      "stateMutability": "view",
      "type": "function"
    },
    {
      "inputs": [
        {
          "internalType": "uint256",
          "name": "_goal_id",
          "type": "uint256"
        }
      ],
      "name": "goal_uri",
      "outputs": [
        {
          "internalType": "string",
          "name": "",
          "type": "string"
        }
      ],
      "stateMutability": "view",
      "type": "function"
    },
    {
      "inputs": [
        {
          "internalType": "uint256",
          "name": "_ideas_id",
          "type": "uint256"
        }
      ],
      "name": "ideas_uri",
      "outputs": [
        {
          "internalType": "string",
          "name": "",
          "type": "string"
        }
      ],
      "stateMutability": "view",
      "type": "function"
    },
    {
      "inputs": [
        {
          "internalType": "address",
          "name": "owner",
          "type": "address"
        },
        {
          "internalType": "address",
          "name": "operator",
          "type": "address"
        }
      ],
      "name": "isApprovedForAll",
      "outputs": [
        {
          "internalType": "bool",
          "name": "",
          "type": "bool"
        }
      ],
      "stateMutability": "view",
      "type": "function"
    },
    {
      "inputs": [],
      "name": "name",
      "outputs": [
        {
          "internalType": "string",
          "name": "",
          "type": "string"
        }
      ],
      "stateMutability": "view",
      "type": "function"
    },
    {
      "inputs": [
        {
          "internalType": "uint256",
          "name": "tokenId",
          "type": "uint256"
        }
      ],
      "name": "ownerOf",
      "outputs": [
        {
          "internalType": "address",
          "name": "",
          "type": "address"
        }
      ],
      "stateMutability": "view",
      "type": "function"
    },
    {
      "inputs": [],
      "name": "reset_all",
      "outputs": [],
      "stateMutability": "nonpayable",
      "type": "function"
    },
    {
      "inputs": [
        {
          "internalType": "address",
          "name": "from",
          "type": "address"
        },
        {
          "internalType": "address",
          "name": "to",
          "type": "address"
        },
        {
          "internalType": "uint256",
          "name": "tokenId",
          "type": "uint256"
        }
      ],
      "name": "safeTransferFrom",
      "outputs": [],
      "stateMutability": "nonpayable",
      "type": "function"
    },
    {
      "inputs": [
        {
          "internalType": "address",
          "name": "from",
          "type": "address"
        },
        {
          "internalType": "address",
          "name": "to",
          "type": "address"
        },
        {
          "internalType": "uint256",
          "name": "tokenId",
          "type": "uint256"
        },
        {
          "internalType": "bytes",
          "name": "data",
          "type": "bytes"
        }
      ],
      "name": "safeTransferFrom",
      "outputs": [],
      "stateMutability": "nonpayable",
      "type": "function"
    },
    {
      "inputs": [
        {
          "internalType": "address",
          "name": "operator",
          "type": "address"
        },
        {
          "internalType": "bool",
          "name": "approved",
          "type": "bool"
        }
      ],
      "name": "setApprovalForAll",
      "outputs": [],
      "stateMutability": "nonpayable",
      "type": "function"
    },
    {
      "inputs": [
        {
          "internalType": "uint256",
          "name": "_dao_id",
          "type": "uint256"
        },
        {
          "internalType": "string",
          "name": "_dao_wallet",
          "type": "string"
        },
        {
          "internalType": "string",
          "name": "_dao_uri",
          "type": "string"
        }
      ],
      "name": "set_dao",
      "outputs": [],
      "stateMutability": "nonpayable",
      "type": "function"
    },
    {
      "inputs": [
        {
          "internalType": "uint256",
          "name": "_goal_id",
          "type": "uint256"
        },
        {
          "internalType": "string",
          "name": "_goal_uri",
          "type": "string"
        }
      ],
      "name": "set_goal",
      "outputs": [],
      "stateMutability": "nonpayable",
      "type": "function"
    },
    {
      "inputs": [
        {
          "internalType": "uint256",
          "name": "_ideas_id",
          "type": "uint256"
        },
        {
          "internalType": "string",
          "name": "_ideas_uri",
          "type": "string"
        }
      ],
      "name": "set_ideas",
      "outputs": [],
      "stateMutability": "nonpayable",
      "type": "function"
    },
    {
      "inputs": [
        {
          "internalType": "bytes4",
          "name": "interfaceId",
          "type": "bytes4"
        }
      ],
      "name": "supportsInterface",
      "outputs": [
        {
          "internalType": "bool",
          "name": "",
          "type": "bool"
        }
      ],
      "stateMutability": "view",
      "type": "function"
    },
    {
      "inputs": [],
      "name": "symbol",
      "outputs": [
        {
          "internalType": "string",
          "name": "",
          "type": "string"
        }
      ],
      "stateMutability": "view",
      "type": "function"
    },
    {
      "inputs": [
        {
          "internalType": "uint256",
          "name": "index",
          "type": "uint256"
        }
      ],
      "name": "tokenByIndex",
      "outputs": [
        {
          "internalType": "uint256",
          "name": "",
          "type": "uint256"
        }
      ],
      "stateMutability": "view",
      "type": "function"
    },
    {
      "inputs": [
        {
          "internalType": "address",
          "name": "owner",
          "type": "address"
        },
        {
          "internalType": "uint256",
          "name": "index",
          "type": "uint256"
        }
      ],
      "name": "tokenOfOwnerByIndex",
      "outputs": [
        {
          "internalType": "uint256",
          "name": "",
          "type": "uint256"
        }
      ],
      "stateMutability": "view",
      "type": "function"
    },
    {
      "inputs": [
        {
          "internalType": "uint256",
          "name": "tokenId",
          "type": "uint256"
        }
      ],
      "name": "tokenURI",
      "outputs": [
        {
          "internalType": "string",
          "name": "",
          "type": "string"
        }
      ],
      "stateMutability": "view",
      "type": "function"
    },
    {
      "inputs": [],
      "name": "totalSupply",
      "outputs": [
        {
          "internalType": "uint256",
          "name": "",
          "type": "uint256"
        }
      ],
      "stateMutability": "view",
      "type": "function"
    },
    {
      "inputs": [
        {
          "internalType": "address",
          "name": "from",
          "type": "address"
        },
        {
          "internalType": "address",
          "name": "to",
          "type": "address"
        },
        {
          "internalType": "uint256",
          "name": "tokenId",
          "type": "uint256"
        }
      ],
      "name": "transferFrom",
      "outputs": [],
      "stateMutability": "nonpayable",
      "type": "function"
    }
  ],
  "bytecode": "0x608060405234801561001057600080fd5b5061516e806100206000396000f3fe608060405234801561001057600080fd5b50600436106102485760003560e01c806371085cab1161013b578063b88d4fde116100b8578063c87b56dd1161007c578063c87b56dd146107b0578063e3280c96146107e0578063e32acc1a14610810578063e985e9c514610840578063ff4a37ef1461087057610248565b8063b88d4fde1461070e578063c04e74301461072a578063c04fe97814610746578063c29595c514610764578063c4c2e3641461078057610248565b806397ee7606116100ff57806397ee76061461066a578063a1ca917814610688578063a22cb465146106b8578063aa4cdf2a146106d4578063b16060a61461070457610248565b806371085cab146105a057806382fcc732146105d0578063881de858146106005780638d3d25951461061c57806395d89b411461064c57610248565b806327a568b9116101c95780634be7adb51161018d5780634be7adb5146104b05780634f6ccce7146104e05780635d907da1146105105780636352211e1461054057806370a082311461057057610248565b806327a568b9146103e357806329b56f60146104155780632f745c591461043357806342842e0e14610463578063468d0c801461047f57610248565b8063131d44f211610210578063131d44f21461031757806318160ddd146103475780631ba44c4c146103655780631e9ac9f51461039757806323b872dd146103c757610248565b806301ffc9a71461024d57806306fdde031461027d578063081812fc1461029b578063095ea7b3146102cb578063109ac970146102e7575b600080fd5b61026760048036038101906102629190613d3c565b6108a2565b60405161027491906145c0565b60405180910390f35b61028561091c565b60405161029291906145db565b60405180910390f35b6102b560048036038101906102b09190613f3e565b6109ae565b6040516102c29190614537565b60405180910390f35b6102e560048036038101906102e09190613cfc565b6109f4565b005b61030160048036038101906102fc9190613f3e565b610b0c565b60405161030e919061459e565b60405180910390f35b610331600480360381019061032c9190613f3e565b610c7c565b60405161033e919061459e565b60405180910390f35b61034f610dec565b60405161035c9190614809565b60405180910390f35b61037f600480360381019061037a9190613f3e565b610df9565b60405161038e93929190614854565b60405180910390f35b6103b160048036038101906103ac9190613d96565b610eab565b6040516103be9190614809565b60405180910390f35b6103e160048036038101906103dc9190613be6565b610f1d565b005b6103fd60048036038101906103f89190613f3e565b610f7d565b60405161040c939291906145fd565b60405180910390f35b61041d61113f565b60405161042a919061459e565b60405180910390f35b61044d60048036038101906104489190613cfc565b61127a565b60405161045a9190614809565b60405180910390f35b61047d60048036038101906104789190613be6565b61131f565b005b61049960048036038101906104949190613f3e565b61133f565b6040516104a7929190614824565b60405180910390f35b6104ca60048036038101906104c59190614052565b6113eb565b6040516104d7919061459e565b60405180910390f35b6104fa60048036038101906104f59190613f3e565b61157d565b6040516105079190614809565b60405180910390f35b61052a60048036038101906105259190613f3e565b6115ee565b60405161053791906145db565b60405180910390f35b61055a60048036038101906105559190613f3e565b611696565b6040516105679190614537565b60405180910390f35b61058a60048036038101906105859190613b79565b61171d565b6040516105979190614809565b60405180910390f35b6105ba60048036038101906105b59190613e57565b6117d5565b6040516105c79190614809565b60405180910390f35b6105ea60048036038101906105e59190614092565b61184e565b6040516105f79190614809565b60405180910390f35b61061a60048036038101906106159190613fc7565b6118d8565b005b61063660048036038101906106319190613f3e565b611933565b60405161064391906145db565b60405180910390f35b6106546119db565b60405161066191906145db565b60405180910390f35b610672611a6d565b60405161067f919061459e565b60405180910390f35b6106a2600480360381019061069d9190613d96565b611ba8565b6040516106af9190614809565b60405180910390f35b6106d260048036038101906106cd9190613cbc565b611c1a565b005b6106ee60048036038101906106e99190613d96565b611c30565b6040516106fb9190614809565b60405180910390f35b61070c611cb8565b005b61072860048036038101906107239190613c39565b611e36565b005b610744600480360381019061073f9190613f6b565b611e98565b005b61074e611ec7565b60405161075b919061459e565b60405180910390f35b61077e60048036038101906107799190613f6b565b612002565b005b61079a60048036038101906107959190613ddf565b612031565b6040516107a79190614809565b60405180910390f35b6107ca60048036038101906107c59190613f3e565b612115565b6040516107d791906145db565b60405180910390f35b6107fa60048036038101906107f59190613eb3565b61217d565b6040516108079190614809565b60405180910390f35b61082a60048036038101906108259190613f3e565b612258565b60405161083791906145db565b60405180910390f35b61085a60048036038101906108559190613ba6565b612300565b60405161086791906145c0565b60405180910390f35b61088a60048036038101906108859190613f3e565b612394565b60405161089993929190614854565b60405180910390f35b60007f780e9d63000000000000000000000000000000000000000000000000000000007bffffffffffffffffffffffffffffffffffffffffffffffffffffffff1916827bffffffffffffffffffffffffffffffffffffffffffffffffffffffff19161480610915575061091482612446565b5b9050919050565b60606065805461092b90614b32565b80601f016020809104026020016040519081016040528092919081815260200182805461095790614b32565b80156109a45780601f10610979576101008083540402835291602001916109a4565b820191906000526020600020905b81548152906001019060200180831161098757829003601f168201915b5050505050905090565b60006109b982612528565b6069600083815260200190815260200160002060009054906101000a900473ffffffffffffffffffffffffffffffffffffffff169050919050565b60006109ff82611696565b90508073ffffffffffffffffffffffffffffffffffffffff168373ffffffffffffffffffffffffffffffffffffffff161415610a70576040517f08c379a0000000000000000000000000000000000000000000000000000000008152600401610a6790614789565b60405180910390fd5b8073ffffffffffffffffffffffffffffffffffffffff16610a8f612573565b73ffffffffffffffffffffffffffffffffffffffff161480610abe5750610abd81610ab8612573565b612300565b5b610afd576040517f08c379a0000000000000000000000000000000000000000000000000000000008152600401610af4906147a9565b60405180910390fd5b610b07838361257b565b505050565b6060600060ca5467ffffffffffffffff811115610b2c57610b2b614cc9565b5b604051908082528060200260200182016040528015610b5f57816020015b6060815260200190600190039081610b4a5790505b509050600080600090505b60ca54811015610c71578460cf6000838152602001908152602001600020600001541415610c5e5760cf60008281526020019081526020016000206001018054610bb390614b32565b80601f0160208091040260200160405190810160405280929190818152602001828054610bdf90614b32565b8015610c2c5780601f10610c0157610100808354040283529160200191610c2c565b820191906000526020600020905b815481529060010190602001808311610c0f57829003601f168201915b5050505050838381518110610c4457610c43614c9a565b5b60200260200101819052508180610c5a90614b95565b9250505b8080610c6990614b95565b915050610b6a565b508192505050919050565b6060600060cb5467ffffffffffffffff811115610c9c57610c9b614cc9565b5b604051908082528060200260200182016040528015610ccf57816020015b6060815260200190600190039081610cba5790505b509050600080600090505b60cb54811015610de1578460d06000838152602001908152602001600020600001541415610dc05760d060008281526020019081526020016000206001018054610d2390614b32565b80601f0160208091040260200160405190810160405280929190818152602001828054610d4f90614b32565b8015610d9c5780601f10610d7157610100808354040283529160200191610d9c565b820191906000526020600020905b815481529060010190602001808311610d7f57829003601f168201915b5050505050838381518110610db457610db3614c9a565b5b60200260200101819052505b8180610dcb90614b95565b9250508080610dd990614b95565b915050610cda565b508192505050919050565b6000609980549050905090565b60d2602052806000526040600020600091509050806000015490806001015490806002018054610e2890614b32565b80601f0160208091040260200160405190810160405280929190818152602001828054610e5490614b32565b8015610ea15780601f10610e7657610100808354040283529160200191610ea1565b820191906000526020600020905b815481529060010190602001808311610e8457829003601f168201915b5050505050905083565b600080600090505b60ca54811015610f1257828051906020012060cf6000838152602001908152602001600020600101604051610ee891906144fc565b60405180910390201415610eff5780915050610f18565b8080610f0a90614b95565b915050610eb3565b50600090505b919050565b610f2e610f28612573565b82612634565b610f6d576040517f08c379a0000000000000000000000000000000000000000000000000000000008152600401610f6490614649565b60405180910390fd5b610f788383836126c9565b505050565b60ce602052806000526040600020600091509050806000018054610fa090614b32565b80601f0160208091040260200160405190810160405280929190818152602001828054610fcc90614b32565b80156110195780601f10610fee57610100808354040283529160200191611019565b820191906000526020600020905b815481529060010190602001808311610ffc57829003601f168201915b50505050509080600101805461102e90614b32565b80601f016020809104026020016040519081016040528092919081815260200182805461105a90614b32565b80156110a75780601f1061107c576101008083540402835291602001916110a7565b820191906000526020600020905b81548152906001019060200180831161108a57829003601f168201915b5050505050908060020180546110bc90614b32565b80601f01602080910402602001604051908101604052809291908181526020018280546110e890614b32565b80156111355780601f1061110a57610100808354040283529160200191611135565b820191906000526020600020905b81548152906001019060200180831161111857829003601f168201915b5050505050905083565b6060600060ca5467ffffffffffffffff81111561115f5761115e614cc9565b5b60405190808252806020026020018201604052801561119257816020015b606081526020019060019003908161117d5790505b50905060005b60ca548110156112725760cf600082815260200190815260200160002060010180546111c390614b32565b80601f01602080910402602001604051908101604052809291908181526020018280546111ef90614b32565b801561123c5780601f106112115761010080835404028352916020019161123c565b820191906000526020600020905b81548152906001019060200180831161121f57829003601f168201915b505050505082828151811061125457611253614c9a565b5b6020026020010181905250808061126a90614b95565b915050611198565b508091505090565b60006112858361171d565b82106112c6576040517f08c379a00000000000000000000000000000000000000000000000000000000081526004016112bd90614669565b60405180910390fd5b609760008473ffffffffffffffffffffffffffffffffffffffff1673ffffffffffffffffffffffffffffffffffffffff168152602001908152602001600020600083815260200190815260200160002054905092915050565b61133a83838360405180602001604052806000815250611e36565b505050565b60d060205280600052604060002060009150905080600001549080600101805461136890614b32565b80601f016020809104026020016040519081016040528092919081815260200182805461139490614b32565b80156113e15780601f106113b6576101008083540402835291602001916113e1565b820191906000526020600020905b8154815290600101906020018083116113c457829003601f168201915b5050505050905082565b6060600060cd5467ffffffffffffffff81111561140b5761140a614cc9565b5b60405190808252806020026020018201604052801561143e57816020015b60608152602001906001900390816114295790505b509050600080600090505b60cd54811015611571578560d260008381526020019081526020016000206000015414801561148d57508460d2600083815260200190815260200160002060010154145b156115505760d2600082815260200190815260200160002060020180546114b390614b32565b80601f01602080910402602001604051908101604052809291908181526020018280546114df90614b32565b801561152c5780601f106115015761010080835404028352916020019161152c565b820191906000526020600020905b81548152906001019060200180831161150f57829003601f168201915b505050505083838151811061154457611543614c9a565b5b60200260200101819052505b818061155b90614b95565b925050808061156990614b95565b915050611449565b50819250505092915050565b6000611587610dec565b82106115c8576040517f08c379a00000000000000000000000000000000000000000000000000000000081526004016115bf906147c9565b60405180910390fd5b609982815481106115dc576115db614c9a565b5b90600052602060002001549050919050565b606060ce6000838152602001908152602001600020600101805461161190614b32565b80601f016020809104026020016040519081016040528092919081815260200182805461163d90614b32565b801561168a5780601f1061165f5761010080835404028352916020019161168a565b820191906000526020600020905b81548152906001019060200180831161166d57829003601f168201915b50505050509050919050565b6000806116a2836129c3565b9050600073ffffffffffffffffffffffffffffffffffffffff168173ffffffffffffffffffffffffffffffffffffffff161415611714576040517f08c379a000000000000000000000000000000000000000000000000000000000815260040161170b90614769565b60405180910390fd5b80915050919050565b60008073ffffffffffffffffffffffffffffffffffffffff168273ffffffffffffffffffffffffffffffffffffffff16141561178e576040517f08c379a000000000000000000000000000000000000000000000000000000000815260040161178590614729565b60405180910390fd5b606860008373ffffffffffffffffffffffffffffffffffffffff1673ffffffffffffffffffffffffffffffffffffffff168152602001908152602001600020549050919050565b600060405180604001604052808381526020018481525060cf600060ca548152602001908152602001600020600082015181600001556020820151816001019080519060200190611827929190613891565b5090505060ca600081548092919061183e90614b95565b919050555060ca54905092915050565b600060405180606001604052808581526020018481526020018381525060d2600060cd548152602001908152602001600020600082015181600001556020820151816001015560408201518160020190805190602001906118b0929190613891565b5090505060cd60008154809291906118c790614b95565b919050555060cd5490509392505050565b8160ce60008581526020019081526020016000206000019080519060200190611902929190613891565b508060ce6000858152602001908152602001600020600101908051906020019061192d929190613891565b50505050565b606060d06000838152602001908152602001600020600101805461195690614b32565b80601f016020809104026020016040519081016040528092919081815260200182805461198290614b32565b80156119cf5780601f106119a4576101008083540402835291602001916119cf565b820191906000526020600020905b8154815290600101906020018083116119b257829003601f168201915b50505050509050919050565b6060606680546119ea90614b32565b80601f0160208091040260200160405190810160405280929190818152602001828054611a1690614b32565b8015611a635780601f10611a3857610100808354040283529160200191611a63565b820191906000526020600020905b815481529060010190602001808311611a4657829003601f168201915b5050505050905090565b6060600060cb5467ffffffffffffffff811115611a8d57611a8c614cc9565b5b604051908082528060200260200182016040528015611ac057816020015b6060815260200190600190039081611aab5790505b50905060005b60cb54811015611ba05760d060008281526020019081526020016000206001018054611af190614b32565b80601f0160208091040260200160405190810160405280929190818152602001828054611b1d90614b32565b8015611b6a5780601f10611b3f57610100808354040283529160200191611b6a565b820191906000526020600020905b815481529060010190602001808311611b4d57829003601f168201915b5050505050828281518110611b8257611b81614c9a565b5b60200260200101819052508080611b9890614b95565b915050611ac6565b508091505090565b600080600090505b60cb54811015611c0f57828051906020012060d06000838152602001908152602001600020600101604051611be591906144fc565b60405180910390201415611bfc5780915050611c15565b8080611c0790614b95565b915050611bb0565b50600090505b919050565b611c2c611c25612573565b8383612a00565b5050565b600080600090505b60cb54811015611cad57828051906020012060d06000838152602001908152602001600020600101604051611c6d91906144fc565b60405180910390201415611c9a5760d0600082815260200190815260200160002060000154915050611cb3565b8080611ca590614b95565b915050611c38565b50600090505b919050565b600060c981905550600060ca81905550600060cb81905550600060cd8190555060005b60c954811015611d3e5760ce600082815260200190815260200160002060008082016000611d099190613917565b600182016000611d199190613917565b600282016000611d299190613917565b50508080611d3690614b95565b915050611cdb565b5060005b60ca54811015611d8d5760cf6000828152602001908152602001600020600080820160009055600182016000611d789190613917565b50508080611d8590614b95565b915050611d42565b5060005b60cb54811015611ddc5760d06000828152602001908152602001600020600080820160009055600182016000611dc79190613917565b50508080611dd490614b95565b915050611d91565b5060005b60cd54811015611e335760d260008281526020019081526020016000206000808201600090556001820160009055600282016000611e1e9190613917565b50508080611e2b90614b95565b915050611de0565b50565b611e47611e41612573565b83612634565b611e86576040517f08c379a0000000000000000000000000000000000000000000000000000000008152600401611e7d90614649565b60405180910390fd5b611e9284848484612b6d565b50505050565b8060d060008481526020019081526020016000206001019080519060200190611ec2929190613891565b505050565b6060600060c95467ffffffffffffffff811115611ee757611ee6614cc9565b5b604051908082528060200260200182016040528015611f1a57816020015b6060815260200190600190039081611f055790505b50905060005b60c954811015611ffa5760ce60008281526020019081526020016000206001018054611f4b90614b32565b80601f0160208091040260200160405190810160405280929190818152602001828054611f7790614b32565b8015611fc45780601f10611f9957610100808354040283529160200191611fc4565b820191906000526020600020905b815481529060010190602001808311611fa757829003601f168201915b5050505050828281518110611fdc57611fdb614c9a565b5b60200260200101819052508080611ff290614b95565b915050611f20565b508091505090565b8060cf6000848152602001908152602001600020600101908051906020019061202c929190613891565b505050565b600060405180606001604052808481526020018381526020016040518060400160405280600581526020017f46616c736500000000000000000000000000000000000000000000000000000081525081525060ce600060c954815260200190815260200160002060008201518160000190805190602001906120b4929190613891565b5060208201518160010190805190602001906120d1929190613891565b5060408201518160020190805190602001906120ee929190613891565b5090505060c9600081548092919061210590614b95565b919050555060c954905092915050565b606061212082612528565b600061212a612bc9565b9050600081511161214a5760405180602001604052806000815250612175565b8061215484612be0565b604051602001612165929190614513565b6040516020818303038152906040525b915050919050565b600060405180604001604052808481526020018581525060d0600060cb5481526020019081526020016000206000820151816000015560208201518160010190805190602001906121cf929190613891565b5090505060cb60008154809291906121e690614b95565b919050555060005b825181101561224b5761222060cb5460cc5485848151811061221357612212614c9a565b5b6020026020010151612cb8565b60cc600081548092919061223390614b95565b9190505550808061224390614b95565b9150506121ee565b5060cb5490509392505050565b606060cf6000838152602001908152602001600020600101805461227b90614b32565b80601f01602080910402602001604051908101604052809291908181526020018280546122a790614b32565b80156122f45780601f106122c9576101008083540402835291602001916122f4565b820191906000526020600020905b8154815290600101906020018083116122d757829003601f168201915b50505050509050919050565b6000606a60008473ffffffffffffffffffffffffffffffffffffffff1673ffffffffffffffffffffffffffffffffffffffff16815260200190815260200160002060008373ffffffffffffffffffffffffffffffffffffffff1673ffffffffffffffffffffffffffffffffffffffff16815260200190815260200160002060009054906101000a900460ff16905092915050565b60d16020528060005260406000206000915090508060000154908060010154908060020180546123c390614b32565b80601f01602080910402602001604051908101604052809291908181526020018280546123ef90614b32565b801561243c5780601f106124115761010080835404028352916020019161243c565b820191906000526020600020905b81548152906001019060200180831161241f57829003601f168201915b5050505050905083565b60007f80ac58cd000000000000000000000000000000000000000000000000000000007bffffffffffffffffffffffffffffffffffffffffffffffffffffffff1916827bffffffffffffffffffffffffffffffffffffffffffffffffffffffff1916148061251157507f5b5e139f000000000000000000000000000000000000000000000000000000007bffffffffffffffffffffffffffffffffffffffffffffffffffffffff1916827bffffffffffffffffffffffffffffffffffffffffffffffffffffffff1916145b80612521575061252082612d29565b5b9050919050565b61253181612d93565b612570576040517f08c379a000000000000000000000000000000000000000000000000000000000815260040161256790614769565b60405180910390fd5b50565b600033905090565b816069600083815260200190815260200160002060006101000a81548173ffffffffffffffffffffffffffffffffffffffff021916908373ffffffffffffffffffffffffffffffffffffffff160217905550808273ffffffffffffffffffffffffffffffffffffffff166125ee83611696565b73ffffffffffffffffffffffffffffffffffffffff167f8c5be1e5ebec7d5bd14f71427d1e84f3dd0314c0f7b2291e5b200ac8c7c3b92560405160405180910390a45050565b60008061264083611696565b90508073ffffffffffffffffffffffffffffffffffffffff168473ffffffffffffffffffffffffffffffffffffffff16148061268257506126818185612300565b5b806126c057508373ffffffffffffffffffffffffffffffffffffffff166126a8846109ae565b73ffffffffffffffffffffffffffffffffffffffff16145b91505092915050565b8273ffffffffffffffffffffffffffffffffffffffff166126e982611696565b73ffffffffffffffffffffffffffffffffffffffff161461273f576040517f08c379a0000000000000000000000000000000000000000000000000000000008152600401612736906146a9565b60405180910390fd5b600073ffffffffffffffffffffffffffffffffffffffff168273ffffffffffffffffffffffffffffffffffffffff1614156127af576040517f08c379a00000000000000000000000000000000000000000000000000000000081526004016127a6906146e9565b60405180910390fd5b6127bc8383836001612dd4565b8273ffffffffffffffffffffffffffffffffffffffff166127dc82611696565b73ffffffffffffffffffffffffffffffffffffffff1614612832576040517f08c379a0000000000000000000000000000000000000000000000000000000008152600401612829906146a9565b60405180910390fd5b6069600082815260200190815260200160002060006101000a81549073ffffffffffffffffffffffffffffffffffffffff02191690556001606860008573ffffffffffffffffffffffffffffffffffffffff1673ffffffffffffffffffffffffffffffffffffffff168152602001908152602001600020600082825403925050819055506001606860008473ffffffffffffffffffffffffffffffffffffffff1673ffffffffffffffffffffffffffffffffffffffff16815260200190815260200160002060008282540192505081905550816067600083815260200190815260200160002060006101000a81548173ffffffffffffffffffffffffffffffffffffffff021916908373ffffffffffffffffffffffffffffffffffffffff160217905550808273ffffffffffffffffffffffffffffffffffffffff168473ffffffffffffffffffffffffffffffffffffffff167fddf252ad1be2c89b69c2b068fc378daa952ba7f163c4a11628f55a4df523b3ef60405160405180910390a46129be8383836001612f34565b505050565b60006067600083815260200190815260200160002060009054906101000a900473ffffffffffffffffffffffffffffffffffffffff169050919050565b8173ffffffffffffffffffffffffffffffffffffffff168373ffffffffffffffffffffffffffffffffffffffff161415612a6f576040517f08c379a0000000000000000000000000000000000000000000000000000000008152600401612a6690614709565b60405180910390fd5b80606a60008573ffffffffffffffffffffffffffffffffffffffff1673ffffffffffffffffffffffffffffffffffffffff16815260200190815260200160002060008473ffffffffffffffffffffffffffffffffffffffff1673ffffffffffffffffffffffffffffffffffffffff16815260200190815260200160002060006101000a81548160ff0219169083151502179055508173ffffffffffffffffffffffffffffffffffffffff168373ffffffffffffffffffffffffffffffffffffffff167f17307eab39ab6107e8899845ad3d59bd9653f200f220920489ca2b5937696c3183604051612b6091906145c0565b60405180910390a3505050565b612b788484846126c9565b612b8484848484612f3a565b612bc3576040517f08c379a0000000000000000000000000000000000000000000000000000000008152600401612bba90614689565b60405180910390fd5b50505050565b606060405180602001604052806000815250905090565b606060006001612bef846130d1565b01905060008167ffffffffffffffff811115612c0e57612c0d614cc9565b5b6040519080825280601f01601f191660200182016040528015612c405781602001600182028036833780820191505090505b509050600082602001820190505b600115612cad578080600190039150507f3031323334353637383961626364656600000000000000000000000000000000600a86061a8153600a8581612c9757612c96614c0d565b5b0494506000851415612ca857612cad565b612c4e565b819350505050919050565b60405180606001604052808481526020018381526020018281525060d1600084815260200190815260200160002060008201518160000155602082015181600101556040820151816002019080519060200190612d16929190613891565b50905050612d243383613224565b505050565b60007f01ffc9a7000000000000000000000000000000000000000000000000000000007bffffffffffffffffffffffffffffffffffffffffffffffffffffffff1916827bffffffffffffffffffffffffffffffffffffffffffffffffffffffff1916149050919050565b60008073ffffffffffffffffffffffffffffffffffffffff16612db5836129c3565b73ffffffffffffffffffffffffffffffffffffffff1614159050919050565b612de084848484613442565b6001811115612e24576040517f08c379a0000000000000000000000000000000000000000000000000000000008152600401612e1b906147e9565b60405180910390fd5b6000829050600073ffffffffffffffffffffffffffffffffffffffff168573ffffffffffffffffffffffffffffffffffffffff161415612e6c57612e6781613568565b612eab565b8373ffffffffffffffffffffffffffffffffffffffff168573ffffffffffffffffffffffffffffffffffffffff1614612eaa57612ea985826135b1565b5b5b600073ffffffffffffffffffffffffffffffffffffffff168473ffffffffffffffffffffffffffffffffffffffff161415612eee57612ee98161371e565b612f2d565b8473ffffffffffffffffffffffffffffffffffffffff168473ffffffffffffffffffffffffffffffffffffffff1614612f2c57612f2b84826137ef565b5b5b5050505050565b50505050565b6000612f5b8473ffffffffffffffffffffffffffffffffffffffff1661386e565b156130c4578373ffffffffffffffffffffffffffffffffffffffff1663150b7a02612f84612573565b8786866040518563ffffffff1660e01b8152600401612fa69493929190614552565b602060405180830381600087803b158015612fc057600080fd5b505af1925050508015612ff157506040513d601f19601f82011682018060405250810190612fee9190613d69565b60015b613074573d8060008114613021576040519150601f19603f3d011682016040523d82523d6000602084013e613026565b606091505b5060008151141561306c576040517f08c379a000000000000000000000000000000000000000000000000000000000815260040161306390614689565b60405180910390fd5b805181602001fd5b63150b7a0260e01b7bffffffffffffffffffffffffffffffffffffffffffffffffffffffff1916817bffffffffffffffffffffffffffffffffffffffffffffffffffffffff1916149150506130c9565b600190505b949350505050565b600080600090507a184f03e93ff9f4daa797ed6e38ed64bf6a1f010000000000000000831061312f577a184f03e93ff9f4daa797ed6e38ed64bf6a1f010000000000000000838161312557613124614c0d565b5b0492506040810190505b6d04ee2d6d415b85acef8100000000831061316c576d04ee2d6d415b85acef8100000000838161316257613161614c0d565b5b0492506020810190505b662386f26fc10000831061319b57662386f26fc10000838161319157613190614c0d565b5b0492506010810190505b6305f5e10083106131c4576305f5e10083816131ba576131b9614c0d565b5b0492506008810190505b61271083106131e95761271083816131df576131de614c0d565b5b0492506004810190505b6064831061320c576064838161320257613201614c0d565b5b0492506002810190505b600a831061321b576001810190505b80915050919050565b600073ffffffffffffffffffffffffffffffffffffffff168273ffffffffffffffffffffffffffffffffffffffff161415613294576040517f08c379a000000000000000000000000000000000000000000000000000000000815260040161328b90614749565b60405180910390fd5b61329d81612d93565b156132dd576040517f08c379a00000000000000000000000000000000000000000000000000000000081526004016132d4906146c9565b60405180910390fd5b6132eb600083836001612dd4565b6132f481612d93565b15613334576040517f08c379a000000000000000000000000000000000000000000000000000000000815260040161332b906146c9565b60405180910390fd5b6001606860008473ffffffffffffffffffffffffffffffffffffffff1673ffffffffffffffffffffffffffffffffffffffff16815260200190815260200160002060008282540192505081905550816067600083815260200190815260200160002060006101000a81548173ffffffffffffffffffffffffffffffffffffffff021916908373ffffffffffffffffffffffffffffffffffffffff160217905550808273ffffffffffffffffffffffffffffffffffffffff16600073ffffffffffffffffffffffffffffffffffffffff167fddf252ad1be2c89b69c2b068fc378daa952ba7f163c4a11628f55a4df523b3ef60405160405180910390a461343e600083836001612f34565b5050565b600181111561356257600073ffffffffffffffffffffffffffffffffffffffff168473ffffffffffffffffffffffffffffffffffffffff16146134d65780606860008673ffffffffffffffffffffffffffffffffffffffff1673ffffffffffffffffffffffffffffffffffffffff16815260200190815260200160002060008282546134ce9190614a48565b925050819055505b600073ffffffffffffffffffffffffffffffffffffffff168373ffffffffffffffffffffffffffffffffffffffff16146135615780606860008573ffffffffffffffffffffffffffffffffffffffff1673ffffffffffffffffffffffffffffffffffffffff168152602001908152602001600020600082825461355991906149f2565b925050819055505b5b50505050565b609980549050609a600083815260200190815260200160002081905550609981908060018154018082558091505060019003906000526020600020016000909190919091505550565b600060016135be8461171d565b6135c89190614a48565b90506000609860008481526020019081526020016000205490508181146136ad576000609760008673ffffffffffffffffffffffffffffffffffffffff1673ffffffffffffffffffffffffffffffffffffffff168152602001908152602001600020600084815260200190815260200160002054905080609760008773ffffffffffffffffffffffffffffffffffffffff1673ffffffffffffffffffffffffffffffffffffffff168152602001908152602001600020600084815260200190815260200160002081905550816098600083815260200190815260200160002081905550505b6098600084815260200190815260200160002060009055609760008573ffffffffffffffffffffffffffffffffffffffff1673ffffffffffffffffffffffffffffffffffffffff16815260200190815260200160002060008381526020019081526020016000206000905550505050565b600060016099805490506137329190614a48565b90506000609a600084815260200190815260200160002054905060006099838154811061376257613761614c9a565b5b90600052602060002001549050806099838154811061378457613783614c9a565b5b906000526020600020018190555081609a600083815260200190815260200160002081905550609a60008581526020019081526020016000206000905560998054806137d3576137d2614c6b565b5b6001900381819060005260206000200160009055905550505050565b60006137fa8361171d565b905081609760008573ffffffffffffffffffffffffffffffffffffffff1673ffffffffffffffffffffffffffffffffffffffff168152602001908152602001600020600083815260200190815260200160002081905550806098600084815260200190815260200160002081905550505050565b6000808273ffffffffffffffffffffffffffffffffffffffff163b119050919050565b82805461389d90614b32565b90600052602060002090601f0160209004810192826138bf5760008555613906565b82601f106138d857805160ff1916838001178555613906565b82800160010185558215613906579182015b828111156139055782518255916020019190600101906138ea565b5b5090506139139190613957565b5090565b50805461392390614b32565b6000825580601f106139355750613954565b601f0160209004906000526020600020908101906139539190613957565b5b50565b5b80821115613970576000816000905550600101613958565b5090565b6000613987613982846148b7565b614892565b905080838252602082019050828560208602820111156139aa576139a9614cfd565b5b60005b858110156139f857813567ffffffffffffffff8111156139d0576139cf614cf8565b5b8086016139dd8982613b36565b855260208501945060208401935050506001810190506139ad565b5050509392505050565b6000613a15613a10846148e3565b614892565b905082815260208101848484011115613a3157613a30614d02565b5b613a3c848285614af0565b509392505050565b6000613a57613a5284614914565b614892565b905082815260208101848484011115613a7357613a72614d02565b5b613a7e848285614af0565b509392505050565b600081359050613a95816150dc565b92915050565b600082601f830112613ab057613aaf614cf8565b5b8135613ac0848260208601613974565b91505092915050565b600081359050613ad8816150f3565b92915050565b600081359050613aed8161510a565b92915050565b600081519050613b028161510a565b92915050565b600082601f830112613b1d57613b1c614cf8565b5b8135613b2d848260208601613a02565b91505092915050565b600082601f830112613b4b57613b4a614cf8565b5b8135613b5b848260208601613a44565b91505092915050565b600081359050613b7381615121565b92915050565b600060208284031215613b8f57613b8e614d0c565b5b6000613b9d84828501613a86565b91505092915050565b60008060408385031215613bbd57613bbc614d0c565b5b6000613bcb85828601613a86565b9250506020613bdc85828601613a86565b9150509250929050565b600080600060608486031215613bff57613bfe614d0c565b5b6000613c0d86828701613a86565b9350506020613c1e86828701613a86565b9250506040613c2f86828701613b64565b9150509250925092565b60008060008060808587031215613c5357613c52614d0c565b5b6000613c6187828801613a86565b9450506020613c7287828801613a86565b9350506040613c8387828801613b64565b925050606085013567ffffffffffffffff811115613ca457613ca3614d07565b5b613cb087828801613b08565b91505092959194509250565b60008060408385031215613cd357613cd2614d0c565b5b6000613ce185828601613a86565b9250506020613cf285828601613ac9565b9150509250929050565b60008060408385031215613d1357613d12614d0c565b5b6000613d2185828601613a86565b9250506020613d3285828601613b64565b9150509250929050565b600060208284031215613d5257613d51614d0c565b5b6000613d6084828501613ade565b91505092915050565b600060208284031215613d7f57613d7e614d0c565b5b6000613d8d84828501613af3565b91505092915050565b600060208284031215613dac57613dab614d0c565b5b600082013567ffffffffffffffff811115613dca57613dc9614d07565b5b613dd684828501613b36565b91505092915050565b60008060408385031215613df657613df5614d0c565b5b600083013567ffffffffffffffff811115613e1457613e13614d07565b5b613e2085828601613b36565b925050602083013567ffffffffffffffff811115613e4157613e40614d07565b5b613e4d85828601613b36565b9150509250929050565b60008060408385031215613e6e57613e6d614d0c565b5b600083013567ffffffffffffffff811115613e8c57613e8b614d07565b5b613e9885828601613b36565b9250506020613ea985828601613b64565b9150509250929050565b600080600060608486031215613ecc57613ecb614d0c565b5b600084013567ffffffffffffffff811115613eea57613ee9614d07565b5b613ef686828701613b36565b9350506020613f0786828701613b64565b925050604084013567ffffffffffffffff811115613f2857613f27614d07565b5b613f3486828701613a9b565b9150509250925092565b600060208284031215613f5457613f53614d0c565b5b6000613f6284828501613b64565b91505092915050565b60008060408385031215613f8257613f81614d0c565b5b6000613f9085828601613b64565b925050602083013567ffffffffffffffff811115613fb157613fb0614d07565b5b613fbd85828601613b36565b9150509250929050565b600080600060608486031215613fe057613fdf614d0c565b5b6000613fee86828701613b64565b935050602084013567ffffffffffffffff81111561400f5761400e614d07565b5b61401b86828701613b36565b925050604084013567ffffffffffffffff81111561403c5761403b614d07565b5b61404886828701613b36565b9150509250925092565b6000806040838503121561406957614068614d0c565b5b600061407785828601613b64565b925050602061408885828601613b64565b9150509250929050565b6000806000606084860312156140ab576140aa614d0c565b5b60006140b986828701613b64565b93505060206140ca86828701613b64565b925050604084013567ffffffffffffffff8111156140eb576140ea614d07565b5b6140f786828701613b36565b9150509250925092565b600061410d8383614260565b905092915050565b61411e81614a7c565b82525050565b600061412f8261496a565b6141398185614998565b93508360208202850161414b85614945565b8060005b8581101561418757848403895281516141688582614101565b94506141738361498b565b925060208a0199505060018101905061414f565b50829750879550505050505092915050565b6141a281614a8e565b82525050565b60006141b382614975565b6141bd81856149a9565b93506141cd818560208601614aff565b6141d681614d11565b840191505092915050565b600081546141ee81614b32565b6141f881866149ba565b94506001821660008114614213576001811461422457614257565b60ff19831686528186019350614257565b61422d85614955565b60005b8381101561424f57815481890152600182019150602081019050614230565b838801955050505b50505092915050565b600061426b82614980565b61427581856149c5565b9350614285818560208601614aff565b61428e81614d11565b840191505092915050565b60006142a482614980565b6142ae81856149d6565b93506142be818560208601614aff565b6142c781614d11565b840191505092915050565b60006142dd82614980565b6142e781856149e7565b93506142f7818560208601614aff565b80840191505092915050565b6000614310602d836149d6565b915061431b82614d22565b604082019050919050565b6000614333602b836149d6565b915061433e82614d71565b604082019050919050565b60006143566032836149d6565b915061436182614dc0565b604082019050919050565b60006143796025836149d6565b915061438482614e0f565b604082019050919050565b600061439c601c836149d6565b91506143a782614e5e565b602082019050919050565b60006143bf6024836149d6565b91506143ca82614e87565b604082019050919050565b60006143e26019836149d6565b91506143ed82614ed6565b602082019050919050565b60006144056029836149d6565b915061441082614eff565b604082019050919050565b60006144286020836149d6565b915061443382614f4e565b602082019050919050565b600061444b6018836149d6565b915061445682614f77565b602082019050919050565b600061446e6021836149d6565b915061447982614fa0565b604082019050919050565b6000614491603d836149d6565b915061449c82614fef565b604082019050919050565b60006144b4602c836149d6565b91506144bf8261503e565b604082019050919050565b60006144d76035836149d6565b91506144e28261508d565b604082019050919050565b6144f681614ae6565b82525050565b600061450882846141e1565b915081905092915050565b600061451f82856142d2565b915061452b82846142d2565b91508190509392505050565b600060208201905061454c6000830184614115565b92915050565b60006080820190506145676000830187614115565b6145746020830186614115565b61458160408301856144ed565b818103606083015261459381846141a8565b905095945050505050565b600060208201905081810360008301526145b88184614124565b905092915050565b60006020820190506145d56000830184614199565b92915050565b600060208201905081810360008301526145f58184614299565b905092915050565b600060608201905081810360008301526146178186614299565b9050818103602083015261462b8185614299565b9050818103604083015261463f8184614299565b9050949350505050565b6000602082019050818103600083015261466281614303565b9050919050565b6000602082019050818103600083015261468281614326565b9050919050565b600060208201905081810360008301526146a281614349565b9050919050565b600060208201905081810360008301526146c28161436c565b9050919050565b600060208201905081810360008301526146e28161438f565b9050919050565b60006020820190508181036000830152614702816143b2565b9050919050565b60006020820190508181036000830152614722816143d5565b9050919050565b60006020820190508181036000830152614742816143f8565b9050919050565b600060208201905081810360008301526147628161441b565b9050919050565b600060208201905081810360008301526147828161443e565b9050919050565b600060208201905081810360008301526147a281614461565b9050919050565b600060208201905081810360008301526147c281614484565b9050919050565b600060208201905081810360008301526147e2816144a7565b9050919050565b60006020820190508181036000830152614802816144ca565b9050919050565b600060208201905061481e60008301846144ed565b92915050565b600060408201905061483960008301856144ed565b818103602083015261484b8184614299565b90509392505050565b600060608201905061486960008301866144ed565b61487660208301856144ed565b81810360408301526148888184614299565b9050949350505050565b600061489c6148ad565b90506148a88282614b64565b919050565b6000604051905090565b600067ffffffffffffffff8211156148d2576148d1614cc9565b5b602082029050602081019050919050565b600067ffffffffffffffff8211156148fe576148fd614cc9565b5b61490782614d11565b9050602081019050919050565b600067ffffffffffffffff82111561492f5761492e614cc9565b5b61493882614d11565b9050602081019050919050565b6000819050602082019050919050565b60008190508160005260206000209050919050565b600081519050919050565b600081519050919050565b600081519050919050565b6000602082019050919050565b600082825260208201905092915050565b600082825260208201905092915050565b600081905092915050565b600082825260208201905092915050565b600082825260208201905092915050565b600081905092915050565b60006149fd82614ae6565b9150614a0883614ae6565b9250827fffffffffffffffffffffffffffffffffffffffffffffffffffffffffffffffff03821115614a3d57614a3c614bde565b5b828201905092915050565b6000614a5382614ae6565b9150614a5e83614ae6565b925082821015614a7157614a70614bde565b5b828203905092915050565b6000614a8782614ac6565b9050919050565b60008115159050919050565b60007fffffffff0000000000000000000000000000000000000000000000000000000082169050919050565b600073ffffffffffffffffffffffffffffffffffffffff82169050919050565b6000819050919050565b82818337600083830152505050565b60005b83811015614b1d578082015181840152602081019050614b02565b83811115614b2c576000848401525b50505050565b60006002820490506001821680614b4a57607f821691505b60208210811415614b5e57614b5d614c3c565b5b50919050565b614b6d82614d11565b810181811067ffffffffffffffff82111715614b8c57614b8b614cc9565b5b80604052505050565b6000614ba082614ae6565b91507fffffffffffffffffffffffffffffffffffffffffffffffffffffffffffffffff821415614bd357614bd2614bde565b5b600182019050919050565b7f4e487b7100000000000000000000000000000000000000000000000000000000600052601160045260246000fd5b7f4e487b7100000000000000000000000000000000000000000000000000000000600052601260045260246000fd5b7f4e487b7100000000000000000000000000000000000000000000000000000000600052602260045260246000fd5b7f4e487b7100000000000000000000000000000000000000000000000000000000600052603160045260246000fd5b7f4e487b7100000000000000000000000000000000000000000000000000000000600052603260045260246000fd5b7f4e487b7100000000000000000000000000000000000000000000000000000000600052604160045260246000fd5b600080fd5b600080fd5b600080fd5b600080fd5b600080fd5b6000601f19601f8301169050919050565b7f4552433732313a2063616c6c6572206973206e6f7420746f6b656e206f776e6560008201527f72206f7220617070726f76656400000000000000000000000000000000000000602082015250565b7f455243373231456e756d657261626c653a206f776e657220696e646578206f7560008201527f74206f6620626f756e6473000000000000000000000000000000000000000000602082015250565b7f4552433732313a207472616e7366657220746f206e6f6e20455243373231526560008201527f63656976657220696d706c656d656e7465720000000000000000000000000000602082015250565b7f4552433732313a207472616e736665722066726f6d20696e636f72726563742060008201527f6f776e6572000000000000000000000000000000000000000000000000000000602082015250565b7f4552433732313a20746f6b656e20616c7265616479206d696e74656400000000600082015250565b7f4552433732313a207472616e7366657220746f20746865207a65726f2061646460008201527f7265737300000000000000000000000000000000000000000000000000000000602082015250565b7f4552433732313a20617070726f766520746f2063616c6c657200000000000000600082015250565b7f4552433732313a2061646472657373207a65726f206973206e6f74206120766160008201527f6c6964206f776e65720000000000000000000000000000000000000000000000602082015250565b7f4552433732313a206d696e7420746f20746865207a65726f2061646472657373600082015250565b7f4552433732313a20696e76616c696420746f6b656e2049440000000000000000600082015250565b7f4552433732313a20617070726f76616c20746f2063757272656e74206f776e6560008201527f7200000000000000000000000000000000000000000000000000000000000000602082015250565b7f4552433732313a20617070726f76652063616c6c6572206973206e6f7420746f60008201527f6b656e206f776e6572206f7220617070726f76656420666f7220616c6c000000602082015250565b7f455243373231456e756d657261626c653a20676c6f62616c20696e646578206f60008201527f7574206f6620626f756e64730000000000000000000000000000000000000000602082015250565b7f455243373231456e756d657261626c653a20636f6e736563757469766520747260008201527f616e7366657273206e6f7420737570706f727465640000000000000000000000602082015250565b6150e581614a7c565b81146150f057600080fd5b50565b6150fc81614a8e565b811461510757600080fd5b50565b61511381614a9a565b811461511e57600080fd5b50565b61512a81614ae6565b811461513557600080fd5b5056fea26469706673582212204150b7952353b39a045028c7f46b92c06e0b69e1057276fcdc9ceba94937eb9d64736f6c63430008060033",
  "linkReferences": {},
  "deployedLinkReferences": {}
}