{
  "_format": "hh-sol-artifact-1",
  "contractName": "GreenDAO",
  "sourceName": "contracts/GreenDAO.sol",
  "abi": [
    {
      "inputs": [
        {
          "internalType": "string",
          "name": "_name",
          "type": "string"
        },
        {
          "internalType": "string",
          "name": "_symbol",
          "type": "string"
        }
      ],
      "stateMutability": "nonpayable",
      "type": "constructor"
    },
    {
      "anonymous": false,
      "inputs": [
        {
          "indexed": true,
          "internalType": "address",
          "name": "owner",
          "type": "address"
        },
        {
          "indexed": true,
          "internalType": "address",
          "name": "approved",
          "type": "address"
        },
        {
          "indexed": true,
          "internalType": "uint256",
          "name": "tokenId",
          "type": "uint256"
        }
      ],
      "name": "Approval",
      "type": "event"
    },
    {
      "anonymous": false,
      "inputs": [
        {
          "indexed": true,
          "internalType": "address",
          "name": "owner",
          "type": "address"
        },
        {
          "indexed": true,
          "internalType": "address",
          "name": "operator",
          "type": "address"
        },
        {
          "indexed": false,
          "internalType": "bool",
          "name": "approved",
          "type": "bool"
        }
      ],
      "name": "ApprovalForAll",
      "type": "event"
    },
    {
      "anonymous": false,
      "inputs": [
        {
          "indexed": true,
          "internalType": "address",
          "name": "from",
          "type": "address"
        },
        {
          "indexed": true,
          "internalType": "address",
          "name": "to",
          "type": "address"
        },
        {
          "indexed": true,
          "internalType": "uint256",
          "name": "tokenId",
          "type": "uint256"
        }
      ],
      "name": "Transfer",
      "type": "event"
    },
    {
      "inputs": [
        {
          "internalType": "uint256",
          "name": "",
          "type": "uint256"
        }
      ],
      "name": "_dao_uris",
      "outputs": [
        {
          "internalType": "string",
          "name": "dao_wallet",
          "type": "string"
        },
        {
          "internalType": "string",
          "name": "dao_uri",
          "type": "string"
        },
        {
          "internalType": "string",
          "name": "finished",
          "type": "string"
        }
      ],
      "stateMutability": "view",
      "type": "function"
    },
    {
      "inputs": [
        {
          "internalType": "uint256",
          "name": "",
          "type": "uint256"
        }
      ],
      "name": "_ideas_uris",
      "outputs": [
        {
          "internalType": "uint256",
          "name": "goal_id",
          "type": "uint256"
        },
        {
          "internalType": "string",
          "name": "ideas_uri",
          "type": "string"
        }
      ],
      "stateMutability": "view",
      "type": "function"
    },
    {
      "inputs": [
        {
          "internalType": "uint256",
          "name": "",
          "type": "uint256"
        }
      ],
      "name": "all_goal_ideas_votes",
      "outputs": [
        {
          "internalType": "uint256",
          "name": "goal_id",
          "type": "uint256"
        },
        {
          "internalType": "uint256",
          "name": "ideas_id",
          "type": "uint256"
        },
        {
          "internalType": "string",
          "name": "wallet",
          "type": "string"
        }
      ],
      "stateMutability": "view",
      "type": "function"
    },
    {
      "inputs": [
        {
          "internalType": "address",
          "name": "to",
          "type": "address"
        },
        {
          "internalType": "uint256",
          "name": "tokenId",
          "type": "uint256"
        }
      ],
      "name": "approve",
      "outputs": [],
      "stateMutability": "nonpayable",
      "type": "function"
    },
    {
      "inputs": [
        {
          "internalType": "address",
          "name": "owner",
          "type": "address"
        }
      ],
      "name": "balanceOf",
      "outputs": [
        {
          "internalType": "uint256",
          "name": "",
          "type": "uint256"
        }
      ],
      "stateMutability": "view",
      "type": "function"
    },
    {
      "inputs": [
        {
          "internalType": "string",
          "name": "_dao_wallet",
          "type": "string"
        },
        {
          "internalType": "string",
          "name": "_dao_uri",
          "type": "string"
        }
      ],
      "name": "create_dao",
      "outputs": [
        {
          "internalType": "uint256",
          "name": "",
          "type": "uint256"
        }
      ],
      "stateMutability": "nonpayable",
      "type": "function"
    },
    {
      "inputs": [
        {
          "internalType": "string",
          "name": "_goal_uri",
          "type": "string"
        },
        {
          "internalType": "uint256",
          "name": "_dao_id",
          "type": "uint256"
        }
      ],
      "name": "create_goal",
      "outputs": [
        {
          "internalType": "uint256",
          "name": "",
          "type": "uint256"
        }
      ],
      "stateMutability": "nonpayable",
      "type": "function"
    },
    {
      "inputs": [
        {
          "internalType": "uint256",
          "name": "_goal_id",
          "type": "uint256"
        },
        {
          "internalType": "uint256",
          "name": "_ideas_id",
          "type": "uint256"
        },
        {
          "internalType": "string",
          "name": "_wallet",
          "type": "string"
        }
      ],
      "name": "create_goal_ideas_vote",
      "outputs": [
        {
          "internalType": "uint256",
          "name": "",
          "type": "uint256"
        }
      ],
      "stateMutability": "nonpayable",
      "type": "function"
    },
    {
      "inputs": [
        {
          "internalType": "address",
          "name": "_claimer",
          "type": "address"
        },
        {
          "internalType": "string",
          "name": "_ideas_uri",
          "type": "string"
        },
        {
          "internalType": "uint256",
          "name": "_goal_id",
          "type": "uint256"
        }
      ],
      "name": "create_ideas",
      "outputs": [
        {
          "internalType": "uint256",
          "name": "",
          "type": "uint256"
        }
      ],
      "stateMutability": "nonpayable",
      "type": "function"
    },
    {
      "inputs": [
        {
          "internalType": "uint256",
          "name": "_dao_id",
          "type": "uint256"
        }
      ],
      "name": "dao_uri",
      "outputs": [
        {
          "internalType": "string",
          "name": "",
          "type": "string"
        }
      ],
      "stateMutability": "view",
      "type": "function"
    },
    {
      "inputs": [
        {
          "internalType": "uint256",
          "name": "tokenId",
          "type": "uint256"
        }
      ],
      "name": "getApproved",
      "outputs": [
        {
          "internalType": "address",
          "name": "",
          "type": "address"
        }
      ],
      "stateMutability": "view",
      "type": "function"
    },
    {
      "inputs": [],
      "name": "get_all_daos",
      "outputs": [
        {
          "internalType": "string[]",
          "name": "",
          "type": "string[]"
        }
      ],
      "stateMutability": "view",
      "type": "function"
    },
    {
      "inputs": [],
      "name": "get_all_goals",
      "outputs": [
        {
          "internalType": "string[]",
          "name": "",
          "type": "string[]"
        }
      ],
      "stateMutability": "view",
      "type": "function"
    },
    {
      "inputs": [
        {
          "internalType": "uint256",
          "name": "_dao_id",
          "type": "uint256"
        }
      ],
      "name": "get_all_goals_by_dao_id",
      "outputs": [
        {
          "internalType": "string[]",
          "name": "",
          "type": "string[]"
        }
      ],
      "stateMutability": "view",
      "type": "function"
    },
    {
      "inputs": [],
      "name": "get_all_ideas",
      "outputs": [
        {
          "internalType": "string[]",
          "name": "",
          "type": "string[]"
        }
      ],
      "stateMutability": "view",
      "type": "function"
    },
    {
      "inputs": [
        {
          "internalType": "uint256",
          "name": "_goal_id",
          "type": "uint256"
        }
      ],
      "name": "get_all_ideas_by_goal_id",
      "outputs": [
        {
          "internalType": "string[]",
          "name": "",
          "type": "string[]"
        }
      ],
      "stateMutability": "view",
      "type": "function"
    },
    {
      "inputs": [
        {
          "internalType": "string",
          "name": "_goal_uri",
          "type": "string"
        }
      ],
      "name": "get_goal_id_by_goal_uri",
      "outputs": [
        {
          "internalType": "uint256",
          "name": "",
          "type": "uint256"
        }
      ],
      "stateMutability": "view",
      "type": "function"
    },
    {
      "inputs": [
        {
          "internalType": "string",
          "name": "_ideas_uri",
          "type": "string"
        }
      ],
      "name": "get_goal_id_from_ideas_uri",
      "outputs": [
        {
          "internalType": "uint256",
          "name": "",
          "type": "uint256"
        }
      ],
      "stateMutability": "view",
      "type": "function"
    },
    {
      "inputs": [
        {
          "internalType": "string",
          "name": "_ideas_uri",
          "type": "string"
        }
      ],
      "name": "get_ideas_id_by_ideas_uri",
      "outputs": [
        {
          "internalType": "uint256",
          "name": "",
          "type": "uint256"
        }
      ],
      "stateMutability": "view",
      "type": "function"
    },
    {
      "inputs": [
        {
          "internalType": "uint256",
          "name": "_goal_id",
          "type": "uint256"
        },
        {
          "internalType": "uint256",
          "name": "_ideas_id",
          "type": "uint256"
        }
      ],
      "name": "get_ideas_votes_from_goal",
      "outputs": [
        {
          "internalType": "string[]",
          "name": "",
          "type": "string[]"
        }
      ],
      "stateMutability": "view",
      "type": "function"
    },
    {
      "inputs": [
        {
          "internalType": "uint256",
          "name": "_goal_id",
          "type": "uint256"
        }
      ],
      "name": "goal_uri",
      "outputs": [
        {
          "internalType": "string",
          "name": "",
          "type": "string"
        }
      ],
      "stateMutability": "view",
      "type": "function"
    },
    {
      "inputs": [
        {
          "internalType": "uint256",
          "name": "_ideas_id",
          "type": "uint256"
        }
      ],
      "name": "ideas_uri",
      "outputs": [
        {
          "internalType": "string",
          "name": "",
          "type": "string"
        }
      ],
      "stateMutability": "view",
      "type": "function"
    },
    {
      "inputs": [
        {
          "internalType": "address",
          "name": "owner",
          "type": "address"
        },
        {
          "internalType": "address",
          "name": "operator",
          "type": "address"
        }
      ],
      "name": "isApprovedForAll",
      "outputs": [
        {
          "internalType": "bool",
          "name": "",
          "type": "bool"
        }
      ],
      "stateMutability": "view",
      "type": "function"
    },
    {
      "inputs": [],
      "name": "name",
      "outputs": [
        {
          "internalType": "string",
          "name": "",
          "type": "string"
        }
      ],
      "stateMutability": "view",
      "type": "function"
    },
    {
      "inputs": [
        {
          "internalType": "uint256",
          "name": "tokenId",
          "type": "uint256"
        }
      ],
      "name": "ownerOf",
      "outputs": [
        {
          "internalType": "address",
          "name": "",
          "type": "address"
        }
      ],
      "stateMutability": "view",
      "type": "function"
    },
    {
      "inputs": [],
      "name": "reset_all",
      "outputs": [],
      "stateMutability": "nonpayable",
      "type": "function"
    },
    {
      "inputs": [
        {
          "internalType": "address",
          "name": "from",
          "type": "address"
        },
        {
          "internalType": "address",
          "name": "to",
          "type": "address"
        },
        {
          "internalType": "uint256",
          "name": "tokenId",
          "type": "uint256"
        }
      ],
      "name": "safeTransferFrom",
      "outputs": [],
      "stateMutability": "nonpayable",
      "type": "function"
    },
    {
      "inputs": [
        {
          "internalType": "address",
          "name": "from",
          "type": "address"
        },
        {
          "internalType": "address",
          "name": "to",
          "type": "address"
        },
        {
          "internalType": "uint256",
          "name": "tokenId",
          "type": "uint256"
        },
        {
          "internalType": "bytes",
          "name": "data",
          "type": "bytes"
        }
      ],
      "name": "safeTransferFrom",
      "outputs": [],
      "stateMutability": "nonpayable",
      "type": "function"
    },
    {
      "inputs": [
        {
          "internalType": "address",
          "name": "operator",
          "type": "address"
        },
        {
          "internalType": "bool",
          "name": "approved",
          "type": "bool"
        }
      ],
      "name": "setApprovalForAll",
      "outputs": [],
      "stateMutability": "nonpayable",
      "type": "function"
    },
    {
      "inputs": [
        {
          "internalType": "uint256",
          "name": "_dao_id",
          "type": "uint256"
        },
        {
          "internalType": "string",
          "name": "_dao_wallet",
          "type": "string"
        },
        {
          "internalType": "string",
          "name": "_dao_uri",
          "type": "string"
        }
      ],
      "name": "set_dao",
      "outputs": [],
      "stateMutability": "nonpayable",
      "type": "function"
    },
    {
      "inputs": [
        {
          "internalType": "uint256",
          "name": "_goal_id",
          "type": "uint256"
        },
        {
          "internalType": "string",
          "name": "_goal_uri",
          "type": "string"
        }
      ],
      "name": "set_goal",
      "outputs": [],
      "stateMutability": "nonpayable",
      "type": "function"
    },
    {
      "inputs": [
        {
          "internalType": "uint256",
          "name": "_ideas_id",
          "type": "uint256"
        },
        {
          "internalType": "string",
          "name": "_ideas_uri",
          "type": "string"
        }
      ],
      "name": "set_ideas",
      "outputs": [],
      "stateMutability": "nonpayable",
      "type": "function"
    },
    {
      "inputs": [
        {
          "internalType": "bytes4",
          "name": "interfaceId",
          "type": "bytes4"
        }
      ],
      "name": "supportsInterface",
      "outputs": [
        {
          "internalType": "bool",
          "name": "",
          "type": "bool"
        }
      ],
      "stateMutability": "view",
      "type": "function"
    },
    {
      "inputs": [],
      "name": "symbol",
      "outputs": [
        {
          "internalType": "string",
          "name": "",
          "type": "string"
        }
      ],
      "stateMutability": "view",
      "type": "function"
    },
    {
      "inputs": [
        {
          "internalType": "uint256",
          "name": "tokenId",
          "type": "uint256"
        }
      ],
      "name": "tokenURI",
      "outputs": [
        {
          "internalType": "string",
          "name": "",
          "type": "string"
        }
      ],
      "stateMutability": "view",
      "type": "function"
    },
    {
      "inputs": [
        {
          "internalType": "address",
          "name": "from",
          "type": "address"
        },
        {
          "internalType": "address",
          "name": "to",
          "type": "address"
        },
        {
          "internalType": "uint256",
          "name": "tokenId",
          "type": "uint256"
        }
      ],
      "name": "transferFrom",
      "outputs": [],
      "stateMutability": "nonpayable",
      "type": "function"
    }
  ],
  "bytecode": "0x60806040523480156200001157600080fd5b5060405162004a5e38038062004a5e8339818101604052810190620000379190620001a3565b818181600090805190602001906200005192919062000075565b5080600190805190602001906200006a92919062000075565b5050505050620003ac565b8280546200008390620002bd565b90600052602060002090601f016020900481019282620000a75760008555620000f3565b82601f10620000c257805160ff1916838001178555620000f3565b82800160010185558215620000f3579182015b82811115620000f2578251825591602001919060010190620000d5565b5b50905062000102919062000106565b5090565b5b808211156200012157600081600090555060010162000107565b5090565b60006200013c620001368462000251565b62000228565b9050828152602081018484840111156200015b576200015a6200038c565b5b6200016884828562000287565b509392505050565b600082601f83011262000188576200018762000387565b5b81516200019a84826020860162000125565b91505092915050565b60008060408385031215620001bd57620001bc62000396565b5b600083015167ffffffffffffffff811115620001de57620001dd62000391565b5b620001ec8582860162000170565b925050602083015167ffffffffffffffff81111562000210576200020f62000391565b5b6200021e8582860162000170565b9150509250929050565b60006200023462000247565b9050620002428282620002f3565b919050565b6000604051905090565b600067ffffffffffffffff8211156200026f576200026e62000358565b5b6200027a826200039b565b9050602081019050919050565b60005b83811015620002a75780820151818401526020810190506200028a565b83811115620002b7576000848401525b50505050565b60006002820490506001821680620002d657607f821691505b60208210811415620002ed57620002ec62000329565b5b50919050565b620002fe826200039b565b810181811067ffffffffffffffff8211171562000320576200031f62000358565b5b80604052505050565b7f4e487b7100000000000000000000000000000000000000000000000000000000600052602260045260246000fd5b7f4e487b7100000000000000000000000000000000000000000000000000000000600052604160045260246000fd5b600080fd5b600080fd5b600080fd5b600080fd5b6000601f19601f8301169050919050565b6146a280620003bc6000396000f3fe608060405234801561001057600080fd5b506004361061021c5760003560e01c806382fcc73211610125578063b88d4fde116100ad578063c4c2e3641161007c578063c4c2e364146106d6578063c87b56dd14610706578063d00b0e7e14610736578063e32acc1a14610766578063e985e9c5146107965761021c565b8063b88d4fde14610664578063c04e743014610680578063c04fe9781461069c578063c29595c5146106ba5761021c565b806397ee7606116100f457806397ee7606146105c0578063a1ca9178146105de578063a22cb4651461060e578063aa4cdf2a1461062a578063b16060a61461065a5761021c565b806382fcc73214610526578063881de858146105565780638d3d25951461057257806395d89b41146105a25761021c565b806327a568b9116101a85780634be7adb5116101775780634be7adb5146104365780635d907da1146104665780636352211e1461049657806370a08231146104c657806371085cab146104f65761021c565b806327a568b91461039957806329b56f60146103cb57806342842e0e146103e9578063468d0c80146104055761021c565b8063109ac970116101ef578063109ac970146102bb578063131d44f2146102eb5780631ba44c4c1461031b5780631e9ac9f51461034d57806323b872dd1461037d5761021c565b806301ffc9a71461022157806306fdde0314610251578063081812fc1461026f578063095ea7b31461029f575b600080fd5b61023b60048036038101906102369190613511565b6107c6565b6040516102489190613ca1565b60405180910390f35b6102596108a8565b6040516102669190613cbc565b60405180910390f35b61028960048036038101906102849190613688565b61093a565b6040516102969190613c18565b60405180910390f35b6102b960048036038101906102b491906134d1565b610980565b005b6102d560048036038101906102d09190613688565b610a98565b6040516102e29190613c7f565b60405180910390f35b61030560048036038101906103009190613688565b610c08565b6040516103129190613c7f565b60405180910390f35b61033560048036038101906103309190613688565b610d78565b60405161034493929190613ed5565b60405180910390f35b6103676004803603810190610362919061356b565b610e2a565b6040516103749190613e8a565b60405180910390f35b6103976004803603810190610392919061334c565b610e9c565b005b6103b360048036038101906103ae9190613688565b610efc565b6040516103c293929190613cde565b60405180910390f35b6103d36110be565b6040516103e09190613c7f565b60405180910390f35b61040360048036038101906103fe919061334c565b6111f9565b005b61041f600480360381019061041a9190613688565b611219565b60405161042d929190613ea5565b60405180910390f35b610450600480360381019061044b919061379c565b6112c5565b60405161045d9190613c7f565b60405180910390f35b610480600480360381019061047b9190613688565b611457565b60405161048d9190613cbc565b60405180910390f35b6104b060048036038101906104ab9190613688565b6114ff565b6040516104bd9190613c18565b60405180910390f35b6104e060048036038101906104db91906132df565b611586565b6040516104ed9190613e8a565b60405180910390f35b610510600480360381019061050b919061362c565b61163e565b60405161051d9190613e8a565b60405180910390f35b610540600480360381019061053b91906137dc565b6116b7565b60405161054d9190613e8a565b60405180910390f35b610570600480360381019061056b9190613711565b611741565b005b61058c60048036038101906105879190613688565b61179c565b6040516105999190613cbc565b60405180910390f35b6105aa611844565b6040516105b79190613cbc565b60405180910390f35b6105c86118d6565b6040516105d59190613c7f565b60405180910390f35b6105f860048036038101906105f3919061356b565b611a11565b6040516106059190613e8a565b60405180910390f35b61062860048036038101906106239190613422565b611a83565b005b610644600480360381019061063f919061356b565b611a99565b6040516106519190613e8a565b60405180910390f35b610662611b21565b005b61067e6004803603810190610679919061339f565b611c9f565b005b61069a600480360381019061069591906136b5565b611d01565b005b6106a4611d30565b6040516106b19190613c7f565b60405180910390f35b6106d460048036038101906106cf91906136b5565b611e6b565b005b6106f060048036038101906106eb91906135b4565b611e9a565b6040516106fd9190613e8a565b60405180910390f35b610720600480360381019061071b9190613688565b611f7e565b60405161072d9190613cbc565b60405180910390f35b610750600480360381019061074b9190613462565b611fe6565b60405161075d9190613e8a565b60405180910390f35b610780600480360381019061077b9190613688565b61206c565b60405161078d9190613cbc565b60405180910390f35b6107b060048036038101906107ab919061330c565b612114565b6040516107bd9190613ca1565b60405180910390f35b60007f80ac58cd000000000000000000000000000000000000000000000000000000007bffffffffffffffffffffffffffffffffffffffffffffffffffffffff1916827bffffffffffffffffffffffffffffffffffffffffffffffffffffffff1916148061089157507f5b5e139f000000000000000000000000000000000000000000000000000000007bffffffffffffffffffffffffffffffffffffffffffffffffffffffff1916827bffffffffffffffffffffffffffffffffffffffffffffffffffffffff1916145b806108a157506108a0826121a8565b5b9050919050565b6060600080546108b790614187565b80601f01602080910402602001604051908101604052809291908181526020018280546108e390614187565b80156109305780601f1061090557610100808354040283529160200191610930565b820191906000526020600020905b81548152906001019060200180831161091357829003601f168201915b5050505050905090565b600061094582612212565b6004600083815260200190815260200160002060009054906101000a900473ffffffffffffffffffffffffffffffffffffffff169050919050565b600061098b826114ff565b90508073ffffffffffffffffffffffffffffffffffffffff168373ffffffffffffffffffffffffffffffffffffffff1614156109fc576040517f08c379a00000000000000000000000000000000000000000000000000000000081526004016109f390613e4a565b60405180910390fd5b8073ffffffffffffffffffffffffffffffffffffffff16610a1b61225d565b73ffffffffffffffffffffffffffffffffffffffff161480610a4a5750610a4981610a4461225d565b612114565b5b610a89576040517f08c379a0000000000000000000000000000000000000000000000000000000008152600401610a8090613e6a565b60405180910390fd5b610a938383612265565b505050565b6060600060075467ffffffffffffffff811115610ab857610ab76142ef565b5b604051908082528060200260200182016040528015610aeb57816020015b6060815260200190600190039081610ad65790505b509050600080600090505b600754811015610bfd5784600b6000838152602001908152602001600020600001541415610bea57600b60008281526020019081526020016000206001018054610b3f90614187565b80601f0160208091040260200160405190810160405280929190818152602001828054610b6b90614187565b8015610bb85780601f10610b8d57610100808354040283529160200191610bb8565b820191906000526020600020905b815481529060010190602001808311610b9b57829003601f168201915b5050505050838381518110610bd057610bcf6142c0565b5b60200260200101819052508180610be6906141ea565b9250505b8080610bf5906141ea565b915050610af6565b508192505050919050565b6060600060085467ffffffffffffffff811115610c2857610c276142ef565b5b604051908082528060200260200182016040528015610c5b57816020015b6060815260200190600190039081610c465790505b509050600080600090505b600854811015610d6d5784600c6000838152602001908152602001600020600001541415610d4c57600c60008281526020019081526020016000206001018054610caf90614187565b80601f0160208091040260200160405190810160405280929190818152602001828054610cdb90614187565b8015610d285780601f10610cfd57610100808354040283529160200191610d28565b820191906000526020600020905b815481529060010190602001808311610d0b57829003601f168201915b5050505050838381518110610d4057610d3f6142c0565b5b60200260200101819052505b8180610d57906141ea565b9250508080610d65906141ea565b915050610c66565b508192505050919050565b600d602052806000526040600020600091509050806000015490806001015490806002018054610da790614187565b80601f0160208091040260200160405190810160405280929190818152602001828054610dd390614187565b8015610e205780601f10610df557610100808354040283529160200191610e20565b820191906000526020600020905b815481529060010190602001808311610e0357829003601f168201915b5050505050905083565b600080600090505b600754811015610e91578280519060200120600b6000838152602001908152602001600020600101604051610e679190613bdd565b60405180910390201415610e7e5780915050610e97565b8080610e89906141ea565b915050610e32565b50600090505b919050565b610ead610ea761225d565b8261231e565b610eec576040517f08c379a0000000000000000000000000000000000000000000000000000000008152600401610ee390613d2a565b60405180910390fd5b610ef78383836123b3565b505050565b600a602052806000526040600020600091509050806000018054610f1f90614187565b80601f0160208091040260200160405190810160405280929190818152602001828054610f4b90614187565b8015610f985780601f10610f6d57610100808354040283529160200191610f98565b820191906000526020600020905b815481529060010190602001808311610f7b57829003601f168201915b505050505090806001018054610fad90614187565b80601f0160208091040260200160405190810160405280929190818152602001828054610fd990614187565b80156110265780601f10610ffb57610100808354040283529160200191611026565b820191906000526020600020905b81548152906001019060200180831161100957829003601f168201915b50505050509080600201805461103b90614187565b80601f016020809104026020016040519081016040528092919081815260200182805461106790614187565b80156110b45780601f10611089576101008083540402835291602001916110b4565b820191906000526020600020905b81548152906001019060200180831161109757829003601f168201915b5050505050905083565b6060600060075467ffffffffffffffff8111156110de576110dd6142ef565b5b60405190808252806020026020018201604052801561111157816020015b60608152602001906001900390816110fc5790505b50905060005b6007548110156111f157600b6000828152602001908152602001600020600101805461114290614187565b80601f016020809104026020016040519081016040528092919081815260200182805461116e90614187565b80156111bb5780601f10611190576101008083540402835291602001916111bb565b820191906000526020600020905b81548152906001019060200180831161119e57829003601f168201915b50505050508282815181106111d3576111d26142c0565b5b602002602001018190525080806111e9906141ea565b915050611117565b508091505090565b61121483838360405180602001604052806000815250611c9f565b505050565b600c60205280600052604060002060009150905080600001549080600101805461124290614187565b80601f016020809104026020016040519081016040528092919081815260200182805461126e90614187565b80156112bb5780601f10611290576101008083540402835291602001916112bb565b820191906000526020600020905b81548152906001019060200180831161129e57829003601f168201915b5050505050905082565b6060600060095467ffffffffffffffff8111156112e5576112e46142ef565b5b60405190808252806020026020018201604052801561131857816020015b60608152602001906001900390816113035790505b509050600080600090505b60095481101561144b5785600d600083815260200190815260200160002060000154148015611367575084600d600083815260200190815260200160002060010154145b1561142a57600d6000828152602001908152602001600020600201805461138d90614187565b80601f01602080910402602001604051908101604052809291908181526020018280546113b990614187565b80156114065780601f106113db57610100808354040283529160200191611406565b820191906000526020600020905b8154815290600101906020018083116113e957829003601f168201915b505050505083838151811061141e5761141d6142c0565b5b60200260200101819052505b8180611435906141ea565b9250508080611443906141ea565b915050611323565b50819250505092915050565b6060600a6000838152602001908152602001600020600101805461147a90614187565b80601f01602080910402602001604051908101604052809291908181526020018280546114a690614187565b80156114f35780601f106114c8576101008083540402835291602001916114f3565b820191906000526020600020905b8154815290600101906020018083116114d657829003601f168201915b50505050509050919050565b60008061150b836126ad565b9050600073ffffffffffffffffffffffffffffffffffffffff168173ffffffffffffffffffffffffffffffffffffffff16141561157d576040517f08c379a000000000000000000000000000000000000000000000000000000000815260040161157490613e2a565b60405180910390fd5b80915050919050565b60008073ffffffffffffffffffffffffffffffffffffffff168273ffffffffffffffffffffffffffffffffffffffff1614156115f7576040517f08c379a00000000000000000000000000000000000000000000000000000000081526004016115ee90613dea565b60405180910390fd5b600360008373ffffffffffffffffffffffffffffffffffffffff1673ffffffffffffffffffffffffffffffffffffffff168152602001908152602001600020549050919050565b6000604051806040016040528083815260200184815250600b600060075481526020019081526020016000206000820151816000015560208201518160010190805190602001906116909291906130b3565b50905050600760008154809291906116a7906141ea565b9190505550600754905092915050565b6000604051806060016040528085815260200184815260200183815250600d60006009548152602001908152602001600020600082015181600001556020820151816001015560408201518160020190805190602001906117199291906130b3565b5090505060096000815480929190611730906141ea565b919050555060095490509392505050565b81600a6000858152602001908152602001600020600001908051906020019061176b9291906130b3565b5080600a600085815260200190815260200160002060010190805190602001906117969291906130b3565b50505050565b6060600c600083815260200190815260200160002060010180546117bf90614187565b80601f01602080910402602001604051908101604052809291908181526020018280546117eb90614187565b80156118385780601f1061180d57610100808354040283529160200191611838565b820191906000526020600020905b81548152906001019060200180831161181b57829003601f168201915b50505050509050919050565b60606001805461185390614187565b80601f016020809104026020016040519081016040528092919081815260200182805461187f90614187565b80156118cc5780601f106118a1576101008083540402835291602001916118cc565b820191906000526020600020905b8154815290600101906020018083116118af57829003601f168201915b5050505050905090565b6060600060085467ffffffffffffffff8111156118f6576118f56142ef565b5b60405190808252806020026020018201604052801561192957816020015b60608152602001906001900390816119145790505b50905060005b600854811015611a0957600c6000828152602001908152602001600020600101805461195a90614187565b80601f016020809104026020016040519081016040528092919081815260200182805461198690614187565b80156119d35780601f106119a8576101008083540402835291602001916119d3565b820191906000526020600020905b8154815290600101906020018083116119b657829003601f168201915b50505050508282815181106119eb576119ea6142c0565b5b60200260200101819052508080611a01906141ea565b91505061192f565b508091505090565b600080600090505b600854811015611a78578280519060200120600c6000838152602001908152602001600020600101604051611a4e9190613bdd565b60405180910390201415611a655780915050611a7e565b8080611a70906141ea565b915050611a19565b50600090505b919050565b611a95611a8e61225d565b83836126ea565b5050565b600080600090505b600854811015611b16578280519060200120600c6000838152602001908152602001600020600101604051611ad69190613bdd565b60405180910390201415611b0357600c600082815260200190815260200160002060000154915050611b1c565b8080611b0e906141ea565b915050611aa1565b50600090505b919050565b600060068190555060006007819055506000600881905550600060098190555060005b600654811015611ba757600a600082815260200190815260200160002060008082016000611b729190613139565b600182016000611b829190613139565b600282016000611b929190613139565b50508080611b9f906141ea565b915050611b44565b5060005b600754811015611bf657600b6000828152602001908152602001600020600080820160009055600182016000611be19190613139565b50508080611bee906141ea565b915050611bab565b5060005b600854811015611c4557600c6000828152602001908152602001600020600080820160009055600182016000611c309190613139565b50508080611c3d906141ea565b915050611bfa565b5060005b600954811015611c9c57600d60008281526020019081526020016000206000808201600090556001820160009055600282016000611c879190613139565b50508080611c94906141ea565b915050611c49565b50565b611cb0611caa61225d565b8361231e565b611cef576040517f08c379a0000000000000000000000000000000000000000000000000000000008152600401611ce690613d2a565b60405180910390fd5b611cfb84848484612857565b50505050565b80600c60008481526020019081526020016000206001019080519060200190611d2b9291906130b3565b505050565b6060600060065467ffffffffffffffff811115611d5057611d4f6142ef565b5b604051908082528060200260200182016040528015611d8357816020015b6060815260200190600190039081611d6e5790505b50905060005b600654811015611e6357600a60008281526020019081526020016000206001018054611db490614187565b80601f0160208091040260200160405190810160405280929190818152602001828054611de090614187565b8015611e2d5780601f10611e0257610100808354040283529160200191611e2d565b820191906000526020600020905b815481529060010190602001808311611e1057829003601f168201915b5050505050828281518110611e4557611e446142c0565b5b60200260200101819052508080611e5b906141ea565b915050611d89565b508091505090565b80600b60008481526020019081526020016000206001019080519060200190611e959291906130b3565b505050565b600060405180606001604052808481526020018381526020016040518060400160405280600581526020017f46616c7365000000000000000000000000000000000000000000000000000000815250815250600a600060065481526020019081526020016000206000820151816000019080519060200190611f1d9291906130b3565b506020820151816001019080519060200190611f3a9291906130b3565b506040820151816002019080519060200190611f579291906130b3565b5090505060066000815480929190611f6e906141ea565b9190505550600654905092915050565b6060611f8982612212565b6000611f936128b3565b90506000815111611fb35760405180602001604052806000815250611fde565b80611fbd846128ca565b604051602001611fce929190613bf4565b6040516020818303038152906040525b915050919050565b6000611ff4846008546129a2565b604051806040016040528083815260200184815250600c600060085481526020019081526020016000206000820151816000015560208201518160010190805190602001906120449291906130b3565b509050506008600081548092919061205b906141ea565b919050555060085490509392505050565b6060600b6000838152602001908152602001600020600101805461208f90614187565b80601f01602080910402602001604051908101604052809291908181526020018280546120bb90614187565b80156121085780601f106120dd57610100808354040283529160200191612108565b820191906000526020600020905b8154815290600101906020018083116120eb57829003601f168201915b50505050509050919050565b6000600560008473ffffffffffffffffffffffffffffffffffffffff1673ffffffffffffffffffffffffffffffffffffffff16815260200190815260200160002060008373ffffffffffffffffffffffffffffffffffffffff1673ffffffffffffffffffffffffffffffffffffffff16815260200190815260200160002060009054906101000a900460ff16905092915050565b60007f01ffc9a7000000000000000000000000000000000000000000000000000000007bffffffffffffffffffffffffffffffffffffffffffffffffffffffff1916827bffffffffffffffffffffffffffffffffffffffffffffffffffffffff1916149050919050565b61221b816129c0565b61225a576040517f08c379a000000000000000000000000000000000000000000000000000000000815260040161225190613e2a565b60405180910390fd5b50565b600033905090565b816004600083815260200190815260200160002060006101000a81548173ffffffffffffffffffffffffffffffffffffffff021916908373ffffffffffffffffffffffffffffffffffffffff160217905550808273ffffffffffffffffffffffffffffffffffffffff166122d8836114ff565b73ffffffffffffffffffffffffffffffffffffffff167f8c5be1e5ebec7d5bd14f71427d1e84f3dd0314c0f7b2291e5b200ac8c7c3b92560405160405180910390a45050565b60008061232a836114ff565b90508073ffffffffffffffffffffffffffffffffffffffff168473ffffffffffffffffffffffffffffffffffffffff16148061236c575061236b8185612114565b5b806123aa57508373ffffffffffffffffffffffffffffffffffffffff166123928461093a565b73ffffffffffffffffffffffffffffffffffffffff16145b91505092915050565b8273ffffffffffffffffffffffffffffffffffffffff166123d3826114ff565b73ffffffffffffffffffffffffffffffffffffffff1614612429576040517f08c379a000000000000000000000000000000000000000000000000000000000815260040161242090613d6a565b60405180910390fd5b600073ffffffffffffffffffffffffffffffffffffffff168273ffffffffffffffffffffffffffffffffffffffff161415612499576040517f08c379a000000000000000000000000000000000000000000000000000000000815260040161249090613daa565b60405180910390fd5b6124a68383836001612a01565b8273ffffffffffffffffffffffffffffffffffffffff166124c6826114ff565b73ffffffffffffffffffffffffffffffffffffffff161461251c576040517f08c379a000000000000000000000000000000000000000000000000000000000815260040161251390613d6a565b60405180910390fd5b6004600082815260200190815260200160002060006101000a81549073ffffffffffffffffffffffffffffffffffffffff02191690556001600360008573ffffffffffffffffffffffffffffffffffffffff1673ffffffffffffffffffffffffffffffffffffffff168152602001908152602001600020600082825403925050819055506001600360008473ffffffffffffffffffffffffffffffffffffffff1673ffffffffffffffffffffffffffffffffffffffff16815260200190815260200160002060008282540192505081905550816002600083815260200190815260200160002060006101000a81548173ffffffffffffffffffffffffffffffffffffffff021916908373ffffffffffffffffffffffffffffffffffffffff160217905550808273ffffffffffffffffffffffffffffffffffffffff168473ffffffffffffffffffffffffffffffffffffffff167fddf252ad1be2c89b69c2b068fc378daa952ba7f163c4a11628f55a4df523b3ef60405160405180910390a46126a88383836001612b27565b505050565b60006002600083815260200190815260200160002060009054906101000a900473ffffffffffffffffffffffffffffffffffffffff169050919050565b8173ffffffffffffffffffffffffffffffffffffffff168373ffffffffffffffffffffffffffffffffffffffff161415612759576040517f08c379a000000000000000000000000000000000000000000000000000000000815260040161275090613dca565b60405180910390fd5b80600560008573ffffffffffffffffffffffffffffffffffffffff1673ffffffffffffffffffffffffffffffffffffffff16815260200190815260200160002060008473ffffffffffffffffffffffffffffffffffffffff1673ffffffffffffffffffffffffffffffffffffffff16815260200190815260200160002060006101000a81548160ff0219169083151502179055508173ffffffffffffffffffffffffffffffffffffffff168373ffffffffffffffffffffffffffffffffffffffff167f17307eab39ab6107e8899845ad3d59bd9653f200f220920489ca2b5937696c318360405161284a9190613ca1565b60405180910390a3505050565b6128628484846123b3565b61286e84848484612b2d565b6128ad576040517f08c379a00000000000000000000000000000000000000000000000000000000081526004016128a490613d4a565b60405180910390fd5b50505050565b606060405180602001604052806000815250905090565b6060600060016128d984612cc4565b01905060008167ffffffffffffffff8111156128f8576128f76142ef565b5b6040519080825280601f01601f19166020018201604052801561292a5781602001600182028036833780820191505090505b509050600082602001820190505b600115612997578080600190039150507f3031323334353637383961626364656600000000000000000000000000000000600a86061a8153600a858161298157612980614262565b5b049450600085141561299257612997565b612938565b819350505050919050565b6129bc828260405180602001604052806000815250612e17565b5050565b60008073ffffffffffffffffffffffffffffffffffffffff166129e2836126ad565b73ffffffffffffffffffffffffffffffffffffffff1614159050919050565b6001811115612b2157600073ffffffffffffffffffffffffffffffffffffffff168473ffffffffffffffffffffffffffffffffffffffff1614612a955780600360008673ffffffffffffffffffffffffffffffffffffffff1673ffffffffffffffffffffffffffffffffffffffff1681526020019081526020016000206000828254612a8d919061409d565b925050819055505b600073ffffffffffffffffffffffffffffffffffffffff168373ffffffffffffffffffffffffffffffffffffffff1614612b205780600360008573ffffffffffffffffffffffffffffffffffffffff1673ffffffffffffffffffffffffffffffffffffffff1681526020019081526020016000206000828254612b189190614047565b925050819055505b5b50505050565b50505050565b6000612b4e8473ffffffffffffffffffffffffffffffffffffffff16612e72565b15612cb7578373ffffffffffffffffffffffffffffffffffffffff1663150b7a02612b7761225d565b8786866040518563ffffffff1660e01b8152600401612b999493929190613c33565b602060405180830381600087803b158015612bb357600080fd5b505af1925050508015612be457506040513d601f19601f82011682018060405250810190612be1919061353e565b60015b612c67573d8060008114612c14576040519150601f19603f3d011682016040523d82523d6000602084013e612c19565b606091505b50600081511415612c5f576040517f08c379a0000000000000000000000000000000000000000000000000000000008152600401612c5690613d4a565b60405180910390fd5b805181602001fd5b63150b7a0260e01b7bffffffffffffffffffffffffffffffffffffffffffffffffffffffff1916817bffffffffffffffffffffffffffffffffffffffffffffffffffffffff191614915050612cbc565b600190505b949350505050565b600080600090507a184f03e93ff9f4daa797ed6e38ed64bf6a1f0100000000000000008310612d22577a184f03e93ff9f4daa797ed6e38ed64bf6a1f0100000000000000008381612d1857612d17614262565b5b0492506040810190505b6d04ee2d6d415b85acef81000000008310612d5f576d04ee2d6d415b85acef81000000008381612d5557612d54614262565b5b0492506020810190505b662386f26fc100008310612d8e57662386f26fc100008381612d8457612d83614262565b5b0492506010810190505b6305f5e1008310612db7576305f5e1008381612dad57612dac614262565b5b0492506008810190505b6127108310612ddc576127108381612dd257612dd1614262565b5b0492506004810190505b60648310612dff5760648381612df557612df4614262565b5b0492506002810190505b600a8310612e0e576001810190505b80915050919050565b612e218383612e95565b612e2e6000848484612b2d565b612e6d576040517f08c379a0000000000000000000000000000000000000000000000000000000008152600401612e6490613d4a565b60405180910390fd5b505050565b6000808273ffffffffffffffffffffffffffffffffffffffff163b119050919050565b600073ffffffffffffffffffffffffffffffffffffffff168273ffffffffffffffffffffffffffffffffffffffff161415612f05576040517f08c379a0000000000000000000000000000000000000000000000000000000008152600401612efc90613e0a565b60405180910390fd5b612f0e816129c0565b15612f4e576040517f08c379a0000000000000000000000000000000000000000000000000000000008152600401612f4590613d8a565b60405180910390fd5b612f5c600083836001612a01565b612f65816129c0565b15612fa5576040517f08c379a0000000000000000000000000000000000000000000000000000000008152600401612f9c90613d8a565b60405180910390fd5b6001600360008473ffffffffffffffffffffffffffffffffffffffff1673ffffffffffffffffffffffffffffffffffffffff16815260200190815260200160002060008282540192505081905550816002600083815260200190815260200160002060006101000a81548173ffffffffffffffffffffffffffffffffffffffff021916908373ffffffffffffffffffffffffffffffffffffffff160217905550808273ffffffffffffffffffffffffffffffffffffffff16600073ffffffffffffffffffffffffffffffffffffffff167fddf252ad1be2c89b69c2b068fc378daa952ba7f163c4a11628f55a4df523b3ef60405160405180910390a46130af600083836001612b27565b5050565b8280546130bf90614187565b90600052602060002090601f0160209004810192826130e15760008555613128565b82601f106130fa57805160ff1916838001178555613128565b82800160010185558215613128579182015b8281111561312757825182559160200191906001019061310c565b5b5090506131359190613179565b5090565b50805461314590614187565b6000825580601f106131575750613176565b601f0160209004906000526020600020908101906131759190613179565b5b50565b5b8082111561319257600081600090555060010161317a565b5090565b60006131a96131a484613f38565b613f13565b9050828152602081018484840111156131c5576131c4614323565b5b6131d0848285614145565b509392505050565b60006131eb6131e684613f69565b613f13565b90508281526020810184848401111561320757613206614323565b5b613212848285614145565b509392505050565b60008135905061322981614610565b92915050565b60008135905061323e81614627565b92915050565b6000813590506132538161463e565b92915050565b6000815190506132688161463e565b92915050565b600082601f8301126132835761328261431e565b5b8135613293848260208601613196565b91505092915050565b600082601f8301126132b1576132b061431e565b5b81356132c18482602086016131d8565b91505092915050565b6000813590506132d981614655565b92915050565b6000602082840312156132f5576132f461432d565b5b60006133038482850161321a565b91505092915050565b600080604083850312156133235761332261432d565b5b60006133318582860161321a565b92505060206133428582860161321a565b9150509250929050565b6000806000606084860312156133655761336461432d565b5b60006133738682870161321a565b93505060206133848682870161321a565b9250506040613395868287016132ca565b9150509250925092565b600080600080608085870312156133b9576133b861432d565b5b60006133c78782880161321a565b94505060206133d88782880161321a565b93505060406133e9878288016132ca565b925050606085013567ffffffffffffffff81111561340a57613409614328565b5b6134168782880161326e565b91505092959194509250565b600080604083850312156134395761343861432d565b5b60006134478582860161321a565b92505060206134588582860161322f565b9150509250929050565b60008060006060848603121561347b5761347a61432d565b5b60006134898682870161321a565b935050602084013567ffffffffffffffff8111156134aa576134a9614328565b5b6134b68682870161329c565b92505060406134c7868287016132ca565b9150509250925092565b600080604083850312156134e8576134e761432d565b5b60006134f68582860161321a565b9250506020613507858286016132ca565b9150509250929050565b6000602082840312156135275761352661432d565b5b600061353584828501613244565b91505092915050565b6000602082840312156135545761355361432d565b5b600061356284828501613259565b91505092915050565b6000602082840312156135815761358061432d565b5b600082013567ffffffffffffffff81111561359f5761359e614328565b5b6135ab8482850161329c565b91505092915050565b600080604083850312156135cb576135ca61432d565b5b600083013567ffffffffffffffff8111156135e9576135e8614328565b5b6135f58582860161329c565b925050602083013567ffffffffffffffff81111561361657613615614328565b5b6136228582860161329c565b9150509250929050565b600080604083850312156136435761364261432d565b5b600083013567ffffffffffffffff81111561366157613660614328565b5b61366d8582860161329c565b925050602061367e858286016132ca565b9150509250929050565b60006020828403121561369e5761369d61432d565b5b60006136ac848285016132ca565b91505092915050565b600080604083850312156136cc576136cb61432d565b5b60006136da858286016132ca565b925050602083013567ffffffffffffffff8111156136fb576136fa614328565b5b6137078582860161329c565b9150509250929050565b60008060006060848603121561372a5761372961432d565b5b6000613738868287016132ca565b935050602084013567ffffffffffffffff81111561375957613758614328565b5b6137658682870161329c565b925050604084013567ffffffffffffffff81111561378657613785614328565b5b6137928682870161329c565b9150509250925092565b600080604083850312156137b3576137b261432d565b5b60006137c1858286016132ca565b92505060206137d2858286016132ca565b9150509250929050565b6000806000606084860312156137f5576137f461432d565b5b6000613803868287016132ca565b9350506020613814868287016132ca565b925050604084013567ffffffffffffffff81111561383557613834614328565b5b6138418682870161329c565b9150509250925092565b600061385783836139aa565b905092915050565b613868816140d1565b82525050565b600061387982613fbf565b6138838185613fed565b93508360208202850161389585613f9a565b8060005b858110156138d157848403895281516138b2858261384b565b94506138bd83613fe0565b925060208a01995050600181019050613899565b50829750879550505050505092915050565b6138ec816140e3565b82525050565b60006138fd82613fca565b6139078185613ffe565b9350613917818560208601614154565b61392081614332565b840191505092915050565b6000815461393881614187565b613942818661400f565b9450600182166000811461395d576001811461396e576139a1565b60ff198316865281860193506139a1565b61397785613faa565b60005b838110156139995781548189015260018201915060208101905061397a565b838801955050505b50505092915050565b60006139b582613fd5565b6139bf818561401a565b93506139cf818560208601614154565b6139d881614332565b840191505092915050565b60006139ee82613fd5565b6139f8818561402b565b9350613a08818560208601614154565b613a1181614332565b840191505092915050565b6000613a2782613fd5565b613a31818561403c565b9350613a41818560208601614154565b80840191505092915050565b6000613a5a602d8361402b565b9150613a6582614343565b604082019050919050565b6000613a7d60328361402b565b9150613a8882614392565b604082019050919050565b6000613aa060258361402b565b9150613aab826143e1565b604082019050919050565b6000613ac3601c8361402b565b9150613ace82614430565b602082019050919050565b6000613ae660248361402b565b9150613af182614459565b604082019050919050565b6000613b0960198361402b565b9150613b14826144a8565b602082019050919050565b6000613b2c60298361402b565b9150613b37826144d1565b604082019050919050565b6000613b4f60208361402b565b9150613b5a82614520565b602082019050919050565b6000613b7260188361402b565b9150613b7d82614549565b602082019050919050565b6000613b9560218361402b565b9150613ba082614572565b604082019050919050565b6000613bb8603d8361402b565b9150613bc3826145c1565b604082019050919050565b613bd78161413b565b82525050565b6000613be9828461392b565b915081905092915050565b6000613c008285613a1c565b9150613c0c8284613a1c565b91508190509392505050565b6000602082019050613c2d600083018461385f565b92915050565b6000608082019050613c48600083018761385f565b613c55602083018661385f565b613c626040830185613bce565b8181036060830152613c7481846138f2565b905095945050505050565b60006020820190508181036000830152613c99818461386e565b905092915050565b6000602082019050613cb660008301846138e3565b92915050565b60006020820190508181036000830152613cd681846139e3565b905092915050565b60006060820190508181036000830152613cf881866139e3565b90508181036020830152613d0c81856139e3565b90508181036040830152613d2081846139e3565b9050949350505050565b60006020820190508181036000830152613d4381613a4d565b9050919050565b60006020820190508181036000830152613d6381613a70565b9050919050565b60006020820190508181036000830152613d8381613a93565b9050919050565b60006020820190508181036000830152613da381613ab6565b9050919050565b60006020820190508181036000830152613dc381613ad9565b9050919050565b60006020820190508181036000830152613de381613afc565b9050919050565b60006020820190508181036000830152613e0381613b1f565b9050919050565b60006020820190508181036000830152613e2381613b42565b9050919050565b60006020820190508181036000830152613e4381613b65565b9050919050565b60006020820190508181036000830152613e6381613b88565b9050919050565b60006020820190508181036000830152613e8381613bab565b9050919050565b6000602082019050613e9f6000830184613bce565b92915050565b6000604082019050613eba6000830185613bce565b8181036020830152613ecc81846139e3565b90509392505050565b6000606082019050613eea6000830186613bce565b613ef76020830185613bce565b8181036040830152613f0981846139e3565b9050949350505050565b6000613f1d613f2e565b9050613f2982826141b9565b919050565b6000604051905090565b600067ffffffffffffffff821115613f5357613f526142ef565b5b613f5c82614332565b9050602081019050919050565b600067ffffffffffffffff821115613f8457613f836142ef565b5b613f8d82614332565b9050602081019050919050565b6000819050602082019050919050565b60008190508160005260206000209050919050565b600081519050919050565b600081519050919050565b600081519050919050565b6000602082019050919050565b600082825260208201905092915050565b600082825260208201905092915050565b600081905092915050565b600082825260208201905092915050565b600082825260208201905092915050565b600081905092915050565b60006140528261413b565b915061405d8361413b565b9250827fffffffffffffffffffffffffffffffffffffffffffffffffffffffffffffffff0382111561409257614091614233565b5b828201905092915050565b60006140a88261413b565b91506140b38361413b565b9250828210156140c6576140c5614233565b5b828203905092915050565b60006140dc8261411b565b9050919050565b60008115159050919050565b60007fffffffff0000000000000000000000000000000000000000000000000000000082169050919050565b600073ffffffffffffffffffffffffffffffffffffffff82169050919050565b6000819050919050565b82818337600083830152505050565b60005b83811015614172578082015181840152602081019050614157565b83811115614181576000848401525b50505050565b6000600282049050600182168061419f57607f821691505b602082108114156141b3576141b2614291565b5b50919050565b6141c282614332565b810181811067ffffffffffffffff821117156141e1576141e06142ef565b5b80604052505050565b60006141f58261413b565b91507fffffffffffffffffffffffffffffffffffffffffffffffffffffffffffffffff82141561422857614227614233565b5b600182019050919050565b7f4e487b7100000000000000000000000000000000000000000000000000000000600052601160045260246000fd5b7f4e487b7100000000000000000000000000000000000000000000000000000000600052601260045260246000fd5b7f4e487b7100000000000000000000000000000000000000000000000000000000600052602260045260246000fd5b7f4e487b7100000000000000000000000000000000000000000000000000000000600052603260045260246000fd5b7f4e487b7100000000000000000000000000000000000000000000000000000000600052604160045260246000fd5b600080fd5b600080fd5b600080fd5b600080fd5b6000601f19601f8301169050919050565b7f4552433732313a2063616c6c6572206973206e6f7420746f6b656e206f776e6560008201527f72206f7220617070726f76656400000000000000000000000000000000000000602082015250565b7f4552433732313a207472616e7366657220746f206e6f6e20455243373231526560008201527f63656976657220696d706c656d656e7465720000000000000000000000000000602082015250565b7f4552433732313a207472616e736665722066726f6d20696e636f72726563742060008201527f6f776e6572000000000000000000000000000000000000000000000000000000602082015250565b7f4552433732313a20746f6b656e20616c7265616479206d696e74656400000000600082015250565b7f4552433732313a207472616e7366657220746f20746865207a65726f2061646460008201527f7265737300000000000000000000000000000000000000000000000000000000602082015250565b7f4552433732313a20617070726f766520746f2063616c6c657200000000000000600082015250565b7f4552433732313a2061646472657373207a65726f206973206e6f74206120766160008201527f6c6964206f776e65720000000000000000000000000000000000000000000000602082015250565b7f4552433732313a206d696e7420746f20746865207a65726f2061646472657373600082015250565b7f4552433732313a20696e76616c696420746f6b656e2049440000000000000000600082015250565b7f4552433732313a20617070726f76616c20746f2063757272656e74206f776e6560008201527f7200000000000000000000000000000000000000000000000000000000000000602082015250565b7f4552433732313a20617070726f76652063616c6c6572206973206e6f7420746f60008201527f6b656e206f776e6572206f7220617070726f76656420666f7220616c6c000000602082015250565b614619816140d1565b811461462457600080fd5b50565b614630816140e3565b811461463b57600080fd5b50565b614647816140ef565b811461465257600080fd5b50565b61465e8161413b565b811461466957600080fd5b5056fea264697066735822122063e2094feab09cc16daec3aea4d022d5b4aa52cd81e877fef01231987e9fee8164736f6c63430008060033",
  "linkReferences": {},
  "deployedLinkReferences": {}
}